{
	"src/Web3Checkout.sol": {
		"Web3Checkout": {
			"abi": [
				{
					"inputs": [
						{
							"internalType": "address",
							"name": "controller",
							"type": "address"
						},
						{
							"internalType": "uint256",
							"name": "fee",
							"type": "uint256"
						},
						{
							"internalType": "contract IWorldID",
							"name": "_worldId",
							"type": "address"
						},
						{
							"internalType": "string",
							"name": "_appId",
							"type": "string"
						},
						{
							"internalType": "string",
							"name": "_actionId",
							"type": "string"
						},
						{
							"internalType": "contract IERC20",
							"name": "_token",
							"type": "address"
						}
					],
					"stateMutability": "nonpayable",
					"type": "constructor"
				},
				{
					"inputs": [
						{
							"internalType": "bytes16",
							"name": "id",
							"type": "bytes16"
						},
						{
							"internalType": "bytes32",
							"name": "h",
							"type": "bytes32"
						},
						{
							"internalType": "uint256",
							"name": "price",
							"type": "uint256"
						},
						{
							"internalType": "uint256",
							"name": "purchase_limit",
							"type": "uint256"
						},
						{
							"internalType": "address",
							"name": "payee",
							"type": "address"
						}
					],
					"name": "addProduct",
					"outputs": [],
					"stateMutability": "nonpayable",
					"type": "function"
				},
				{
					"inputs": [
						{
							"internalType": "bytes16",
							"name": "id",
							"type": "bytes16"
						}
					],
					"name": "hashOf",
					"outputs": [
						{
							"internalType": "bytes32",
							"name": "",
							"type": "bytes32"
						}
					],
					"stateMutability": "view",
					"type": "function"
				},
				{
					"inputs": [
						{
							"internalType": "bytes16",
							"name": "id",
							"type": "bytes16"
						}
					],
					"name": "hashOfReview",
					"outputs": [
						{
							"internalType": "bytes32",
							"name": "",
							"type": "bytes32"
						}
					],
					"stateMutability": "view",
					"type": "function"
				},
				{
					"inputs": [
						{
							"internalType": "bytes16",
							"name": "id",
							"type": "bytes16"
						}
					],
					"name": "makePayment",
					"outputs": [],
					"stateMutability": "payable",
					"type": "function"
				},
				{
					"inputs": [
						{
							"internalType": "bytes16",
							"name": "id",
							"type": "bytes16"
						},
						{
							"internalType": "address",
							"name": "signal",
							"type": "address"
						},
						{
							"internalType": "uint256",
							"name": "root",
							"type": "uint256"
						},
						{
							"internalType": "uint256",
							"name": "nullifierHash",
							"type": "uint256"
						},
						{
							"internalType": "uint256[8]",
							"name": "proof",
							"type": "uint256[8]"
						}
					],
					"name": "makePaymentWorldId",
					"outputs": [],
					"stateMutability": "payable",
					"type": "function"
				},
				{
					"inputs": [
						{
							"internalType": "address payable",
							"name": "addr",
							"type": "address"
						}
					],
					"name": "payout",
					"outputs": [],
					"stateMutability": "nonpayable",
					"type": "function"
				},
				{
					"inputs": [
						{
							"internalType": "bytes16",
							"name": "id",
							"type": "bytes16"
						}
					],
					"name": "removeProduct",
					"outputs": [],
					"stateMutability": "nonpayable",
					"type": "function"
				},
				{
					"inputs": [
						{
							"internalType": "bytes16",
							"name": "product_id",
							"type": "bytes16"
						},
						{
							"internalType": "bytes16",
							"name": "id",
							"type": "bytes16"
						},
						{
							"internalType": "bytes32",
							"name": "h",
							"type": "bytes32"
						},
						{
							"internalType": "address",
							"name": "signal",
							"type": "address"
						},
						{
							"internalType": "uint256",
							"name": "root",
							"type": "uint256"
						},
						{
							"internalType": "uint256",
							"name": "nullifierHash",
							"type": "uint256"
						},
						{
							"internalType": "uint256[8]",
							"name": "proof",
							"type": "uint256[8]"
						}
					],
					"name": "submitReview",
					"outputs": [],
					"stateMutability": "nonpayable",
					"type": "function"
				},
				{
					"inputs": [
						{
							"internalType": "bytes16",
							"name": "id",
							"type": "bytes16"
						},
						{
							"internalType": "uint256",
							"name": "price",
							"type": "uint256"
						},
						{
							"internalType": "uint256",
							"name": "purchase_limit",
							"type": "uint256"
						},
						{
							"internalType": "address",
							"name": "payee",
							"type": "address"
						},
						{
							"internalType": "bytes32",
							"name": "new_h",
							"type": "bytes32"
						}
					],
					"name": "updateProduct",
					"outputs": [],
					"stateMutability": "nonpayable",
					"type": "function"
				}
			],
			"devdoc": {
				"kind": "dev",
				"methods": {},
				"version": 1
			},
			"evm": {
				"assembly": "    /* \"src/Web3Checkout.sol\":442:4777  contract Web3Checkout {... */\n  mstore(0x40, 0x0140)\n    /* \"src/Web3Checkout.sol\":1106:1107  1 */\n  0x01\n    /* \"src/Web3Checkout.sol\":1069:1107  uint256 internal immutable groupId = 1 */\n  0x0120\n  swap1\n  dup2\n  mstore\n  pop\n    /* \"src/Web3Checkout.sol\":1253:1658  constructor(... */\n  callvalue\n  dup1\n  iszero\n  tag_1\n  jumpi\n  0x00\n  dup1\n  revert\ntag_1:\n  pop\n  mload(0x40)\n  sub(codesize, bytecodeSize)\n  dup1\n  bytecodeSize\n  dup4\n  codecopy\n  dup2\n  dup2\n  add\n  0x40\n  mstore\n  dup2\n  add\n  swap1\n  tag_2\n  swap2\n  swap1\n  tag_3\n  jump\t// in\ntag_2:\n    /* \"src/Web3Checkout.sol\":1451:1461  controller */\n  dup6\n    /* \"src/Web3Checkout.sol\":1443:1461  owner = controller */\n  0xffffffffffffffffffffffffffffffffffffffff\n  and\n  0x80\n  dup2\n  0xffffffffffffffffffffffffffffffffffffffff\n  and\n  dup2\n  mstore\n  pop\n  pop\n    /* \"src/Web3Checkout.sol\":1485:1488  fee */\n  dup5\n    /* \"src/Web3Checkout.sol\":1471:1488  fee_percent = fee */\n  0xa0\n  dup2\n  dup2\n  mstore\n  pop\n  pop\n    /* \"src/Web3Checkout.sol\":1508:1516  _worldId */\n  dup4\n    /* \"src/Web3Checkout.sol\":1498:1516  worldId = _worldId */\n  0xffffffffffffffffffffffffffffffffffffffff\n  and\n  0xe0\n  dup2\n  0xffffffffffffffffffffffffffffffffffffffff\n  and\n  dup2\n  mstore\n  pop\n  pop\n    /* \"src/Web3Checkout.sol\":1546:1627  abi.encodePacked(abi.encodePacked(_appId).hashToField(), _actionId).hashToField() */\n  tag_6\n    /* \"src/Web3Checkout.sol\":1563:1601  abi.encodePacked(_appId).hashToField() */\n  tag_7\n    /* \"src/Web3Checkout.sol\":1580:1586  _appId */\n  dup5\n    /* \"src/Web3Checkout.sol\":1563:1587  abi.encodePacked(_appId) */\n  add(0x20, mload(0x40))\n  tag_8\n  swap2\n  swap1\n  tag_9\n  jump\t// in\ntag_8:\n  mload(0x40)\n  0x20\n  dup2\n  dup4\n  sub\n  sub\n  dup2\n  mstore\n  swap1\n  0x40\n  mstore\n    /* \"src/Web3Checkout.sol\":1563:1599  abi.encodePacked(_appId).hashToField */\n  shl(0x20, tag_10)\n    /* \"src/Web3Checkout.sol\":1563:1601  abi.encodePacked(_appId).hashToField() */\n  0x20\n  shr\n  jump\t// in\ntag_7:\n    /* \"src/Web3Checkout.sol\":1603:1612  _actionId */\n  dup4\n    /* \"src/Web3Checkout.sol\":1546:1613  abi.encodePacked(abi.encodePacked(_appId).hashToField(), _actionId) */\n  add(0x20, mload(0x40))\n  tag_11\n  swap3\n  swap2\n  swap1\n  tag_12\n  jump\t// in\ntag_11:\n  mload(0x40)\n  0x20\n  dup2\n  dup4\n  sub\n  sub\n  dup2\n  mstore\n  swap1\n  0x40\n  mstore\n    /* \"src/Web3Checkout.sol\":1546:1625  abi.encodePacked(abi.encodePacked(_appId).hashToField(), _actionId).hashToField */\n  shl(0x20, tag_10)\n    /* \"src/Web3Checkout.sol\":1546:1627  abi.encodePacked(abi.encodePacked(_appId).hashToField(), _actionId).hashToField() */\n  0x20\n  shr\n  jump\t// in\ntag_6:\n    /* \"src/Web3Checkout.sol\":1526:1627  externalNullifier = abi.encodePacked(abi.encodePacked(_appId).hashToField(), _actionId).hashToField() */\n  0x0100\n  dup2\n  dup2\n  mstore\n  pop\n  pop\n    /* \"src/Web3Checkout.sol\":1645:1651  _token */\n  dup1\n    /* \"src/Web3Checkout.sol\":1637:1651  token = _token */\n  0xffffffffffffffffffffffffffffffffffffffff\n  and\n  0xc0\n  dup2\n  0xffffffffffffffffffffffffffffffffffffffff\n  and\n  dup2\n  mstore\n  pop\n  pop\n    /* \"src/Web3Checkout.sol\":1253:1658  constructor(... */\n  pop\n  pop\n  pop\n  pop\n  pop\n  pop\n    /* \"src/Web3Checkout.sol\":442:4777  contract Web3Checkout {... */\n  jump(tag_13)\n    /* \"src/helpers/ByteHasher.sol\":302:447  function hashToField(bytes memory value) internal pure returns (uint256) {... */\ntag_10:\n    /* \"src/helpers/ByteHasher.sol\":366:373  uint256 */\n  0x00\n    /* \"src/helpers/ByteHasher.sol\":439:440  8 */\n  0x08\n    /* \"src/helpers/ByteHasher.sol\":427:432  value */\n  dup3\n    /* \"src/helpers/ByteHasher.sol\":410:433  abi.encodePacked(value) */\n  add(0x20, mload(0x40))\n  tag_15\n  swap2\n  swap1\n  tag_16\n  jump\t// in\ntag_15:\n  mload(0x40)\n  0x20\n  dup2\n  dup4\n  sub\n  sub\n  dup2\n  mstore\n  swap1\n  0x40\n  mstore\n    /* \"src/helpers/ByteHasher.sol\":400:434  keccak256(abi.encodePacked(value)) */\n  dup1\n  mload\n  swap1\n  0x20\n  add\n  keccak256\n    /* \"src/helpers/ByteHasher.sol\":392:435  uint256(keccak256(abi.encodePacked(value))) */\n  0x00\n  shr\n    /* \"src/helpers/ByteHasher.sol\":392:440  uint256(keccak256(abi.encodePacked(value))) >> 8 */\n  swap1\n  shr\n    /* \"src/helpers/ByteHasher.sol\":385:440  return uint256(keccak256(abi.encodePacked(value))) >> 8 */\n  swap1\n  pop\n    /* \"src/helpers/ByteHasher.sol\":302:447  function hashToField(bytes memory value) internal pure returns (uint256) {... */\n  swap2\n  swap1\n  pop\n  jump\t// out\n    /* \"#utility.yul\":7:82   */\ntag_17:\n    /* \"#utility.yul\":40:46   */\n  0x00\n    /* \"#utility.yul\":73:75   */\n  0x40\n    /* \"#utility.yul\":67:76   */\n  mload\n    /* \"#utility.yul\":57:76   */\n  swap1\n  pop\n    /* \"#utility.yul\":7:82   */\n  swap1\n  jump\t// out\n    /* \"#utility.yul\":88:205   */\ntag_18:\n    /* \"#utility.yul\":197:198   */\n  0x00\n    /* \"#utility.yul\":194:195   */\n  dup1\n    /* \"#utility.yul\":187:199   */\n  revert\n    /* \"#utility.yul\":211:328   */\ntag_19:\n    /* \"#utility.yul\":320:321   */\n  0x00\n    /* \"#utility.yul\":317:318   */\n  dup1\n    /* \"#utility.yul\":310:322   */\n  revert\n    /* \"#utility.yul\":334:460   */\ntag_20:\n    /* \"#utility.yul\":371:378   */\n  0x00\n    /* \"#utility.yul\":411:453   */\n  0xffffffffffffffffffffffffffffffffffffffff\n    /* \"#utility.yul\":404:409   */\n  dup3\n    /* \"#utility.yul\":400:454   */\n  and\n    /* \"#utility.yul\":389:454   */\n  swap1\n  pop\n    /* \"#utility.yul\":334:460   */\n  swap2\n  swap1\n  pop\n  jump\t// out\n    /* \"#utility.yul\":466:562   */\ntag_21:\n    /* \"#utility.yul\":503:510   */\n  0x00\n    /* \"#utility.yul\":532:556   */\n  tag_57\n    /* \"#utility.yul\":550:555   */\n  dup3\n    /* \"#utility.yul\":532:556   */\n  tag_20\n  jump\t// in\ntag_57:\n    /* \"#utility.yul\":521:556   */\n  swap1\n  pop\n    /* \"#utility.yul\":466:562   */\n  swap2\n  swap1\n  pop\n  jump\t// out\n    /* \"#utility.yul\":568:690   */\ntag_22:\n    /* \"#utility.yul\":641:665   */\n  tag_59\n    /* \"#utility.yul\":659:664   */\n  dup2\n    /* \"#utility.yul\":641:665   */\n  tag_21\n  jump\t// in\ntag_59:\n    /* \"#utility.yul\":634:639   */\n  dup2\n    /* \"#utility.yul\":631:666   */\n  eq\n    /* \"#utility.yul\":621:684   */\n  tag_60\n  jumpi\n    /* \"#utility.yul\":680:681   */\n  0x00\n    /* \"#utility.yul\":677:678   */\n  dup1\n    /* \"#utility.yul\":670:682   */\n  revert\n    /* \"#utility.yul\":621:684   */\ntag_60:\n    /* \"#utility.yul\":568:690   */\n  pop\n  jump\t// out\n    /* \"#utility.yul\":696:839   */\ntag_23:\n    /* \"#utility.yul\":753:758   */\n  0x00\n    /* \"#utility.yul\":784:790   */\n  dup2\n    /* \"#utility.yul\":778:791   */\n  mload\n    /* \"#utility.yul\":769:791   */\n  swap1\n  pop\n    /* \"#utility.yul\":800:833   */\n  tag_62\n    /* \"#utility.yul\":827:832   */\n  dup2\n    /* \"#utility.yul\":800:833   */\n  tag_22\n  jump\t// in\ntag_62:\n    /* \"#utility.yul\":696:839   */\n  swap3\n  swap2\n  pop\n  pop\n  jump\t// out\n    /* \"#utility.yul\":845:922   */\ntag_24:\n    /* \"#utility.yul\":882:889   */\n  0x00\n    /* \"#utility.yul\":911:916   */\n  dup2\n    /* \"#utility.yul\":900:916   */\n  swap1\n  pop\n    /* \"#utility.yul\":845:922   */\n  swap2\n  swap1\n  pop\n  jump\t// out\n    /* \"#utility.yul\":928:1050   */\ntag_25:\n    /* \"#utility.yul\":1001:1025   */\n  tag_65\n    /* \"#utility.yul\":1019:1024   */\n  dup2\n    /* \"#utility.yul\":1001:1025   */\n  tag_24\n  jump\t// in\ntag_65:\n    /* \"#utility.yul\":994:999   */\n  dup2\n    /* \"#utility.yul\":991:1026   */\n  eq\n    /* \"#utility.yul\":981:1044   */\n  tag_66\n  jumpi\n    /* \"#utility.yul\":1040:1041   */\n  0x00\n    /* \"#utility.yul\":1037:1038   */\n  dup1\n    /* \"#utility.yul\":1030:1042   */\n  revert\n    /* \"#utility.yul\":981:1044   */\ntag_66:\n    /* \"#utility.yul\":928:1050   */\n  pop\n  jump\t// out\n    /* \"#utility.yul\":1056:1199   */\ntag_26:\n    /* \"#utility.yul\":1113:1118   */\n  0x00\n    /* \"#utility.yul\":1144:1150   */\n  dup2\n    /* \"#utility.yul\":1138:1151   */\n  mload\n    /* \"#utility.yul\":1129:1151   */\n  swap1\n  pop\n    /* \"#utility.yul\":1160:1193   */\n  tag_68\n    /* \"#utility.yul\":1187:1192   */\n  dup2\n    /* \"#utility.yul\":1160:1193   */\n  tag_25\n  jump\t// in\ntag_68:\n    /* \"#utility.yul\":1056:1199   */\n  swap3\n  swap2\n  pop\n  pop\n  jump\t// out\n    /* \"#utility.yul\":1205:1317   */\ntag_27:\n    /* \"#utility.yul\":1258:1265   */\n  0x00\n    /* \"#utility.yul\":1287:1311   */\n  tag_70\n    /* \"#utility.yul\":1305:1310   */\n  dup3\n    /* \"#utility.yul\":1287:1311   */\n  tag_21\n  jump\t// in\ntag_70:\n    /* \"#utility.yul\":1276:1311   */\n  swap1\n  pop\n    /* \"#utility.yul\":1205:1317   */\n  swap2\n  swap1\n  pop\n  jump\t// out\n    /* \"#utility.yul\":1323:1477   */\ntag_28:\n    /* \"#utility.yul\":1412:1452   */\n  tag_72\n    /* \"#utility.yul\":1446:1451   */\n  dup2\n    /* \"#utility.yul\":1412:1452   */\n  tag_27\n  jump\t// in\ntag_72:\n    /* \"#utility.yul\":1405:1410   */\n  dup2\n    /* \"#utility.yul\":1402:1453   */\n  eq\n    /* \"#utility.yul\":1392:1471   */\n  tag_73\n  jumpi\n    /* \"#utility.yul\":1467:1468   */\n  0x00\n    /* \"#utility.yul\":1464:1465   */\n  dup1\n    /* \"#utility.yul\":1457:1469   */\n  revert\n    /* \"#utility.yul\":1392:1471   */\ntag_73:\n    /* \"#utility.yul\":1323:1477   */\n  pop\n  jump\t// out\n    /* \"#utility.yul\":1483:1658   */\ntag_29:\n    /* \"#utility.yul\":1556:1561   */\n  0x00\n    /* \"#utility.yul\":1587:1593   */\n  dup2\n    /* \"#utility.yul\":1581:1594   */\n  mload\n    /* \"#utility.yul\":1572:1594   */\n  swap1\n  pop\n    /* \"#utility.yul\":1603:1652   */\n  tag_75\n    /* \"#utility.yul\":1646:1651   */\n  dup2\n    /* \"#utility.yul\":1603:1652   */\n  tag_28\n  jump\t// in\ntag_75:\n    /* \"#utility.yul\":1483:1658   */\n  swap3\n  swap2\n  pop\n  pop\n  jump\t// out\n    /* \"#utility.yul\":1664:1781   */\ntag_30:\n    /* \"#utility.yul\":1773:1774   */\n  0x00\n    /* \"#utility.yul\":1770:1771   */\n  dup1\n    /* \"#utility.yul\":1763:1775   */\n  revert\n    /* \"#utility.yul\":1787:1904   */\ntag_31:\n    /* \"#utility.yul\":1896:1897   */\n  0x00\n    /* \"#utility.yul\":1893:1894   */\n  dup1\n    /* \"#utility.yul\":1886:1898   */\n  revert\n    /* \"#utility.yul\":1910:2012   */\ntag_32:\n    /* \"#utility.yul\":1951:1957   */\n  0x00\n    /* \"#utility.yul\":2002:2004   */\n  0x1f\n    /* \"#utility.yul\":1998:2005   */\n  not\n    /* \"#utility.yul\":1993:1995   */\n  0x1f\n    /* \"#utility.yul\":1986:1991   */\n  dup4\n    /* \"#utility.yul\":1982:1996   */\n  add\n    /* \"#utility.yul\":1978:2006   */\n  and\n    /* \"#utility.yul\":1968:2006   */\n  swap1\n  pop\n    /* \"#utility.yul\":1910:2012   */\n  swap2\n  swap1\n  pop\n  jump\t// out\n    /* \"#utility.yul\":2018:2198   */\ntag_33:\n    /* \"#utility.yul\":2066:2143   */\n  0x4e487b7100000000000000000000000000000000000000000000000000000000\n    /* \"#utility.yul\":2063:2064   */\n  0x00\n    /* \"#utility.yul\":2056:2144   */\n  mstore\n    /* \"#utility.yul\":2163:2167   */\n  0x41\n    /* \"#utility.yul\":2160:2161   */\n  0x04\n    /* \"#utility.yul\":2153:2168   */\n  mstore\n    /* \"#utility.yul\":2187:2191   */\n  0x24\n    /* \"#utility.yul\":2184:2185   */\n  0x00\n    /* \"#utility.yul\":2177:2192   */\n  revert\n    /* \"#utility.yul\":2204:2485   */\ntag_34:\n    /* \"#utility.yul\":2287:2314   */\n  tag_81\n    /* \"#utility.yul\":2309:2313   */\n  dup3\n    /* \"#utility.yul\":2287:2314   */\n  tag_32\n  jump\t// in\ntag_81:\n    /* \"#utility.yul\":2279:2285   */\n  dup2\n    /* \"#utility.yul\":2275:2315   */\n  add\n    /* \"#utility.yul\":2417:2423   */\n  dup2\n    /* \"#utility.yul\":2405:2415   */\n  dup2\n    /* \"#utility.yul\":2402:2424   */\n  lt\n    /* \"#utility.yul\":2381:2399   */\n  0xffffffffffffffff\n    /* \"#utility.yul\":2369:2379   */\n  dup3\n    /* \"#utility.yul\":2366:2400   */\n  gt\n    /* \"#utility.yul\":2363:2425   */\n  or\n    /* \"#utility.yul\":2360:2448   */\n  iszero\n  tag_82\n  jumpi\n    /* \"#utility.yul\":2428:2446   */\n  tag_83\n  tag_33\n  jump\t// in\ntag_83:\n    /* \"#utility.yul\":2360:2448   */\ntag_82:\n    /* \"#utility.yul\":2468:2478   */\n  dup1\n    /* \"#utility.yul\":2464:2466   */\n  0x40\n    /* \"#utility.yul\":2457:2479   */\n  mstore\n    /* \"#utility.yul\":2247:2485   */\n  pop\n    /* \"#utility.yul\":2204:2485   */\n  pop\n  pop\n  jump\t// out\n    /* \"#utility.yul\":2491:2620   */\ntag_35:\n    /* \"#utility.yul\":2525:2531   */\n  0x00\n    /* \"#utility.yul\":2552:2572   */\n  tag_85\n  tag_17\n  jump\t// in\ntag_85:\n    /* \"#utility.yul\":2542:2572   */\n  swap1\n  pop\n    /* \"#utility.yul\":2581:2614   */\n  tag_86\n    /* \"#utility.yul\":2609:2613   */\n  dup3\n    /* \"#utility.yul\":2601:2607   */\n  dup3\n    /* \"#utility.yul\":2581:2614   */\n  tag_34\n  jump\t// in\ntag_86:\n    /* \"#utility.yul\":2491:2620   */\n  swap2\n  swap1\n  pop\n  jump\t// out\n    /* \"#utility.yul\":2626:2934   */\ntag_36:\n    /* \"#utility.yul\":2688:2692   */\n  0x00\n    /* \"#utility.yul\":2778:2796   */\n  0xffffffffffffffff\n    /* \"#utility.yul\":2770:2776   */\n  dup3\n    /* \"#utility.yul\":2767:2797   */\n  gt\n    /* \"#utility.yul\":2764:2820   */\n  iszero\n  tag_88\n  jumpi\n    /* \"#utility.yul\":2800:2818   */\n  tag_89\n  tag_33\n  jump\t// in\ntag_89:\n    /* \"#utility.yul\":2764:2820   */\ntag_88:\n    /* \"#utility.yul\":2838:2867   */\n  tag_90\n    /* \"#utility.yul\":2860:2866   */\n  dup3\n    /* \"#utility.yul\":2838:2867   */\n  tag_32\n  jump\t// in\ntag_90:\n    /* \"#utility.yul\":2830:2867   */\n  swap1\n  pop\n    /* \"#utility.yul\":2922:2926   */\n  0x20\n    /* \"#utility.yul\":2916:2920   */\n  dup2\n    /* \"#utility.yul\":2912:2927   */\n  add\n    /* \"#utility.yul\":2904:2927   */\n  swap1\n  pop\n    /* \"#utility.yul\":2626:2934   */\n  swap2\n  swap1\n  pop\n  jump\t// out\n    /* \"#utility.yul\":2940:3079   */\ntag_37:\n    /* \"#utility.yul\":3029:3035   */\n  dup3\n    /* \"#utility.yul\":3024:3027   */\n  dup2\n    /* \"#utility.yul\":3019:3022   */\n  dup4\n    /* \"#utility.yul\":3013:3036   */\n  mcopy\n    /* \"#utility.yul\":3070:3071   */\n  0x00\n    /* \"#utility.yul\":3061:3067   */\n  dup4\n    /* \"#utility.yul\":3056:3059   */\n  dup4\n    /* \"#utility.yul\":3052:3068   */\n  add\n    /* \"#utility.yul\":3045:3072   */\n  mstore\n    /* \"#utility.yul\":2940:3079   */\n  pop\n  pop\n  pop\n  jump\t// out\n    /* \"#utility.yul\":3085:3519   */\ntag_38:\n    /* \"#utility.yul\":3174:3179   */\n  0x00\n    /* \"#utility.yul\":3199:3265   */\n  tag_93\n    /* \"#utility.yul\":3215:3264   */\n  tag_94\n    /* \"#utility.yul\":3257:3263   */\n  dup5\n    /* \"#utility.yul\":3215:3264   */\n  tag_36\n  jump\t// in\ntag_94:\n    /* \"#utility.yul\":3199:3265   */\n  tag_35\n  jump\t// in\ntag_93:\n    /* \"#utility.yul\":3190:3265   */\n  swap1\n  pop\n    /* \"#utility.yul\":3288:3294   */\n  dup3\n    /* \"#utility.yul\":3281:3286   */\n  dup2\n    /* \"#utility.yul\":3274:3295   */\n  mstore\n    /* \"#utility.yul\":3326:3330   */\n  0x20\n    /* \"#utility.yul\":3319:3324   */\n  dup2\n    /* \"#utility.yul\":3315:3331   */\n  add\n    /* \"#utility.yul\":3364:3367   */\n  dup5\n    /* \"#utility.yul\":3355:3361   */\n  dup5\n    /* \"#utility.yul\":3350:3353   */\n  dup5\n    /* \"#utility.yul\":3346:3362   */\n  add\n    /* \"#utility.yul\":3343:3368   */\n  gt\n    /* \"#utility.yul\":3340:3452   */\n  iszero\n  tag_95\n  jumpi\n    /* \"#utility.yul\":3371:3450   */\n  tag_96\n  tag_31\n  jump\t// in\ntag_96:\n    /* \"#utility.yul\":3340:3452   */\ntag_95:\n    /* \"#utility.yul\":3461:3513   */\n  tag_97\n    /* \"#utility.yul\":3506:3512   */\n  dup5\n    /* \"#utility.yul\":3501:3504   */\n  dup3\n    /* \"#utility.yul\":3496:3499   */\n  dup6\n    /* \"#utility.yul\":3461:3513   */\n  tag_37\n  jump\t// in\ntag_97:\n    /* \"#utility.yul\":3180:3519   */\n  pop\n    /* \"#utility.yul\":3085:3519   */\n  swap4\n  swap3\n  pop\n  pop\n  pop\n  jump\t// out\n    /* \"#utility.yul\":3539:3894   */\ntag_39:\n    /* \"#utility.yul\":3606:3611   */\n  0x00\n    /* \"#utility.yul\":3655:3658   */\n  dup3\n    /* \"#utility.yul\":3648:3652   */\n  0x1f\n    /* \"#utility.yul\":3640:3646   */\n  dup4\n    /* \"#utility.yul\":3636:3653   */\n  add\n    /* \"#utility.yul\":3632:3659   */\n  slt\n    /* \"#utility.yul\":3622:3744   */\n  tag_99\n  jumpi\n    /* \"#utility.yul\":3663:3742   */\n  tag_100\n  tag_30\n  jump\t// in\ntag_100:\n    /* \"#utility.yul\":3622:3744   */\ntag_99:\n    /* \"#utility.yul\":3773:3779   */\n  dup2\n    /* \"#utility.yul\":3767:3780   */\n  mload\n    /* \"#utility.yul\":3798:3888   */\n  tag_101\n    /* \"#utility.yul\":3884:3887   */\n  dup5\n    /* \"#utility.yul\":3876:3882   */\n  dup3\n    /* \"#utility.yul\":3869:3873   */\n  0x20\n    /* \"#utility.yul\":3861:3867   */\n  dup7\n    /* \"#utility.yul\":3857:3874   */\n  add\n    /* \"#utility.yul\":3798:3888   */\n  tag_38\n  jump\t// in\ntag_101:\n    /* \"#utility.yul\":3789:3888   */\n  swap2\n  pop\n    /* \"#utility.yul\":3612:3894   */\n  pop\n    /* \"#utility.yul\":3539:3894   */\n  swap3\n  swap2\n  pop\n  pop\n  jump\t// out\n    /* \"#utility.yul\":3900:4010   */\ntag_40:\n    /* \"#utility.yul\":3951:3958   */\n  0x00\n    /* \"#utility.yul\":3980:4004   */\n  tag_103\n    /* \"#utility.yul\":3998:4003   */\n  dup3\n    /* \"#utility.yul\":3980:4004   */\n  tag_21\n  jump\t// in\ntag_103:\n    /* \"#utility.yul\":3969:4004   */\n  swap1\n  pop\n    /* \"#utility.yul\":3900:4010   */\n  swap2\n  swap1\n  pop\n  jump\t// out\n    /* \"#utility.yul\":4016:4166   */\ntag_41:\n    /* \"#utility.yul\":4103:4141   */\n  tag_105\n    /* \"#utility.yul\":4135:4140   */\n  dup2\n    /* \"#utility.yul\":4103:4141   */\n  tag_40\n  jump\t// in\ntag_105:\n    /* \"#utility.yul\":4096:4101   */\n  dup2\n    /* \"#utility.yul\":4093:4142   */\n  eq\n    /* \"#utility.yul\":4083:4160   */\n  tag_106\n  jumpi\n    /* \"#utility.yul\":4156:4157   */\n  0x00\n    /* \"#utility.yul\":4153:4154   */\n  dup1\n    /* \"#utility.yul\":4146:4158   */\n  revert\n    /* \"#utility.yul\":4083:4160   */\ntag_106:\n    /* \"#utility.yul\":4016:4166   */\n  pop\n  jump\t// out\n    /* \"#utility.yul\":4172:4343   */\ntag_42:\n    /* \"#utility.yul\":4243:4248   */\n  0x00\n    /* \"#utility.yul\":4274:4280   */\n  dup2\n    /* \"#utility.yul\":4268:4281   */\n  mload\n    /* \"#utility.yul\":4259:4281   */\n  swap1\n  pop\n    /* \"#utility.yul\":4290:4337   */\n  tag_108\n    /* \"#utility.yul\":4331:4336   */\n  dup2\n    /* \"#utility.yul\":4290:4337   */\n  tag_41\n  jump\t// in\ntag_108:\n    /* \"#utility.yul\":4172:4343   */\n  swap3\n  swap2\n  pop\n  pop\n  jump\t// out\n    /* \"#utility.yul\":4349:5889   */\ntag_3:\n    /* \"#utility.yul\":4514:4520   */\n  0x00\n    /* \"#utility.yul\":4522:4528   */\n  dup1\n    /* \"#utility.yul\":4530:4536   */\n  0x00\n    /* \"#utility.yul\":4538:4544   */\n  dup1\n    /* \"#utility.yul\":4546:4552   */\n  0x00\n    /* \"#utility.yul\":4554:4560   */\n  dup1\n    /* \"#utility.yul\":4603:4606   */\n  0xc0\n    /* \"#utility.yul\":4591:4600   */\n  dup8\n    /* \"#utility.yul\":4582:4589   */\n  dup10\n    /* \"#utility.yul\":4578:4601   */\n  sub\n    /* \"#utility.yul\":4574:4607   */\n  slt\n    /* \"#utility.yul\":4571:4691   */\n  iszero\n  tag_110\n  jumpi\n    /* \"#utility.yul\":4610:4689   */\n  tag_111\n  tag_18\n  jump\t// in\ntag_111:\n    /* \"#utility.yul\":4571:4691   */\ntag_110:\n    /* \"#utility.yul\":4730:4731   */\n  0x00\n    /* \"#utility.yul\":4755:4819   */\n  tag_112\n    /* \"#utility.yul\":4811:4818   */\n  dup10\n    /* \"#utility.yul\":4802:4808   */\n  dup3\n    /* \"#utility.yul\":4791:4800   */\n  dup11\n    /* \"#utility.yul\":4787:4809   */\n  add\n    /* \"#utility.yul\":4755:4819   */\n  tag_23\n  jump\t// in\ntag_112:\n    /* \"#utility.yul\":4745:4819   */\n  swap7\n  pop\n    /* \"#utility.yul\":4701:4829   */\n  pop\n    /* \"#utility.yul\":4868:4870   */\n  0x20\n    /* \"#utility.yul\":4894:4958   */\n  tag_113\n    /* \"#utility.yul\":4950:4957   */\n  dup10\n    /* \"#utility.yul\":4941:4947   */\n  dup3\n    /* \"#utility.yul\":4930:4939   */\n  dup11\n    /* \"#utility.yul\":4926:4948   */\n  add\n    /* \"#utility.yul\":4894:4958   */\n  tag_26\n  jump\t// in\ntag_113:\n    /* \"#utility.yul\":4884:4958   */\n  swap6\n  pop\n    /* \"#utility.yul\":4839:4968   */\n  pop\n    /* \"#utility.yul\":5007:5009   */\n  0x40\n    /* \"#utility.yul\":5033:5113   */\n  tag_114\n    /* \"#utility.yul\":5105:5112   */\n  dup10\n    /* \"#utility.yul\":5096:5102   */\n  dup3\n    /* \"#utility.yul\":5085:5094   */\n  dup11\n    /* \"#utility.yul\":5081:5103   */\n  add\n    /* \"#utility.yul\":5033:5113   */\n  tag_29\n  jump\t// in\ntag_114:\n    /* \"#utility.yul\":5023:5113   */\n  swap5\n  pop\n    /* \"#utility.yul\":4978:5123   */\n  pop\n    /* \"#utility.yul\":5183:5185   */\n  0x60\n    /* \"#utility.yul\":5172:5181   */\n  dup8\n    /* \"#utility.yul\":5168:5186   */\n  add\n    /* \"#utility.yul\":5162:5187   */\n  mload\n    /* \"#utility.yul\":5214:5232   */\n  0xffffffffffffffff\n    /* \"#utility.yul\":5206:5212   */\n  dup2\n    /* \"#utility.yul\":5203:5233   */\n  gt\n    /* \"#utility.yul\":5200:5317   */\n  iszero\n  tag_115\n  jumpi\n    /* \"#utility.yul\":5236:5315   */\n  tag_116\n  tag_19\n  jump\t// in\ntag_116:\n    /* \"#utility.yul\":5200:5317   */\ntag_115:\n    /* \"#utility.yul\":5341:5415   */\n  tag_117\n    /* \"#utility.yul\":5407:5414   */\n  dup10\n    /* \"#utility.yul\":5398:5404   */\n  dup3\n    /* \"#utility.yul\":5387:5396   */\n  dup11\n    /* \"#utility.yul\":5383:5405   */\n  add\n    /* \"#utility.yul\":5341:5415   */\n  tag_39\n  jump\t// in\ntag_117:\n    /* \"#utility.yul\":5331:5415   */\n  swap4\n  pop\n    /* \"#utility.yul\":5133:5425   */\n  pop\n    /* \"#utility.yul\":5485:5488   */\n  0x80\n    /* \"#utility.yul\":5474:5483   */\n  dup8\n    /* \"#utility.yul\":5470:5489   */\n  add\n    /* \"#utility.yul\":5464:5490   */\n  mload\n    /* \"#utility.yul\":5517:5535   */\n  0xffffffffffffffff\n    /* \"#utility.yul\":5509:5515   */\n  dup2\n    /* \"#utility.yul\":5506:5536   */\n  gt\n    /* \"#utility.yul\":5503:5620   */\n  iszero\n  tag_118\n  jumpi\n    /* \"#utility.yul\":5539:5618   */\n  tag_119\n  tag_19\n  jump\t// in\ntag_119:\n    /* \"#utility.yul\":5503:5620   */\ntag_118:\n    /* \"#utility.yul\":5644:5718   */\n  tag_120\n    /* \"#utility.yul\":5710:5717   */\n  dup10\n    /* \"#utility.yul\":5701:5707   */\n  dup3\n    /* \"#utility.yul\":5690:5699   */\n  dup11\n    /* \"#utility.yul\":5686:5708   */\n  add\n    /* \"#utility.yul\":5644:5718   */\n  tag_39\n  jump\t// in\ntag_120:\n    /* \"#utility.yul\":5634:5718   */\n  swap3\n  pop\n    /* \"#utility.yul\":5435:5728   */\n  pop\n    /* \"#utility.yul\":5767:5770   */\n  0xa0\n    /* \"#utility.yul\":5794:5872   */\n  tag_121\n    /* \"#utility.yul\":5864:5871   */\n  dup10\n    /* \"#utility.yul\":5855:5861   */\n  dup3\n    /* \"#utility.yul\":5844:5853   */\n  dup11\n    /* \"#utility.yul\":5840:5862   */\n  add\n    /* \"#utility.yul\":5794:5872   */\n  tag_42\n  jump\t// in\ntag_121:\n    /* \"#utility.yul\":5784:5872   */\n  swap2\n  pop\n    /* \"#utility.yul\":5738:5882   */\n  pop\n    /* \"#utility.yul\":4349:5889   */\n  swap3\n  swap6\n  pop\n  swap3\n  swap6\n  pop\n  swap3\n  swap6\n  jump\t// out\n    /* \"#utility.yul\":5895:5994   */\ntag_43:\n    /* \"#utility.yul\":5947:5953   */\n  0x00\n    /* \"#utility.yul\":5981:5986   */\n  dup2\n    /* \"#utility.yul\":5975:5987   */\n  mload\n    /* \"#utility.yul\":5965:5987   */\n  swap1\n  pop\n    /* \"#utility.yul\":5895:5994   */\n  swap2\n  swap1\n  pop\n  jump\t// out\n    /* \"#utility.yul\":6000:6148   */\ntag_44:\n    /* \"#utility.yul\":6102:6113   */\n  0x00\n    /* \"#utility.yul\":6139:6142   */\n  dup2\n    /* \"#utility.yul\":6124:6142   */\n  swap1\n  pop\n    /* \"#utility.yul\":6000:6148   */\n  swap3\n  swap2\n  pop\n  pop\n  jump\t// out\n    /* \"#utility.yul\":6154:6544   */\ntag_45:\n    /* \"#utility.yul\":6260:6263   */\n  0x00\n    /* \"#utility.yul\":6288:6327   */\n  tag_125\n    /* \"#utility.yul\":6321:6326   */\n  dup3\n    /* \"#utility.yul\":6288:6327   */\n  tag_43\n  jump\t// in\ntag_125:\n    /* \"#utility.yul\":6343:6432   */\n  tag_126\n    /* \"#utility.yul\":6425:6431   */\n  dup2\n    /* \"#utility.yul\":6420:6423   */\n  dup6\n    /* \"#utility.yul\":6343:6432   */\n  tag_44\n  jump\t// in\ntag_126:\n    /* \"#utility.yul\":6336:6432   */\n  swap4\n  pop\n    /* \"#utility.yul\":6441:6506   */\n  tag_127\n    /* \"#utility.yul\":6499:6505   */\n  dup2\n    /* \"#utility.yul\":6494:6497   */\n  dup6\n    /* \"#utility.yul\":6487:6491   */\n  0x20\n    /* \"#utility.yul\":6480:6485   */\n  dup7\n    /* \"#utility.yul\":6476:6492   */\n  add\n    /* \"#utility.yul\":6441:6506   */\n  tag_37\n  jump\t// in\ntag_127:\n    /* \"#utility.yul\":6531:6537   */\n  dup1\n    /* \"#utility.yul\":6526:6529   */\n  dup5\n    /* \"#utility.yul\":6522:6538   */\n  add\n    /* \"#utility.yul\":6515:6538   */\n  swap2\n  pop\n    /* \"#utility.yul\":6264:6544   */\n  pop\n    /* \"#utility.yul\":6154:6544   */\n  swap3\n  swap2\n  pop\n  pop\n  jump\t// out\n    /* \"#utility.yul\":6550:6825   */\ntag_9:\n    /* \"#utility.yul\":6682:6685   */\n  0x00\n    /* \"#utility.yul\":6704:6799   */\n  tag_129\n    /* \"#utility.yul\":6795:6798   */\n  dup3\n    /* \"#utility.yul\":6786:6792   */\n  dup5\n    /* \"#utility.yul\":6704:6799   */\n  tag_45\n  jump\t// in\ntag_129:\n    /* \"#utility.yul\":6697:6799   */\n  swap2\n  pop\n    /* \"#utility.yul\":6816:6819   */\n  dup2\n    /* \"#utility.yul\":6809:6819   */\n  swap1\n  pop\n    /* \"#utility.yul\":6550:6825   */\n  swap3\n  swap2\n  pop\n  pop\n  jump\t// out\n    /* \"#utility.yul\":6831:6910   */\ntag_46:\n    /* \"#utility.yul\":6870:6877   */\n  0x00\n    /* \"#utility.yul\":6899:6904   */\n  dup2\n    /* \"#utility.yul\":6888:6904   */\n  swap1\n  pop\n    /* \"#utility.yul\":6831:6910   */\n  swap2\n  swap1\n  pop\n  jump\t// out\n    /* \"#utility.yul\":6916:7073   */\ntag_47:\n    /* \"#utility.yul\":7021:7066   */\n  tag_132\n    /* \"#utility.yul\":7041:7065   */\n  tag_133\n    /* \"#utility.yul\":7059:7064   */\n  dup3\n    /* \"#utility.yul\":7041:7065   */\n  tag_24\n  jump\t// in\ntag_133:\n    /* \"#utility.yul\":7021:7066   */\n  tag_46\n  jump\t// in\ntag_132:\n    /* \"#utility.yul\":7016:7019   */\n  dup3\n    /* \"#utility.yul\":7009:7067   */\n  mstore\n    /* \"#utility.yul\":6916:7073   */\n  pop\n  pop\n  jump\t// out\n    /* \"#utility.yul\":7079:7495   */\ntag_12:\n    /* \"#utility.yul\":7239:7242   */\n  0x00\n    /* \"#utility.yul\":7254:7329   */\n  tag_135\n    /* \"#utility.yul\":7325:7328   */\n  dup3\n    /* \"#utility.yul\":7316:7322   */\n  dup6\n    /* \"#utility.yul\":7254:7329   */\n  tag_47\n  jump\t// in\ntag_135:\n    /* \"#utility.yul\":7354:7356   */\n  0x20\n    /* \"#utility.yul\":7349:7352   */\n  dup3\n    /* \"#utility.yul\":7345:7357   */\n  add\n    /* \"#utility.yul\":7338:7357   */\n  swap2\n  pop\n    /* \"#utility.yul\":7374:7469   */\n  tag_136\n    /* \"#utility.yul\":7465:7468   */\n  dup3\n    /* \"#utility.yul\":7456:7462   */\n  dup5\n    /* \"#utility.yul\":7374:7469   */\n  tag_45\n  jump\t// in\ntag_136:\n    /* \"#utility.yul\":7367:7469   */\n  swap2\n  pop\n    /* \"#utility.yul\":7486:7489   */\n  dup2\n    /* \"#utility.yul\":7479:7489   */\n  swap1\n  pop\n    /* \"#utility.yul\":7079:7495   */\n  swap4\n  swap3\n  pop\n  pop\n  pop\n  jump\t// out\n    /* \"#utility.yul\":7501:7599   */\ntag_48:\n    /* \"#utility.yul\":7552:7558   */\n  0x00\n    /* \"#utility.yul\":7586:7591   */\n  dup2\n    /* \"#utility.yul\":7580:7592   */\n  mload\n    /* \"#utility.yul\":7570:7592   */\n  swap1\n  pop\n    /* \"#utility.yul\":7501:7599   */\n  swap2\n  swap1\n  pop\n  jump\t// out\n    /* \"#utility.yul\":7605:7752   */\ntag_49:\n    /* \"#utility.yul\":7706:7717   */\n  0x00\n    /* \"#utility.yul\":7743:7746   */\n  dup2\n    /* \"#utility.yul\":7728:7746   */\n  swap1\n  pop\n    /* \"#utility.yul\":7605:7752   */\n  swap3\n  swap2\n  pop\n  pop\n  jump\t// out\n    /* \"#utility.yul\":7758:8144   */\ntag_50:\n    /* \"#utility.yul\":7862:7865   */\n  0x00\n    /* \"#utility.yul\":7890:7928   */\n  tag_140\n    /* \"#utility.yul\":7922:7927   */\n  dup3\n    /* \"#utility.yul\":7890:7928   */\n  tag_48\n  jump\t// in\ntag_140:\n    /* \"#utility.yul\":7944:8032   */\n  tag_141\n    /* \"#utility.yul\":8025:8031   */\n  dup2\n    /* \"#utility.yul\":8020:8023   */\n  dup6\n    /* \"#utility.yul\":7944:8032   */\n  tag_49\n  jump\t// in\ntag_141:\n    /* \"#utility.yul\":7937:8032   */\n  swap4\n  pop\n    /* \"#utility.yul\":8041:8106   */\n  tag_142\n    /* \"#utility.yul\":8099:8105   */\n  dup2\n    /* \"#utility.yul\":8094:8097   */\n  dup6\n    /* \"#utility.yul\":8087:8091   */\n  0x20\n    /* \"#utility.yul\":8080:8085   */\n  dup7\n    /* \"#utility.yul\":8076:8092   */\n  add\n    /* \"#utility.yul\":8041:8106   */\n  tag_37\n  jump\t// in\ntag_142:\n    /* \"#utility.yul\":8131:8137   */\n  dup1\n    /* \"#utility.yul\":8126:8129   */\n  dup5\n    /* \"#utility.yul\":8122:8138   */\n  add\n    /* \"#utility.yul\":8115:8138   */\n  swap2\n  pop\n    /* \"#utility.yul\":7866:8144   */\n  pop\n    /* \"#utility.yul\":7758:8144   */\n  swap3\n  swap2\n  pop\n  pop\n  jump\t// out\n    /* \"#utility.yul\":8150:8421   */\ntag_16:\n    /* \"#utility.yul\":8280:8283   */\n  0x00\n    /* \"#utility.yul\":8302:8395   */\n  tag_144\n    /* \"#utility.yul\":8391:8394   */\n  dup3\n    /* \"#utility.yul\":8382:8388   */\n  dup5\n    /* \"#utility.yul\":8302:8395   */\n  tag_50\n  jump\t// in\ntag_144:\n    /* \"#utility.yul\":8295:8395   */\n  swap2\n  pop\n    /* \"#utility.yul\":8412:8415   */\n  dup2\n    /* \"#utility.yul\":8405:8415   */\n  swap1\n  pop\n    /* \"#utility.yul\":8150:8421   */\n  swap3\n  swap2\n  pop\n  pop\n  jump\t// out\n    /* \"src/Web3Checkout.sol\":442:4777  contract Web3Checkout {... */\ntag_13:\n  mload(0x80)\n  mload(0xa0)\n  mload(0xc0)\n  mload(0xe0)\n  mload(0x0100)\n  mload(0x0120)\n  codecopy(0x00, dataOffset(sub_0), dataSize(sub_0))\n  0x00\n  assignImmutable(\"0xb2219b801710730437d0358146c829b62297a059eceaa0b40b27aea2daecf595\")\n  0x00\n  assignImmutable(\"0xcdbc23227c72e0a3f4683bdbccfcbed38047ca1a70d48b78c210dc5393029019\")\n  0x00\n  assignImmutable(\"0xcc143a676b82d5e07b2c9d57717b403ab3c58caa273a42cdb95b15980141a86c\")\n  0x00\n  assignImmutable(\"0x5bc0457d8881b800fd1bc0d6df907345b3bf287e43a5790ded3d08dbacf9c03a\")\n  0x00\n  assignImmutable(\"0x77c32b454bb61eb9df9e3848d0ded3e59753acda90ae58befe564733aec82e4c\")\n  0x00\n  assignImmutable(\"0x8b953cbb84328003779eb1ef176ef07f7dd0ae3d4a8e408de53d15a36466c86e\")\n  return(0x00, dataSize(sub_0))\nstop\n\nsub_0: assembly {\n        /* \"src/Web3Checkout.sol\":442:4777  contract Web3Checkout {... */\n      mstore(0x40, 0x80)\n      jumpi(tag_1, lt(calldatasize, 0x04))\n      shr(0xe0, calldataload(0x00))\n      dup1\n      0x571702a2\n      gt\n      tag_11\n      jumpi\n      dup1\n      0x571702a2\n      eq\n      tag_6\n      jumpi\n      dup1\n      0x5ec4a9cd\n      eq\n      tag_7\n      jumpi\n      dup1\n      0x74775266\n      eq\n      tag_8\n      jumpi\n      dup1\n      0xbddbed0b\n      eq\n      tag_9\n      jumpi\n      dup1\n      0xbeec5054\n      eq\n      tag_10\n      jumpi\n      jump(tag_1)\n    tag_11:\n      dup1\n      0x0b7e9c44\n      eq\n      tag_2\n      jumpi\n      dup1\n      0x113406fe\n      eq\n      tag_3\n      jumpi\n      dup1\n      0x2a06ea2d\n      eq\n      tag_4\n      jumpi\n      dup1\n      0x4778f735\n      eq\n      tag_5\n      jumpi\n    tag_1:\n      0x00\n      dup1\n      revert\n        /* \"src/Web3Checkout.sol\":2516:2640  function payout(address payable addr) public onlyOwner {... */\n    tag_2:\n      callvalue\n      dup1\n      iszero\n      tag_12\n      jumpi\n      0x00\n      dup1\n      revert\n    tag_12:\n      pop\n      tag_13\n      0x04\n      dup1\n      calldatasize\n      sub\n      dup2\n      add\n      swap1\n      tag_14\n      swap2\n      swap1\n      tag_15\n      jump\t// in\n    tag_14:\n      tag_16\n      jump\t// in\n    tag_13:\n      stop\n        /* \"src/Web3Checkout.sol\":2260:2510  function updateProduct(bytes16 id, uint256 price, uint256 purchase_limit, address payee, bytes32 new_h) public {... */\n    tag_3:\n      callvalue\n      dup1\n      iszero\n      tag_17\n      jumpi\n      0x00\n      dup1\n      revert\n    tag_17:\n      pop\n      tag_18\n      0x04\n      dup1\n      calldatasize\n      sub\n      dup2\n      add\n      swap1\n      tag_19\n      swap2\n      swap1\n      tag_20\n      jump\t// in\n    tag_19:\n      tag_21\n      jump\t// in\n    tag_18:\n      stop\n        /* \"src/Web3Checkout.sol\":3961:4775  function submitReview(... */\n    tag_4:\n      callvalue\n      dup1\n      iszero\n      tag_22\n      jumpi\n      0x00\n      dup1\n      revert\n    tag_22:\n      pop\n      tag_23\n      0x04\n      dup1\n      calldatasize\n      sub\n      dup2\n      add\n      swap1\n      tag_24\n      swap2\n      swap1\n      tag_25\n      jump\t// in\n    tag_24:\n      tag_26\n      jump\t// in\n    tag_23:\n      stop\n        /* \"src/Web3Checkout.sol\":3080:3955  function makePaymentWorldId(... */\n    tag_5:\n      tag_27\n      0x04\n      dup1\n      calldatasize\n      sub\n      dup2\n      add\n      swap1\n      tag_28\n      swap2\n      swap1\n      tag_29\n      jump\t// in\n    tag_28:\n      tag_30\n      jump\t// in\n    tag_27:\n      stop\n        /* \"src/Web3Checkout.sol\":1766:1867  function hashOfReview(bytes16 id) public view returns (bytes32) {... */\n    tag_6:\n      callvalue\n      dup1\n      iszero\n      tag_31\n      jumpi\n      0x00\n      dup1\n      revert\n    tag_31:\n      pop\n      tag_32\n      0x04\n      dup1\n      calldatasize\n      sub\n      dup2\n      add\n      swap1\n      tag_33\n      swap2\n      swap1\n      tag_34\n      jump\t// in\n    tag_33:\n      tag_35\n      jump\t// in\n    tag_32:\n      mload(0x40)\n      tag_36\n      swap2\n      swap1\n      tag_37\n      jump\t// in\n    tag_36:\n      mload(0x40)\n      dup1\n      swap2\n      sub\n      swap1\n      return\n        /* \"src/Web3Checkout.sol\":2119:2254  function removeProduct(bytes16 id) public {... */\n    tag_7:\n      callvalue\n      dup1\n      iszero\n      tag_38\n      jumpi\n      0x00\n      dup1\n      revert\n    tag_38:\n      pop\n      tag_39\n      0x04\n      dup1\n      calldatasize\n      sub\n      dup2\n      add\n      swap1\n      tag_40\n      swap2\n      swap1\n      tag_34\n      jump\t// in\n    tag_40:\n      tag_41\n      jump\t// in\n    tag_39:\n      stop\n        /* \"src/Web3Checkout.sol\":2646:3074  function makePayment(bytes16 id) public payable {... */\n    tag_8:\n      tag_42\n      0x04\n      dup1\n      calldatasize\n      sub\n      dup2\n      add\n      swap1\n      tag_43\n      swap2\n      swap1\n      tag_34\n      jump\t// in\n    tag_43:\n      tag_44\n      jump\t// in\n    tag_42:\n      stop\n        /* \"src/Web3Checkout.sol\":1664:1760  function hashOf(bytes16 id) public view returns (bytes32) {... */\n    tag_9:\n      callvalue\n      dup1\n      iszero\n      tag_45\n      jumpi\n      0x00\n      dup1\n      revert\n    tag_45:\n      pop\n      tag_46\n      0x04\n      dup1\n      calldatasize\n      sub\n      dup2\n      add\n      swap1\n      tag_47\n      swap2\n      swap1\n      tag_34\n      jump\t// in\n    tag_47:\n      tag_48\n      jump\t// in\n    tag_46:\n      mload(0x40)\n      tag_49\n      swap2\n      swap1\n      tag_37\n      jump\t// in\n    tag_49:\n      mload(0x40)\n      dup1\n      swap2\n      sub\n      swap1\n      return\n        /* \"src/Web3Checkout.sol\":1873:2113  function addProduct(bytes16 id, bytes32 h, uint256 price, uint256 purchase_limit, address payee) public {... */\n    tag_10:\n      callvalue\n      dup1\n      iszero\n      tag_50\n      jumpi\n      0x00\n      dup1\n      revert\n    tag_50:\n      pop\n      tag_51\n      0x04\n      dup1\n      calldatasize\n      sub\n      dup2\n      add\n      swap1\n      tag_52\n      swap2\n      swap1\n      tag_53\n      jump\t// in\n    tag_52:\n      tag_54\n      jump\t// in\n    tag_51:\n      stop\n        /* \"src/Web3Checkout.sol\":2516:2640  function payout(address payable addr) public onlyOwner {... */\n    tag_16:\n        /* \"src/Web3Checkout.sol\":1223:1228  owner */\n      immutable(\"0x8b953cbb84328003779eb1ef176ef07f7dd0ae3d4a8e408de53d15a36466c86e\")\n        /* \"src/Web3Checkout.sol\":1209:1228  msg.sender == owner */\n      0xffffffffffffffffffffffffffffffffffffffff\n      and\n        /* \"src/Web3Checkout.sol\":1209:1219  msg.sender */\n      caller\n        /* \"src/Web3Checkout.sol\":1209:1228  msg.sender == owner */\n      0xffffffffffffffffffffffffffffffffffffffff\n      and\n      eq\n        /* \"src/Web3Checkout.sol\":1201:1229  require(msg.sender == owner) */\n      tag_56\n      jumpi\n      0x00\n      dup1\n      revert\n    tag_56:\n        /* \"src/Web3Checkout.sol\":2581:2586  token */\n      immutable(\"0x5bc0457d8881b800fd1bc0d6df907345b3bf287e43a5790ded3d08dbacf9c03a\")\n        /* \"src/Web3Checkout.sol\":2581:2595  token.transfer */\n      0xffffffffffffffffffffffffffffffffffffffff\n      and\n      0xa9059cbb\n        /* \"src/Web3Checkout.sol\":2596:2600  addr */\n      dup3\n        /* \"src/Web3Checkout.sol\":2602:2607  token */\n      immutable(\"0x5bc0457d8881b800fd1bc0d6df907345b3bf287e43a5790ded3d08dbacf9c03a\")\n        /* \"src/Web3Checkout.sol\":2602:2617  token.balanceOf */\n      0xffffffffffffffffffffffffffffffffffffffff\n      and\n      0x70a08231\n        /* \"src/Web3Checkout.sol\":2626:2630  this */\n      address\n        /* \"src/Web3Checkout.sol\":2602:2632  token.balanceOf(address(this)) */\n      mload(0x40)\n      dup3\n      0xffffffff\n      and\n      0xe0\n      shl\n      dup2\n      mstore\n      0x04\n      add\n      tag_58\n      swap2\n      swap1\n      tag_59\n      jump\t// in\n    tag_58:\n      0x20\n      mload(0x40)\n      dup1\n      dup4\n      sub\n      dup2\n      dup7\n      gas\n      staticcall\n      iszero\n      dup1\n      iszero\n      tag_61\n      jumpi\n      returndatasize\n      0x00\n      dup1\n      returndatacopy\n      revert(0x00, returndatasize)\n    tag_61:\n      pop\n      pop\n      pop\n      pop\n      mload(0x40)\n      returndatasize\n      not(0x1f)\n      0x1f\n      dup3\n      add\n      and\n      dup3\n      add\n      dup1\n      0x40\n      mstore\n      pop\n      dup2\n      add\n      swap1\n      tag_62\n      swap2\n      swap1\n      tag_63\n      jump\t// in\n    tag_62:\n        /* \"src/Web3Checkout.sol\":2581:2633  token.transfer(addr, token.balanceOf(address(this))) */\n      mload(0x40)\n      dup4\n      0xffffffff\n      and\n      0xe0\n      shl\n      dup2\n      mstore\n      0x04\n      add\n      tag_64\n      swap3\n      swap2\n      swap1\n      tag_65\n      jump\t// in\n    tag_64:\n      0x20\n      mload(0x40)\n      dup1\n      dup4\n      sub\n      dup2\n      0x00\n      dup8\n      gas\n      call\n      iszero\n      dup1\n      iszero\n      tag_67\n      jumpi\n      returndatasize\n      0x00\n      dup1\n      returndatacopy\n      revert(0x00, returndatasize)\n    tag_67:\n      pop\n      pop\n      pop\n      pop\n      mload(0x40)\n      returndatasize\n      not(0x1f)\n      0x1f\n      dup3\n      add\n      and\n      dup3\n      add\n      dup1\n      0x40\n      mstore\n      pop\n      dup2\n      add\n      swap1\n      tag_68\n      swap2\n      swap1\n      tag_69\n      jump\t// in\n    tag_68:\n      pop\n        /* \"src/Web3Checkout.sol\":2516:2640  function payout(address payable addr) public onlyOwner {... */\n      pop\n      jump\t// out\n        /* \"src/Web3Checkout.sol\":2260:2510  function updateProduct(bytes16 id, uint256 price, uint256 purchase_limit, address payee, bytes32 new_h) public {... */\n    tag_21:\n        /* \"src/Web3Checkout.sol\":2425:2442  removeProduct(id) */\n      tag_71\n        /* \"src/Web3Checkout.sol\":2439:2441  id */\n      dup6\n        /* \"src/Web3Checkout.sol\":2425:2438  removeProduct */\n      tag_41\n        /* \"src/Web3Checkout.sol\":2425:2442  removeProduct(id) */\n      jump\t// in\n    tag_71:\n        /* \"src/Web3Checkout.sol\":2452:2503  addProduct(id, new_h, price, purchase_limit, payee) */\n      tag_72\n        /* \"src/Web3Checkout.sol\":2463:2465  id */\n      dup6\n        /* \"src/Web3Checkout.sol\":2467:2472  new_h */\n      dup3\n        /* \"src/Web3Checkout.sol\":2474:2479  price */\n      dup7\n        /* \"src/Web3Checkout.sol\":2481:2495  purchase_limit */\n      dup7\n        /* \"src/Web3Checkout.sol\":2497:2502  payee */\n      dup7\n        /* \"src/Web3Checkout.sol\":2452:2462  addProduct */\n      tag_54\n        /* \"src/Web3Checkout.sol\":2452:2503  addProduct(id, new_h, price, purchase_limit, payee) */\n      jump\t// in\n    tag_72:\n        /* \"src/Web3Checkout.sol\":2260:2510  function updateProduct(bytes16 id, uint256 price, uint256 purchase_limit, address payee, bytes32 new_h) public {... */\n      pop\n      pop\n      pop\n      pop\n      pop\n      jump\t// out\n        /* \"src/Web3Checkout.sol\":3961:4775  function submitReview(... */\n    tag_26:\n        /* \"src/Web3Checkout.sol\":4186:4193  worldId */\n      immutable(\"0xcc143a676b82d5e07b2c9d57717b403ab3c58caa273a42cdb95b15980141a86c\")\n        /* \"src/Web3Checkout.sol\":4186:4205  worldId.verifyProof */\n      0xffffffffffffffffffffffffffffffffffffffff\n      and\n      0x3bc778e3\n        /* \"src/Web3Checkout.sol\":4219:4223  root */\n      dup5\n        /* \"src/Web3Checkout.sol\":4225:4232  groupId */\n      immutable(\"0xb2219b801710730437d0358146c829b62297a059eceaa0b40b27aea2daecf595\")\n        /* \"src/Web3Checkout.sol\":4234:4272  abi.encodePacked(signal).hashToField() */\n      tag_74\n        /* \"src/Web3Checkout.sol\":4251:4257  signal */\n      dup9\n        /* \"src/Web3Checkout.sol\":4234:4258  abi.encodePacked(signal) */\n      add(0x20, mload(0x40))\n      tag_75\n      swap2\n      swap1\n      tag_76\n      jump\t// in\n    tag_75:\n      mload(0x40)\n      0x20\n      dup2\n      dup4\n      sub\n      sub\n      dup2\n      mstore\n      swap1\n      0x40\n      mstore\n        /* \"src/Web3Checkout.sol\":4234:4270  abi.encodePacked(signal).hashToField */\n      tag_77\n        /* \"src/Web3Checkout.sol\":4234:4272  abi.encodePacked(signal).hashToField() */\n      jump\t// in\n    tag_74:\n        /* \"src/Web3Checkout.sol\":4274:4287  nullifierHash */\n      dup7\n        /* \"src/Web3Checkout.sol\":4289:4306  externalNullifier */\n      immutable(\"0xcdbc23227c72e0a3f4683bdbccfcbed38047ca1a70d48b78c210dc5393029019\")\n        /* \"src/Web3Checkout.sol\":4308:4313  proof */\n      dup8\n        /* \"src/Web3Checkout.sol\":4186:4323  worldId.verifyProof(... */\n      mload(0x40)\n      dup8\n      0xffffffff\n      and\n      0xe0\n      shl\n      dup2\n      mstore\n      0x04\n      add\n      tag_78\n      swap7\n      swap6\n      swap5\n      swap4\n      swap3\n      swap2\n      swap1\n      tag_79\n      jump\t// in\n    tag_78:\n      0x00\n      mload(0x40)\n      dup1\n      dup4\n      sub\n      dup2\n      dup7\n      dup1\n      extcodesize\n      iszero\n      dup1\n      iszero\n      tag_80\n      jumpi\n      0x00\n      dup1\n      revert\n    tag_80:\n      pop\n      gas\n      staticcall\n      iszero\n      dup1\n      iszero\n      tag_82\n      jumpi\n      returndatasize\n      0x00\n      dup1\n      returndatacopy\n      revert(0x00, returndatasize)\n    tag_82:\n      pop\n      pop\n      pop\n      pop\n        /* \"src/Web3Checkout.sol\":4334:4361  ProductMetadata memory meta */\n      0x00\n        /* \"src/Web3Checkout.sol\":4364:4372  products */\n      dup1\n        /* \"src/Web3Checkout.sol\":4364:4384  products[product_id] */\n      0x00\n        /* \"src/Web3Checkout.sol\":4373:4383  product_id */\n      dup10\n        /* \"src/Web3Checkout.sol\":4364:4384  products[product_id] */\n      not(0xffffffffffffffffffffffffffffffff)\n      and\n      not(0xffffffffffffffffffffffffffffffff)\n      and\n      dup2\n      mstore\n      0x20\n      add\n      swap1\n      dup2\n      mstore\n      0x20\n      add\n      0x00\n      keccak256\n        /* \"src/Web3Checkout.sol\":4334:4384  ProductMetadata memory meta = products[product_id] */\n      mload(0x40)\n      dup1\n      0xc0\n      add\n      0x40\n      mstore\n      swap1\n      dup2\n      0x00\n      dup3\n      add\n      0x00\n      swap1\n      sload\n      swap1\n      0x0100\n      exp\n      swap1\n      div\n      0x80\n      shl\n      not(0xffffffffffffffffffffffffffffffff)\n      and\n      not(0xffffffffffffffffffffffffffffffff)\n      and\n      dup2\n      mstore\n      0x20\n      add\n      0x01\n      dup3\n      add\n      sload\n      dup2\n      mstore\n      0x20\n      add\n      0x02\n      dup3\n      add\n      sload\n      dup2\n      mstore\n      0x20\n      add\n      0x03\n      dup3\n      add\n      sload\n      dup2\n      mstore\n      0x20\n      add\n      0x04\n      dup3\n      add\n      0x00\n      swap1\n      sload\n      swap1\n      0x0100\n      exp\n      swap1\n      div\n      0xffffffffffffffffffffffffffffffffffffffff\n      and\n      0xffffffffffffffffffffffffffffffffffffffff\n      and\n      0xffffffffffffffffffffffffffffffffffffffff\n      and\n      dup2\n      mstore\n      0x20\n      add\n      0x05\n      dup3\n      add\n      0x00\n      swap1\n      sload\n      swap1\n      0x0100\n      exp\n      swap1\n      div\n      0xffffffffffffffffffffffffffffffffffffffff\n      and\n      0xffffffffffffffffffffffffffffffffffffffff\n      and\n      0xffffffffffffffffffffffffffffffffffffffff\n      and\n      dup2\n      mstore\n      pop\n      pop\n      swap1\n      pop\n        /* \"src/Web3Checkout.sol\":4412:4415  0x0 */\n      0x00\n        /* \"src/Web3Checkout.sol\":4402:4415  meta.h != 0x0 */\n      dup1\n      shl\n        /* \"src/Web3Checkout.sol\":4402:4406  meta */\n      dup2\n        /* \"src/Web3Checkout.sol\":4402:4408  meta.h */\n      0x20\n      add\n      mload\n        /* \"src/Web3Checkout.sol\":4402:4415  meta.h != 0x0 */\n      sub\n        /* \"src/Web3Checkout.sol\":4394:4416  require(meta.h != 0x0) */\n      tag_83\n      jumpi\n      0x00\n      dup1\n      revert\n    tag_83:\n        /* \"src/Web3Checkout.sol\":4480:4485  false */\n      0x00\n        /* \"src/Web3Checkout.sol\":4435:4485  reviews_submitted[nullifierHash][meta.id] == false */\n      iszero\n      iszero\n        /* \"src/Web3Checkout.sol\":4435:4452  reviews_submitted */\n      0x04\n        /* \"src/Web3Checkout.sol\":4435:4467  reviews_submitted[nullifierHash] */\n      0x00\n        /* \"src/Web3Checkout.sol\":4453:4466  nullifierHash */\n      dup6\n        /* \"src/Web3Checkout.sol\":4435:4467  reviews_submitted[nullifierHash] */\n      dup2\n      mstore\n      0x20\n      add\n      swap1\n      dup2\n      mstore\n      0x20\n      add\n      0x00\n      keccak256\n        /* \"src/Web3Checkout.sol\":4435:4476  reviews_submitted[nullifierHash][meta.id] */\n      0x00\n        /* \"src/Web3Checkout.sol\":4468:4472  meta */\n      dup4\n        /* \"src/Web3Checkout.sol\":4468:4475  meta.id */\n      0x00\n      add\n      mload\n        /* \"src/Web3Checkout.sol\":4435:4476  reviews_submitted[nullifierHash][meta.id] */\n      not(0xffffffffffffffffffffffffffffffff)\n      and\n      not(0xffffffffffffffffffffffffffffffff)\n      and\n      dup2\n      mstore\n      0x20\n      add\n      swap1\n      dup2\n      mstore\n      0x20\n      add\n      0x00\n      keccak256\n      0x00\n      swap1\n      sload\n      swap1\n      0x0100\n      exp\n      swap1\n      div\n      0xff\n      and\n        /* \"src/Web3Checkout.sol\":4435:4485  reviews_submitted[nullifierHash][meta.id] == false */\n      iszero\n      iszero\n      eq\n        /* \"src/Web3Checkout.sol\":4427:4486  require(reviews_submitted[nullifierHash][meta.id] == false) */\n      tag_84\n      jumpi\n      0x00\n      dup1\n      revert\n    tag_84:\n        /* \"src/Web3Checkout.sol\":4497:4521  uint256 sender_purchases */\n      0x00\n        /* \"src/Web3Checkout.sol\":4571:4594  purchase_counts_worldid */\n      0x03\n        /* \"src/Web3Checkout.sol\":4571:4609  purchase_counts_worldid[nullifierHash] */\n      0x00\n        /* \"src/Web3Checkout.sol\":4595:4608  nullifierHash */\n      dup6\n        /* \"src/Web3Checkout.sol\":4571:4609  purchase_counts_worldid[nullifierHash] */\n      dup2\n      mstore\n      0x20\n      add\n      swap1\n      dup2\n      mstore\n      0x20\n      add\n      0x00\n      keccak256\n        /* \"src/Web3Checkout.sol\":4571:4621  purchase_counts_worldid[nullifierHash][product_id] */\n      0x00\n        /* \"src/Web3Checkout.sol\":4610:4620  product_id */\n      dup11\n        /* \"src/Web3Checkout.sol\":4571:4621  purchase_counts_worldid[nullifierHash][product_id] */\n      not(0xffffffffffffffffffffffffffffffff)\n      and\n      not(0xffffffffffffffffffffffffffffffff)\n      and\n      dup2\n      mstore\n      0x20\n      add\n      swap1\n      dup2\n      mstore\n      0x20\n      add\n      0x00\n      keccak256\n      sload\n        /* \"src/Web3Checkout.sol\":4524:4544  purchase_counts_addr */\n      0x02\n        /* \"src/Web3Checkout.sol\":4524:4556  purchase_counts_addr[msg.sender] */\n      0x00\n        /* \"src/Web3Checkout.sol\":4545:4555  msg.sender */\n      caller\n        /* \"src/Web3Checkout.sol\":4524:4556  purchase_counts_addr[msg.sender] */\n      0xffffffffffffffffffffffffffffffffffffffff\n      and\n      0xffffffffffffffffffffffffffffffffffffffff\n      and\n      dup2\n      mstore\n      0x20\n      add\n      swap1\n      dup2\n      mstore\n      0x20\n      add\n      0x00\n      keccak256\n        /* \"src/Web3Checkout.sol\":4524:4568  purchase_counts_addr[msg.sender][product_id] */\n      0x00\n        /* \"src/Web3Checkout.sol\":4557:4567  product_id */\n      dup12\n        /* \"src/Web3Checkout.sol\":4524:4568  purchase_counts_addr[msg.sender][product_id] */\n      not(0xffffffffffffffffffffffffffffffff)\n      and\n      not(0xffffffffffffffffffffffffffffffff)\n      and\n      dup2\n      mstore\n      0x20\n      add\n      swap1\n      dup2\n      mstore\n      0x20\n      add\n      0x00\n      keccak256\n      sload\n        /* \"src/Web3Checkout.sol\":4524:4621  purchase_counts_addr[msg.sender][product_id] + purchase_counts_worldid[nullifierHash][product_id] */\n      tag_85\n      swap2\n      swap1\n      tag_86\n      jump\t// in\n    tag_85:\n        /* \"src/Web3Checkout.sol\":4497:4621  uint256 sender_purchases = purchase_counts_addr[msg.sender][product_id] + purchase_counts_worldid[nullifierHash][product_id] */\n      swap1\n      pop\n        /* \"src/Web3Checkout.sol\":4658:4659  0 */\n      0x00\n        /* \"src/Web3Checkout.sol\":4639:4655  sender_purchases */\n      dup2\n        /* \"src/Web3Checkout.sol\":4639:4659  sender_purchases > 0 */\n      gt\n        /* \"src/Web3Checkout.sol\":4631:4660  require(sender_purchases > 0) */\n      tag_87\n      jumpi\n      0x00\n      dup1\n      revert\n    tag_87:\n        /* \"src/Web3Checkout.sol\":4715:4719  true */\n      0x01\n        /* \"src/Web3Checkout.sol\":4671:4688  reviews_submitted */\n      0x04\n        /* \"src/Web3Checkout.sol\":4671:4703  reviews_submitted[nullifierHash] */\n      0x00\n        /* \"src/Web3Checkout.sol\":4689:4702  nullifierHash */\n      dup7\n        /* \"src/Web3Checkout.sol\":4671:4703  reviews_submitted[nullifierHash] */\n      dup2\n      mstore\n      0x20\n      add\n      swap1\n      dup2\n      mstore\n      0x20\n      add\n      0x00\n      keccak256\n        /* \"src/Web3Checkout.sol\":4671:4712  reviews_submitted[nullifierHash][meta.id] */\n      0x00\n        /* \"src/Web3Checkout.sol\":4704:4708  meta */\n      dup5\n        /* \"src/Web3Checkout.sol\":4704:4711  meta.id */\n      0x00\n      add\n      mload\n        /* \"src/Web3Checkout.sol\":4671:4712  reviews_submitted[nullifierHash][meta.id] */\n      not(0xffffffffffffffffffffffffffffffff)\n      and\n      not(0xffffffffffffffffffffffffffffffff)\n      and\n      dup2\n      mstore\n      0x20\n      add\n      swap1\n      dup2\n      mstore\n      0x20\n      add\n      0x00\n      keccak256\n      0x00\n        /* \"src/Web3Checkout.sol\":4671:4719  reviews_submitted[nullifierHash][meta.id] = true */\n      0x0100\n      exp\n      dup2\n      sload\n      dup2\n      0xff\n      mul\n      not\n      and\n      swap1\n      dup4\n      iszero\n      iszero\n      mul\n      or\n      swap1\n      sstore\n      pop\n        /* \"src/Web3Checkout.sol\":4743:4768  Review(id, h, product_id) */\n      mload(0x40)\n      dup1\n      0x60\n      add\n      0x40\n      mstore\n      dup1\n        /* \"src/Web3Checkout.sol\":4750:4752  id */\n      dup10\n        /* \"src/Web3Checkout.sol\":4743:4768  Review(id, h, product_id) */\n      not(0xffffffffffffffffffffffffffffffff)\n      and\n      dup2\n      mstore\n      0x20\n      add\n        /* \"src/Web3Checkout.sol\":4754:4755  h */\n      dup9\n        /* \"src/Web3Checkout.sol\":4743:4768  Review(id, h, product_id) */\n      dup2\n      mstore\n      0x20\n      add\n        /* \"src/Web3Checkout.sol\":4757:4767  product_id */\n      dup11\n        /* \"src/Web3Checkout.sol\":4743:4768  Review(id, h, product_id) */\n      not(0xffffffffffffffffffffffffffffffff)\n      and\n      dup2\n      mstore\n      pop\n        /* \"src/Web3Checkout.sol\":4729:4736  reviews */\n      0x01\n        /* \"src/Web3Checkout.sol\":4729:4740  reviews[id] */\n      0x00\n        /* \"src/Web3Checkout.sol\":4737:4739  id */\n      dup11\n        /* \"src/Web3Checkout.sol\":4729:4740  reviews[id] */\n      not(0xffffffffffffffffffffffffffffffff)\n      and\n      not(0xffffffffffffffffffffffffffffffff)\n      and\n      dup2\n      mstore\n      0x20\n      add\n      swap1\n      dup2\n      mstore\n      0x20\n      add\n      0x00\n      keccak256\n        /* \"src/Web3Checkout.sol\":4729:4768  reviews[id] = Review(id, h, product_id) */\n      0x00\n      dup3\n      add\n      mload\n      dup2\n      0x00\n      add\n      exp(0x0100, 0x00)\n      dup2\n      sload\n      dup2\n      0xffffffffffffffffffffffffffffffff\n      mul\n      not\n      and\n      swap1\n      dup4\n      0x80\n      shr\n      mul\n      or\n      swap1\n      sstore\n      pop\n      0x20\n      dup3\n      add\n      mload\n      dup2\n      0x01\n      add\n      sstore\n      0x40\n      dup3\n      add\n      mload\n      dup2\n      0x02\n      add\n      exp(0x0100, 0x00)\n      dup2\n      sload\n      dup2\n      0xffffffffffffffffffffffffffffffff\n      mul\n      not\n      and\n      swap1\n      dup4\n      0x80\n      shr\n      mul\n      or\n      swap1\n      sstore\n      pop\n      swap1\n      pop\n      pop\n        /* \"src/Web3Checkout.sol\":4176:4775  {... */\n      pop\n      pop\n        /* \"src/Web3Checkout.sol\":3961:4775  function submitReview(... */\n      pop\n      pop\n      pop\n      pop\n      pop\n      pop\n      pop\n      jump\t// out\n        /* \"src/Web3Checkout.sol\":3080:3955  function makePaymentWorldId(... */\n    tag_30:\n        /* \"src/Web3Checkout.sol\":3271:3278  worldId */\n      immutable(\"0xcc143a676b82d5e07b2c9d57717b403ab3c58caa273a42cdb95b15980141a86c\")\n        /* \"src/Web3Checkout.sol\":3271:3290  worldId.verifyProof */\n      0xffffffffffffffffffffffffffffffffffffffff\n      and\n      0x3bc778e3\n        /* \"src/Web3Checkout.sol\":3304:3308  root */\n      dup5\n        /* \"src/Web3Checkout.sol\":3310:3317  groupId */\n      immutable(\"0xb2219b801710730437d0358146c829b62297a059eceaa0b40b27aea2daecf595\")\n        /* \"src/Web3Checkout.sol\":3319:3357  abi.encodePacked(signal).hashToField() */\n      tag_89\n        /* \"src/Web3Checkout.sol\":3336:3342  signal */\n      dup9\n        /* \"src/Web3Checkout.sol\":3319:3343  abi.encodePacked(signal) */\n      add(0x20, mload(0x40))\n      tag_90\n      swap2\n      swap1\n      tag_76\n      jump\t// in\n    tag_90:\n      mload(0x40)\n      0x20\n      dup2\n      dup4\n      sub\n      sub\n      dup2\n      mstore\n      swap1\n      0x40\n      mstore\n        /* \"src/Web3Checkout.sol\":3319:3355  abi.encodePacked(signal).hashToField */\n      tag_77\n        /* \"src/Web3Checkout.sol\":3319:3357  abi.encodePacked(signal).hashToField() */\n      jump\t// in\n    tag_89:\n        /* \"src/Web3Checkout.sol\":3359:3372  nullifierHash */\n      dup7\n        /* \"src/Web3Checkout.sol\":3374:3391  externalNullifier */\n      immutable(\"0xcdbc23227c72e0a3f4683bdbccfcbed38047ca1a70d48b78c210dc5393029019\")\n        /* \"src/Web3Checkout.sol\":3393:3398  proof */\n      dup8\n        /* \"src/Web3Checkout.sol\":3271:3408  worldId.verifyProof(... */\n      mload(0x40)\n      dup8\n      0xffffffff\n      and\n      0xe0\n      shl\n      dup2\n      mstore\n      0x04\n      add\n      tag_91\n      swap7\n      swap6\n      swap5\n      swap4\n      swap3\n      swap2\n      swap1\n      tag_79\n      jump\t// in\n    tag_91:\n      0x00\n      mload(0x40)\n      dup1\n      dup4\n      sub\n      dup2\n      dup7\n      dup1\n      extcodesize\n      iszero\n      dup1\n      iszero\n      tag_92\n      jumpi\n      0x00\n      dup1\n      revert\n    tag_92:\n      pop\n      gas\n      staticcall\n      iszero\n      dup1\n      iszero\n      tag_94\n      jumpi\n      returndatasize\n      0x00\n      dup1\n      returndatacopy\n      revert(0x00, returndatasize)\n    tag_94:\n      pop\n      pop\n      pop\n      pop\n        /* \"src/Web3Checkout.sol\":3419:3446  ProductMetadata memory meta */\n      0x00\n        /* \"src/Web3Checkout.sol\":3449:3457  products */\n      dup1\n        /* \"src/Web3Checkout.sol\":3449:3461  products[id] */\n      0x00\n        /* \"src/Web3Checkout.sol\":3458:3460  id */\n      dup8\n        /* \"src/Web3Checkout.sol\":3449:3461  products[id] */\n      not(0xffffffffffffffffffffffffffffffff)\n      and\n      not(0xffffffffffffffffffffffffffffffff)\n      and\n      dup2\n      mstore\n      0x20\n      add\n      swap1\n      dup2\n      mstore\n      0x20\n      add\n      0x00\n      keccak256\n        /* \"src/Web3Checkout.sol\":3419:3461  ProductMetadata memory meta = products[id] */\n      mload(0x40)\n      dup1\n      0xc0\n      add\n      0x40\n      mstore\n      swap1\n      dup2\n      0x00\n      dup3\n      add\n      0x00\n      swap1\n      sload\n      swap1\n      0x0100\n      exp\n      swap1\n      div\n      0x80\n      shl\n      not(0xffffffffffffffffffffffffffffffff)\n      and\n      not(0xffffffffffffffffffffffffffffffff)\n      and\n      dup2\n      mstore\n      0x20\n      add\n      0x01\n      dup3\n      add\n      sload\n      dup2\n      mstore\n      0x20\n      add\n      0x02\n      dup3\n      add\n      sload\n      dup2\n      mstore\n      0x20\n      add\n      0x03\n      dup3\n      add\n      sload\n      dup2\n      mstore\n      0x20\n      add\n      0x04\n      dup3\n      add\n      0x00\n      swap1\n      sload\n      swap1\n      0x0100\n      exp\n      swap1\n      div\n      0xffffffffffffffffffffffffffffffffffffffff\n      and\n      0xffffffffffffffffffffffffffffffffffffffff\n      and\n      0xffffffffffffffffffffffffffffffffffffffff\n      and\n      dup2\n      mstore\n      0x20\n      add\n      0x05\n      dup3\n      add\n      0x00\n      swap1\n      sload\n      swap1\n      0x0100\n      exp\n      swap1\n      div\n      0xffffffffffffffffffffffffffffffffffffffff\n      and\n      0xffffffffffffffffffffffffffffffffffffffff\n      and\n      0xffffffffffffffffffffffffffffffffffffffff\n      and\n      dup2\n      mstore\n      pop\n      pop\n      swap1\n      pop\n        /* \"src/Web3Checkout.sol\":3489:3492  0x0 */\n      0x00\n        /* \"src/Web3Checkout.sol\":3479:3492  meta.h != 0x0 */\n      dup1\n      shl\n        /* \"src/Web3Checkout.sol\":3479:3483  meta */\n      dup2\n        /* \"src/Web3Checkout.sol\":3479:3485  meta.h */\n      0x20\n      add\n      mload\n        /* \"src/Web3Checkout.sol\":3479:3492  meta.h != 0x0 */\n      sub\n        /* \"src/Web3Checkout.sol\":3471:3493  require(meta.h != 0x0) */\n      tag_95\n      jumpi\n      0x00\n      dup1\n      revert\n    tag_95:\n        /* \"src/Web3Checkout.sol\":3504:3524  uint256 sender_limit */\n      0x00\n        /* \"src/Web3Checkout.sol\":3566:3589  purchase_counts_worldid */\n      0x03\n        /* \"src/Web3Checkout.sol\":3566:3604  purchase_counts_worldid[nullifierHash] */\n      0x00\n        /* \"src/Web3Checkout.sol\":3590:3603  nullifierHash */\n      dup6\n        /* \"src/Web3Checkout.sol\":3566:3604  purchase_counts_worldid[nullifierHash] */\n      dup2\n      mstore\n      0x20\n      add\n      swap1\n      dup2\n      mstore\n      0x20\n      add\n      0x00\n      keccak256\n        /* \"src/Web3Checkout.sol\":3566:3608  purchase_counts_worldid[nullifierHash][id] */\n      0x00\n        /* \"src/Web3Checkout.sol\":3605:3607  id */\n      dup9\n        /* \"src/Web3Checkout.sol\":3566:3608  purchase_counts_worldid[nullifierHash][id] */\n      not(0xffffffffffffffffffffffffffffffff)\n      and\n      not(0xffffffffffffffffffffffffffffffff)\n      and\n      dup2\n      mstore\n      0x20\n      add\n      swap1\n      dup2\n      mstore\n      0x20\n      add\n      0x00\n      keccak256\n      sload\n        /* \"src/Web3Checkout.sol\":3527:3547  purchase_counts_addr */\n      0x02\n        /* \"src/Web3Checkout.sol\":3527:3559  purchase_counts_addr[msg.sender] */\n      0x00\n        /* \"src/Web3Checkout.sol\":3548:3558  msg.sender */\n      caller\n        /* \"src/Web3Checkout.sol\":3527:3559  purchase_counts_addr[msg.sender] */\n      0xffffffffffffffffffffffffffffffffffffffff\n      and\n      0xffffffffffffffffffffffffffffffffffffffff\n      and\n      dup2\n      mstore\n      0x20\n      add\n      swap1\n      dup2\n      mstore\n      0x20\n      add\n      0x00\n      keccak256\n        /* \"src/Web3Checkout.sol\":3527:3563  purchase_counts_addr[msg.sender][id] */\n      0x00\n        /* \"src/Web3Checkout.sol\":3560:3562  id */\n      dup10\n        /* \"src/Web3Checkout.sol\":3527:3563  purchase_counts_addr[msg.sender][id] */\n      not(0xffffffffffffffffffffffffffffffff)\n      and\n      not(0xffffffffffffffffffffffffffffffff)\n      and\n      dup2\n      mstore\n      0x20\n      add\n      swap1\n      dup2\n      mstore\n      0x20\n      add\n      0x00\n      keccak256\n      sload\n        /* \"src/Web3Checkout.sol\":3527:3608  purchase_counts_addr[msg.sender][id] + purchase_counts_worldid[nullifierHash][id] */\n      tag_96\n      swap2\n      swap1\n      tag_86\n      jump\t// in\n    tag_96:\n        /* \"src/Web3Checkout.sol\":3504:3608  uint256 sender_limit = purchase_counts_addr[msg.sender][id] + purchase_counts_worldid[nullifierHash][id] */\n      swap1\n      pop\n        /* \"src/Web3Checkout.sol\":3649:3650  0 */\n      0x00\n        /* \"src/Web3Checkout.sol\":3627:3631  meta */\n      dup3\n        /* \"src/Web3Checkout.sol\":3627:3646  meta.purchase_limit */\n      0x60\n      add\n      mload\n        /* \"src/Web3Checkout.sol\":3627:3650  meta.purchase_limit > 0 */\n      gt\n        /* \"src/Web3Checkout.sol\":3627:3688  meta.purchase_limit > 0 && sender_limit < meta.purchase_limit */\n      dup1\n      iszero\n      tag_97\n      jumpi\n      pop\n        /* \"src/Web3Checkout.sol\":3669:3673  meta */\n      dup2\n        /* \"src/Web3Checkout.sol\":3669:3688  meta.purchase_limit */\n      0x60\n      add\n      mload\n        /* \"src/Web3Checkout.sol\":3654:3666  sender_limit */\n      dup2\n        /* \"src/Web3Checkout.sol\":3654:3688  sender_limit < meta.purchase_limit */\n      lt\n        /* \"src/Web3Checkout.sol\":3627:3688  meta.purchase_limit > 0 && sender_limit < meta.purchase_limit */\n    tag_97:\n        /* \"src/Web3Checkout.sol\":3619:3689  require(meta.purchase_limit > 0 && sender_limit < meta.purchase_limit) */\n      tag_98\n      jumpi\n      0x00\n      dup1\n      revert\n    tag_98:\n        /* \"src/Web3Checkout.sol\":3700:3715  uint256 our_fee */\n      0x00\n        /* \"src/Web3Checkout.sol\":3753:3759  10_000 */\n      0x2710\n        /* \"src/Web3Checkout.sol\":3746:3749  100 */\n      0x64\n        /* \"src/Web3Checkout.sol\":3732:3743  fee_percent */\n      immutable(\"0x77c32b454bb61eb9df9e3848d0ded3e59753acda90ae58befe564733aec82e4c\")\n        /* \"src/Web3Checkout.sol\":3732:3749  fee_percent * 100 */\n      tag_99\n      swap2\n      swap1\n      tag_100\n      jump\t// in\n    tag_99:\n        /* \"src/Web3Checkout.sol\":3718:3722  meta */\n      dup5\n        /* \"src/Web3Checkout.sol\":3718:3728  meta.price */\n      0x40\n      add\n      mload\n        /* \"src/Web3Checkout.sol\":3718:3750  meta.price * (fee_percent * 100) */\n      tag_101\n      swap2\n      swap1\n      tag_100\n      jump\t// in\n    tag_101:\n        /* \"src/Web3Checkout.sol\":3718:3759  meta.price * (fee_percent * 100) / 10_000 */\n      tag_102\n      swap2\n      swap1\n      tag_103\n      jump\t// in\n    tag_102:\n        /* \"src/Web3Checkout.sol\":3700:3759  uint256 our_fee = meta.price * (fee_percent * 100) / 10_000 */\n      swap1\n      pop\n        /* \"src/Web3Checkout.sol\":3780:3803  purchase_counts_worldid */\n      0x03\n        /* \"src/Web3Checkout.sol\":3780:3818  purchase_counts_worldid[nullifierHash] */\n      0x00\n        /* \"src/Web3Checkout.sol\":3804:3817  nullifierHash */\n      dup7\n        /* \"src/Web3Checkout.sol\":3780:3818  purchase_counts_worldid[nullifierHash] */\n      dup2\n      mstore\n      0x20\n      add\n      swap1\n      dup2\n      mstore\n      0x20\n      add\n      0x00\n      keccak256\n        /* \"src/Web3Checkout.sol\":3780:3822  purchase_counts_worldid[nullifierHash][id] */\n      0x00\n        /* \"src/Web3Checkout.sol\":3819:3821  id */\n      dup10\n        /* \"src/Web3Checkout.sol\":3780:3822  purchase_counts_worldid[nullifierHash][id] */\n      not(0xffffffffffffffffffffffffffffffff)\n      and\n      not(0xffffffffffffffffffffffffffffffff)\n      and\n      dup2\n      mstore\n      0x20\n      add\n      swap1\n      dup2\n      mstore\n      0x20\n      add\n      0x00\n      keccak256\n      0x00\n        /* \"src/Web3Checkout.sol\":3778:3822  ++purchase_counts_worldid[nullifierHash][id] */\n      dup2\n      sload\n      tag_104\n      swap1\n      tag_105\n      jump\t// in\n    tag_104:\n      swap2\n      swap1\n      pop\n      dup2\n      swap1\n      sstore\n      pop\n        /* \"src/Web3Checkout.sol\":3833:3838  token */\n      immutable(\"0x5bc0457d8881b800fd1bc0d6df907345b3bf287e43a5790ded3d08dbacf9c03a\")\n        /* \"src/Web3Checkout.sol\":3833:3851  token.transferFrom */\n      0xffffffffffffffffffffffffffffffffffffffff\n      and\n      0x23b872dd\n        /* \"src/Web3Checkout.sol\":3852:3862  msg.sender */\n      caller\n        /* \"src/Web3Checkout.sol\":3872:3876  this */\n      address\n        /* \"src/Web3Checkout.sol\":3892:3899  our_fee */\n      dup5\n        /* \"src/Web3Checkout.sol\":3879:3883  meta */\n      dup8\n        /* \"src/Web3Checkout.sol\":3879:3889  meta.price */\n      0x40\n      add\n      mload\n        /* \"src/Web3Checkout.sol\":3879:3899  meta.price + our_fee */\n      tag_106\n      swap2\n      swap1\n      tag_86\n      jump\t// in\n    tag_106:\n        /* \"src/Web3Checkout.sol\":3833:3900  token.transferFrom(msg.sender, address(this), meta.price + our_fee) */\n      mload(0x40)\n      dup5\n      0xffffffff\n      and\n      0xe0\n      shl\n      dup2\n      mstore\n      0x04\n      add\n      tag_107\n      swap4\n      swap3\n      swap2\n      swap1\n      tag_108\n      jump\t// in\n    tag_107:\n      0x20\n      mload(0x40)\n      dup1\n      dup4\n      sub\n      dup2\n      0x00\n      dup8\n      gas\n      call\n      iszero\n      dup1\n      iszero\n      tag_110\n      jumpi\n      returndatasize\n      0x00\n      dup1\n      returndatacopy\n      revert(0x00, returndatasize)\n    tag_110:\n      pop\n      pop\n      pop\n      pop\n      mload(0x40)\n      returndatasize\n      not(0x1f)\n      0x1f\n      dup3\n      add\n      and\n      dup3\n      add\n      dup1\n      0x40\n      mstore\n      pop\n      dup2\n      add\n      swap1\n      tag_111\n      swap2\n      swap1\n      tag_69\n      jump\t// in\n    tag_111:\n      pop\n        /* \"src/Web3Checkout.sol\":3910:3915  token */\n      immutable(\"0x5bc0457d8881b800fd1bc0d6df907345b3bf287e43a5790ded3d08dbacf9c03a\")\n        /* \"src/Web3Checkout.sol\":3910:3924  token.transfer */\n      0xffffffffffffffffffffffffffffffffffffffff\n      and\n      0xa9059cbb\n        /* \"src/Web3Checkout.sol\":3925:3929  meta */\n      dup5\n        /* \"src/Web3Checkout.sol\":3925:3935  meta.payee */\n      0x80\n      add\n      mload\n        /* \"src/Web3Checkout.sol\":3937:3941  meta */\n      dup6\n        /* \"src/Web3Checkout.sol\":3937:3947  meta.price */\n      0x40\n      add\n      mload\n        /* \"src/Web3Checkout.sol\":3910:3948  token.transfer(meta.payee, meta.price) */\n      mload(0x40)\n      dup4\n      0xffffffff\n      and\n      0xe0\n      shl\n      dup2\n      mstore\n      0x04\n      add\n      tag_112\n      swap3\n      swap2\n      swap1\n      tag_113\n      jump\t// in\n    tag_112:\n      0x20\n      mload(0x40)\n      dup1\n      dup4\n      sub\n      dup2\n      0x00\n      dup8\n      gas\n      call\n      iszero\n      dup1\n      iszero\n      tag_115\n      jumpi\n      returndatasize\n      0x00\n      dup1\n      returndatacopy\n      revert(0x00, returndatasize)\n    tag_115:\n      pop\n      pop\n      pop\n      pop\n      mload(0x40)\n      returndatasize\n      not(0x1f)\n      0x1f\n      dup3\n      add\n      and\n      dup3\n      add\n      dup1\n      0x40\n      mstore\n      pop\n      dup2\n      add\n      swap1\n      tag_116\n      swap2\n      swap1\n      tag_69\n      jump\t// in\n    tag_116:\n      pop\n        /* \"src/Web3Checkout.sol\":3261:3955  {... */\n      pop\n      pop\n      pop\n        /* \"src/Web3Checkout.sol\":3080:3955  function makePaymentWorldId(... */\n      pop\n      pop\n      pop\n      pop\n      pop\n      jump\t// out\n        /* \"src/Web3Checkout.sol\":1766:1867  function hashOfReview(bytes16 id) public view returns (bytes32) {... */\n    tag_35:\n        /* \"src/Web3Checkout.sol\":1821:1828  bytes32 */\n      0x00\n        /* \"src/Web3Checkout.sol\":1847:1854  reviews */\n      0x01\n        /* \"src/Web3Checkout.sol\":1847:1858  reviews[id] */\n      0x00\n        /* \"src/Web3Checkout.sol\":1855:1857  id */\n      dup4\n        /* \"src/Web3Checkout.sol\":1847:1858  reviews[id] */\n      not(0xffffffffffffffffffffffffffffffff)\n      and\n      not(0xffffffffffffffffffffffffffffffff)\n      and\n      dup2\n      mstore\n      0x20\n      add\n      swap1\n      dup2\n      mstore\n      0x20\n      add\n      0x00\n      keccak256\n        /* \"src/Web3Checkout.sol\":1847:1860  reviews[id].h */\n      0x01\n      add\n      sload\n        /* \"src/Web3Checkout.sol\":1840:1860  return reviews[id].h */\n      swap1\n      pop\n        /* \"src/Web3Checkout.sol\":1766:1867  function hashOfReview(bytes16 id) public view returns (bytes32) {... */\n      swap2\n      swap1\n      pop\n      jump\t// out\n        /* \"src/Web3Checkout.sol\":2119:2254  function removeProduct(bytes16 id) public {... */\n    tag_41:\n        /* \"src/Web3Checkout.sol\":2206:2216  msg.sender */\n      caller\n        /* \"src/Web3Checkout.sol\":2179:2216  products[id].controller == msg.sender */\n      0xffffffffffffffffffffffffffffffffffffffff\n      and\n        /* \"src/Web3Checkout.sol\":2179:2187  products */\n      0x00\n        /* \"src/Web3Checkout.sol\":2179:2191  products[id] */\n      dup1\n        /* \"src/Web3Checkout.sol\":2188:2190  id */\n      dup4\n        /* \"src/Web3Checkout.sol\":2179:2191  products[id] */\n      not(0xffffffffffffffffffffffffffffffff)\n      and\n      not(0xffffffffffffffffffffffffffffffff)\n      and\n      dup2\n      mstore\n      0x20\n      add\n      swap1\n      dup2\n      mstore\n      0x20\n      add\n      0x00\n      keccak256\n        /* \"src/Web3Checkout.sol\":2179:2202  products[id].controller */\n      0x05\n      add\n      0x00\n      swap1\n      sload\n      swap1\n      0x0100\n      exp\n      swap1\n      div\n      0xffffffffffffffffffffffffffffffffffffffff\n      and\n        /* \"src/Web3Checkout.sol\":2179:2216  products[id].controller == msg.sender */\n      0xffffffffffffffffffffffffffffffffffffffff\n      and\n      eq\n        /* \"src/Web3Checkout.sol\":2171:2217  require(products[id].controller == msg.sender) */\n      tag_119\n      jumpi\n      0x00\n      dup1\n      revert\n    tag_119:\n        /* \"src/Web3Checkout.sol\":2235:2243  products */\n      0x00\n        /* \"src/Web3Checkout.sol\":2235:2247  products[id] */\n      dup1\n        /* \"src/Web3Checkout.sol\":2244:2246  id */\n      dup3\n        /* \"src/Web3Checkout.sol\":2235:2247  products[id] */\n      not(0xffffffffffffffffffffffffffffffff)\n      and\n      not(0xffffffffffffffffffffffffffffffff)\n      and\n      dup2\n      mstore\n      0x20\n      add\n      swap1\n      dup2\n      mstore\n      0x20\n      add\n      0x00\n      keccak256\n      0x00\n        /* \"src/Web3Checkout.sol\":2228:2247  delete products[id] */\n      dup1\n      dup3\n      add\n      exp(0x0100, 0x00)\n      dup2\n      sload\n      swap1\n      0xffffffffffffffffffffffffffffffff\n      mul\n      not\n      and\n      swap1\n      sstore\n      0x01\n      dup3\n      add\n      0x00\n      swap1\n      sstore\n      0x02\n      dup3\n      add\n      0x00\n      swap1\n      sstore\n      0x03\n      dup3\n      add\n      0x00\n      swap1\n      sstore\n      0x04\n      dup3\n      add\n      exp(0x0100, 0x00)\n      dup2\n      sload\n      swap1\n      0xffffffffffffffffffffffffffffffffffffffff\n      mul\n      not\n      and\n      swap1\n      sstore\n      0x05\n      dup3\n      add\n      exp(0x0100, 0x00)\n      dup2\n      sload\n      swap1\n      0xffffffffffffffffffffffffffffffffffffffff\n      mul\n      not\n      and\n      swap1\n      sstore\n      pop\n      pop\n        /* \"src/Web3Checkout.sol\":2119:2254  function removeProduct(bytes16 id) public {... */\n      pop\n      jump\t// out\n        /* \"src/Web3Checkout.sol\":2646:3074  function makePayment(bytes16 id) public payable {... */\n    tag_44:\n        /* \"src/Web3Checkout.sol\":2704:2731  ProductMetadata memory meta */\n      0x00\n        /* \"src/Web3Checkout.sol\":2734:2742  products */\n      dup1\n        /* \"src/Web3Checkout.sol\":2734:2746  products[id] */\n      0x00\n        /* \"src/Web3Checkout.sol\":2743:2745  id */\n      dup4\n        /* \"src/Web3Checkout.sol\":2734:2746  products[id] */\n      not(0xffffffffffffffffffffffffffffffff)\n      and\n      not(0xffffffffffffffffffffffffffffffff)\n      and\n      dup2\n      mstore\n      0x20\n      add\n      swap1\n      dup2\n      mstore\n      0x20\n      add\n      0x00\n      keccak256\n        /* \"src/Web3Checkout.sol\":2704:2746  ProductMetadata memory meta = products[id] */\n      mload(0x40)\n      dup1\n      0xc0\n      add\n      0x40\n      mstore\n      swap1\n      dup2\n      0x00\n      dup3\n      add\n      0x00\n      swap1\n      sload\n      swap1\n      0x0100\n      exp\n      swap1\n      div\n      0x80\n      shl\n      not(0xffffffffffffffffffffffffffffffff)\n      and\n      not(0xffffffffffffffffffffffffffffffff)\n      and\n      dup2\n      mstore\n      0x20\n      add\n      0x01\n      dup3\n      add\n      sload\n      dup2\n      mstore\n      0x20\n      add\n      0x02\n      dup3\n      add\n      sload\n      dup2\n      mstore\n      0x20\n      add\n      0x03\n      dup3\n      add\n      sload\n      dup2\n      mstore\n      0x20\n      add\n      0x04\n      dup3\n      add\n      0x00\n      swap1\n      sload\n      swap1\n      0x0100\n      exp\n      swap1\n      div\n      0xffffffffffffffffffffffffffffffffffffffff\n      and\n      0xffffffffffffffffffffffffffffffffffffffff\n      and\n      0xffffffffffffffffffffffffffffffffffffffff\n      and\n      dup2\n      mstore\n      0x20\n      add\n      0x05\n      dup3\n      add\n      0x00\n      swap1\n      sload\n      swap1\n      0x0100\n      exp\n      swap1\n      div\n      0xffffffffffffffffffffffffffffffffffffffff\n      and\n      0xffffffffffffffffffffffffffffffffffffffff\n      and\n      0xffffffffffffffffffffffffffffffffffffffff\n      and\n      dup2\n      mstore\n      pop\n      pop\n      swap1\n      pop\n        /* \"src/Web3Checkout.sol\":2774:2777  0x0 */\n      0x00\n        /* \"src/Web3Checkout.sol\":2764:2777  meta.h != 0x0 */\n      dup1\n      shl\n        /* \"src/Web3Checkout.sol\":2764:2768  meta */\n      dup2\n        /* \"src/Web3Checkout.sol\":2764:2770  meta.h */\n      0x20\n      add\n      mload\n        /* \"src/Web3Checkout.sol\":2764:2777  meta.h != 0x0 */\n      sub\n        /* \"src/Web3Checkout.sol\":2756:2778  require(meta.h != 0x0) */\n      tag_121\n      jumpi\n      0x00\n      dup1\n      revert\n    tag_121:\n        /* \"src/Web3Checkout.sol\":2820:2821  0 */\n      0x00\n        /* \"src/Web3Checkout.sol\":2797:2801  meta */\n      dup2\n        /* \"src/Web3Checkout.sol\":2797:2816  meta.purchase_limit */\n      0x60\n      add\n      mload\n        /* \"src/Web3Checkout.sol\":2797:2821  meta.purchase_limit == 0 */\n      eq\n        /* \"src/Web3Checkout.sol\":2789:2822  require(meta.purchase_limit == 0) */\n      tag_122\n      jumpi\n      0x00\n      dup1\n      revert\n    tag_122:\n        /* \"src/Web3Checkout.sol\":2833:2848  uint256 our_fee */\n      0x00\n        /* \"src/Web3Checkout.sol\":2886:2892  10_000 */\n      0x2710\n        /* \"src/Web3Checkout.sol\":2879:2882  100 */\n      0x64\n        /* \"src/Web3Checkout.sol\":2865:2876  fee_percent */\n      immutable(\"0x77c32b454bb61eb9df9e3848d0ded3e59753acda90ae58befe564733aec82e4c\")\n        /* \"src/Web3Checkout.sol\":2865:2882  fee_percent * 100 */\n      tag_123\n      swap2\n      swap1\n      tag_100\n      jump\t// in\n    tag_123:\n        /* \"src/Web3Checkout.sol\":2851:2855  meta */\n      dup4\n        /* \"src/Web3Checkout.sol\":2851:2861  meta.price */\n      0x40\n      add\n      mload\n        /* \"src/Web3Checkout.sol\":2851:2883  meta.price * (fee_percent * 100) */\n      tag_124\n      swap2\n      swap1\n      tag_100\n      jump\t// in\n    tag_124:\n        /* \"src/Web3Checkout.sol\":2851:2892  meta.price * (fee_percent * 100) / 10_000 */\n      tag_125\n      swap2\n      swap1\n      tag_103\n      jump\t// in\n    tag_125:\n        /* \"src/Web3Checkout.sol\":2833:2892  uint256 our_fee = meta.price * (fee_percent * 100) / 10_000 */\n      swap1\n      pop\n        /* \"src/Web3Checkout.sol\":2905:2925  purchase_counts_addr */\n      0x02\n        /* \"src/Web3Checkout.sol\":2905:2937  purchase_counts_addr[msg.sender] */\n      0x00\n        /* \"src/Web3Checkout.sol\":2926:2936  msg.sender */\n      caller\n        /* \"src/Web3Checkout.sol\":2905:2937  purchase_counts_addr[msg.sender] */\n      0xffffffffffffffffffffffffffffffffffffffff\n      and\n      0xffffffffffffffffffffffffffffffffffffffff\n      and\n      dup2\n      mstore\n      0x20\n      add\n      swap1\n      dup2\n      mstore\n      0x20\n      add\n      0x00\n      keccak256\n        /* \"src/Web3Checkout.sol\":2905:2941  purchase_counts_addr[msg.sender][id] */\n      0x00\n        /* \"src/Web3Checkout.sol\":2938:2940  id */\n      dup5\n        /* \"src/Web3Checkout.sol\":2905:2941  purchase_counts_addr[msg.sender][id] */\n      not(0xffffffffffffffffffffffffffffffff)\n      and\n      not(0xffffffffffffffffffffffffffffffff)\n      and\n      dup2\n      mstore\n      0x20\n      add\n      swap1\n      dup2\n      mstore\n      0x20\n      add\n      0x00\n      keccak256\n      0x00\n        /* \"src/Web3Checkout.sol\":2903:2941  ++purchase_counts_addr[msg.sender][id] */\n      dup2\n      sload\n      tag_126\n      swap1\n      tag_105\n      jump\t// in\n    tag_126:\n      swap2\n      swap1\n      pop\n      dup2\n      swap1\n      sstore\n      pop\n        /* \"src/Web3Checkout.sol\":2952:2957  token */\n      immutable(\"0x5bc0457d8881b800fd1bc0d6df907345b3bf287e43a5790ded3d08dbacf9c03a\")\n        /* \"src/Web3Checkout.sol\":2952:2970  token.transferFrom */\n      0xffffffffffffffffffffffffffffffffffffffff\n      and\n      0x23b872dd\n        /* \"src/Web3Checkout.sol\":2971:2981  msg.sender */\n      caller\n        /* \"src/Web3Checkout.sol\":2991:2995  this */\n      address\n        /* \"src/Web3Checkout.sol\":3011:3018  our_fee */\n      dup5\n        /* \"src/Web3Checkout.sol\":2998:3002  meta */\n      dup7\n        /* \"src/Web3Checkout.sol\":2998:3008  meta.price */\n      0x40\n      add\n      mload\n        /* \"src/Web3Checkout.sol\":2998:3018  meta.price + our_fee */\n      tag_127\n      swap2\n      swap1\n      tag_86\n      jump\t// in\n    tag_127:\n        /* \"src/Web3Checkout.sol\":2952:3019  token.transferFrom(msg.sender, address(this), meta.price + our_fee) */\n      mload(0x40)\n      dup5\n      0xffffffff\n      and\n      0xe0\n      shl\n      dup2\n      mstore\n      0x04\n      add\n      tag_128\n      swap4\n      swap3\n      swap2\n      swap1\n      tag_108\n      jump\t// in\n    tag_128:\n      0x20\n      mload(0x40)\n      dup1\n      dup4\n      sub\n      dup2\n      0x00\n      dup8\n      gas\n      call\n      iszero\n      dup1\n      iszero\n      tag_130\n      jumpi\n      returndatasize\n      0x00\n      dup1\n      returndatacopy\n      revert(0x00, returndatasize)\n    tag_130:\n      pop\n      pop\n      pop\n      pop\n      mload(0x40)\n      returndatasize\n      not(0x1f)\n      0x1f\n      dup3\n      add\n      and\n      dup3\n      add\n      dup1\n      0x40\n      mstore\n      pop\n      dup2\n      add\n      swap1\n      tag_131\n      swap2\n      swap1\n      tag_69\n      jump\t// in\n    tag_131:\n      pop\n        /* \"src/Web3Checkout.sol\":3029:3034  token */\n      immutable(\"0x5bc0457d8881b800fd1bc0d6df907345b3bf287e43a5790ded3d08dbacf9c03a\")\n        /* \"src/Web3Checkout.sol\":3029:3043  token.transfer */\n      0xffffffffffffffffffffffffffffffffffffffff\n      and\n      0xa9059cbb\n        /* \"src/Web3Checkout.sol\":3044:3048  meta */\n      dup4\n        /* \"src/Web3Checkout.sol\":3044:3054  meta.payee */\n      0x80\n      add\n      mload\n        /* \"src/Web3Checkout.sol\":3056:3060  meta */\n      dup5\n        /* \"src/Web3Checkout.sol\":3056:3066  meta.price */\n      0x40\n      add\n      mload\n        /* \"src/Web3Checkout.sol\":3029:3067  token.transfer(meta.payee, meta.price) */\n      mload(0x40)\n      dup4\n      0xffffffff\n      and\n      0xe0\n      shl\n      dup2\n      mstore\n      0x04\n      add\n      tag_132\n      swap3\n      swap2\n      swap1\n      tag_113\n      jump\t// in\n    tag_132:\n      0x20\n      mload(0x40)\n      dup1\n      dup4\n      sub\n      dup2\n      0x00\n      dup8\n      gas\n      call\n      iszero\n      dup1\n      iszero\n      tag_134\n      jumpi\n      returndatasize\n      0x00\n      dup1\n      returndatacopy\n      revert(0x00, returndatasize)\n    tag_134:\n      pop\n      pop\n      pop\n      pop\n      mload(0x40)\n      returndatasize\n      not(0x1f)\n      0x1f\n      dup3\n      add\n      and\n      dup3\n      add\n      dup1\n      0x40\n      mstore\n      pop\n      dup2\n      add\n      swap1\n      tag_135\n      swap2\n      swap1\n      tag_69\n      jump\t// in\n    tag_135:\n      pop\n        /* \"src/Web3Checkout.sol\":2694:3074  {... */\n      pop\n      pop\n        /* \"src/Web3Checkout.sol\":2646:3074  function makePayment(bytes16 id) public payable {... */\n      pop\n      jump\t// out\n        /* \"src/Web3Checkout.sol\":1664:1760  function hashOf(bytes16 id) public view returns (bytes32) {... */\n    tag_48:\n        /* \"src/Web3Checkout.sol\":1713:1720  bytes32 */\n      0x00\n        /* \"src/Web3Checkout.sol\":1739:1747  products */\n      dup1\n        /* \"src/Web3Checkout.sol\":1739:1751  products[id] */\n      0x00\n        /* \"src/Web3Checkout.sol\":1748:1750  id */\n      dup4\n        /* \"src/Web3Checkout.sol\":1739:1751  products[id] */\n      not(0xffffffffffffffffffffffffffffffff)\n      and\n      not(0xffffffffffffffffffffffffffffffff)\n      and\n      dup2\n      mstore\n      0x20\n      add\n      swap1\n      dup2\n      mstore\n      0x20\n      add\n      0x00\n      keccak256\n        /* \"src/Web3Checkout.sol\":1739:1753  products[id].h */\n      0x01\n      add\n      sload\n        /* \"src/Web3Checkout.sol\":1732:1753  return products[id].h */\n      swap1\n      pop\n        /* \"src/Web3Checkout.sol\":1664:1760  function hashOf(bytes16 id) public view returns (bytes32) {... */\n      swap2\n      swap1\n      pop\n      jump\t// out\n        /* \"src/Web3Checkout.sol\":1873:2113  function addProduct(bytes16 id, bytes32 h, uint256 price, uint256 purchase_limit, address payee) public {... */\n    tag_54:\n        /* \"src/Web3Checkout.sol\":2013:2016  0x0 */\n      0x00\n        /* \"src/Web3Checkout.sol\":1995:2016  products[id].h == 0x0 */\n      dup1\n      shl\n        /* \"src/Web3Checkout.sol\":1995:2003  products */\n      0x00\n        /* \"src/Web3Checkout.sol\":1995:2007  products[id] */\n      dup1\n        /* \"src/Web3Checkout.sol\":2004:2006  id */\n      dup8\n        /* \"src/Web3Checkout.sol\":1995:2007  products[id] */\n      not(0xffffffffffffffffffffffffffffffff)\n      and\n      not(0xffffffffffffffffffffffffffffffff)\n      and\n      dup2\n      mstore\n      0x20\n      add\n      swap1\n      dup2\n      mstore\n      0x20\n      add\n      0x00\n      keccak256\n        /* \"src/Web3Checkout.sol\":1995:2009  products[id].h */\n      0x01\n      add\n      sload\n        /* \"src/Web3Checkout.sol\":1995:2016  products[id].h == 0x0 */\n      eq\n        /* \"src/Web3Checkout.sol\":1987:2017  require(products[id].h == 0x0) */\n      tag_138\n      jumpi\n      0x00\n      dup1\n      revert\n    tag_138:\n        /* \"src/Web3Checkout.sol\":2042:2106  ProductMetadata(id, h, price, purchase_limit, payee, msg.sender) */\n      mload(0x40)\n      dup1\n      0xc0\n      add\n      0x40\n      mstore\n      dup1\n        /* \"src/Web3Checkout.sol\":2058:2060  id */\n      dup7\n        /* \"src/Web3Checkout.sol\":2042:2106  ProductMetadata(id, h, price, purchase_limit, payee, msg.sender) */\n      not(0xffffffffffffffffffffffffffffffff)\n      and\n      dup2\n      mstore\n      0x20\n      add\n        /* \"src/Web3Checkout.sol\":2062:2063  h */\n      dup6\n        /* \"src/Web3Checkout.sol\":2042:2106  ProductMetadata(id, h, price, purchase_limit, payee, msg.sender) */\n      dup2\n      mstore\n      0x20\n      add\n        /* \"src/Web3Checkout.sol\":2065:2070  price */\n      dup5\n        /* \"src/Web3Checkout.sol\":2042:2106  ProductMetadata(id, h, price, purchase_limit, payee, msg.sender) */\n      dup2\n      mstore\n      0x20\n      add\n        /* \"src/Web3Checkout.sol\":2072:2086  purchase_limit */\n      dup4\n        /* \"src/Web3Checkout.sol\":2042:2106  ProductMetadata(id, h, price, purchase_limit, payee, msg.sender) */\n      dup2\n      mstore\n      0x20\n      add\n        /* \"src/Web3Checkout.sol\":2088:2093  payee */\n      dup3\n        /* \"src/Web3Checkout.sol\":2042:2106  ProductMetadata(id, h, price, purchase_limit, payee, msg.sender) */\n      0xffffffffffffffffffffffffffffffffffffffff\n      and\n      dup2\n      mstore\n      0x20\n      add\n        /* \"src/Web3Checkout.sol\":2095:2105  msg.sender */\n      caller\n        /* \"src/Web3Checkout.sol\":2042:2106  ProductMetadata(id, h, price, purchase_limit, payee, msg.sender) */\n      0xffffffffffffffffffffffffffffffffffffffff\n      and\n      dup2\n      mstore\n      pop\n        /* \"src/Web3Checkout.sol\":2027:2035  products */\n      0x00\n        /* \"src/Web3Checkout.sol\":2027:2039  products[id] */\n      dup1\n        /* \"src/Web3Checkout.sol\":2036:2038  id */\n      dup8\n        /* \"src/Web3Checkout.sol\":2027:2039  products[id] */\n      not(0xffffffffffffffffffffffffffffffff)\n      and\n      not(0xffffffffffffffffffffffffffffffff)\n      and\n      dup2\n      mstore\n      0x20\n      add\n      swap1\n      dup2\n      mstore\n      0x20\n      add\n      0x00\n      keccak256\n        /* \"src/Web3Checkout.sol\":2027:2106  products[id] = ProductMetadata(id, h, price, purchase_limit, payee, msg.sender) */\n      0x00\n      dup3\n      add\n      mload\n      dup2\n      0x00\n      add\n      exp(0x0100, 0x00)\n      dup2\n      sload\n      dup2\n      0xffffffffffffffffffffffffffffffff\n      mul\n      not\n      and\n      swap1\n      dup4\n      0x80\n      shr\n      mul\n      or\n      swap1\n      sstore\n      pop\n      0x20\n      dup3\n      add\n      mload\n      dup2\n      0x01\n      add\n      sstore\n      0x40\n      dup3\n      add\n      mload\n      dup2\n      0x02\n      add\n      sstore\n      0x60\n      dup3\n      add\n      mload\n      dup2\n      0x03\n      add\n      sstore\n      0x80\n      dup3\n      add\n      mload\n      dup2\n      0x04\n      add\n      exp(0x0100, 0x00)\n      dup2\n      sload\n      dup2\n      0xffffffffffffffffffffffffffffffffffffffff\n      mul\n      not\n      and\n      swap1\n      dup4\n      0xffffffffffffffffffffffffffffffffffffffff\n      and\n      mul\n      or\n      swap1\n      sstore\n      pop\n      0xa0\n      dup3\n      add\n      mload\n      dup2\n      0x05\n      add\n      exp(0x0100, 0x00)\n      dup2\n      sload\n      dup2\n      0xffffffffffffffffffffffffffffffffffffffff\n      mul\n      not\n      and\n      swap1\n      dup4\n      0xffffffffffffffffffffffffffffffffffffffff\n      and\n      mul\n      or\n      swap1\n      sstore\n      pop\n      swap1\n      pop\n      pop\n        /* \"src/Web3Checkout.sol\":1873:2113  function addProduct(bytes16 id, bytes32 h, uint256 price, uint256 purchase_limit, address payee) public {... */\n      pop\n      pop\n      pop\n      pop\n      pop\n      jump\t// out\n        /* \"src/helpers/ByteHasher.sol\":302:447  function hashToField(bytes memory value) internal pure returns (uint256) {... */\n    tag_77:\n        /* \"src/helpers/ByteHasher.sol\":366:373  uint256 */\n      0x00\n        /* \"src/helpers/ByteHasher.sol\":439:440  8 */\n      0x08\n        /* \"src/helpers/ByteHasher.sol\":427:432  value */\n      dup3\n        /* \"src/helpers/ByteHasher.sol\":410:433  abi.encodePacked(value) */\n      add(0x20, mload(0x40))\n      tag_140\n      swap2\n      swap1\n      tag_141\n      jump\t// in\n    tag_140:\n      mload(0x40)\n      0x20\n      dup2\n      dup4\n      sub\n      sub\n      dup2\n      mstore\n      swap1\n      0x40\n      mstore\n        /* \"src/helpers/ByteHasher.sol\":400:434  keccak256(abi.encodePacked(value)) */\n      dup1\n      mload\n      swap1\n      0x20\n      add\n      keccak256\n        /* \"src/helpers/ByteHasher.sol\":392:435  uint256(keccak256(abi.encodePacked(value))) */\n      0x00\n      shr\n        /* \"src/helpers/ByteHasher.sol\":392:440  uint256(keccak256(abi.encodePacked(value))) >> 8 */\n      swap1\n      shr\n        /* \"src/helpers/ByteHasher.sol\":385:440  return uint256(keccak256(abi.encodePacked(value))) >> 8 */\n      swap1\n      pop\n        /* \"src/helpers/ByteHasher.sol\":302:447  function hashToField(bytes memory value) internal pure returns (uint256) {... */\n      swap2\n      swap1\n      pop\n      jump\t// out\n        /* \"#utility.yul\":88:205   */\n    tag_143:\n        /* \"#utility.yul\":197:198   */\n      0x00\n        /* \"#utility.yul\":194:195   */\n      dup1\n        /* \"#utility.yul\":187:199   */\n      revert\n        /* \"#utility.yul\":334:460   */\n    tag_145:\n        /* \"#utility.yul\":371:378   */\n      0x00\n        /* \"#utility.yul\":411:453   */\n      0xffffffffffffffffffffffffffffffffffffffff\n        /* \"#utility.yul\":404:409   */\n      dup3\n        /* \"#utility.yul\":400:454   */\n      and\n        /* \"#utility.yul\":389:454   */\n      swap1\n      pop\n        /* \"#utility.yul\":334:460   */\n      swap2\n      swap1\n      pop\n      jump\t// out\n        /* \"#utility.yul\":466:570   */\n    tag_146:\n        /* \"#utility.yul\":511:518   */\n      0x00\n        /* \"#utility.yul\":540:564   */\n      tag_193\n        /* \"#utility.yul\":558:563   */\n      dup3\n        /* \"#utility.yul\":540:564   */\n      tag_145\n      jump\t// in\n    tag_193:\n        /* \"#utility.yul\":529:564   */\n      swap1\n      pop\n        /* \"#utility.yul\":466:570   */\n      swap2\n      swap1\n      pop\n      jump\t// out\n        /* \"#utility.yul\":576:714   */\n    tag_147:\n        /* \"#utility.yul\":657:689   */\n      tag_195\n        /* \"#utility.yul\":683:688   */\n      dup2\n        /* \"#utility.yul\":657:689   */\n      tag_146\n      jump\t// in\n    tag_195:\n        /* \"#utility.yul\":650:655   */\n      dup2\n        /* \"#utility.yul\":647:690   */\n      eq\n        /* \"#utility.yul\":637:708   */\n      tag_196\n      jumpi\n        /* \"#utility.yul\":704:705   */\n      0x00\n        /* \"#utility.yul\":701:702   */\n      dup1\n        /* \"#utility.yul\":694:706   */\n      revert\n        /* \"#utility.yul\":637:708   */\n    tag_196:\n        /* \"#utility.yul\":576:714   */\n      pop\n      jump\t// out\n        /* \"#utility.yul\":720:875   */\n    tag_148:\n        /* \"#utility.yul\":774:779   */\n      0x00\n        /* \"#utility.yul\":812:818   */\n      dup2\n        /* \"#utility.yul\":799:819   */\n      calldataload\n        /* \"#utility.yul\":790:819   */\n      swap1\n      pop\n        /* \"#utility.yul\":828:869   */\n      tag_198\n        /* \"#utility.yul\":863:868   */\n      dup2\n        /* \"#utility.yul\":828:869   */\n      tag_147\n      jump\t// in\n    tag_198:\n        /* \"#utility.yul\":720:875   */\n      swap3\n      swap2\n      pop\n      pop\n      jump\t// out\n        /* \"#utility.yul\":881:1226   */\n    tag_15:\n        /* \"#utility.yul\":948:954   */\n      0x00\n        /* \"#utility.yul\":997:999   */\n      0x20\n        /* \"#utility.yul\":985:994   */\n      dup3\n        /* \"#utility.yul\":976:983   */\n      dup5\n        /* \"#utility.yul\":972:995   */\n      sub\n        /* \"#utility.yul\":968:1000   */\n      slt\n        /* \"#utility.yul\":965:1084   */\n      iszero\n      tag_200\n      jumpi\n        /* \"#utility.yul\":1003:1082   */\n      tag_201\n      tag_143\n      jump\t// in\n    tag_201:\n        /* \"#utility.yul\":965:1084   */\n    tag_200:\n        /* \"#utility.yul\":1123:1124   */\n      0x00\n        /* \"#utility.yul\":1148:1209   */\n      tag_202\n        /* \"#utility.yul\":1201:1208   */\n      dup5\n        /* \"#utility.yul\":1192:1198   */\n      dup3\n        /* \"#utility.yul\":1181:1190   */\n      dup6\n        /* \"#utility.yul\":1177:1199   */\n      add\n        /* \"#utility.yul\":1148:1209   */\n      tag_148\n      jump\t// in\n    tag_202:\n        /* \"#utility.yul\":1138:1209   */\n      swap2\n      pop\n        /* \"#utility.yul\":1094:1219   */\n      pop\n        /* \"#utility.yul\":881:1226   */\n      swap3\n      swap2\n      pop\n      pop\n      jump\t// out\n        /* \"#utility.yul\":1232:1382   */\n    tag_149:\n        /* \"#utility.yul\":1269:1276   */\n      0x00\n        /* \"#utility.yul\":1309:1375   */\n      0xffffffffffffffffffffffffffffffff00000000000000000000000000000000\n        /* \"#utility.yul\":1302:1307   */\n      dup3\n        /* \"#utility.yul\":1298:1376   */\n      and\n        /* \"#utility.yul\":1287:1376   */\n      swap1\n      pop\n        /* \"#utility.yul\":1232:1382   */\n      swap2\n      swap1\n      pop\n      jump\t// out\n        /* \"#utility.yul\":1388:1510   */\n    tag_150:\n        /* \"#utility.yul\":1461:1485   */\n      tag_205\n        /* \"#utility.yul\":1479:1484   */\n      dup2\n        /* \"#utility.yul\":1461:1485   */\n      tag_149\n      jump\t// in\n    tag_205:\n        /* \"#utility.yul\":1454:1459   */\n      dup2\n        /* \"#utility.yul\":1451:1486   */\n      eq\n        /* \"#utility.yul\":1441:1504   */\n      tag_206\n      jumpi\n        /* \"#utility.yul\":1500:1501   */\n      0x00\n        /* \"#utility.yul\":1497:1498   */\n      dup1\n        /* \"#utility.yul\":1490:1502   */\n      revert\n        /* \"#utility.yul\":1441:1504   */\n    tag_206:\n        /* \"#utility.yul\":1388:1510   */\n      pop\n      jump\t// out\n        /* \"#utility.yul\":1516:1655   */\n    tag_151:\n        /* \"#utility.yul\":1562:1567   */\n      0x00\n        /* \"#utility.yul\":1600:1606   */\n      dup2\n        /* \"#utility.yul\":1587:1607   */\n      calldataload\n        /* \"#utility.yul\":1578:1607   */\n      swap1\n      pop\n        /* \"#utility.yul\":1616:1649   */\n      tag_208\n        /* \"#utility.yul\":1643:1648   */\n      dup2\n        /* \"#utility.yul\":1616:1649   */\n      tag_150\n      jump\t// in\n    tag_208:\n        /* \"#utility.yul\":1516:1655   */\n      swap3\n      swap2\n      pop\n      pop\n      jump\t// out\n        /* \"#utility.yul\":1661:1738   */\n    tag_152:\n        /* \"#utility.yul\":1698:1705   */\n      0x00\n        /* \"#utility.yul\":1727:1732   */\n      dup2\n        /* \"#utility.yul\":1716:1732   */\n      swap1\n      pop\n        /* \"#utility.yul\":1661:1738   */\n      swap2\n      swap1\n      pop\n      jump\t// out\n        /* \"#utility.yul\":1744:1866   */\n    tag_153:\n        /* \"#utility.yul\":1817:1841   */\n      tag_211\n        /* \"#utility.yul\":1835:1840   */\n      dup2\n        /* \"#utility.yul\":1817:1841   */\n      tag_152\n      jump\t// in\n    tag_211:\n        /* \"#utility.yul\":1810:1815   */\n      dup2\n        /* \"#utility.yul\":1807:1842   */\n      eq\n        /* \"#utility.yul\":1797:1860   */\n      tag_212\n      jumpi\n        /* \"#utility.yul\":1856:1857   */\n      0x00\n        /* \"#utility.yul\":1853:1854   */\n      dup1\n        /* \"#utility.yul\":1846:1858   */\n      revert\n        /* \"#utility.yul\":1797:1860   */\n    tag_212:\n        /* \"#utility.yul\":1744:1866   */\n      pop\n      jump\t// out\n        /* \"#utility.yul\":1872:2011   */\n    tag_154:\n        /* \"#utility.yul\":1918:1923   */\n      0x00\n        /* \"#utility.yul\":1956:1962   */\n      dup2\n        /* \"#utility.yul\":1943:1963   */\n      calldataload\n        /* \"#utility.yul\":1934:1963   */\n      swap1\n      pop\n        /* \"#utility.yul\":1972:2005   */\n      tag_214\n        /* \"#utility.yul\":1999:2004   */\n      dup2\n        /* \"#utility.yul\":1972:2005   */\n      tag_153\n      jump\t// in\n    tag_214:\n        /* \"#utility.yul\":1872:2011   */\n      swap3\n      swap2\n      pop\n      pop\n      jump\t// out\n        /* \"#utility.yul\":2017:2113   */\n    tag_155:\n        /* \"#utility.yul\":2054:2061   */\n      0x00\n        /* \"#utility.yul\":2083:2107   */\n      tag_216\n        /* \"#utility.yul\":2101:2106   */\n      dup3\n        /* \"#utility.yul\":2083:2107   */\n      tag_145\n      jump\t// in\n    tag_216:\n        /* \"#utility.yul\":2072:2107   */\n      swap1\n      pop\n        /* \"#utility.yul\":2017:2113   */\n      swap2\n      swap1\n      pop\n      jump\t// out\n        /* \"#utility.yul\":2119:2241   */\n    tag_156:\n        /* \"#utility.yul\":2192:2216   */\n      tag_218\n        /* \"#utility.yul\":2210:2215   */\n      dup2\n        /* \"#utility.yul\":2192:2216   */\n      tag_155\n      jump\t// in\n    tag_218:\n        /* \"#utility.yul\":2185:2190   */\n      dup2\n        /* \"#utility.yul\":2182:2217   */\n      eq\n        /* \"#utility.yul\":2172:2235   */\n      tag_219\n      jumpi\n        /* \"#utility.yul\":2231:2232   */\n      0x00\n        /* \"#utility.yul\":2228:2229   */\n      dup1\n        /* \"#utility.yul\":2221:2233   */\n      revert\n        /* \"#utility.yul\":2172:2235   */\n    tag_219:\n        /* \"#utility.yul\":2119:2241   */\n      pop\n      jump\t// out\n        /* \"#utility.yul\":2247:2386   */\n    tag_157:\n        /* \"#utility.yul\":2293:2298   */\n      0x00\n        /* \"#utility.yul\":2331:2337   */\n      dup2\n        /* \"#utility.yul\":2318:2338   */\n      calldataload\n        /* \"#utility.yul\":2309:2338   */\n      swap1\n      pop\n        /* \"#utility.yul\":2347:2380   */\n      tag_221\n        /* \"#utility.yul\":2374:2379   */\n      dup2\n        /* \"#utility.yul\":2347:2380   */\n      tag_156\n      jump\t// in\n    tag_221:\n        /* \"#utility.yul\":2247:2386   */\n      swap3\n      swap2\n      pop\n      pop\n      jump\t// out\n        /* \"#utility.yul\":2392:2469   */\n    tag_158:\n        /* \"#utility.yul\":2429:2436   */\n      0x00\n        /* \"#utility.yul\":2458:2463   */\n      dup2\n        /* \"#utility.yul\":2447:2463   */\n      swap1\n      pop\n        /* \"#utility.yul\":2392:2469   */\n      swap2\n      swap1\n      pop\n      jump\t// out\n        /* \"#utility.yul\":2475:2597   */\n    tag_159:\n        /* \"#utility.yul\":2548:2572   */\n      tag_224\n        /* \"#utility.yul\":2566:2571   */\n      dup2\n        /* \"#utility.yul\":2548:2572   */\n      tag_158\n      jump\t// in\n    tag_224:\n        /* \"#utility.yul\":2541:2546   */\n      dup2\n        /* \"#utility.yul\":2538:2573   */\n      eq\n        /* \"#utility.yul\":2528:2591   */\n      tag_225\n      jumpi\n        /* \"#utility.yul\":2587:2588   */\n      0x00\n        /* \"#utility.yul\":2584:2585   */\n      dup1\n        /* \"#utility.yul\":2577:2589   */\n      revert\n        /* \"#utility.yul\":2528:2591   */\n    tag_225:\n        /* \"#utility.yul\":2475:2597   */\n      pop\n      jump\t// out\n        /* \"#utility.yul\":2603:2742   */\n    tag_160:\n        /* \"#utility.yul\":2649:2654   */\n      0x00\n        /* \"#utility.yul\":2687:2693   */\n      dup2\n        /* \"#utility.yul\":2674:2694   */\n      calldataload\n        /* \"#utility.yul\":2665:2694   */\n      swap1\n      pop\n        /* \"#utility.yul\":2703:2736   */\n      tag_227\n        /* \"#utility.yul\":2730:2735   */\n      dup2\n        /* \"#utility.yul\":2703:2736   */\n      tag_159\n      jump\t// in\n    tag_227:\n        /* \"#utility.yul\":2603:2742   */\n      swap3\n      swap2\n      pop\n      pop\n      jump\t// out\n        /* \"#utility.yul\":2748:3659   */\n    tag_20:\n        /* \"#utility.yul\":2843:2849   */\n      0x00\n        /* \"#utility.yul\":2851:2857   */\n      dup1\n        /* \"#utility.yul\":2859:2865   */\n      0x00\n        /* \"#utility.yul\":2867:2873   */\n      dup1\n        /* \"#utility.yul\":2875:2881   */\n      0x00\n        /* \"#utility.yul\":2924:2927   */\n      0xa0\n        /* \"#utility.yul\":2912:2921   */\n      dup7\n        /* \"#utility.yul\":2903:2910   */\n      dup9\n        /* \"#utility.yul\":2899:2922   */\n      sub\n        /* \"#utility.yul\":2895:2928   */\n      slt\n        /* \"#utility.yul\":2892:3012   */\n      iszero\n      tag_229\n      jumpi\n        /* \"#utility.yul\":2931:3010   */\n      tag_230\n      tag_143\n      jump\t// in\n    tag_230:\n        /* \"#utility.yul\":2892:3012   */\n    tag_229:\n        /* \"#utility.yul\":3051:3052   */\n      0x00\n        /* \"#utility.yul\":3076:3129   */\n      tag_231\n        /* \"#utility.yul\":3121:3128   */\n      dup9\n        /* \"#utility.yul\":3112:3118   */\n      dup3\n        /* \"#utility.yul\":3101:3110   */\n      dup10\n        /* \"#utility.yul\":3097:3119   */\n      add\n        /* \"#utility.yul\":3076:3129   */\n      tag_151\n      jump\t// in\n    tag_231:\n        /* \"#utility.yul\":3066:3129   */\n      swap6\n      pop\n        /* \"#utility.yul\":3022:3139   */\n      pop\n        /* \"#utility.yul\":3178:3180   */\n      0x20\n        /* \"#utility.yul\":3204:3257   */\n      tag_232\n        /* \"#utility.yul\":3249:3256   */\n      dup9\n        /* \"#utility.yul\":3240:3246   */\n      dup3\n        /* \"#utility.yul\":3229:3238   */\n      dup10\n        /* \"#utility.yul\":3225:3247   */\n      add\n        /* \"#utility.yul\":3204:3257   */\n      tag_154\n      jump\t// in\n    tag_232:\n        /* \"#utility.yul\":3194:3257   */\n      swap5\n      pop\n        /* \"#utility.yul\":3149:3267   */\n      pop\n        /* \"#utility.yul\":3306:3308   */\n      0x40\n        /* \"#utility.yul\":3332:3385   */\n      tag_233\n        /* \"#utility.yul\":3377:3384   */\n      dup9\n        /* \"#utility.yul\":3368:3374   */\n      dup3\n        /* \"#utility.yul\":3357:3366   */\n      dup10\n        /* \"#utility.yul\":3353:3375   */\n      add\n        /* \"#utility.yul\":3332:3385   */\n      tag_154\n      jump\t// in\n    tag_233:\n        /* \"#utility.yul\":3322:3385   */\n      swap4\n      pop\n        /* \"#utility.yul\":3277:3395   */\n      pop\n        /* \"#utility.yul\":3434:3436   */\n      0x60\n        /* \"#utility.yul\":3460:3513   */\n      tag_234\n        /* \"#utility.yul\":3505:3512   */\n      dup9\n        /* \"#utility.yul\":3496:3502   */\n      dup3\n        /* \"#utility.yul\":3485:3494   */\n      dup10\n        /* \"#utility.yul\":3481:3503   */\n      add\n        /* \"#utility.yul\":3460:3513   */\n      tag_157\n      jump\t// in\n    tag_234:\n        /* \"#utility.yul\":3450:3513   */\n      swap3\n      pop\n        /* \"#utility.yul\":3405:3523   */\n      pop\n        /* \"#utility.yul\":3562:3565   */\n      0x80\n        /* \"#utility.yul\":3589:3642   */\n      tag_235\n        /* \"#utility.yul\":3634:3641   */\n      dup9\n        /* \"#utility.yul\":3625:3631   */\n      dup3\n        /* \"#utility.yul\":3614:3623   */\n      dup10\n        /* \"#utility.yul\":3610:3632   */\n      add\n        /* \"#utility.yul\":3589:3642   */\n      tag_160\n      jump\t// in\n    tag_235:\n        /* \"#utility.yul\":3579:3642   */\n      swap2\n      pop\n        /* \"#utility.yul\":3533:3652   */\n      pop\n        /* \"#utility.yul\":2748:3659   */\n      swap3\n      swap6\n      pop\n      swap3\n      swap6\n      swap1\n      swap4\n      pop\n      jump\t// out\n        /* \"#utility.yul\":3665:3782   */\n    tag_161:\n        /* \"#utility.yul\":3774:3775   */\n      0x00\n        /* \"#utility.yul\":3771:3772   */\n      dup1\n        /* \"#utility.yul\":3764:3776   */\n      revert\n        /* \"#utility.yul\":3806:4055   */\n    tag_162:\n        /* \"#utility.yul\":3877:3885   */\n      0x00\n        /* \"#utility.yul\":3908:3914   */\n      dup2\n        /* \"#utility.yul\":3896:3914   */\n      swap1\n      pop\n        /* \"#utility.yul\":3961:3964   */\n      dup3\n        /* \"#utility.yul\":3953:3957   */\n      0x20\n        /* \"#utility.yul\":3947:3951   */\n      0x08\n        /* \"#utility.yul\":3943:3958   */\n      mul\n        /* \"#utility.yul\":3933:3941   */\n      dup3\n        /* \"#utility.yul\":3929:3959   */\n      add\n        /* \"#utility.yul\":3926:3965   */\n      gt\n        /* \"#utility.yul\":3923:4049   */\n      iszero\n      tag_238\n      jumpi\n        /* \"#utility.yul\":3968:4047   */\n      tag_239\n      tag_161\n      jump\t// in\n    tag_239:\n        /* \"#utility.yul\":3923:4049   */\n    tag_238:\n        /* \"#utility.yul\":3806:4055   */\n      swap3\n      swap2\n      pop\n      pop\n      jump\t// out\n        /* \"#utility.yul\":4061:5314   */\n    tag_25:\n        /* \"#utility.yul\":4199:4205   */\n      0x00\n        /* \"#utility.yul\":4207:4213   */\n      dup1\n        /* \"#utility.yul\":4215:4221   */\n      0x00\n        /* \"#utility.yul\":4223:4229   */\n      dup1\n        /* \"#utility.yul\":4231:4237   */\n      0x00\n        /* \"#utility.yul\":4239:4245   */\n      dup1\n        /* \"#utility.yul\":4247:4253   */\n      0x00\n        /* \"#utility.yul\":4296:4299   */\n      0x01c0\n        /* \"#utility.yul\":4284:4293   */\n      dup9\n        /* \"#utility.yul\":4275:4282   */\n      dup11\n        /* \"#utility.yul\":4271:4294   */\n      sub\n        /* \"#utility.yul\":4267:4300   */\n      slt\n        /* \"#utility.yul\":4264:4384   */\n      iszero\n      tag_241\n      jumpi\n        /* \"#utility.yul\":4303:4382   */\n      tag_242\n      tag_143\n      jump\t// in\n    tag_242:\n        /* \"#utility.yul\":4264:4384   */\n    tag_241:\n        /* \"#utility.yul\":4423:4424   */\n      0x00\n        /* \"#utility.yul\":4448:4501   */\n      tag_243\n        /* \"#utility.yul\":4493:4500   */\n      dup11\n        /* \"#utility.yul\":4484:4490   */\n      dup3\n        /* \"#utility.yul\":4473:4482   */\n      dup12\n        /* \"#utility.yul\":4469:4491   */\n      add\n        /* \"#utility.yul\":4448:4501   */\n      tag_151\n      jump\t// in\n    tag_243:\n        /* \"#utility.yul\":4438:4501   */\n      swap8\n      pop\n        /* \"#utility.yul\":4394:4511   */\n      pop\n        /* \"#utility.yul\":4550:4552   */\n      0x20\n        /* \"#utility.yul\":4576:4629   */\n      tag_244\n        /* \"#utility.yul\":4621:4628   */\n      dup11\n        /* \"#utility.yul\":4612:4618   */\n      dup3\n        /* \"#utility.yul\":4601:4610   */\n      dup12\n        /* \"#utility.yul\":4597:4619   */\n      add\n        /* \"#utility.yul\":4576:4629   */\n      tag_151\n      jump\t// in\n    tag_244:\n        /* \"#utility.yul\":4566:4629   */\n      swap7\n      pop\n        /* \"#utility.yul\":4521:4639   */\n      pop\n        /* \"#utility.yul\":4678:4680   */\n      0x40\n        /* \"#utility.yul\":4704:4757   */\n      tag_245\n        /* \"#utility.yul\":4749:4756   */\n      dup11\n        /* \"#utility.yul\":4740:4746   */\n      dup3\n        /* \"#utility.yul\":4729:4738   */\n      dup12\n        /* \"#utility.yul\":4725:4747   */\n      add\n        /* \"#utility.yul\":4704:4757   */\n      tag_160\n      jump\t// in\n    tag_245:\n        /* \"#utility.yul\":4694:4757   */\n      swap6\n      pop\n        /* \"#utility.yul\":4649:4767   */\n      pop\n        /* \"#utility.yul\":4806:4808   */\n      0x60\n        /* \"#utility.yul\":4832:4885   */\n      tag_246\n        /* \"#utility.yul\":4877:4884   */\n      dup11\n        /* \"#utility.yul\":4868:4874   */\n      dup3\n        /* \"#utility.yul\":4857:4866   */\n      dup12\n        /* \"#utility.yul\":4853:4875   */\n      add\n        /* \"#utility.yul\":4832:4885   */\n      tag_157\n      jump\t// in\n    tag_246:\n        /* \"#utility.yul\":4822:4885   */\n      swap5\n      pop\n        /* \"#utility.yul\":4777:4895   */\n      pop\n        /* \"#utility.yul\":4934:4937   */\n      0x80\n        /* \"#utility.yul\":4961:5014   */\n      tag_247\n        /* \"#utility.yul\":5006:5013   */\n      dup11\n        /* \"#utility.yul\":4997:5003   */\n      dup3\n        /* \"#utility.yul\":4986:4995   */\n      dup12\n        /* \"#utility.yul\":4982:5004   */\n      add\n        /* \"#utility.yul\":4961:5014   */\n      tag_154\n      jump\t// in\n    tag_247:\n        /* \"#utility.yul\":4951:5014   */\n      swap4\n      pop\n        /* \"#utility.yul\":4905:5024   */\n      pop\n        /* \"#utility.yul\":5063:5066   */\n      0xa0\n        /* \"#utility.yul\":5090:5143   */\n      tag_248\n        /* \"#utility.yul\":5135:5142   */\n      dup11\n        /* \"#utility.yul\":5126:5132   */\n      dup3\n        /* \"#utility.yul\":5115:5124   */\n      dup12\n        /* \"#utility.yul\":5111:5133   */\n      add\n        /* \"#utility.yul\":5090:5143   */\n      tag_154\n      jump\t// in\n    tag_248:\n        /* \"#utility.yul\":5080:5143   */\n      swap3\n      pop\n        /* \"#utility.yul\":5034:5153   */\n      pop\n        /* \"#utility.yul\":5192:5195   */\n      0xc0\n        /* \"#utility.yul\":5219:5297   */\n      tag_249\n        /* \"#utility.yul\":5289:5296   */\n      dup11\n        /* \"#utility.yul\":5280:5286   */\n      dup3\n        /* \"#utility.yul\":5269:5278   */\n      dup12\n        /* \"#utility.yul\":5265:5287   */\n      add\n        /* \"#utility.yul\":5219:5297   */\n      tag_162\n      jump\t// in\n    tag_249:\n        /* \"#utility.yul\":5209:5297   */\n      swap2\n      pop\n        /* \"#utility.yul\":5163:5307   */\n      pop\n        /* \"#utility.yul\":4061:5314   */\n      swap3\n      swap6\n      swap9\n      swap2\n      swap5\n      swap8\n      pop\n      swap3\n      swap6\n      pop\n      jump\t// out\n        /* \"#utility.yul\":5320:6281   */\n    tag_29:\n        /* \"#utility.yul\":5440:5446   */\n      0x00\n        /* \"#utility.yul\":5448:5454   */\n      dup1\n        /* \"#utility.yul\":5456:5462   */\n      0x00\n        /* \"#utility.yul\":5464:5470   */\n      dup1\n        /* \"#utility.yul\":5472:5478   */\n      0x00\n        /* \"#utility.yul\":5521:5524   */\n      0x0180\n        /* \"#utility.yul\":5509:5518   */\n      dup7\n        /* \"#utility.yul\":5500:5507   */\n      dup9\n        /* \"#utility.yul\":5496:5519   */\n      sub\n        /* \"#utility.yul\":5492:5525   */\n      slt\n        /* \"#utility.yul\":5489:5609   */\n      iszero\n      tag_251\n      jumpi\n        /* \"#utility.yul\":5528:5607   */\n      tag_252\n      tag_143\n      jump\t// in\n    tag_252:\n        /* \"#utility.yul\":5489:5609   */\n    tag_251:\n        /* \"#utility.yul\":5648:5649   */\n      0x00\n        /* \"#utility.yul\":5673:5726   */\n      tag_253\n        /* \"#utility.yul\":5718:5725   */\n      dup9\n        /* \"#utility.yul\":5709:5715   */\n      dup3\n        /* \"#utility.yul\":5698:5707   */\n      dup10\n        /* \"#utility.yul\":5694:5716   */\n      add\n        /* \"#utility.yul\":5673:5726   */\n      tag_151\n      jump\t// in\n    tag_253:\n        /* \"#utility.yul\":5663:5726   */\n      swap6\n      pop\n        /* \"#utility.yul\":5619:5736   */\n      pop\n        /* \"#utility.yul\":5775:5777   */\n      0x20\n        /* \"#utility.yul\":5801:5854   */\n      tag_254\n        /* \"#utility.yul\":5846:5853   */\n      dup9\n        /* \"#utility.yul\":5837:5843   */\n      dup3\n        /* \"#utility.yul\":5826:5835   */\n      dup10\n        /* \"#utility.yul\":5822:5844   */\n      add\n        /* \"#utility.yul\":5801:5854   */\n      tag_157\n      jump\t// in\n    tag_254:\n        /* \"#utility.yul\":5791:5854   */\n      swap5\n      pop\n        /* \"#utility.yul\":5746:5864   */\n      pop\n        /* \"#utility.yul\":5903:5905   */\n      0x40\n        /* \"#utility.yul\":5929:5982   */\n      tag_255\n        /* \"#utility.yul\":5974:5981   */\n      dup9\n        /* \"#utility.yul\":5965:5971   */\n      dup3\n        /* \"#utility.yul\":5954:5963   */\n      dup10\n        /* \"#utility.yul\":5950:5972   */\n      add\n        /* \"#utility.yul\":5929:5982   */\n      tag_154\n      jump\t// in\n    tag_255:\n        /* \"#utility.yul\":5919:5982   */\n      swap4\n      pop\n        /* \"#utility.yul\":5874:5992   */\n      pop\n        /* \"#utility.yul\":6031:6033   */\n      0x60\n        /* \"#utility.yul\":6057:6110   */\n      tag_256\n        /* \"#utility.yul\":6102:6109   */\n      dup9\n        /* \"#utility.yul\":6093:6099   */\n      dup3\n        /* \"#utility.yul\":6082:6091   */\n      dup10\n        /* \"#utility.yul\":6078:6100   */\n      add\n        /* \"#utility.yul\":6057:6110   */\n      tag_154\n      jump\t// in\n    tag_256:\n        /* \"#utility.yul\":6047:6110   */\n      swap3\n      pop\n        /* \"#utility.yul\":6002:6120   */\n      pop\n        /* \"#utility.yul\":6159:6162   */\n      0x80\n        /* \"#utility.yul\":6186:6264   */\n      tag_257\n        /* \"#utility.yul\":6256:6263   */\n      dup9\n        /* \"#utility.yul\":6247:6253   */\n      dup3\n        /* \"#utility.yul\":6236:6245   */\n      dup10\n        /* \"#utility.yul\":6232:6254   */\n      add\n        /* \"#utility.yul\":6186:6264   */\n      tag_162\n      jump\t// in\n    tag_257:\n        /* \"#utility.yul\":6176:6264   */\n      swap2\n      pop\n        /* \"#utility.yul\":6130:6274   */\n      pop\n        /* \"#utility.yul\":5320:6281   */\n      swap3\n      swap6\n      pop\n      swap3\n      swap6\n      swap1\n      swap4\n      pop\n      jump\t// out\n        /* \"#utility.yul\":6287:6616   */\n    tag_34:\n        /* \"#utility.yul\":6346:6352   */\n      0x00\n        /* \"#utility.yul\":6395:6397   */\n      0x20\n        /* \"#utility.yul\":6383:6392   */\n      dup3\n        /* \"#utility.yul\":6374:6381   */\n      dup5\n        /* \"#utility.yul\":6370:6393   */\n      sub\n        /* \"#utility.yul\":6366:6398   */\n      slt\n        /* \"#utility.yul\":6363:6482   */\n      iszero\n      tag_259\n      jumpi\n        /* \"#utility.yul\":6401:6480   */\n      tag_260\n      tag_143\n      jump\t// in\n    tag_260:\n        /* \"#utility.yul\":6363:6482   */\n    tag_259:\n        /* \"#utility.yul\":6521:6522   */\n      0x00\n        /* \"#utility.yul\":6546:6599   */\n      tag_261\n        /* \"#utility.yul\":6591:6598   */\n      dup5\n        /* \"#utility.yul\":6582:6588   */\n      dup3\n        /* \"#utility.yul\":6571:6580   */\n      dup6\n        /* \"#utility.yul\":6567:6589   */\n      add\n        /* \"#utility.yul\":6546:6599   */\n      tag_151\n      jump\t// in\n    tag_261:\n        /* \"#utility.yul\":6536:6599   */\n      swap2\n      pop\n        /* \"#utility.yul\":6492:6609   */\n      pop\n        /* \"#utility.yul\":6287:6616   */\n      swap3\n      swap2\n      pop\n      pop\n      jump\t// out\n        /* \"#utility.yul\":6622:6740   */\n    tag_163:\n        /* \"#utility.yul\":6709:6733   */\n      tag_263\n        /* \"#utility.yul\":6727:6732   */\n      dup2\n        /* \"#utility.yul\":6709:6733   */\n      tag_158\n      jump\t// in\n    tag_263:\n        /* \"#utility.yul\":6704:6707   */\n      dup3\n        /* \"#utility.yul\":6697:6734   */\n      mstore\n        /* \"#utility.yul\":6622:6740   */\n      pop\n      pop\n      jump\t// out\n        /* \"#utility.yul\":6746:6968   */\n    tag_37:\n        /* \"#utility.yul\":6839:6843   */\n      0x00\n        /* \"#utility.yul\":6877:6879   */\n      0x20\n        /* \"#utility.yul\":6866:6875   */\n      dup3\n        /* \"#utility.yul\":6862:6880   */\n      add\n        /* \"#utility.yul\":6854:6880   */\n      swap1\n      pop\n        /* \"#utility.yul\":6890:6961   */\n      tag_265\n        /* \"#utility.yul\":6958:6959   */\n      0x00\n        /* \"#utility.yul\":6947:6956   */\n      dup4\n        /* \"#utility.yul\":6943:6960   */\n      add\n        /* \"#utility.yul\":6934:6940   */\n      dup5\n        /* \"#utility.yul\":6890:6961   */\n      tag_163\n      jump\t// in\n    tag_265:\n        /* \"#utility.yul\":6746:6968   */\n      swap3\n      swap2\n      pop\n      pop\n      jump\t// out\n        /* \"#utility.yul\":6974:7885   */\n    tag_53:\n        /* \"#utility.yul\":7069:7075   */\n      0x00\n        /* \"#utility.yul\":7077:7083   */\n      dup1\n        /* \"#utility.yul\":7085:7091   */\n      0x00\n        /* \"#utility.yul\":7093:7099   */\n      dup1\n        /* \"#utility.yul\":7101:7107   */\n      0x00\n        /* \"#utility.yul\":7150:7153   */\n      0xa0\n        /* \"#utility.yul\":7138:7147   */\n      dup7\n        /* \"#utility.yul\":7129:7136   */\n      dup9\n        /* \"#utility.yul\":7125:7148   */\n      sub\n        /* \"#utility.yul\":7121:7154   */\n      slt\n        /* \"#utility.yul\":7118:7238   */\n      iszero\n      tag_267\n      jumpi\n        /* \"#utility.yul\":7157:7236   */\n      tag_268\n      tag_143\n      jump\t// in\n    tag_268:\n        /* \"#utility.yul\":7118:7238   */\n    tag_267:\n        /* \"#utility.yul\":7277:7278   */\n      0x00\n        /* \"#utility.yul\":7302:7355   */\n      tag_269\n        /* \"#utility.yul\":7347:7354   */\n      dup9\n        /* \"#utility.yul\":7338:7344   */\n      dup3\n        /* \"#utility.yul\":7327:7336   */\n      dup10\n        /* \"#utility.yul\":7323:7345   */\n      add\n        /* \"#utility.yul\":7302:7355   */\n      tag_151\n      jump\t// in\n    tag_269:\n        /* \"#utility.yul\":7292:7355   */\n      swap6\n      pop\n        /* \"#utility.yul\":7248:7365   */\n      pop\n        /* \"#utility.yul\":7404:7406   */\n      0x20\n        /* \"#utility.yul\":7430:7483   */\n      tag_270\n        /* \"#utility.yul\":7475:7482   */\n      dup9\n        /* \"#utility.yul\":7466:7472   */\n      dup3\n        /* \"#utility.yul\":7455:7464   */\n      dup10\n        /* \"#utility.yul\":7451:7473   */\n      add\n        /* \"#utility.yul\":7430:7483   */\n      tag_160\n      jump\t// in\n    tag_270:\n        /* \"#utility.yul\":7420:7483   */\n      swap5\n      pop\n        /* \"#utility.yul\":7375:7493   */\n      pop\n        /* \"#utility.yul\":7532:7534   */\n      0x40\n        /* \"#utility.yul\":7558:7611   */\n      tag_271\n        /* \"#utility.yul\":7603:7610   */\n      dup9\n        /* \"#utility.yul\":7594:7600   */\n      dup3\n        /* \"#utility.yul\":7583:7592   */\n      dup10\n        /* \"#utility.yul\":7579:7601   */\n      add\n        /* \"#utility.yul\":7558:7611   */\n      tag_154\n      jump\t// in\n    tag_271:\n        /* \"#utility.yul\":7548:7611   */\n      swap4\n      pop\n        /* \"#utility.yul\":7503:7621   */\n      pop\n        /* \"#utility.yul\":7660:7662   */\n      0x60\n        /* \"#utility.yul\":7686:7739   */\n      tag_272\n        /* \"#utility.yul\":7731:7738   */\n      dup9\n        /* \"#utility.yul\":7722:7728   */\n      dup3\n        /* \"#utility.yul\":7711:7720   */\n      dup10\n        /* \"#utility.yul\":7707:7729   */\n      add\n        /* \"#utility.yul\":7686:7739   */\n      tag_154\n      jump\t// in\n    tag_272:\n        /* \"#utility.yul\":7676:7739   */\n      swap3\n      pop\n        /* \"#utility.yul\":7631:7749   */\n      pop\n        /* \"#utility.yul\":7788:7791   */\n      0x80\n        /* \"#utility.yul\":7815:7868   */\n      tag_273\n        /* \"#utility.yul\":7860:7867   */\n      dup9\n        /* \"#utility.yul\":7851:7857   */\n      dup3\n        /* \"#utility.yul\":7840:7849   */\n      dup10\n        /* \"#utility.yul\":7836:7858   */\n      add\n        /* \"#utility.yul\":7815:7868   */\n      tag_157\n      jump\t// in\n    tag_273:\n        /* \"#utility.yul\":7805:7868   */\n      swap2\n      pop\n        /* \"#utility.yul\":7759:7878   */\n      pop\n        /* \"#utility.yul\":6974:7885   */\n      swap3\n      swap6\n      pop\n      swap3\n      swap6\n      swap1\n      swap4\n      pop\n      jump\t// out\n        /* \"#utility.yul\":7891:8009   */\n    tag_164:\n        /* \"#utility.yul\":7978:8002   */\n      tag_275\n        /* \"#utility.yul\":7996:8001   */\n      dup2\n        /* \"#utility.yul\":7978:8002   */\n      tag_155\n      jump\t// in\n    tag_275:\n        /* \"#utility.yul\":7973:7976   */\n      dup3\n        /* \"#utility.yul\":7966:8003   */\n      mstore\n        /* \"#utility.yul\":7891:8009   */\n      pop\n      pop\n      jump\t// out\n        /* \"#utility.yul\":8015:8237   */\n    tag_59:\n        /* \"#utility.yul\":8108:8112   */\n      0x00\n        /* \"#utility.yul\":8146:8148   */\n      0x20\n        /* \"#utility.yul\":8135:8144   */\n      dup3\n        /* \"#utility.yul\":8131:8149   */\n      add\n        /* \"#utility.yul\":8123:8149   */\n      swap1\n      pop\n        /* \"#utility.yul\":8159:8230   */\n      tag_277\n        /* \"#utility.yul\":8227:8228   */\n      0x00\n        /* \"#utility.yul\":8216:8225   */\n      dup4\n        /* \"#utility.yul\":8212:8229   */\n      add\n        /* \"#utility.yul\":8203:8209   */\n      dup5\n        /* \"#utility.yul\":8159:8230   */\n      tag_164\n      jump\t// in\n    tag_277:\n        /* \"#utility.yul\":8015:8237   */\n      swap3\n      swap2\n      pop\n      pop\n      jump\t// out\n        /* \"#utility.yul\":8243:8386   */\n    tag_165:\n        /* \"#utility.yul\":8300:8305   */\n      0x00\n        /* \"#utility.yul\":8331:8337   */\n      dup2\n        /* \"#utility.yul\":8325:8338   */\n      mload\n        /* \"#utility.yul\":8316:8338   */\n      swap1\n      pop\n        /* \"#utility.yul\":8347:8380   */\n      tag_279\n        /* \"#utility.yul\":8374:8379   */\n      dup2\n        /* \"#utility.yul\":8347:8380   */\n      tag_153\n      jump\t// in\n    tag_279:\n        /* \"#utility.yul\":8243:8386   */\n      swap3\n      swap2\n      pop\n      pop\n      jump\t// out\n        /* \"#utility.yul\":8392:8743   */\n    tag_63:\n        /* \"#utility.yul\":8462:8468   */\n      0x00\n        /* \"#utility.yul\":8511:8513   */\n      0x20\n        /* \"#utility.yul\":8499:8508   */\n      dup3\n        /* \"#utility.yul\":8490:8497   */\n      dup5\n        /* \"#utility.yul\":8486:8509   */\n      sub\n        /* \"#utility.yul\":8482:8514   */\n      slt\n        /* \"#utility.yul\":8479:8598   */\n      iszero\n      tag_281\n      jumpi\n        /* \"#utility.yul\":8517:8596   */\n      tag_282\n      tag_143\n      jump\t// in\n    tag_282:\n        /* \"#utility.yul\":8479:8598   */\n    tag_281:\n        /* \"#utility.yul\":8637:8638   */\n      0x00\n        /* \"#utility.yul\":8662:8726   */\n      tag_283\n        /* \"#utility.yul\":8718:8725   */\n      dup5\n        /* \"#utility.yul\":8709:8715   */\n      dup3\n        /* \"#utility.yul\":8698:8707   */\n      dup6\n        /* \"#utility.yul\":8694:8716   */\n      add\n        /* \"#utility.yul\":8662:8726   */\n      tag_165\n      jump\t// in\n    tag_283:\n        /* \"#utility.yul\":8652:8726   */\n      swap2\n      pop\n        /* \"#utility.yul\":8608:8736   */\n      pop\n        /* \"#utility.yul\":8392:8743   */\n      swap3\n      swap2\n      pop\n      pop\n      jump\t// out\n        /* \"#utility.yul\":8749:8809   */\n    tag_166:\n        /* \"#utility.yul\":8777:8780   */\n      0x00\n        /* \"#utility.yul\":8798:8803   */\n      dup2\n        /* \"#utility.yul\":8791:8803   */\n      swap1\n      pop\n        /* \"#utility.yul\":8749:8809   */\n      swap2\n      swap1\n      pop\n      jump\t// out\n        /* \"#utility.yul\":8815:8957   */\n    tag_167:\n        /* \"#utility.yul\":8865:8874   */\n      0x00\n        /* \"#utility.yul\":8898:8951   */\n      tag_286\n        /* \"#utility.yul\":8916:8950   */\n      tag_287\n        /* \"#utility.yul\":8925:8949   */\n      tag_288\n        /* \"#utility.yul\":8943:8948   */\n      dup5\n        /* \"#utility.yul\":8925:8949   */\n      tag_145\n      jump\t// in\n    tag_288:\n        /* \"#utility.yul\":8916:8950   */\n      tag_166\n      jump\t// in\n    tag_287:\n        /* \"#utility.yul\":8898:8951   */\n      tag_145\n      jump\t// in\n    tag_286:\n        /* \"#utility.yul\":8885:8951   */\n      swap1\n      pop\n        /* \"#utility.yul\":8815:8957   */\n      swap2\n      swap1\n      pop\n      jump\t// out\n        /* \"#utility.yul\":8963:9089   */\n    tag_168:\n        /* \"#utility.yul\":9013:9022   */\n      0x00\n        /* \"#utility.yul\":9046:9083   */\n      tag_290\n        /* \"#utility.yul\":9077:9082   */\n      dup3\n        /* \"#utility.yul\":9046:9083   */\n      tag_167\n      jump\t// in\n    tag_290:\n        /* \"#utility.yul\":9033:9083   */\n      swap1\n      pop\n        /* \"#utility.yul\":8963:9089   */\n      swap2\n      swap1\n      pop\n      jump\t// out\n        /* \"#utility.yul\":9095:9229   */\n    tag_169:\n        /* \"#utility.yul\":9153:9162   */\n      0x00\n        /* \"#utility.yul\":9186:9223   */\n      tag_292\n        /* \"#utility.yul\":9217:9222   */\n      dup3\n        /* \"#utility.yul\":9186:9223   */\n      tag_168\n      jump\t// in\n    tag_292:\n        /* \"#utility.yul\":9173:9223   */\n      swap1\n      pop\n        /* \"#utility.yul\":9095:9229   */\n      swap2\n      swap1\n      pop\n      jump\t// out\n        /* \"#utility.yul\":9235:9382   */\n    tag_170:\n        /* \"#utility.yul\":9330:9375   */\n      tag_294\n        /* \"#utility.yul\":9369:9374   */\n      dup2\n        /* \"#utility.yul\":9330:9375   */\n      tag_169\n      jump\t// in\n    tag_294:\n        /* \"#utility.yul\":9325:9328   */\n      dup3\n        /* \"#utility.yul\":9318:9376   */\n      mstore\n        /* \"#utility.yul\":9235:9382   */\n      pop\n      pop\n      jump\t// out\n        /* \"#utility.yul\":9388:9506   */\n    tag_171:\n        /* \"#utility.yul\":9475:9499   */\n      tag_296\n        /* \"#utility.yul\":9493:9498   */\n      dup2\n        /* \"#utility.yul\":9475:9499   */\n      tag_152\n      jump\t// in\n    tag_296:\n        /* \"#utility.yul\":9470:9473   */\n      dup3\n        /* \"#utility.yul\":9463:9500   */\n      mstore\n        /* \"#utility.yul\":9388:9506   */\n      pop\n      pop\n      jump\t// out\n        /* \"#utility.yul\":9512:9860   */\n    tag_65:\n        /* \"#utility.yul\":9641:9645   */\n      0x00\n        /* \"#utility.yul\":9679:9681   */\n      0x40\n        /* \"#utility.yul\":9668:9677   */\n      dup3\n        /* \"#utility.yul\":9664:9682   */\n      add\n        /* \"#utility.yul\":9656:9682   */\n      swap1\n      pop\n        /* \"#utility.yul\":9692:9771   */\n      tag_298\n        /* \"#utility.yul\":9768:9769   */\n      0x00\n        /* \"#utility.yul\":9757:9766   */\n      dup4\n        /* \"#utility.yul\":9753:9770   */\n      add\n        /* \"#utility.yul\":9744:9750   */\n      dup6\n        /* \"#utility.yul\":9692:9771   */\n      tag_170\n      jump\t// in\n    tag_298:\n        /* \"#utility.yul\":9781:9853   */\n      tag_299\n        /* \"#utility.yul\":9849:9851   */\n      0x20\n        /* \"#utility.yul\":9838:9847   */\n      dup4\n        /* \"#utility.yul\":9834:9852   */\n      add\n        /* \"#utility.yul\":9825:9831   */\n      dup5\n        /* \"#utility.yul\":9781:9853   */\n      tag_171\n      jump\t// in\n    tag_299:\n        /* \"#utility.yul\":9512:9860   */\n      swap4\n      swap3\n      pop\n      pop\n      pop\n      jump\t// out\n        /* \"#utility.yul\":9866:9956   */\n    tag_172:\n        /* \"#utility.yul\":9900:9907   */\n      0x00\n        /* \"#utility.yul\":9943:9948   */\n      dup2\n        /* \"#utility.yul\":9936:9949   */\n      iszero\n        /* \"#utility.yul\":9929:9950   */\n      iszero\n        /* \"#utility.yul\":9918:9950   */\n      swap1\n      pop\n        /* \"#utility.yul\":9866:9956   */\n      swap2\n      swap1\n      pop\n      jump\t// out\n        /* \"#utility.yul\":9962:10078   */\n    tag_173:\n        /* \"#utility.yul\":10032:10053   */\n      tag_302\n        /* \"#utility.yul\":10047:10052   */\n      dup2\n        /* \"#utility.yul\":10032:10053   */\n      tag_172\n      jump\t// in\n    tag_302:\n        /* \"#utility.yul\":10025:10030   */\n      dup2\n        /* \"#utility.yul\":10022:10054   */\n      eq\n        /* \"#utility.yul\":10012:10072   */\n      tag_303\n      jumpi\n        /* \"#utility.yul\":10068:10069   */\n      0x00\n        /* \"#utility.yul\":10065:10066   */\n      dup1\n        /* \"#utility.yul\":10058:10070   */\n      revert\n        /* \"#utility.yul\":10012:10072   */\n    tag_303:\n        /* \"#utility.yul\":9962:10078   */\n      pop\n      jump\t// out\n        /* \"#utility.yul\":10084:10221   */\n    tag_174:\n        /* \"#utility.yul\":10138:10143   */\n      0x00\n        /* \"#utility.yul\":10169:10175   */\n      dup2\n        /* \"#utility.yul\":10163:10176   */\n      mload\n        /* \"#utility.yul\":10154:10176   */\n      swap1\n      pop\n        /* \"#utility.yul\":10185:10215   */\n      tag_305\n        /* \"#utility.yul\":10209:10214   */\n      dup2\n        /* \"#utility.yul\":10185:10215   */\n      tag_173\n      jump\t// in\n    tag_305:\n        /* \"#utility.yul\":10084:10221   */\n      swap3\n      swap2\n      pop\n      pop\n      jump\t// out\n        /* \"#utility.yul\":10227:10572   */\n    tag_69:\n        /* \"#utility.yul\":10294:10300   */\n      0x00\n        /* \"#utility.yul\":10343:10345   */\n      0x20\n        /* \"#utility.yul\":10331:10340   */\n      dup3\n        /* \"#utility.yul\":10322:10329   */\n      dup5\n        /* \"#utility.yul\":10318:10341   */\n      sub\n        /* \"#utility.yul\":10314:10346   */\n      slt\n        /* \"#utility.yul\":10311:10430   */\n      iszero\n      tag_307\n      jumpi\n        /* \"#utility.yul\":10349:10428   */\n      tag_308\n      tag_143\n      jump\t// in\n    tag_308:\n        /* \"#utility.yul\":10311:10430   */\n    tag_307:\n        /* \"#utility.yul\":10469:10470   */\n      0x00\n        /* \"#utility.yul\":10494:10555   */\n      tag_309\n        /* \"#utility.yul\":10547:10554   */\n      dup5\n        /* \"#utility.yul\":10538:10544   */\n      dup3\n        /* \"#utility.yul\":10527:10536   */\n      dup6\n        /* \"#utility.yul\":10523:10545   */\n      add\n        /* \"#utility.yul\":10494:10555   */\n      tag_174\n      jump\t// in\n    tag_309:\n        /* \"#utility.yul\":10484:10555   */\n      swap2\n      pop\n        /* \"#utility.yul\":10440:10565   */\n      pop\n        /* \"#utility.yul\":10227:10572   */\n      swap3\n      swap2\n      pop\n      pop\n      jump\t// out\n        /* \"#utility.yul\":10578:10672   */\n    tag_175:\n        /* \"#utility.yul\":10611:10619   */\n      0x00\n        /* \"#utility.yul\":10659:10664   */\n      dup2\n        /* \"#utility.yul\":10655:10657   */\n      0x60\n        /* \"#utility.yul\":10651:10665   */\n      shl\n        /* \"#utility.yul\":10630:10665   */\n      swap1\n      pop\n        /* \"#utility.yul\":10578:10672   */\n      swap2\n      swap1\n      pop\n      jump\t// out\n        /* \"#utility.yul\":10678:10772   */\n    tag_176:\n        /* \"#utility.yul\":10717:10724   */\n      0x00\n        /* \"#utility.yul\":10746:10766   */\n      tag_312\n        /* \"#utility.yul\":10760:10765   */\n      dup3\n        /* \"#utility.yul\":10746:10766   */\n      tag_175\n      jump\t// in\n    tag_312:\n        /* \"#utility.yul\":10735:10766   */\n      swap1\n      pop\n        /* \"#utility.yul\":10678:10772   */\n      swap2\n      swap1\n      pop\n      jump\t// out\n        /* \"#utility.yul\":10778:10878   */\n    tag_177:\n        /* \"#utility.yul\":10817:10824   */\n      0x00\n        /* \"#utility.yul\":10846:10872   */\n      tag_314\n        /* \"#utility.yul\":10866:10871   */\n      dup3\n        /* \"#utility.yul\":10846:10872   */\n      tag_176\n      jump\t// in\n    tag_314:\n        /* \"#utility.yul\":10835:10872   */\n      swap1\n      pop\n        /* \"#utility.yul\":10778:10878   */\n      swap2\n      swap1\n      pop\n      jump\t// out\n        /* \"#utility.yul\":10884:11041   */\n    tag_178:\n        /* \"#utility.yul\":10989:11034   */\n      tag_316\n        /* \"#utility.yul\":11009:11033   */\n      tag_317\n        /* \"#utility.yul\":11027:11032   */\n      dup3\n        /* \"#utility.yul\":11009:11033   */\n      tag_155\n      jump\t// in\n    tag_317:\n        /* \"#utility.yul\":10989:11034   */\n      tag_177\n      jump\t// in\n    tag_316:\n        /* \"#utility.yul\":10984:10987   */\n      dup3\n        /* \"#utility.yul\":10977:11035   */\n      mstore\n        /* \"#utility.yul\":10884:11041   */\n      pop\n      pop\n      jump\t// out\n        /* \"#utility.yul\":11047:11303   */\n    tag_76:\n        /* \"#utility.yul\":11159:11162   */\n      0x00\n        /* \"#utility.yul\":11174:11249   */\n      tag_319\n        /* \"#utility.yul\":11245:11248   */\n      dup3\n        /* \"#utility.yul\":11236:11242   */\n      dup5\n        /* \"#utility.yul\":11174:11249   */\n      tag_178\n      jump\t// in\n    tag_319:\n        /* \"#utility.yul\":11274:11276   */\n      0x14\n        /* \"#utility.yul\":11269:11272   */\n      dup3\n        /* \"#utility.yul\":11265:11277   */\n      add\n        /* \"#utility.yul\":11258:11277   */\n      swap2\n      pop\n        /* \"#utility.yul\":11294:11297   */\n      dup2\n        /* \"#utility.yul\":11287:11297   */\n      swap1\n      pop\n        /* \"#utility.yul\":11047:11303   */\n      swap3\n      swap2\n      pop\n      pop\n      jump\t// out\n        /* \"#utility.yul\":11309:11408   */\n    tag_179:\n        /* \"#utility.yul\":11394:11400   */\n      dup3\n        /* \"#utility.yul\":11389:11392   */\n      dup2\n        /* \"#utility.yul\":11384:11387   */\n      dup4\n        /* \"#utility.yul\":11371:11401   */\n      calldatacopy\n        /* \"#utility.yul\":11309:11408   */\n      pop\n      pop\n      pop\n      jump\t// out\n        /* \"#utility.yul\":11446:11618   */\n    tag_180:\n        /* \"#utility.yul\":11569:11612   */\n      tag_322\n        /* \"#utility.yul\":11605:11611   */\n      0x0100\n        /* \"#utility.yul\":11600:11603   */\n      dup4\n        /* \"#utility.yul\":11593:11598   */\n      dup4\n        /* \"#utility.yul\":11569:11612   */\n      tag_179\n      jump\t// in\n    tag_322:\n        /* \"#utility.yul\":11446:11618   */\n      pop\n      pop\n      jump\t// out\n        /* \"#utility.yul\":11624:12495   */\n    tag_79:\n        /* \"#utility.yul\":11905:11909   */\n      0x00\n        /* \"#utility.yul\":11943:11946   */\n      0x01a0\n        /* \"#utility.yul\":11932:11941   */\n      dup3\n        /* \"#utility.yul\":11928:11947   */\n      add\n        /* \"#utility.yul\":11920:11947   */\n      swap1\n      pop\n        /* \"#utility.yul\":11957:12028   */\n      tag_324\n        /* \"#utility.yul\":12025:12026   */\n      0x00\n        /* \"#utility.yul\":12014:12023   */\n      dup4\n        /* \"#utility.yul\":12010:12027   */\n      add\n        /* \"#utility.yul\":12001:12007   */\n      dup10\n        /* \"#utility.yul\":11957:12028   */\n      tag_171\n      jump\t// in\n    tag_324:\n        /* \"#utility.yul\":12038:12110   */\n      tag_325\n        /* \"#utility.yul\":12106:12108   */\n      0x20\n        /* \"#utility.yul\":12095:12104   */\n      dup4\n        /* \"#utility.yul\":12091:12109   */\n      add\n        /* \"#utility.yul\":12082:12088   */\n      dup9\n        /* \"#utility.yul\":12038:12110   */\n      tag_171\n      jump\t// in\n    tag_325:\n        /* \"#utility.yul\":12120:12192   */\n      tag_326\n        /* \"#utility.yul\":12188:12190   */\n      0x40\n        /* \"#utility.yul\":12177:12186   */\n      dup4\n        /* \"#utility.yul\":12173:12191   */\n      add\n        /* \"#utility.yul\":12164:12170   */\n      dup8\n        /* \"#utility.yul\":12120:12192   */\n      tag_171\n      jump\t// in\n    tag_326:\n        /* \"#utility.yul\":12202:12274   */\n      tag_327\n        /* \"#utility.yul\":12270:12272   */\n      0x60\n        /* \"#utility.yul\":12259:12268   */\n      dup4\n        /* \"#utility.yul\":12255:12273   */\n      add\n        /* \"#utility.yul\":12246:12252   */\n      dup7\n        /* \"#utility.yul\":12202:12274   */\n      tag_171\n      jump\t// in\n    tag_327:\n        /* \"#utility.yul\":12284:12357   */\n      tag_328\n        /* \"#utility.yul\":12352:12355   */\n      0x80\n        /* \"#utility.yul\":12341:12350   */\n      dup4\n        /* \"#utility.yul\":12337:12356   */\n      add\n        /* \"#utility.yul\":12328:12334   */\n      dup6\n        /* \"#utility.yul\":12284:12357   */\n      tag_171\n      jump\t// in\n    tag_328:\n        /* \"#utility.yul\":12367:12488   */\n      tag_329\n        /* \"#utility.yul\":12483:12486   */\n      0xa0\n        /* \"#utility.yul\":12472:12481   */\n      dup4\n        /* \"#utility.yul\":12468:12487   */\n      add\n        /* \"#utility.yul\":12459:12465   */\n      dup5\n        /* \"#utility.yul\":12367:12488   */\n      tag_180\n      jump\t// in\n    tag_329:\n        /* \"#utility.yul\":11624:12495   */\n      swap8\n      swap7\n      pop\n      pop\n      pop\n      pop\n      pop\n      pop\n      pop\n      jump\t// out\n        /* \"#utility.yul\":12501:12681   */\n    tag_181:\n        /* \"#utility.yul\":12549:12626   */\n      0x4e487b7100000000000000000000000000000000000000000000000000000000\n        /* \"#utility.yul\":12546:12547   */\n      0x00\n        /* \"#utility.yul\":12539:12627   */\n      mstore\n        /* \"#utility.yul\":12646:12650   */\n      0x11\n        /* \"#utility.yul\":12643:12644   */\n      0x04\n        /* \"#utility.yul\":12636:12651   */\n      mstore\n        /* \"#utility.yul\":12670:12674   */\n      0x24\n        /* \"#utility.yul\":12667:12668   */\n      0x00\n        /* \"#utility.yul\":12660:12675   */\n      revert\n        /* \"#utility.yul\":12687:12878   */\n    tag_86:\n        /* \"#utility.yul\":12727:12730   */\n      0x00\n        /* \"#utility.yul\":12746:12766   */\n      tag_332\n        /* \"#utility.yul\":12764:12765   */\n      dup3\n        /* \"#utility.yul\":12746:12766   */\n      tag_152\n      jump\t// in\n    tag_332:\n        /* \"#utility.yul\":12741:12766   */\n      swap2\n      pop\n        /* \"#utility.yul\":12780:12800   */\n      tag_333\n        /* \"#utility.yul\":12798:12799   */\n      dup4\n        /* \"#utility.yul\":12780:12800   */\n      tag_152\n      jump\t// in\n    tag_333:\n        /* \"#utility.yul\":12775:12800   */\n      swap3\n      pop\n        /* \"#utility.yul\":12823:12824   */\n      dup3\n        /* \"#utility.yul\":12820:12821   */\n      dup3\n        /* \"#utility.yul\":12816:12825   */\n      add\n        /* \"#utility.yul\":12809:12825   */\n      swap1\n      pop\n        /* \"#utility.yul\":12844:12847   */\n      dup1\n        /* \"#utility.yul\":12841:12842   */\n      dup3\n        /* \"#utility.yul\":12838:12848   */\n      gt\n        /* \"#utility.yul\":12835:12871   */\n      iszero\n      tag_334\n      jumpi\n        /* \"#utility.yul\":12851:12869   */\n      tag_335\n      tag_181\n      jump\t// in\n    tag_335:\n        /* \"#utility.yul\":12835:12871   */\n    tag_334:\n        /* \"#utility.yul\":12687:12878   */\n      swap3\n      swap2\n      pop\n      pop\n      jump\t// out\n        /* \"#utility.yul\":12884:13294   */\n    tag_100:\n        /* \"#utility.yul\":12924:12931   */\n      0x00\n        /* \"#utility.yul\":12947:12967   */\n      tag_337\n        /* \"#utility.yul\":12965:12966   */\n      dup3\n        /* \"#utility.yul\":12947:12967   */\n      tag_152\n      jump\t// in\n    tag_337:\n        /* \"#utility.yul\":12942:12967   */\n      swap2\n      pop\n        /* \"#utility.yul\":12981:13001   */\n      tag_338\n        /* \"#utility.yul\":12999:13000   */\n      dup4\n        /* \"#utility.yul\":12981:13001   */\n      tag_152\n      jump\t// in\n    tag_338:\n        /* \"#utility.yul\":12976:13001   */\n      swap3\n      pop\n        /* \"#utility.yul\":13036:13037   */\n      dup3\n        /* \"#utility.yul\":13033:13034   */\n      dup3\n        /* \"#utility.yul\":13029:13038   */\n      mul\n        /* \"#utility.yul\":13058:13088   */\n      tag_339\n        /* \"#utility.yul\":13076:13087   */\n      dup2\n        /* \"#utility.yul\":13058:13088   */\n      tag_152\n      jump\t// in\n    tag_339:\n        /* \"#utility.yul\":13047:13088   */\n      swap2\n      pop\n        /* \"#utility.yul\":13237:13238   */\n      dup3\n        /* \"#utility.yul\":13228:13235   */\n      dup3\n        /* \"#utility.yul\":13224:13239   */\n      div\n        /* \"#utility.yul\":13221:13222   */\n      dup5\n        /* \"#utility.yul\":13218:13240   */\n      eq\n        /* \"#utility.yul\":13198:13199   */\n      dup4\n        /* \"#utility.yul\":13191:13200   */\n      iszero\n        /* \"#utility.yul\":13171:13254   */\n      or\n        /* \"#utility.yul\":13148:13287   */\n      tag_340\n      jumpi\n        /* \"#utility.yul\":13267:13285   */\n      tag_341\n      tag_181\n      jump\t// in\n    tag_341:\n        /* \"#utility.yul\":13148:13287   */\n    tag_340:\n        /* \"#utility.yul\":12932:13294   */\n      pop\n        /* \"#utility.yul\":12884:13294   */\n      swap3\n      swap2\n      pop\n      pop\n      jump\t// out\n        /* \"#utility.yul\":13300:13480   */\n    tag_182:\n        /* \"#utility.yul\":13348:13425   */\n      0x4e487b7100000000000000000000000000000000000000000000000000000000\n        /* \"#utility.yul\":13345:13346   */\n      0x00\n        /* \"#utility.yul\":13338:13426   */\n      mstore\n        /* \"#utility.yul\":13445:13449   */\n      0x12\n        /* \"#utility.yul\":13442:13443   */\n      0x04\n        /* \"#utility.yul\":13435:13450   */\n      mstore\n        /* \"#utility.yul\":13469:13473   */\n      0x24\n        /* \"#utility.yul\":13466:13467   */\n      0x00\n        /* \"#utility.yul\":13459:13474   */\n      revert\n        /* \"#utility.yul\":13486:13671   */\n    tag_103:\n        /* \"#utility.yul\":13526:13527   */\n      0x00\n        /* \"#utility.yul\":13543:13563   */\n      tag_344\n        /* \"#utility.yul\":13561:13562   */\n      dup3\n        /* \"#utility.yul\":13543:13563   */\n      tag_152\n      jump\t// in\n    tag_344:\n        /* \"#utility.yul\":13538:13563   */\n      swap2\n      pop\n        /* \"#utility.yul\":13577:13597   */\n      tag_345\n        /* \"#utility.yul\":13595:13596   */\n      dup4\n        /* \"#utility.yul\":13577:13597   */\n      tag_152\n      jump\t// in\n    tag_345:\n        /* \"#utility.yul\":13572:13597   */\n      swap3\n      pop\n        /* \"#utility.yul\":13616:13617   */\n      dup3\n        /* \"#utility.yul\":13606:13641   */\n      tag_346\n      jumpi\n        /* \"#utility.yul\":13621:13639   */\n      tag_347\n      tag_182\n      jump\t// in\n    tag_347:\n        /* \"#utility.yul\":13606:13641   */\n    tag_346:\n        /* \"#utility.yul\":13663:13664   */\n      dup3\n        /* \"#utility.yul\":13660:13661   */\n      dup3\n        /* \"#utility.yul\":13656:13665   */\n      div\n        /* \"#utility.yul\":13651:13665   */\n      swap1\n      pop\n        /* \"#utility.yul\":13486:13671   */\n      swap3\n      swap2\n      pop\n      pop\n      jump\t// out\n        /* \"#utility.yul\":13677:13910   */\n    tag_105:\n        /* \"#utility.yul\":13716:13719   */\n      0x00\n        /* \"#utility.yul\":13739:13763   */\n      tag_349\n        /* \"#utility.yul\":13757:13762   */\n      dup3\n        /* \"#utility.yul\":13739:13763   */\n      tag_152\n      jump\t// in\n    tag_349:\n        /* \"#utility.yul\":13730:13763   */\n      swap2\n      pop\n        /* \"#utility.yul\":13785:13851   */\n      0xffffffffffffffffffffffffffffffffffffffffffffffffffffffffffffffff\n        /* \"#utility.yul\":13778:13783   */\n      dup3\n        /* \"#utility.yul\":13775:13852   */\n      sub\n        /* \"#utility.yul\":13772:13875   */\n      tag_350\n      jumpi\n        /* \"#utility.yul\":13855:13873   */\n      tag_351\n      tag_181\n      jump\t// in\n    tag_351:\n        /* \"#utility.yul\":13772:13875   */\n    tag_350:\n        /* \"#utility.yul\":13902:13903   */\n      0x01\n        /* \"#utility.yul\":13895:13900   */\n      dup3\n        /* \"#utility.yul\":13891:13904   */\n      add\n        /* \"#utility.yul\":13884:13904   */\n      swap1\n      pop\n        /* \"#utility.yul\":13677:13910   */\n      swap2\n      swap1\n      pop\n      jump\t// out\n        /* \"#utility.yul\":13916:14358   */\n    tag_108:\n        /* \"#utility.yul\":14065:14069   */\n      0x00\n        /* \"#utility.yul\":14103:14105   */\n      0x60\n        /* \"#utility.yul\":14092:14101   */\n      dup3\n        /* \"#utility.yul\":14088:14106   */\n      add\n        /* \"#utility.yul\":14080:14106   */\n      swap1\n      pop\n        /* \"#utility.yul\":14116:14187   */\n      tag_353\n        /* \"#utility.yul\":14184:14185   */\n      0x00\n        /* \"#utility.yul\":14173:14182   */\n      dup4\n        /* \"#utility.yul\":14169:14186   */\n      add\n        /* \"#utility.yul\":14160:14166   */\n      dup7\n        /* \"#utility.yul\":14116:14187   */\n      tag_164\n      jump\t// in\n    tag_353:\n        /* \"#utility.yul\":14197:14269   */\n      tag_354\n        /* \"#utility.yul\":14265:14267   */\n      0x20\n        /* \"#utility.yul\":14254:14263   */\n      dup4\n        /* \"#utility.yul\":14250:14268   */\n      add\n        /* \"#utility.yul\":14241:14247   */\n      dup6\n        /* \"#utility.yul\":14197:14269   */\n      tag_164\n      jump\t// in\n    tag_354:\n        /* \"#utility.yul\":14279:14351   */\n      tag_355\n        /* \"#utility.yul\":14347:14349   */\n      0x40\n        /* \"#utility.yul\":14336:14345   */\n      dup4\n        /* \"#utility.yul\":14332:14350   */\n      add\n        /* \"#utility.yul\":14323:14329   */\n      dup5\n        /* \"#utility.yul\":14279:14351   */\n      tag_171\n      jump\t// in\n    tag_355:\n        /* \"#utility.yul\":13916:14358   */\n      swap5\n      swap4\n      pop\n      pop\n      pop\n      pop\n      jump\t// out\n        /* \"#utility.yul\":14364:14696   */\n    tag_113:\n        /* \"#utility.yul\":14485:14489   */\n      0x00\n        /* \"#utility.yul\":14523:14525   */\n      0x40\n        /* \"#utility.yul\":14512:14521   */\n      dup3\n        /* \"#utility.yul\":14508:14526   */\n      add\n        /* \"#utility.yul\":14500:14526   */\n      swap1\n      pop\n        /* \"#utility.yul\":14536:14607   */\n      tag_357\n        /* \"#utility.yul\":14604:14605   */\n      0x00\n        /* \"#utility.yul\":14593:14602   */\n      dup4\n        /* \"#utility.yul\":14589:14606   */\n      add\n        /* \"#utility.yul\":14580:14586   */\n      dup6\n        /* \"#utility.yul\":14536:14607   */\n      tag_164\n      jump\t// in\n    tag_357:\n        /* \"#utility.yul\":14617:14689   */\n      tag_358\n        /* \"#utility.yul\":14685:14687   */\n      0x20\n        /* \"#utility.yul\":14674:14683   */\n      dup4\n        /* \"#utility.yul\":14670:14688   */\n      add\n        /* \"#utility.yul\":14661:14667   */\n      dup5\n        /* \"#utility.yul\":14617:14689   */\n      tag_171\n      jump\t// in\n    tag_358:\n        /* \"#utility.yul\":14364:14696   */\n      swap4\n      swap3\n      pop\n      pop\n      pop\n      jump\t// out\n        /* \"#utility.yul\":14702:14800   */\n    tag_183:\n        /* \"#utility.yul\":14753:14759   */\n      0x00\n        /* \"#utility.yul\":14787:14792   */\n      dup2\n        /* \"#utility.yul\":14781:14793   */\n      mload\n        /* \"#utility.yul\":14771:14793   */\n      swap1\n      pop\n        /* \"#utility.yul\":14702:14800   */\n      swap2\n      swap1\n      pop\n      jump\t// out\n        /* \"#utility.yul\":14806:14953   */\n    tag_184:\n        /* \"#utility.yul\":14907:14918   */\n      0x00\n        /* \"#utility.yul\":14944:14947   */\n      dup2\n        /* \"#utility.yul\":14929:14947   */\n      swap1\n      pop\n        /* \"#utility.yul\":14806:14953   */\n      swap3\n      swap2\n      pop\n      pop\n      jump\t// out\n        /* \"#utility.yul\":14959:15098   */\n    tag_185:\n        /* \"#utility.yul\":15048:15054   */\n      dup3\n        /* \"#utility.yul\":15043:15046   */\n      dup2\n        /* \"#utility.yul\":15038:15041   */\n      dup4\n        /* \"#utility.yul\":15032:15055   */\n      mcopy\n        /* \"#utility.yul\":15089:15090   */\n      0x00\n        /* \"#utility.yul\":15080:15086   */\n      dup4\n        /* \"#utility.yul\":15075:15078   */\n      dup4\n        /* \"#utility.yul\":15071:15087   */\n      add\n        /* \"#utility.yul\":15064:15091   */\n      mstore\n        /* \"#utility.yul\":14959:15098   */\n      pop\n      pop\n      pop\n      jump\t// out\n        /* \"#utility.yul\":15104:15490   */\n    tag_186:\n        /* \"#utility.yul\":15208:15211   */\n      0x00\n        /* \"#utility.yul\":15236:15274   */\n      tag_363\n        /* \"#utility.yul\":15268:15273   */\n      dup3\n        /* \"#utility.yul\":15236:15274   */\n      tag_183\n      jump\t// in\n    tag_363:\n        /* \"#utility.yul\":15290:15378   */\n      tag_364\n        /* \"#utility.yul\":15371:15377   */\n      dup2\n        /* \"#utility.yul\":15366:15369   */\n      dup6\n        /* \"#utility.yul\":15290:15378   */\n      tag_184\n      jump\t// in\n    tag_364:\n        /* \"#utility.yul\":15283:15378   */\n      swap4\n      pop\n        /* \"#utility.yul\":15387:15452   */\n      tag_365\n        /* \"#utility.yul\":15445:15451   */\n      dup2\n        /* \"#utility.yul\":15440:15443   */\n      dup6\n        /* \"#utility.yul\":15433:15437   */\n      0x20\n        /* \"#utility.yul\":15426:15431   */\n      dup7\n        /* \"#utility.yul\":15422:15438   */\n      add\n        /* \"#utility.yul\":15387:15452   */\n      tag_185\n      jump\t// in\n    tag_365:\n        /* \"#utility.yul\":15477:15483   */\n      dup1\n        /* \"#utility.yul\":15472:15475   */\n      dup5\n        /* \"#utility.yul\":15468:15484   */\n      add\n        /* \"#utility.yul\":15461:15484   */\n      swap2\n      pop\n        /* \"#utility.yul\":15212:15490   */\n      pop\n        /* \"#utility.yul\":15104:15490   */\n      swap3\n      swap2\n      pop\n      pop\n      jump\t// out\n        /* \"#utility.yul\":15496:15767   */\n    tag_141:\n        /* \"#utility.yul\":15626:15629   */\n      0x00\n        /* \"#utility.yul\":15648:15741   */\n      tag_367\n        /* \"#utility.yul\":15737:15740   */\n      dup3\n        /* \"#utility.yul\":15728:15734   */\n      dup5\n        /* \"#utility.yul\":15648:15741   */\n      tag_186\n      jump\t// in\n    tag_367:\n        /* \"#utility.yul\":15641:15741   */\n      swap2\n      pop\n        /* \"#utility.yul\":15758:15761   */\n      dup2\n        /* \"#utility.yul\":15751:15761   */\n      swap1\n      pop\n        /* \"#utility.yul\":15496:15767   */\n      swap3\n      swap2\n      pop\n      pop\n      jump\t// out\n\n    auxdata: 0xa2646970667358221220a32e13209646ad83177ce908cdb232c80c4669e164d9a7df70ffc90513044dd164736f6c634300081a0033\n}\n",
				"bytecode": {
					"linkReferences": {},
					"object": "610140604052600161012090815250348015610019575f80fd5b5060405161238e38038061238e833981810160405281019061003b91906103d4565b8573ffffffffffffffffffffffffffffffffffffffff1660808173ffffffffffffffffffffffffffffffffffffffff16815250508460a081815250508373ffffffffffffffffffffffffffffffffffffffff1660e08173ffffffffffffffffffffffffffffffffffffffff16815250506101086100dc846040516020016100c291906104d9565b60405160208183030381529060405261014f60201b60201c565b836040516020016100ee92919061050f565b60405160208183030381529060405261014f60201b60201c565b61010081815250508073ffffffffffffffffffffffffffffffffffffffff1660c08173ffffffffffffffffffffffffffffffffffffffff1681525050505050505050610590565b5f600882604051602001610163919061057a565b604051602081830303815290604052805190602001205f1c901c9050919050565b5f604051905090565b5f80fd5b5f80fd5b5f73ffffffffffffffffffffffffffffffffffffffff82169050919050565b5f6101be82610195565b9050919050565b6101ce816101b4565b81146101d8575f80fd5b50565b5f815190506101e9816101c5565b92915050565b5f819050919050565b610201816101ef565b811461020b575f80fd5b50565b5f8151905061021c816101f8565b92915050565b5f61022c826101b4565b9050919050565b61023c81610222565b8114610246575f80fd5b50565b5f8151905061025781610233565b92915050565b5f80fd5b5f80fd5b5f601f19601f8301169050919050565b7f4e487b71000000000000000000000000000000000000000000000000000000005f52604160045260245ffd5b6102ab82610265565b810181811067ffffffffffffffff821117156102ca576102c9610275565b5b80604052505050565b5f6102dc610184565b90506102e882826102a2565b919050565b5f67ffffffffffffffff82111561030757610306610275565b5b61031082610265565b9050602081019050919050565b8281835e5f83830152505050565b5f61033d610338846102ed565b6102d3565b90508281526020810184848401111561035957610358610261565b5b61036484828561031d565b509392505050565b5f82601f8301126103805761037f61025d565b5b815161039084826020860161032b565b91505092915050565b5f6103a3826101b4565b9050919050565b6103b381610399565b81146103bd575f80fd5b50565b5f815190506103ce816103aa565b92915050565b5f805f805f8060c087890312156103ee576103ed61018d565b5b5f6103fb89828a016101db565b965050602061040c89828a0161020e565b955050604061041d89828a01610249565b945050606087015167ffffffffffffffff81111561043e5761043d610191565b5b61044a89828a0161036c565b935050608087015167ffffffffffffffff81111561046b5761046a610191565b5b61047789828a0161036c565b92505060a061048889828a016103c0565b9150509295509295509295565b5f81519050919050565b5f81905092915050565b5f6104b382610495565b6104bd818561049f565b93506104cd81856020860161031d565b80840191505092915050565b5f6104e482846104a9565b915081905092915050565b5f819050919050565b610509610504826101ef565b6104ef565b82525050565b5f61051a82856104f8565b60208201915061052a82846104a9565b91508190509392505050565b5f81519050919050565b5f81905092915050565b5f61055482610536565b61055e8185610540565b935061056e81856020860161031d565b80840191505092915050565b5f610585828461054a565b915081905092915050565b60805160a05160c05160e0516101005161012051611d786106165f395f81816103ea01526108bb01525f8181610434015261090501525f81816103ad015261087e01525f818161025a0152818161029701528181610c5601528181610d0301528181611179015261122601525f8181610bb701526110ae01525f6102030152611d785ff3fe608060405260043610610085575f3560e01c8063571702a211610058578063571702a21461011d5780635ec4a9cd146101595780637477526614610181578063bddbed0b1461019d578063beec5054146101d957610085565b80630b7e9c4414610089578063113406fe146100b15780632a06ea2d146100d95780634778f73514610101575b5f80fd5b348015610094575f80fd5b506100af60048036038101906100aa919061156b565b610201565b005b3480156100bc575f80fd5b506100d760048036038101906100d2919061168c565b61038e565b005b3480156100e4575f80fd5b506100ff60048036038101906100fa9190611728565b6103ab565b005b61011b600480360381019061011691906117c6565b61087c565b005b348015610128575f80fd5b50610143600480360381019061013e919061183e565b610daf565b6040516101509190611878565b60405180910390f35b348015610164575f80fd5b5061017f600480360381019061017a919061183e565b610df2565b005b61019b6004803603810190610196919061183e565b610f3f565b005b3480156101a8575f80fd5b506101c360048036038101906101be919061183e565b6112cd565b6040516101d09190611878565b60405180910390f35b3480156101e4575f80fd5b506101ff60048036038101906101fa9190611891565b61130f565b005b7f000000000000000000000000000000000000000000000000000000000000000073ffffffffffffffffffffffffffffffffffffffff163373ffffffffffffffffffffffffffffffffffffffff1614610258575f80fd5b7f000000000000000000000000000000000000000000000000000000000000000073ffffffffffffffffffffffffffffffffffffffff1663a9059cbb827f000000000000000000000000000000000000000000000000000000000000000073ffffffffffffffffffffffffffffffffffffffff166370a08231306040518263ffffffff1660e01b81526004016102ee9190611917565b602060405180830381865afa158015610309573d5f803e3d5ffd5b505050506040513d601f19601f8201168201806040525081019061032d9190611944565b6040518363ffffffff1660e01b815260040161034a9291906119d9565b6020604051808303815f875af1158015610366573d5f803e3d5ffd5b505050506040513d601f19601f8201168201806040525081019061038a9190611a35565b5050565b61039785610df2565b6103a4858286868661130f565b5050505050565b7f000000000000000000000000000000000000000000000000000000000000000073ffffffffffffffffffffffffffffffffffffffff16633bc778e3847f00000000000000000000000000000000000000000000000000000000000000006104318860405160200161041d9190611aa5565b6040516020818303038152906040526114d8565b867f0000000000000000000000000000000000000000000000000000000000000000876040518763ffffffff1660e01b815260040161047596959493929190611ad9565b5f6040518083038186803b15801561048b575f80fd5b505afa15801561049d573d5f803e3d5ffd5b505050505f805f896fffffffffffffffffffffffffffffffff19166fffffffffffffffffffffffffffffffff191681526020019081526020015f206040518060c00160405290815f82015f9054906101000a900460801b6fffffffffffffffffffffffffffffffff19166fffffffffffffffffffffffffffffffff19168152602001600182015481526020016002820154815260200160038201548152602001600482015f9054906101000a900473ffffffffffffffffffffffffffffffffffffffff1673ffffffffffffffffffffffffffffffffffffffff1673ffffffffffffffffffffffffffffffffffffffff168152602001600582015f9054906101000a900473ffffffffffffffffffffffffffffffffffffffff1673ffffffffffffffffffffffffffffffffffffffff1673ffffffffffffffffffffffffffffffffffffffff168152505090505f801b8160200151036105f9575f80fd5b5f151560045f8581526020019081526020015f205f835f01516fffffffffffffffffffffffffffffffff19166fffffffffffffffffffffffffffffffff191681526020019081526020015f205f9054906101000a900460ff1615151461065d575f80fd5b5f60035f8581526020019081526020015f205f8a6fffffffffffffffffffffffffffffffff19166fffffffffffffffffffffffffffffffff191681526020019081526020015f205460025f3373ffffffffffffffffffffffffffffffffffffffff1673ffffffffffffffffffffffffffffffffffffffff1681526020019081526020015f205f8b6fffffffffffffffffffffffffffffffff19166fffffffffffffffffffffffffffffffff191681526020019081526020015f20546107229190611b66565b90505f811161072f575f80fd5b600160045f8681526020019081526020015f205f845f01516fffffffffffffffffffffffffffffffff19166fffffffffffffffffffffffffffffffff191681526020019081526020015f205f6101000a81548160ff0219169083151502179055506040518060600160405280896fffffffffffffffffffffffffffffffff191681526020018881526020018a6fffffffffffffffffffffffffffffffff191681525060015f8a6fffffffffffffffffffffffffffffffff19166fffffffffffffffffffffffffffffffff191681526020019081526020015f205f820151815f015f6101000a8154816fffffffffffffffffffffffffffffffff021916908360801c0217905550602082015181600101556040820151816002015f6101000a8154816fffffffffffffffffffffffffffffffff021916908360801c0217905550905050505050505050505050565b7f000000000000000000000000000000000000000000000000000000000000000073ffffffffffffffffffffffffffffffffffffffff16633bc778e3847f0000000000000000000000000000000000000000000000000000000000000000610902886040516020016108ee9190611aa5565b6040516020818303038152906040526114d8565b867f0000000000000000000000000000000000000000000000000000000000000000876040518763ffffffff1660e01b815260040161094696959493929190611ad9565b5f6040518083038186803b15801561095c575f80fd5b505afa15801561096e573d5f803e3d5ffd5b505050505f805f876fffffffffffffffffffffffffffffffff19166fffffffffffffffffffffffffffffffff191681526020019081526020015f206040518060c00160405290815f82015f9054906101000a900460801b6fffffffffffffffffffffffffffffffff19166fffffffffffffffffffffffffffffffff19168152602001600182015481526020016002820154815260200160038201548152602001600482015f9054906101000a900473ffffffffffffffffffffffffffffffffffffffff1673ffffffffffffffffffffffffffffffffffffffff1673ffffffffffffffffffffffffffffffffffffffff168152602001600582015f9054906101000a900473ffffffffffffffffffffffffffffffffffffffff1673ffffffffffffffffffffffffffffffffffffffff1673ffffffffffffffffffffffffffffffffffffffff168152505090505f801b816020015103610aca575f80fd5b5f60035f8581526020019081526020015f205f886fffffffffffffffffffffffffffffffff19166fffffffffffffffffffffffffffffffff191681526020019081526020015f205460025f3373ffffffffffffffffffffffffffffffffffffffff1673ffffffffffffffffffffffffffffffffffffffff1681526020019081526020015f205f896fffffffffffffffffffffffffffffffff19166fffffffffffffffffffffffffffffffff191681526020019081526020015f2054610b8f9190611b66565b90505f8260600151118015610ba75750816060015181105b610baf575f80fd5b5f61271060647f0000000000000000000000000000000000000000000000000000000000000000610be09190611b99565b8460400151610bef9190611b99565b610bf99190611c07565b905060035f8681526020019081526020015f205f896fffffffffffffffffffffffffffffffff19166fffffffffffffffffffffffffffffffff191681526020019081526020015f205f8154610c4d90611c37565b919050819055507f000000000000000000000000000000000000000000000000000000000000000073ffffffffffffffffffffffffffffffffffffffff166323b872dd3330848760400151610ca29190611b66565b6040518463ffffffff1660e01b8152600401610cc093929190611c7e565b6020604051808303815f875af1158015610cdc573d5f803e3d5ffd5b505050506040513d601f19601f82011682018060405250810190610d009190611a35565b507f000000000000000000000000000000000000000000000000000000000000000073ffffffffffffffffffffffffffffffffffffffff1663a9059cbb846080015185604001516040518363ffffffff1660e01b8152600401610d64929190611cb3565b6020604051808303815f875af1158015610d80573d5f803e3d5ffd5b505050506040513d601f19601f82011682018060405250810190610da49190611a35565b505050505050505050565b5f60015f836fffffffffffffffffffffffffffffffff19166fffffffffffffffffffffffffffffffff191681526020019081526020015f20600101549050919050565b3373ffffffffffffffffffffffffffffffffffffffff165f80836fffffffffffffffffffffffffffffffff19166fffffffffffffffffffffffffffffffff191681526020019081526020015f206005015f9054906101000a900473ffffffffffffffffffffffffffffffffffffffff1673ffffffffffffffffffffffffffffffffffffffff1614610e81575f80fd5b5f80826fffffffffffffffffffffffffffffffff19166fffffffffffffffffffffffffffffffff191681526020019081526020015f205f8082015f6101000a8154906fffffffffffffffffffffffffffffffff0219169055600182015f9055600282015f9055600382015f9055600482015f6101000a81549073ffffffffffffffffffffffffffffffffffffffff0219169055600582015f6101000a81549073ffffffffffffffffffffffffffffffffffffffff0219169055505050565b5f805f836fffffffffffffffffffffffffffffffff19166fffffffffffffffffffffffffffffffff191681526020019081526020015f206040518060c00160405290815f82015f9054906101000a900460801b6fffffffffffffffffffffffffffffffff19166fffffffffffffffffffffffffffffffff19168152602001600182015481526020016002820154815260200160038201548152602001600482015f9054906101000a900473ffffffffffffffffffffffffffffffffffffffff1673ffffffffffffffffffffffffffffffffffffffff1673ffffffffffffffffffffffffffffffffffffffff168152602001600582015f9054906101000a900473ffffffffffffffffffffffffffffffffffffffff1673ffffffffffffffffffffffffffffffffffffffff1673ffffffffffffffffffffffffffffffffffffffff168152505090505f801b816020015103611097575f80fd5b5f8160600151146110a6575f80fd5b5f61271060647f00000000000000000000000000000000000000000000000000000000000000006110d79190611b99565b83604001516110e69190611b99565b6110f09190611c07565b905060025f3373ffffffffffffffffffffffffffffffffffffffff1673ffffffffffffffffffffffffffffffffffffffff1681526020019081526020015f205f846fffffffffffffffffffffffffffffffff19166fffffffffffffffffffffffffffffffff191681526020019081526020015f205f815461117090611c37565b919050819055507f000000000000000000000000000000000000000000000000000000000000000073ffffffffffffffffffffffffffffffffffffffff166323b872dd33308486604001516111c59190611b66565b6040518463ffffffff1660e01b81526004016111e393929190611c7e565b6020604051808303815f875af11580156111ff573d5f803e3d5ffd5b505050506040513d601f19601f820116820180604052508101906112239190611a35565b507f000000000000000000000000000000000000000000000000000000000000000073ffffffffffffffffffffffffffffffffffffffff1663a9059cbb836080015184604001516040518363ffffffff1660e01b8152600401611287929190611cb3565b6020604051808303815f875af11580156112a3573d5f803e3d5ffd5b505050506040513d601f19601f820116820180604052508101906112c79190611a35565b50505050565b5f805f836fffffffffffffffffffffffffffffffff19166fffffffffffffffffffffffffffffffff191681526020019081526020015f20600101549050919050565b5f801b5f80876fffffffffffffffffffffffffffffffff19166fffffffffffffffffffffffffffffffff191681526020019081526020015f206001015414611355575f80fd5b6040518060c00160405280866fffffffffffffffffffffffffffffffff191681526020018581526020018481526020018381526020018273ffffffffffffffffffffffffffffffffffffffff1681526020013373ffffffffffffffffffffffffffffffffffffffff168152505f80876fffffffffffffffffffffffffffffffff19166fffffffffffffffffffffffffffffffff191681526020019081526020015f205f820151815f015f6101000a8154816fffffffffffffffffffffffffffffffff021916908360801c02179055506020820151816001015560408201518160020155606082015181600301556080820151816004015f6101000a81548173ffffffffffffffffffffffffffffffffffffffff021916908373ffffffffffffffffffffffffffffffffffffffff16021790555060a0820151816005015f6101000a81548173ffffffffffffffffffffffffffffffffffffffff021916908373ffffffffffffffffffffffffffffffffffffffff1602179055509050505050505050565b5f6008826040516020016114ec9190611d2c565b604051602081830303815290604052805190602001205f1c901c9050919050565b5f80fd5b5f73ffffffffffffffffffffffffffffffffffffffff82169050919050565b5f61153a82611511565b9050919050565b61154a81611530565b8114611554575f80fd5b50565b5f8135905061156581611541565b92915050565b5f602082840312156115805761157f61150d565b5b5f61158d84828501611557565b91505092915050565b5f7fffffffffffffffffffffffffffffffff0000000000000000000000000000000082169050919050565b6115ca81611596565b81146115d4575f80fd5b50565b5f813590506115e5816115c1565b92915050565b5f819050919050565b6115fd816115eb565b8114611607575f80fd5b50565b5f81359050611618816115f4565b92915050565b5f61162882611511565b9050919050565b6116388161161e565b8114611642575f80fd5b50565b5f813590506116538161162f565b92915050565b5f819050919050565b61166b81611659565b8114611675575f80fd5b50565b5f8135905061168681611662565b92915050565b5f805f805f60a086880312156116a5576116a461150d565b5b5f6116b2888289016115d7565b95505060206116c38882890161160a565b94505060406116d48882890161160a565b93505060606116e588828901611645565b92505060806116f688828901611678565b9150509295509295909350565b5f80fd5b5f8190508260206008028201111561172257611721611703565b5b92915050565b5f805f805f805f6101c0888a0312156117445761174361150d565b5b5f6117518a828b016115d7565b97505060206117628a828b016115d7565b96505060406117738a828b01611678565b95505060606117848a828b01611645565b94505060806117958a828b0161160a565b93505060a06117a68a828b0161160a565b92505060c06117b78a828b01611707565b91505092959891949750929550565b5f805f805f61018086880312156117e0576117df61150d565b5b5f6117ed888289016115d7565b95505060206117fe88828901611645565b945050604061180f8882890161160a565b93505060606118208882890161160a565b925050608061183188828901611707565b9150509295509295909350565b5f602082840312156118535761185261150d565b5b5f611860848285016115d7565b91505092915050565b61187281611659565b82525050565b5f60208201905061188b5f830184611869565b92915050565b5f805f805f60a086880312156118aa576118a961150d565b5b5f6118b7888289016115d7565b95505060206118c888828901611678565b94505060406118d98882890161160a565b93505060606118ea8882890161160a565b92505060806118fb88828901611645565b9150509295509295909350565b6119118161161e565b82525050565b5f60208201905061192a5f830184611908565b92915050565b5f8151905061193e816115f4565b92915050565b5f602082840312156119595761195861150d565b5b5f61196684828501611930565b91505092915050565b5f819050919050565b5f61199261198d61198884611511565b61196f565b611511565b9050919050565b5f6119a382611978565b9050919050565b5f6119b482611999565b9050919050565b6119c4816119aa565b82525050565b6119d3816115eb565b82525050565b5f6040820190506119ec5f8301856119bb565b6119f960208301846119ca565b9392505050565b5f8115159050919050565b611a1481611a00565b8114611a1e575f80fd5b50565b5f81519050611a2f81611a0b565b92915050565b5f60208284031215611a4a57611a4961150d565b5b5f611a5784828501611a21565b91505092915050565b5f8160601b9050919050565b5f611a7682611a60565b9050919050565b5f611a8782611a6c565b9050919050565b611a9f611a9a8261161e565b611a7d565b82525050565b5f611ab08284611a8e565b60148201915081905092915050565b82818337505050565b611ad56101008383611abf565b5050565b5f6101a082019050611aed5f8301896119ca565b611afa60208301886119ca565b611b0760408301876119ca565b611b1460608301866119ca565b611b2160808301856119ca565b611b2e60a0830184611ac8565b979650505050505050565b7f4e487b71000000000000000000000000000000000000000000000000000000005f52601160045260245ffd5b5f611b70826115eb565b9150611b7b836115eb565b9250828201905080821115611b9357611b92611b39565b5b92915050565b5f611ba3826115eb565b9150611bae836115eb565b9250828202611bbc816115eb565b91508282048414831517611bd357611bd2611b39565b5b5092915050565b7f4e487b71000000000000000000000000000000000000000000000000000000005f52601260045260245ffd5b5f611c11826115eb565b9150611c1c836115eb565b925082611c2c57611c2b611bda565b5b828204905092915050565b5f611c41826115eb565b91507fffffffffffffffffffffffffffffffffffffffffffffffffffffffffffffffff8203611c7357611c72611b39565b5b600182019050919050565b5f606082019050611c915f830186611908565b611c9e6020830185611908565b611cab60408301846119ca565b949350505050565b5f604082019050611cc65f830185611908565b611cd360208301846119ca565b9392505050565b5f81519050919050565b5f81905092915050565b8281835e5f83830152505050565b5f611d0682611cda565b611d108185611ce4565b9350611d20818560208601611cee565b80840191505092915050565b5f611d378284611cfc565b91508190509291505056fea2646970667358221220a32e13209646ad83177ce908cdb232c80c4669e164d9a7df70ffc90513044dd164736f6c634300081a0033",
					"opcodes": "PUSH2 0x140 PUSH1 0x40 MSTORE PUSH1 0x1 PUSH2 0x120 SWAP1 DUP2 MSTORE POP CALLVALUE DUP1 ISZERO PUSH2 0x19 JUMPI PUSH0 DUP1 REVERT JUMPDEST POP PUSH1 0x40 MLOAD PUSH2 0x238E CODESIZE SUB DUP1 PUSH2 0x238E DUP4 CODECOPY DUP2 DUP2 ADD PUSH1 0x40 MSTORE DUP2 ADD SWAP1 PUSH2 0x3B SWAP2 SWAP1 PUSH2 0x3D4 JUMP JUMPDEST DUP6 PUSH20 0xFFFFFFFFFFFFFFFFFFFFFFFFFFFFFFFFFFFFFFFF AND PUSH1 0x80 DUP2 PUSH20 0xFFFFFFFFFFFFFFFFFFFFFFFFFFFFFFFFFFFFFFFF AND DUP2 MSTORE POP POP DUP5 PUSH1 0xA0 DUP2 DUP2 MSTORE POP POP DUP4 PUSH20 0xFFFFFFFFFFFFFFFFFFFFFFFFFFFFFFFFFFFFFFFF AND PUSH1 0xE0 DUP2 PUSH20 0xFFFFFFFFFFFFFFFFFFFFFFFFFFFFFFFFFFFFFFFF AND DUP2 MSTORE POP POP PUSH2 0x108 PUSH2 0xDC DUP5 PUSH1 0x40 MLOAD PUSH1 0x20 ADD PUSH2 0xC2 SWAP2 SWAP1 PUSH2 0x4D9 JUMP JUMPDEST PUSH1 0x40 MLOAD PUSH1 0x20 DUP2 DUP4 SUB SUB DUP2 MSTORE SWAP1 PUSH1 0x40 MSTORE PUSH2 0x14F PUSH1 0x20 SHL PUSH1 0x20 SHR JUMP JUMPDEST DUP4 PUSH1 0x40 MLOAD PUSH1 0x20 ADD PUSH2 0xEE SWAP3 SWAP2 SWAP1 PUSH2 0x50F JUMP JUMPDEST PUSH1 0x40 MLOAD PUSH1 0x20 DUP2 DUP4 SUB SUB DUP2 MSTORE SWAP1 PUSH1 0x40 MSTORE PUSH2 0x14F PUSH1 0x20 SHL PUSH1 0x20 SHR JUMP JUMPDEST PUSH2 0x100 DUP2 DUP2 MSTORE POP POP DUP1 PUSH20 0xFFFFFFFFFFFFFFFFFFFFFFFFFFFFFFFFFFFFFFFF AND PUSH1 0xC0 DUP2 PUSH20 0xFFFFFFFFFFFFFFFFFFFFFFFFFFFFFFFFFFFFFFFF AND DUP2 MSTORE POP POP POP POP POP POP POP POP PUSH2 0x590 JUMP JUMPDEST PUSH0 PUSH1 0x8 DUP3 PUSH1 0x40 MLOAD PUSH1 0x20 ADD PUSH2 0x163 SWAP2 SWAP1 PUSH2 0x57A JUMP JUMPDEST PUSH1 0x40 MLOAD PUSH1 0x20 DUP2 DUP4 SUB SUB DUP2 MSTORE SWAP1 PUSH1 0x40 MSTORE DUP1 MLOAD SWAP1 PUSH1 0x20 ADD KECCAK256 PUSH0 SHR SWAP1 SHR SWAP1 POP SWAP2 SWAP1 POP JUMP JUMPDEST PUSH0 PUSH1 0x40 MLOAD SWAP1 POP SWAP1 JUMP JUMPDEST PUSH0 DUP1 REVERT JUMPDEST PUSH0 DUP1 REVERT JUMPDEST PUSH0 PUSH20 0xFFFFFFFFFFFFFFFFFFFFFFFFFFFFFFFFFFFFFFFF DUP3 AND SWAP1 POP SWAP2 SWAP1 POP JUMP JUMPDEST PUSH0 PUSH2 0x1BE DUP3 PUSH2 0x195 JUMP JUMPDEST SWAP1 POP SWAP2 SWAP1 POP JUMP JUMPDEST PUSH2 0x1CE DUP2 PUSH2 0x1B4 JUMP JUMPDEST DUP2 EQ PUSH2 0x1D8 JUMPI PUSH0 DUP1 REVERT JUMPDEST POP JUMP JUMPDEST PUSH0 DUP2 MLOAD SWAP1 POP PUSH2 0x1E9 DUP2 PUSH2 0x1C5 JUMP JUMPDEST SWAP3 SWAP2 POP POP JUMP JUMPDEST PUSH0 DUP2 SWAP1 POP SWAP2 SWAP1 POP JUMP JUMPDEST PUSH2 0x201 DUP2 PUSH2 0x1EF JUMP JUMPDEST DUP2 EQ PUSH2 0x20B JUMPI PUSH0 DUP1 REVERT JUMPDEST POP JUMP JUMPDEST PUSH0 DUP2 MLOAD SWAP1 POP PUSH2 0x21C DUP2 PUSH2 0x1F8 JUMP JUMPDEST SWAP3 SWAP2 POP POP JUMP JUMPDEST PUSH0 PUSH2 0x22C DUP3 PUSH2 0x1B4 JUMP JUMPDEST SWAP1 POP SWAP2 SWAP1 POP JUMP JUMPDEST PUSH2 0x23C DUP2 PUSH2 0x222 JUMP JUMPDEST DUP2 EQ PUSH2 0x246 JUMPI PUSH0 DUP1 REVERT JUMPDEST POP JUMP JUMPDEST PUSH0 DUP2 MLOAD SWAP1 POP PUSH2 0x257 DUP2 PUSH2 0x233 JUMP JUMPDEST SWAP3 SWAP2 POP POP JUMP JUMPDEST PUSH0 DUP1 REVERT JUMPDEST PUSH0 DUP1 REVERT JUMPDEST PUSH0 PUSH1 0x1F NOT PUSH1 0x1F DUP4 ADD AND SWAP1 POP SWAP2 SWAP1 POP JUMP JUMPDEST PUSH32 0x4E487B7100000000000000000000000000000000000000000000000000000000 PUSH0 MSTORE PUSH1 0x41 PUSH1 0x4 MSTORE PUSH1 0x24 PUSH0 REVERT JUMPDEST PUSH2 0x2AB DUP3 PUSH2 0x265 JUMP JUMPDEST DUP2 ADD DUP2 DUP2 LT PUSH8 0xFFFFFFFFFFFFFFFF DUP3 GT OR ISZERO PUSH2 0x2CA JUMPI PUSH2 0x2C9 PUSH2 0x275 JUMP JUMPDEST JUMPDEST DUP1 PUSH1 0x40 MSTORE POP POP POP JUMP JUMPDEST PUSH0 PUSH2 0x2DC PUSH2 0x184 JUMP JUMPDEST SWAP1 POP PUSH2 0x2E8 DUP3 DUP3 PUSH2 0x2A2 JUMP JUMPDEST SWAP2 SWAP1 POP JUMP JUMPDEST PUSH0 PUSH8 0xFFFFFFFFFFFFFFFF DUP3 GT ISZERO PUSH2 0x307 JUMPI PUSH2 0x306 PUSH2 0x275 JUMP JUMPDEST JUMPDEST PUSH2 0x310 DUP3 PUSH2 0x265 JUMP JUMPDEST SWAP1 POP PUSH1 0x20 DUP2 ADD SWAP1 POP SWAP2 SWAP1 POP JUMP JUMPDEST DUP3 DUP2 DUP4 MCOPY PUSH0 DUP4 DUP4 ADD MSTORE POP POP POP JUMP JUMPDEST PUSH0 PUSH2 0x33D PUSH2 0x338 DUP5 PUSH2 0x2ED JUMP JUMPDEST PUSH2 0x2D3 JUMP JUMPDEST SWAP1 POP DUP3 DUP2 MSTORE PUSH1 0x20 DUP2 ADD DUP5 DUP5 DUP5 ADD GT ISZERO PUSH2 0x359 JUMPI PUSH2 0x358 PUSH2 0x261 JUMP JUMPDEST JUMPDEST PUSH2 0x364 DUP5 DUP3 DUP6 PUSH2 0x31D JUMP JUMPDEST POP SWAP4 SWAP3 POP POP POP JUMP JUMPDEST PUSH0 DUP3 PUSH1 0x1F DUP4 ADD SLT PUSH2 0x380 JUMPI PUSH2 0x37F PUSH2 0x25D JUMP JUMPDEST JUMPDEST DUP2 MLOAD PUSH2 0x390 DUP5 DUP3 PUSH1 0x20 DUP7 ADD PUSH2 0x32B JUMP JUMPDEST SWAP2 POP POP SWAP3 SWAP2 POP POP JUMP JUMPDEST PUSH0 PUSH2 0x3A3 DUP3 PUSH2 0x1B4 JUMP JUMPDEST SWAP1 POP SWAP2 SWAP1 POP JUMP JUMPDEST PUSH2 0x3B3 DUP2 PUSH2 0x399 JUMP JUMPDEST DUP2 EQ PUSH2 0x3BD JUMPI PUSH0 DUP1 REVERT JUMPDEST POP JUMP JUMPDEST PUSH0 DUP2 MLOAD SWAP1 POP PUSH2 0x3CE DUP2 PUSH2 0x3AA JUMP JUMPDEST SWAP3 SWAP2 POP POP JUMP JUMPDEST PUSH0 DUP1 PUSH0 DUP1 PUSH0 DUP1 PUSH1 0xC0 DUP8 DUP10 SUB SLT ISZERO PUSH2 0x3EE JUMPI PUSH2 0x3ED PUSH2 0x18D JUMP JUMPDEST JUMPDEST PUSH0 PUSH2 0x3FB DUP10 DUP3 DUP11 ADD PUSH2 0x1DB JUMP JUMPDEST SWAP7 POP POP PUSH1 0x20 PUSH2 0x40C DUP10 DUP3 DUP11 ADD PUSH2 0x20E JUMP JUMPDEST SWAP6 POP POP PUSH1 0x40 PUSH2 0x41D DUP10 DUP3 DUP11 ADD PUSH2 0x249 JUMP JUMPDEST SWAP5 POP POP PUSH1 0x60 DUP8 ADD MLOAD PUSH8 0xFFFFFFFFFFFFFFFF DUP2 GT ISZERO PUSH2 0x43E JUMPI PUSH2 0x43D PUSH2 0x191 JUMP JUMPDEST JUMPDEST PUSH2 0x44A DUP10 DUP3 DUP11 ADD PUSH2 0x36C JUMP JUMPDEST SWAP4 POP POP PUSH1 0x80 DUP8 ADD MLOAD PUSH8 0xFFFFFFFFFFFFFFFF DUP2 GT ISZERO PUSH2 0x46B JUMPI PUSH2 0x46A PUSH2 0x191 JUMP JUMPDEST JUMPDEST PUSH2 0x477 DUP10 DUP3 DUP11 ADD PUSH2 0x36C JUMP JUMPDEST SWAP3 POP POP PUSH1 0xA0 PUSH2 0x488 DUP10 DUP3 DUP11 ADD PUSH2 0x3C0 JUMP JUMPDEST SWAP2 POP POP SWAP3 SWAP6 POP SWAP3 SWAP6 POP SWAP3 SWAP6 JUMP JUMPDEST PUSH0 DUP2 MLOAD SWAP1 POP SWAP2 SWAP1 POP JUMP JUMPDEST PUSH0 DUP2 SWAP1 POP SWAP3 SWAP2 POP POP JUMP JUMPDEST PUSH0 PUSH2 0x4B3 DUP3 PUSH2 0x495 JUMP JUMPDEST PUSH2 0x4BD DUP2 DUP6 PUSH2 0x49F JUMP JUMPDEST SWAP4 POP PUSH2 0x4CD DUP2 DUP6 PUSH1 0x20 DUP7 ADD PUSH2 0x31D JUMP JUMPDEST DUP1 DUP5 ADD SWAP2 POP POP SWAP3 SWAP2 POP POP JUMP JUMPDEST PUSH0 PUSH2 0x4E4 DUP3 DUP5 PUSH2 0x4A9 JUMP JUMPDEST SWAP2 POP DUP2 SWAP1 POP SWAP3 SWAP2 POP POP JUMP JUMPDEST PUSH0 DUP2 SWAP1 POP SWAP2 SWAP1 POP JUMP JUMPDEST PUSH2 0x509 PUSH2 0x504 DUP3 PUSH2 0x1EF JUMP JUMPDEST PUSH2 0x4EF JUMP JUMPDEST DUP3 MSTORE POP POP JUMP JUMPDEST PUSH0 PUSH2 0x51A DUP3 DUP6 PUSH2 0x4F8 JUMP JUMPDEST PUSH1 0x20 DUP3 ADD SWAP2 POP PUSH2 0x52A DUP3 DUP5 PUSH2 0x4A9 JUMP JUMPDEST SWAP2 POP DUP2 SWAP1 POP SWAP4 SWAP3 POP POP POP JUMP JUMPDEST PUSH0 DUP2 MLOAD SWAP1 POP SWAP2 SWAP1 POP JUMP JUMPDEST PUSH0 DUP2 SWAP1 POP SWAP3 SWAP2 POP POP JUMP JUMPDEST PUSH0 PUSH2 0x554 DUP3 PUSH2 0x536 JUMP JUMPDEST PUSH2 0x55E DUP2 DUP6 PUSH2 0x540 JUMP JUMPDEST SWAP4 POP PUSH2 0x56E DUP2 DUP6 PUSH1 0x20 DUP7 ADD PUSH2 0x31D JUMP JUMPDEST DUP1 DUP5 ADD SWAP2 POP POP SWAP3 SWAP2 POP POP JUMP JUMPDEST PUSH0 PUSH2 0x585 DUP3 DUP5 PUSH2 0x54A JUMP JUMPDEST SWAP2 POP DUP2 SWAP1 POP SWAP3 SWAP2 POP POP JUMP JUMPDEST PUSH1 0x80 MLOAD PUSH1 0xA0 MLOAD PUSH1 0xC0 MLOAD PUSH1 0xE0 MLOAD PUSH2 0x100 MLOAD PUSH2 0x120 MLOAD PUSH2 0x1D78 PUSH2 0x616 PUSH0 CODECOPY PUSH0 DUP2 DUP2 PUSH2 0x3EA ADD MSTORE PUSH2 0x8BB ADD MSTORE PUSH0 DUP2 DUP2 PUSH2 0x434 ADD MSTORE PUSH2 0x905 ADD MSTORE PUSH0 DUP2 DUP2 PUSH2 0x3AD ADD MSTORE PUSH2 0x87E ADD MSTORE PUSH0 DUP2 DUP2 PUSH2 0x25A ADD MSTORE DUP2 DUP2 PUSH2 0x297 ADD MSTORE DUP2 DUP2 PUSH2 0xC56 ADD MSTORE DUP2 DUP2 PUSH2 0xD03 ADD MSTORE DUP2 DUP2 PUSH2 0x1179 ADD MSTORE PUSH2 0x1226 ADD MSTORE PUSH0 DUP2 DUP2 PUSH2 0xBB7 ADD MSTORE PUSH2 0x10AE ADD MSTORE PUSH0 PUSH2 0x203 ADD MSTORE PUSH2 0x1D78 PUSH0 RETURN INVALID PUSH1 0x80 PUSH1 0x40 MSTORE PUSH1 0x4 CALLDATASIZE LT PUSH2 0x85 JUMPI PUSH0 CALLDATALOAD PUSH1 0xE0 SHR DUP1 PUSH4 0x571702A2 GT PUSH2 0x58 JUMPI DUP1 PUSH4 0x571702A2 EQ PUSH2 0x11D JUMPI DUP1 PUSH4 0x5EC4A9CD EQ PUSH2 0x159 JUMPI DUP1 PUSH4 0x74775266 EQ PUSH2 0x181 JUMPI DUP1 PUSH4 0xBDDBED0B EQ PUSH2 0x19D JUMPI DUP1 PUSH4 0xBEEC5054 EQ PUSH2 0x1D9 JUMPI PUSH2 0x85 JUMP JUMPDEST DUP1 PUSH4 0xB7E9C44 EQ PUSH2 0x89 JUMPI DUP1 PUSH4 0x113406FE EQ PUSH2 0xB1 JUMPI DUP1 PUSH4 0x2A06EA2D EQ PUSH2 0xD9 JUMPI DUP1 PUSH4 0x4778F735 EQ PUSH2 0x101 JUMPI JUMPDEST PUSH0 DUP1 REVERT JUMPDEST CALLVALUE DUP1 ISZERO PUSH2 0x94 JUMPI PUSH0 DUP1 REVERT JUMPDEST POP PUSH2 0xAF PUSH1 0x4 DUP1 CALLDATASIZE SUB DUP2 ADD SWAP1 PUSH2 0xAA SWAP2 SWAP1 PUSH2 0x156B JUMP JUMPDEST PUSH2 0x201 JUMP JUMPDEST STOP JUMPDEST CALLVALUE DUP1 ISZERO PUSH2 0xBC JUMPI PUSH0 DUP1 REVERT JUMPDEST POP PUSH2 0xD7 PUSH1 0x4 DUP1 CALLDATASIZE SUB DUP2 ADD SWAP1 PUSH2 0xD2 SWAP2 SWAP1 PUSH2 0x168C JUMP JUMPDEST PUSH2 0x38E JUMP JUMPDEST STOP JUMPDEST CALLVALUE DUP1 ISZERO PUSH2 0xE4 JUMPI PUSH0 DUP1 REVERT JUMPDEST POP PUSH2 0xFF PUSH1 0x4 DUP1 CALLDATASIZE SUB DUP2 ADD SWAP1 PUSH2 0xFA SWAP2 SWAP1 PUSH2 0x1728 JUMP JUMPDEST PUSH2 0x3AB JUMP JUMPDEST STOP JUMPDEST PUSH2 0x11B PUSH1 0x4 DUP1 CALLDATASIZE SUB DUP2 ADD SWAP1 PUSH2 0x116 SWAP2 SWAP1 PUSH2 0x17C6 JUMP JUMPDEST PUSH2 0x87C JUMP JUMPDEST STOP JUMPDEST CALLVALUE DUP1 ISZERO PUSH2 0x128 JUMPI PUSH0 DUP1 REVERT JUMPDEST POP PUSH2 0x143 PUSH1 0x4 DUP1 CALLDATASIZE SUB DUP2 ADD SWAP1 PUSH2 0x13E SWAP2 SWAP1 PUSH2 0x183E JUMP JUMPDEST PUSH2 0xDAF JUMP JUMPDEST PUSH1 0x40 MLOAD PUSH2 0x150 SWAP2 SWAP1 PUSH2 0x1878 JUMP JUMPDEST PUSH1 0x40 MLOAD DUP1 SWAP2 SUB SWAP1 RETURN JUMPDEST CALLVALUE DUP1 ISZERO PUSH2 0x164 JUMPI PUSH0 DUP1 REVERT JUMPDEST POP PUSH2 0x17F PUSH1 0x4 DUP1 CALLDATASIZE SUB DUP2 ADD SWAP1 PUSH2 0x17A SWAP2 SWAP1 PUSH2 0x183E JUMP JUMPDEST PUSH2 0xDF2 JUMP JUMPDEST STOP JUMPDEST PUSH2 0x19B PUSH1 0x4 DUP1 CALLDATASIZE SUB DUP2 ADD SWAP1 PUSH2 0x196 SWAP2 SWAP1 PUSH2 0x183E JUMP JUMPDEST PUSH2 0xF3F JUMP JUMPDEST STOP JUMPDEST CALLVALUE DUP1 ISZERO PUSH2 0x1A8 JUMPI PUSH0 DUP1 REVERT JUMPDEST POP PUSH2 0x1C3 PUSH1 0x4 DUP1 CALLDATASIZE SUB DUP2 ADD SWAP1 PUSH2 0x1BE SWAP2 SWAP1 PUSH2 0x183E JUMP JUMPDEST PUSH2 0x12CD JUMP JUMPDEST PUSH1 0x40 MLOAD PUSH2 0x1D0 SWAP2 SWAP1 PUSH2 0x1878 JUMP JUMPDEST PUSH1 0x40 MLOAD DUP1 SWAP2 SUB SWAP1 RETURN JUMPDEST CALLVALUE DUP1 ISZERO PUSH2 0x1E4 JUMPI PUSH0 DUP1 REVERT JUMPDEST POP PUSH2 0x1FF PUSH1 0x4 DUP1 CALLDATASIZE SUB DUP2 ADD SWAP1 PUSH2 0x1FA SWAP2 SWAP1 PUSH2 0x1891 JUMP JUMPDEST PUSH2 0x130F JUMP JUMPDEST STOP JUMPDEST PUSH32 0x0 PUSH20 0xFFFFFFFFFFFFFFFFFFFFFFFFFFFFFFFFFFFFFFFF AND CALLER PUSH20 0xFFFFFFFFFFFFFFFFFFFFFFFFFFFFFFFFFFFFFFFF AND EQ PUSH2 0x258 JUMPI PUSH0 DUP1 REVERT JUMPDEST PUSH32 0x0 PUSH20 0xFFFFFFFFFFFFFFFFFFFFFFFFFFFFFFFFFFFFFFFF AND PUSH4 0xA9059CBB DUP3 PUSH32 0x0 PUSH20 0xFFFFFFFFFFFFFFFFFFFFFFFFFFFFFFFFFFFFFFFF AND PUSH4 0x70A08231 ADDRESS PUSH1 0x40 MLOAD DUP3 PUSH4 0xFFFFFFFF AND PUSH1 0xE0 SHL DUP2 MSTORE PUSH1 0x4 ADD PUSH2 0x2EE SWAP2 SWAP1 PUSH2 0x1917 JUMP JUMPDEST PUSH1 0x20 PUSH1 0x40 MLOAD DUP1 DUP4 SUB DUP2 DUP7 GAS STATICCALL ISZERO DUP1 ISZERO PUSH2 0x309 JUMPI RETURNDATASIZE PUSH0 DUP1 RETURNDATACOPY RETURNDATASIZE PUSH0 REVERT JUMPDEST POP POP POP POP PUSH1 0x40 MLOAD RETURNDATASIZE PUSH1 0x1F NOT PUSH1 0x1F DUP3 ADD AND DUP3 ADD DUP1 PUSH1 0x40 MSTORE POP DUP2 ADD SWAP1 PUSH2 0x32D SWAP2 SWAP1 PUSH2 0x1944 JUMP JUMPDEST PUSH1 0x40 MLOAD DUP4 PUSH4 0xFFFFFFFF AND PUSH1 0xE0 SHL DUP2 MSTORE PUSH1 0x4 ADD PUSH2 0x34A SWAP3 SWAP2 SWAP1 PUSH2 0x19D9 JUMP JUMPDEST PUSH1 0x20 PUSH1 0x40 MLOAD DUP1 DUP4 SUB DUP2 PUSH0 DUP8 GAS CALL ISZERO DUP1 ISZERO PUSH2 0x366 JUMPI RETURNDATASIZE PUSH0 DUP1 RETURNDATACOPY RETURNDATASIZE PUSH0 REVERT JUMPDEST POP POP POP POP PUSH1 0x40 MLOAD RETURNDATASIZE PUSH1 0x1F NOT PUSH1 0x1F DUP3 ADD AND DUP3 ADD DUP1 PUSH1 0x40 MSTORE POP DUP2 ADD SWAP1 PUSH2 0x38A SWAP2 SWAP1 PUSH2 0x1A35 JUMP JUMPDEST POP POP JUMP JUMPDEST PUSH2 0x397 DUP6 PUSH2 0xDF2 JUMP JUMPDEST PUSH2 0x3A4 DUP6 DUP3 DUP7 DUP7 DUP7 PUSH2 0x130F JUMP JUMPDEST POP POP POP POP POP JUMP JUMPDEST PUSH32 0x0 PUSH20 0xFFFFFFFFFFFFFFFFFFFFFFFFFFFFFFFFFFFFFFFF AND PUSH4 0x3BC778E3 DUP5 PUSH32 0x0 PUSH2 0x431 DUP9 PUSH1 0x40 MLOAD PUSH1 0x20 ADD PUSH2 0x41D SWAP2 SWAP1 PUSH2 0x1AA5 JUMP JUMPDEST PUSH1 0x40 MLOAD PUSH1 0x20 DUP2 DUP4 SUB SUB DUP2 MSTORE SWAP1 PUSH1 0x40 MSTORE PUSH2 0x14D8 JUMP JUMPDEST DUP7 PUSH32 0x0 DUP8 PUSH1 0x40 MLOAD DUP8 PUSH4 0xFFFFFFFF AND PUSH1 0xE0 SHL DUP2 MSTORE PUSH1 0x4 ADD PUSH2 0x475 SWAP7 SWAP6 SWAP5 SWAP4 SWAP3 SWAP2 SWAP1 PUSH2 0x1AD9 JUMP JUMPDEST PUSH0 PUSH1 0x40 MLOAD DUP1 DUP4 SUB DUP2 DUP7 DUP1 EXTCODESIZE ISZERO DUP1 ISZERO PUSH2 0x48B JUMPI PUSH0 DUP1 REVERT JUMPDEST POP GAS STATICCALL ISZERO DUP1 ISZERO PUSH2 0x49D JUMPI RETURNDATASIZE PUSH0 DUP1 RETURNDATACOPY RETURNDATASIZE PUSH0 REVERT JUMPDEST POP POP POP POP PUSH0 DUP1 PUSH0 DUP10 PUSH16 0xFFFFFFFFFFFFFFFFFFFFFFFFFFFFFFFF NOT AND PUSH16 0xFFFFFFFFFFFFFFFFFFFFFFFFFFFFFFFF NOT AND DUP2 MSTORE PUSH1 0x20 ADD SWAP1 DUP2 MSTORE PUSH1 0x20 ADD PUSH0 KECCAK256 PUSH1 0x40 MLOAD DUP1 PUSH1 0xC0 ADD PUSH1 0x40 MSTORE SWAP1 DUP2 PUSH0 DUP3 ADD PUSH0 SWAP1 SLOAD SWAP1 PUSH2 0x100 EXP SWAP1 DIV PUSH1 0x80 SHL PUSH16 0xFFFFFFFFFFFFFFFFFFFFFFFFFFFFFFFF NOT AND PUSH16 0xFFFFFFFFFFFFFFFFFFFFFFFFFFFFFFFF NOT AND DUP2 MSTORE PUSH1 0x20 ADD PUSH1 0x1 DUP3 ADD SLOAD DUP2 MSTORE PUSH1 0x20 ADD PUSH1 0x2 DUP3 ADD SLOAD DUP2 MSTORE PUSH1 0x20 ADD PUSH1 0x3 DUP3 ADD SLOAD DUP2 MSTORE PUSH1 0x20 ADD PUSH1 0x4 DUP3 ADD PUSH0 SWAP1 SLOAD SWAP1 PUSH2 0x100 EXP SWAP1 DIV PUSH20 0xFFFFFFFFFFFFFFFFFFFFFFFFFFFFFFFFFFFFFFFF AND PUSH20 0xFFFFFFFFFFFFFFFFFFFFFFFFFFFFFFFFFFFFFFFF AND PUSH20 0xFFFFFFFFFFFFFFFFFFFFFFFFFFFFFFFFFFFFFFFF AND DUP2 MSTORE PUSH1 0x20 ADD PUSH1 0x5 DUP3 ADD PUSH0 SWAP1 SLOAD SWAP1 PUSH2 0x100 EXP SWAP1 DIV PUSH20 0xFFFFFFFFFFFFFFFFFFFFFFFFFFFFFFFFFFFFFFFF AND PUSH20 0xFFFFFFFFFFFFFFFFFFFFFFFFFFFFFFFFFFFFFFFF AND PUSH20 0xFFFFFFFFFFFFFFFFFFFFFFFFFFFFFFFFFFFFFFFF AND DUP2 MSTORE POP POP SWAP1 POP PUSH0 DUP1 SHL DUP2 PUSH1 0x20 ADD MLOAD SUB PUSH2 0x5F9 JUMPI PUSH0 DUP1 REVERT JUMPDEST PUSH0 ISZERO ISZERO PUSH1 0x4 PUSH0 DUP6 DUP2 MSTORE PUSH1 0x20 ADD SWAP1 DUP2 MSTORE PUSH1 0x20 ADD PUSH0 KECCAK256 PUSH0 DUP4 PUSH0 ADD MLOAD PUSH16 0xFFFFFFFFFFFFFFFFFFFFFFFFFFFFFFFF NOT AND PUSH16 0xFFFFFFFFFFFFFFFFFFFFFFFFFFFFFFFF NOT AND DUP2 MSTORE PUSH1 0x20 ADD SWAP1 DUP2 MSTORE PUSH1 0x20 ADD PUSH0 KECCAK256 PUSH0 SWAP1 SLOAD SWAP1 PUSH2 0x100 EXP SWAP1 DIV PUSH1 0xFF AND ISZERO ISZERO EQ PUSH2 0x65D JUMPI PUSH0 DUP1 REVERT JUMPDEST PUSH0 PUSH1 0x3 PUSH0 DUP6 DUP2 MSTORE PUSH1 0x20 ADD SWAP1 DUP2 MSTORE PUSH1 0x20 ADD PUSH0 KECCAK256 PUSH0 DUP11 PUSH16 0xFFFFFFFFFFFFFFFFFFFFFFFFFFFFFFFF NOT AND PUSH16 0xFFFFFFFFFFFFFFFFFFFFFFFFFFFFFFFF NOT AND DUP2 MSTORE PUSH1 0x20 ADD SWAP1 DUP2 MSTORE PUSH1 0x20 ADD PUSH0 KECCAK256 SLOAD PUSH1 0x2 PUSH0 CALLER PUSH20 0xFFFFFFFFFFFFFFFFFFFFFFFFFFFFFFFFFFFFFFFF AND PUSH20 0xFFFFFFFFFFFFFFFFFFFFFFFFFFFFFFFFFFFFFFFF AND DUP2 MSTORE PUSH1 0x20 ADD SWAP1 DUP2 MSTORE PUSH1 0x20 ADD PUSH0 KECCAK256 PUSH0 DUP12 PUSH16 0xFFFFFFFFFFFFFFFFFFFFFFFFFFFFFFFF NOT AND PUSH16 0xFFFFFFFFFFFFFFFFFFFFFFFFFFFFFFFF NOT AND DUP2 MSTORE PUSH1 0x20 ADD SWAP1 DUP2 MSTORE PUSH1 0x20 ADD PUSH0 KECCAK256 SLOAD PUSH2 0x722 SWAP2 SWAP1 PUSH2 0x1B66 JUMP JUMPDEST SWAP1 POP PUSH0 DUP2 GT PUSH2 0x72F JUMPI PUSH0 DUP1 REVERT JUMPDEST PUSH1 0x1 PUSH1 0x4 PUSH0 DUP7 DUP2 MSTORE PUSH1 0x20 ADD SWAP1 DUP2 MSTORE PUSH1 0x20 ADD PUSH0 KECCAK256 PUSH0 DUP5 PUSH0 ADD MLOAD PUSH16 0xFFFFFFFFFFFFFFFFFFFFFFFFFFFFFFFF NOT AND PUSH16 0xFFFFFFFFFFFFFFFFFFFFFFFFFFFFFFFF NOT AND DUP2 MSTORE PUSH1 0x20 ADD SWAP1 DUP2 MSTORE PUSH1 0x20 ADD PUSH0 KECCAK256 PUSH0 PUSH2 0x100 EXP DUP2 SLOAD DUP2 PUSH1 0xFF MUL NOT AND SWAP1 DUP4 ISZERO ISZERO MUL OR SWAP1 SSTORE POP PUSH1 0x40 MLOAD DUP1 PUSH1 0x60 ADD PUSH1 0x40 MSTORE DUP1 DUP10 PUSH16 0xFFFFFFFFFFFFFFFFFFFFFFFFFFFFFFFF NOT AND DUP2 MSTORE PUSH1 0x20 ADD DUP9 DUP2 MSTORE PUSH1 0x20 ADD DUP11 PUSH16 0xFFFFFFFFFFFFFFFFFFFFFFFFFFFFFFFF NOT AND DUP2 MSTORE POP PUSH1 0x1 PUSH0 DUP11 PUSH16 0xFFFFFFFFFFFFFFFFFFFFFFFFFFFFFFFF NOT AND PUSH16 0xFFFFFFFFFFFFFFFFFFFFFFFFFFFFFFFF NOT AND DUP2 MSTORE PUSH1 0x20 ADD SWAP1 DUP2 MSTORE PUSH1 0x20 ADD PUSH0 KECCAK256 PUSH0 DUP3 ADD MLOAD DUP2 PUSH0 ADD PUSH0 PUSH2 0x100 EXP DUP2 SLOAD DUP2 PUSH16 0xFFFFFFFFFFFFFFFFFFFFFFFFFFFFFFFF MUL NOT AND SWAP1 DUP4 PUSH1 0x80 SHR MUL OR SWAP1 SSTORE POP PUSH1 0x20 DUP3 ADD MLOAD DUP2 PUSH1 0x1 ADD SSTORE PUSH1 0x40 DUP3 ADD MLOAD DUP2 PUSH1 0x2 ADD PUSH0 PUSH2 0x100 EXP DUP2 SLOAD DUP2 PUSH16 0xFFFFFFFFFFFFFFFFFFFFFFFFFFFFFFFF MUL NOT AND SWAP1 DUP4 PUSH1 0x80 SHR MUL OR SWAP1 SSTORE POP SWAP1 POP POP POP POP POP POP POP POP POP POP POP JUMP JUMPDEST PUSH32 0x0 PUSH20 0xFFFFFFFFFFFFFFFFFFFFFFFFFFFFFFFFFFFFFFFF AND PUSH4 0x3BC778E3 DUP5 PUSH32 0x0 PUSH2 0x902 DUP9 PUSH1 0x40 MLOAD PUSH1 0x20 ADD PUSH2 0x8EE SWAP2 SWAP1 PUSH2 0x1AA5 JUMP JUMPDEST PUSH1 0x40 MLOAD PUSH1 0x20 DUP2 DUP4 SUB SUB DUP2 MSTORE SWAP1 PUSH1 0x40 MSTORE PUSH2 0x14D8 JUMP JUMPDEST DUP7 PUSH32 0x0 DUP8 PUSH1 0x40 MLOAD DUP8 PUSH4 0xFFFFFFFF AND PUSH1 0xE0 SHL DUP2 MSTORE PUSH1 0x4 ADD PUSH2 0x946 SWAP7 SWAP6 SWAP5 SWAP4 SWAP3 SWAP2 SWAP1 PUSH2 0x1AD9 JUMP JUMPDEST PUSH0 PUSH1 0x40 MLOAD DUP1 DUP4 SUB DUP2 DUP7 DUP1 EXTCODESIZE ISZERO DUP1 ISZERO PUSH2 0x95C JUMPI PUSH0 DUP1 REVERT JUMPDEST POP GAS STATICCALL ISZERO DUP1 ISZERO PUSH2 0x96E JUMPI RETURNDATASIZE PUSH0 DUP1 RETURNDATACOPY RETURNDATASIZE PUSH0 REVERT JUMPDEST POP POP POP POP PUSH0 DUP1 PUSH0 DUP8 PUSH16 0xFFFFFFFFFFFFFFFFFFFFFFFFFFFFFFFF NOT AND PUSH16 0xFFFFFFFFFFFFFFFFFFFFFFFFFFFFFFFF NOT AND DUP2 MSTORE PUSH1 0x20 ADD SWAP1 DUP2 MSTORE PUSH1 0x20 ADD PUSH0 KECCAK256 PUSH1 0x40 MLOAD DUP1 PUSH1 0xC0 ADD PUSH1 0x40 MSTORE SWAP1 DUP2 PUSH0 DUP3 ADD PUSH0 SWAP1 SLOAD SWAP1 PUSH2 0x100 EXP SWAP1 DIV PUSH1 0x80 SHL PUSH16 0xFFFFFFFFFFFFFFFFFFFFFFFFFFFFFFFF NOT AND PUSH16 0xFFFFFFFFFFFFFFFFFFFFFFFFFFFFFFFF NOT AND DUP2 MSTORE PUSH1 0x20 ADD PUSH1 0x1 DUP3 ADD SLOAD DUP2 MSTORE PUSH1 0x20 ADD PUSH1 0x2 DUP3 ADD SLOAD DUP2 MSTORE PUSH1 0x20 ADD PUSH1 0x3 DUP3 ADD SLOAD DUP2 MSTORE PUSH1 0x20 ADD PUSH1 0x4 DUP3 ADD PUSH0 SWAP1 SLOAD SWAP1 PUSH2 0x100 EXP SWAP1 DIV PUSH20 0xFFFFFFFFFFFFFFFFFFFFFFFFFFFFFFFFFFFFFFFF AND PUSH20 0xFFFFFFFFFFFFFFFFFFFFFFFFFFFFFFFFFFFFFFFF AND PUSH20 0xFFFFFFFFFFFFFFFFFFFFFFFFFFFFFFFFFFFFFFFF AND DUP2 MSTORE PUSH1 0x20 ADD PUSH1 0x5 DUP3 ADD PUSH0 SWAP1 SLOAD SWAP1 PUSH2 0x100 EXP SWAP1 DIV PUSH20 0xFFFFFFFFFFFFFFFFFFFFFFFFFFFFFFFFFFFFFFFF AND PUSH20 0xFFFFFFFFFFFFFFFFFFFFFFFFFFFFFFFFFFFFFFFF AND PUSH20 0xFFFFFFFFFFFFFFFFFFFFFFFFFFFFFFFFFFFFFFFF AND DUP2 MSTORE POP POP SWAP1 POP PUSH0 DUP1 SHL DUP2 PUSH1 0x20 ADD MLOAD SUB PUSH2 0xACA JUMPI PUSH0 DUP1 REVERT JUMPDEST PUSH0 PUSH1 0x3 PUSH0 DUP6 DUP2 MSTORE PUSH1 0x20 ADD SWAP1 DUP2 MSTORE PUSH1 0x20 ADD PUSH0 KECCAK256 PUSH0 DUP9 PUSH16 0xFFFFFFFFFFFFFFFFFFFFFFFFFFFFFFFF NOT AND PUSH16 0xFFFFFFFFFFFFFFFFFFFFFFFFFFFFFFFF NOT AND DUP2 MSTORE PUSH1 0x20 ADD SWAP1 DUP2 MSTORE PUSH1 0x20 ADD PUSH0 KECCAK256 SLOAD PUSH1 0x2 PUSH0 CALLER PUSH20 0xFFFFFFFFFFFFFFFFFFFFFFFFFFFFFFFFFFFFFFFF AND PUSH20 0xFFFFFFFFFFFFFFFFFFFFFFFFFFFFFFFFFFFFFFFF AND DUP2 MSTORE PUSH1 0x20 ADD SWAP1 DUP2 MSTORE PUSH1 0x20 ADD PUSH0 KECCAK256 PUSH0 DUP10 PUSH16 0xFFFFFFFFFFFFFFFFFFFFFFFFFFFFFFFF NOT AND PUSH16 0xFFFFFFFFFFFFFFFFFFFFFFFFFFFFFFFF NOT AND DUP2 MSTORE PUSH1 0x20 ADD SWAP1 DUP2 MSTORE PUSH1 0x20 ADD PUSH0 KECCAK256 SLOAD PUSH2 0xB8F SWAP2 SWAP1 PUSH2 0x1B66 JUMP JUMPDEST SWAP1 POP PUSH0 DUP3 PUSH1 0x60 ADD MLOAD GT DUP1 ISZERO PUSH2 0xBA7 JUMPI POP DUP2 PUSH1 0x60 ADD MLOAD DUP2 LT JUMPDEST PUSH2 0xBAF JUMPI PUSH0 DUP1 REVERT JUMPDEST PUSH0 PUSH2 0x2710 PUSH1 0x64 PUSH32 0x0 PUSH2 0xBE0 SWAP2 SWAP1 PUSH2 0x1B99 JUMP JUMPDEST DUP5 PUSH1 0x40 ADD MLOAD PUSH2 0xBEF SWAP2 SWAP1 PUSH2 0x1B99 JUMP JUMPDEST PUSH2 0xBF9 SWAP2 SWAP1 PUSH2 0x1C07 JUMP JUMPDEST SWAP1 POP PUSH1 0x3 PUSH0 DUP7 DUP2 MSTORE PUSH1 0x20 ADD SWAP1 DUP2 MSTORE PUSH1 0x20 ADD PUSH0 KECCAK256 PUSH0 DUP10 PUSH16 0xFFFFFFFFFFFFFFFFFFFFFFFFFFFFFFFF NOT AND PUSH16 0xFFFFFFFFFFFFFFFFFFFFFFFFFFFFFFFF NOT AND DUP2 MSTORE PUSH1 0x20 ADD SWAP1 DUP2 MSTORE PUSH1 0x20 ADD PUSH0 KECCAK256 PUSH0 DUP2 SLOAD PUSH2 0xC4D SWAP1 PUSH2 0x1C37 JUMP JUMPDEST SWAP2 SWAP1 POP DUP2 SWAP1 SSTORE POP PUSH32 0x0 PUSH20 0xFFFFFFFFFFFFFFFFFFFFFFFFFFFFFFFFFFFFFFFF AND PUSH4 0x23B872DD CALLER ADDRESS DUP5 DUP8 PUSH1 0x40 ADD MLOAD PUSH2 0xCA2 SWAP2 SWAP1 PUSH2 0x1B66 JUMP JUMPDEST PUSH1 0x40 MLOAD DUP5 PUSH4 0xFFFFFFFF AND PUSH1 0xE0 SHL DUP2 MSTORE PUSH1 0x4 ADD PUSH2 0xCC0 SWAP4 SWAP3 SWAP2 SWAP1 PUSH2 0x1C7E JUMP JUMPDEST PUSH1 0x20 PUSH1 0x40 MLOAD DUP1 DUP4 SUB DUP2 PUSH0 DUP8 GAS CALL ISZERO DUP1 ISZERO PUSH2 0xCDC JUMPI RETURNDATASIZE PUSH0 DUP1 RETURNDATACOPY RETURNDATASIZE PUSH0 REVERT JUMPDEST POP POP POP POP PUSH1 0x40 MLOAD RETURNDATASIZE PUSH1 0x1F NOT PUSH1 0x1F DUP3 ADD AND DUP3 ADD DUP1 PUSH1 0x40 MSTORE POP DUP2 ADD SWAP1 PUSH2 0xD00 SWAP2 SWAP1 PUSH2 0x1A35 JUMP JUMPDEST POP PUSH32 0x0 PUSH20 0xFFFFFFFFFFFFFFFFFFFFFFFFFFFFFFFFFFFFFFFF AND PUSH4 0xA9059CBB DUP5 PUSH1 0x80 ADD MLOAD DUP6 PUSH1 0x40 ADD MLOAD PUSH1 0x40 MLOAD DUP4 PUSH4 0xFFFFFFFF AND PUSH1 0xE0 SHL DUP2 MSTORE PUSH1 0x4 ADD PUSH2 0xD64 SWAP3 SWAP2 SWAP1 PUSH2 0x1CB3 JUMP JUMPDEST PUSH1 0x20 PUSH1 0x40 MLOAD DUP1 DUP4 SUB DUP2 PUSH0 DUP8 GAS CALL ISZERO DUP1 ISZERO PUSH2 0xD80 JUMPI RETURNDATASIZE PUSH0 DUP1 RETURNDATACOPY RETURNDATASIZE PUSH0 REVERT JUMPDEST POP POP POP POP PUSH1 0x40 MLOAD RETURNDATASIZE PUSH1 0x1F NOT PUSH1 0x1F DUP3 ADD AND DUP3 ADD DUP1 PUSH1 0x40 MSTORE POP DUP2 ADD SWAP1 PUSH2 0xDA4 SWAP2 SWAP1 PUSH2 0x1A35 JUMP JUMPDEST POP POP POP POP POP POP POP POP POP JUMP JUMPDEST PUSH0 PUSH1 0x1 PUSH0 DUP4 PUSH16 0xFFFFFFFFFFFFFFFFFFFFFFFFFFFFFFFF NOT AND PUSH16 0xFFFFFFFFFFFFFFFFFFFFFFFFFFFFFFFF NOT AND DUP2 MSTORE PUSH1 0x20 ADD SWAP1 DUP2 MSTORE PUSH1 0x20 ADD PUSH0 KECCAK256 PUSH1 0x1 ADD SLOAD SWAP1 POP SWAP2 SWAP1 POP JUMP JUMPDEST CALLER PUSH20 0xFFFFFFFFFFFFFFFFFFFFFFFFFFFFFFFFFFFFFFFF AND PUSH0 DUP1 DUP4 PUSH16 0xFFFFFFFFFFFFFFFFFFFFFFFFFFFFFFFF NOT AND PUSH16 0xFFFFFFFFFFFFFFFFFFFFFFFFFFFFFFFF NOT AND DUP2 MSTORE PUSH1 0x20 ADD SWAP1 DUP2 MSTORE PUSH1 0x20 ADD PUSH0 KECCAK256 PUSH1 0x5 ADD PUSH0 SWAP1 SLOAD SWAP1 PUSH2 0x100 EXP SWAP1 DIV PUSH20 0xFFFFFFFFFFFFFFFFFFFFFFFFFFFFFFFFFFFFFFFF AND PUSH20 0xFFFFFFFFFFFFFFFFFFFFFFFFFFFFFFFFFFFFFFFF AND EQ PUSH2 0xE81 JUMPI PUSH0 DUP1 REVERT JUMPDEST PUSH0 DUP1 DUP3 PUSH16 0xFFFFFFFFFFFFFFFFFFFFFFFFFFFFFFFF NOT AND PUSH16 0xFFFFFFFFFFFFFFFFFFFFFFFFFFFFFFFF NOT AND DUP2 MSTORE PUSH1 0x20 ADD SWAP1 DUP2 MSTORE PUSH1 0x20 ADD PUSH0 KECCAK256 PUSH0 DUP1 DUP3 ADD PUSH0 PUSH2 0x100 EXP DUP2 SLOAD SWAP1 PUSH16 0xFFFFFFFFFFFFFFFFFFFFFFFFFFFFFFFF MUL NOT AND SWAP1 SSTORE PUSH1 0x1 DUP3 ADD PUSH0 SWAP1 SSTORE PUSH1 0x2 DUP3 ADD PUSH0 SWAP1 SSTORE PUSH1 0x3 DUP3 ADD PUSH0 SWAP1 SSTORE PUSH1 0x4 DUP3 ADD PUSH0 PUSH2 0x100 EXP DUP2 SLOAD SWAP1 PUSH20 0xFFFFFFFFFFFFFFFFFFFFFFFFFFFFFFFFFFFFFFFF MUL NOT AND SWAP1 SSTORE PUSH1 0x5 DUP3 ADD PUSH0 PUSH2 0x100 EXP DUP2 SLOAD SWAP1 PUSH20 0xFFFFFFFFFFFFFFFFFFFFFFFFFFFFFFFFFFFFFFFF MUL NOT AND SWAP1 SSTORE POP POP POP JUMP JUMPDEST PUSH0 DUP1 PUSH0 DUP4 PUSH16 0xFFFFFFFFFFFFFFFFFFFFFFFFFFFFFFFF NOT AND PUSH16 0xFFFFFFFFFFFFFFFFFFFFFFFFFFFFFFFF NOT AND DUP2 MSTORE PUSH1 0x20 ADD SWAP1 DUP2 MSTORE PUSH1 0x20 ADD PUSH0 KECCAK256 PUSH1 0x40 MLOAD DUP1 PUSH1 0xC0 ADD PUSH1 0x40 MSTORE SWAP1 DUP2 PUSH0 DUP3 ADD PUSH0 SWAP1 SLOAD SWAP1 PUSH2 0x100 EXP SWAP1 DIV PUSH1 0x80 SHL PUSH16 0xFFFFFFFFFFFFFFFFFFFFFFFFFFFFFFFF NOT AND PUSH16 0xFFFFFFFFFFFFFFFFFFFFFFFFFFFFFFFF NOT AND DUP2 MSTORE PUSH1 0x20 ADD PUSH1 0x1 DUP3 ADD SLOAD DUP2 MSTORE PUSH1 0x20 ADD PUSH1 0x2 DUP3 ADD SLOAD DUP2 MSTORE PUSH1 0x20 ADD PUSH1 0x3 DUP3 ADD SLOAD DUP2 MSTORE PUSH1 0x20 ADD PUSH1 0x4 DUP3 ADD PUSH0 SWAP1 SLOAD SWAP1 PUSH2 0x100 EXP SWAP1 DIV PUSH20 0xFFFFFFFFFFFFFFFFFFFFFFFFFFFFFFFFFFFFFFFF AND PUSH20 0xFFFFFFFFFFFFFFFFFFFFFFFFFFFFFFFFFFFFFFFF AND PUSH20 0xFFFFFFFFFFFFFFFFFFFFFFFFFFFFFFFFFFFFFFFF AND DUP2 MSTORE PUSH1 0x20 ADD PUSH1 0x5 DUP3 ADD PUSH0 SWAP1 SLOAD SWAP1 PUSH2 0x100 EXP SWAP1 DIV PUSH20 0xFFFFFFFFFFFFFFFFFFFFFFFFFFFFFFFFFFFFFFFF AND PUSH20 0xFFFFFFFFFFFFFFFFFFFFFFFFFFFFFFFFFFFFFFFF AND PUSH20 0xFFFFFFFFFFFFFFFFFFFFFFFFFFFFFFFFFFFFFFFF AND DUP2 MSTORE POP POP SWAP1 POP PUSH0 DUP1 SHL DUP2 PUSH1 0x20 ADD MLOAD SUB PUSH2 0x1097 JUMPI PUSH0 DUP1 REVERT JUMPDEST PUSH0 DUP2 PUSH1 0x60 ADD MLOAD EQ PUSH2 0x10A6 JUMPI PUSH0 DUP1 REVERT JUMPDEST PUSH0 PUSH2 0x2710 PUSH1 0x64 PUSH32 0x0 PUSH2 0x10D7 SWAP2 SWAP1 PUSH2 0x1B99 JUMP JUMPDEST DUP4 PUSH1 0x40 ADD MLOAD PUSH2 0x10E6 SWAP2 SWAP1 PUSH2 0x1B99 JUMP JUMPDEST PUSH2 0x10F0 SWAP2 SWAP1 PUSH2 0x1C07 JUMP JUMPDEST SWAP1 POP PUSH1 0x2 PUSH0 CALLER PUSH20 0xFFFFFFFFFFFFFFFFFFFFFFFFFFFFFFFFFFFFFFFF AND PUSH20 0xFFFFFFFFFFFFFFFFFFFFFFFFFFFFFFFFFFFFFFFF AND DUP2 MSTORE PUSH1 0x20 ADD SWAP1 DUP2 MSTORE PUSH1 0x20 ADD PUSH0 KECCAK256 PUSH0 DUP5 PUSH16 0xFFFFFFFFFFFFFFFFFFFFFFFFFFFFFFFF NOT AND PUSH16 0xFFFFFFFFFFFFFFFFFFFFFFFFFFFFFFFF NOT AND DUP2 MSTORE PUSH1 0x20 ADD SWAP1 DUP2 MSTORE PUSH1 0x20 ADD PUSH0 KECCAK256 PUSH0 DUP2 SLOAD PUSH2 0x1170 SWAP1 PUSH2 0x1C37 JUMP JUMPDEST SWAP2 SWAP1 POP DUP2 SWAP1 SSTORE POP PUSH32 0x0 PUSH20 0xFFFFFFFFFFFFFFFFFFFFFFFFFFFFFFFFFFFFFFFF AND PUSH4 0x23B872DD CALLER ADDRESS DUP5 DUP7 PUSH1 0x40 ADD MLOAD PUSH2 0x11C5 SWAP2 SWAP1 PUSH2 0x1B66 JUMP JUMPDEST PUSH1 0x40 MLOAD DUP5 PUSH4 0xFFFFFFFF AND PUSH1 0xE0 SHL DUP2 MSTORE PUSH1 0x4 ADD PUSH2 0x11E3 SWAP4 SWAP3 SWAP2 SWAP1 PUSH2 0x1C7E JUMP JUMPDEST PUSH1 0x20 PUSH1 0x40 MLOAD DUP1 DUP4 SUB DUP2 PUSH0 DUP8 GAS CALL ISZERO DUP1 ISZERO PUSH2 0x11FF JUMPI RETURNDATASIZE PUSH0 DUP1 RETURNDATACOPY RETURNDATASIZE PUSH0 REVERT JUMPDEST POP POP POP POP PUSH1 0x40 MLOAD RETURNDATASIZE PUSH1 0x1F NOT PUSH1 0x1F DUP3 ADD AND DUP3 ADD DUP1 PUSH1 0x40 MSTORE POP DUP2 ADD SWAP1 PUSH2 0x1223 SWAP2 SWAP1 PUSH2 0x1A35 JUMP JUMPDEST POP PUSH32 0x0 PUSH20 0xFFFFFFFFFFFFFFFFFFFFFFFFFFFFFFFFFFFFFFFF AND PUSH4 0xA9059CBB DUP4 PUSH1 0x80 ADD MLOAD DUP5 PUSH1 0x40 ADD MLOAD PUSH1 0x40 MLOAD DUP4 PUSH4 0xFFFFFFFF AND PUSH1 0xE0 SHL DUP2 MSTORE PUSH1 0x4 ADD PUSH2 0x1287 SWAP3 SWAP2 SWAP1 PUSH2 0x1CB3 JUMP JUMPDEST PUSH1 0x20 PUSH1 0x40 MLOAD DUP1 DUP4 SUB DUP2 PUSH0 DUP8 GAS CALL ISZERO DUP1 ISZERO PUSH2 0x12A3 JUMPI RETURNDATASIZE PUSH0 DUP1 RETURNDATACOPY RETURNDATASIZE PUSH0 REVERT JUMPDEST POP POP POP POP PUSH1 0x40 MLOAD RETURNDATASIZE PUSH1 0x1F NOT PUSH1 0x1F DUP3 ADD AND DUP3 ADD DUP1 PUSH1 0x40 MSTORE POP DUP2 ADD SWAP1 PUSH2 0x12C7 SWAP2 SWAP1 PUSH2 0x1A35 JUMP JUMPDEST POP POP POP POP JUMP JUMPDEST PUSH0 DUP1 PUSH0 DUP4 PUSH16 0xFFFFFFFFFFFFFFFFFFFFFFFFFFFFFFFF NOT AND PUSH16 0xFFFFFFFFFFFFFFFFFFFFFFFFFFFFFFFF NOT AND DUP2 MSTORE PUSH1 0x20 ADD SWAP1 DUP2 MSTORE PUSH1 0x20 ADD PUSH0 KECCAK256 PUSH1 0x1 ADD SLOAD SWAP1 POP SWAP2 SWAP1 POP JUMP JUMPDEST PUSH0 DUP1 SHL PUSH0 DUP1 DUP8 PUSH16 0xFFFFFFFFFFFFFFFFFFFFFFFFFFFFFFFF NOT AND PUSH16 0xFFFFFFFFFFFFFFFFFFFFFFFFFFFFFFFF NOT AND DUP2 MSTORE PUSH1 0x20 ADD SWAP1 DUP2 MSTORE PUSH1 0x20 ADD PUSH0 KECCAK256 PUSH1 0x1 ADD SLOAD EQ PUSH2 0x1355 JUMPI PUSH0 DUP1 REVERT JUMPDEST PUSH1 0x40 MLOAD DUP1 PUSH1 0xC0 ADD PUSH1 0x40 MSTORE DUP1 DUP7 PUSH16 0xFFFFFFFFFFFFFFFFFFFFFFFFFFFFFFFF NOT AND DUP2 MSTORE PUSH1 0x20 ADD DUP6 DUP2 MSTORE PUSH1 0x20 ADD DUP5 DUP2 MSTORE PUSH1 0x20 ADD DUP4 DUP2 MSTORE PUSH1 0x20 ADD DUP3 PUSH20 0xFFFFFFFFFFFFFFFFFFFFFFFFFFFFFFFFFFFFFFFF AND DUP2 MSTORE PUSH1 0x20 ADD CALLER PUSH20 0xFFFFFFFFFFFFFFFFFFFFFFFFFFFFFFFFFFFFFFFF AND DUP2 MSTORE POP PUSH0 DUP1 DUP8 PUSH16 0xFFFFFFFFFFFFFFFFFFFFFFFFFFFFFFFF NOT AND PUSH16 0xFFFFFFFFFFFFFFFFFFFFFFFFFFFFFFFF NOT AND DUP2 MSTORE PUSH1 0x20 ADD SWAP1 DUP2 MSTORE PUSH1 0x20 ADD PUSH0 KECCAK256 PUSH0 DUP3 ADD MLOAD DUP2 PUSH0 ADD PUSH0 PUSH2 0x100 EXP DUP2 SLOAD DUP2 PUSH16 0xFFFFFFFFFFFFFFFFFFFFFFFFFFFFFFFF MUL NOT AND SWAP1 DUP4 PUSH1 0x80 SHR MUL OR SWAP1 SSTORE POP PUSH1 0x20 DUP3 ADD MLOAD DUP2 PUSH1 0x1 ADD SSTORE PUSH1 0x40 DUP3 ADD MLOAD DUP2 PUSH1 0x2 ADD SSTORE PUSH1 0x60 DUP3 ADD MLOAD DUP2 PUSH1 0x3 ADD SSTORE PUSH1 0x80 DUP3 ADD MLOAD DUP2 PUSH1 0x4 ADD PUSH0 PUSH2 0x100 EXP DUP2 SLOAD DUP2 PUSH20 0xFFFFFFFFFFFFFFFFFFFFFFFFFFFFFFFFFFFFFFFF MUL NOT AND SWAP1 DUP4 PUSH20 0xFFFFFFFFFFFFFFFFFFFFFFFFFFFFFFFFFFFFFFFF AND MUL OR SWAP1 SSTORE POP PUSH1 0xA0 DUP3 ADD MLOAD DUP2 PUSH1 0x5 ADD PUSH0 PUSH2 0x100 EXP DUP2 SLOAD DUP2 PUSH20 0xFFFFFFFFFFFFFFFFFFFFFFFFFFFFFFFFFFFFFFFF MUL NOT AND SWAP1 DUP4 PUSH20 0xFFFFFFFFFFFFFFFFFFFFFFFFFFFFFFFFFFFFFFFF AND MUL OR SWAP1 SSTORE POP SWAP1 POP POP POP POP POP POP POP JUMP JUMPDEST PUSH0 PUSH1 0x8 DUP3 PUSH1 0x40 MLOAD PUSH1 0x20 ADD PUSH2 0x14EC SWAP2 SWAP1 PUSH2 0x1D2C JUMP JUMPDEST PUSH1 0x40 MLOAD PUSH1 0x20 DUP2 DUP4 SUB SUB DUP2 MSTORE SWAP1 PUSH1 0x40 MSTORE DUP1 MLOAD SWAP1 PUSH1 0x20 ADD KECCAK256 PUSH0 SHR SWAP1 SHR SWAP1 POP SWAP2 SWAP1 POP JUMP JUMPDEST PUSH0 DUP1 REVERT JUMPDEST PUSH0 PUSH20 0xFFFFFFFFFFFFFFFFFFFFFFFFFFFFFFFFFFFFFFFF DUP3 AND SWAP1 POP SWAP2 SWAP1 POP JUMP JUMPDEST PUSH0 PUSH2 0x153A DUP3 PUSH2 0x1511 JUMP JUMPDEST SWAP1 POP SWAP2 SWAP1 POP JUMP JUMPDEST PUSH2 0x154A DUP2 PUSH2 0x1530 JUMP JUMPDEST DUP2 EQ PUSH2 0x1554 JUMPI PUSH0 DUP1 REVERT JUMPDEST POP JUMP JUMPDEST PUSH0 DUP2 CALLDATALOAD SWAP1 POP PUSH2 0x1565 DUP2 PUSH2 0x1541 JUMP JUMPDEST SWAP3 SWAP2 POP POP JUMP JUMPDEST PUSH0 PUSH1 0x20 DUP3 DUP5 SUB SLT ISZERO PUSH2 0x1580 JUMPI PUSH2 0x157F PUSH2 0x150D JUMP JUMPDEST JUMPDEST PUSH0 PUSH2 0x158D DUP5 DUP3 DUP6 ADD PUSH2 0x1557 JUMP JUMPDEST SWAP2 POP POP SWAP3 SWAP2 POP POP JUMP JUMPDEST PUSH0 PUSH32 0xFFFFFFFFFFFFFFFFFFFFFFFFFFFFFFFF00000000000000000000000000000000 DUP3 AND SWAP1 POP SWAP2 SWAP1 POP JUMP JUMPDEST PUSH2 0x15CA DUP2 PUSH2 0x1596 JUMP JUMPDEST DUP2 EQ PUSH2 0x15D4 JUMPI PUSH0 DUP1 REVERT JUMPDEST POP JUMP JUMPDEST PUSH0 DUP2 CALLDATALOAD SWAP1 POP PUSH2 0x15E5 DUP2 PUSH2 0x15C1 JUMP JUMPDEST SWAP3 SWAP2 POP POP JUMP JUMPDEST PUSH0 DUP2 SWAP1 POP SWAP2 SWAP1 POP JUMP JUMPDEST PUSH2 0x15FD DUP2 PUSH2 0x15EB JUMP JUMPDEST DUP2 EQ PUSH2 0x1607 JUMPI PUSH0 DUP1 REVERT JUMPDEST POP JUMP JUMPDEST PUSH0 DUP2 CALLDATALOAD SWAP1 POP PUSH2 0x1618 DUP2 PUSH2 0x15F4 JUMP JUMPDEST SWAP3 SWAP2 POP POP JUMP JUMPDEST PUSH0 PUSH2 0x1628 DUP3 PUSH2 0x1511 JUMP JUMPDEST SWAP1 POP SWAP2 SWAP1 POP JUMP JUMPDEST PUSH2 0x1638 DUP2 PUSH2 0x161E JUMP JUMPDEST DUP2 EQ PUSH2 0x1642 JUMPI PUSH0 DUP1 REVERT JUMPDEST POP JUMP JUMPDEST PUSH0 DUP2 CALLDATALOAD SWAP1 POP PUSH2 0x1653 DUP2 PUSH2 0x162F JUMP JUMPDEST SWAP3 SWAP2 POP POP JUMP JUMPDEST PUSH0 DUP2 SWAP1 POP SWAP2 SWAP1 POP JUMP JUMPDEST PUSH2 0x166B DUP2 PUSH2 0x1659 JUMP JUMPDEST DUP2 EQ PUSH2 0x1675 JUMPI PUSH0 DUP1 REVERT JUMPDEST POP JUMP JUMPDEST PUSH0 DUP2 CALLDATALOAD SWAP1 POP PUSH2 0x1686 DUP2 PUSH2 0x1662 JUMP JUMPDEST SWAP3 SWAP2 POP POP JUMP JUMPDEST PUSH0 DUP1 PUSH0 DUP1 PUSH0 PUSH1 0xA0 DUP7 DUP9 SUB SLT ISZERO PUSH2 0x16A5 JUMPI PUSH2 0x16A4 PUSH2 0x150D JUMP JUMPDEST JUMPDEST PUSH0 PUSH2 0x16B2 DUP9 DUP3 DUP10 ADD PUSH2 0x15D7 JUMP JUMPDEST SWAP6 POP POP PUSH1 0x20 PUSH2 0x16C3 DUP9 DUP3 DUP10 ADD PUSH2 0x160A JUMP JUMPDEST SWAP5 POP POP PUSH1 0x40 PUSH2 0x16D4 DUP9 DUP3 DUP10 ADD PUSH2 0x160A JUMP JUMPDEST SWAP4 POP POP PUSH1 0x60 PUSH2 0x16E5 DUP9 DUP3 DUP10 ADD PUSH2 0x1645 JUMP JUMPDEST SWAP3 POP POP PUSH1 0x80 PUSH2 0x16F6 DUP9 DUP3 DUP10 ADD PUSH2 0x1678 JUMP JUMPDEST SWAP2 POP POP SWAP3 SWAP6 POP SWAP3 SWAP6 SWAP1 SWAP4 POP JUMP JUMPDEST PUSH0 DUP1 REVERT JUMPDEST PUSH0 DUP2 SWAP1 POP DUP3 PUSH1 0x20 PUSH1 0x8 MUL DUP3 ADD GT ISZERO PUSH2 0x1722 JUMPI PUSH2 0x1721 PUSH2 0x1703 JUMP JUMPDEST JUMPDEST SWAP3 SWAP2 POP POP JUMP JUMPDEST PUSH0 DUP1 PUSH0 DUP1 PUSH0 DUP1 PUSH0 PUSH2 0x1C0 DUP9 DUP11 SUB SLT ISZERO PUSH2 0x1744 JUMPI PUSH2 0x1743 PUSH2 0x150D JUMP JUMPDEST JUMPDEST PUSH0 PUSH2 0x1751 DUP11 DUP3 DUP12 ADD PUSH2 0x15D7 JUMP JUMPDEST SWAP8 POP POP PUSH1 0x20 PUSH2 0x1762 DUP11 DUP3 DUP12 ADD PUSH2 0x15D7 JUMP JUMPDEST SWAP7 POP POP PUSH1 0x40 PUSH2 0x1773 DUP11 DUP3 DUP12 ADD PUSH2 0x1678 JUMP JUMPDEST SWAP6 POP POP PUSH1 0x60 PUSH2 0x1784 DUP11 DUP3 DUP12 ADD PUSH2 0x1645 JUMP JUMPDEST SWAP5 POP POP PUSH1 0x80 PUSH2 0x1795 DUP11 DUP3 DUP12 ADD PUSH2 0x160A JUMP JUMPDEST SWAP4 POP POP PUSH1 0xA0 PUSH2 0x17A6 DUP11 DUP3 DUP12 ADD PUSH2 0x160A JUMP JUMPDEST SWAP3 POP POP PUSH1 0xC0 PUSH2 0x17B7 DUP11 DUP3 DUP12 ADD PUSH2 0x1707 JUMP JUMPDEST SWAP2 POP POP SWAP3 SWAP6 SWAP9 SWAP2 SWAP5 SWAP8 POP SWAP3 SWAP6 POP JUMP JUMPDEST PUSH0 DUP1 PUSH0 DUP1 PUSH0 PUSH2 0x180 DUP7 DUP9 SUB SLT ISZERO PUSH2 0x17E0 JUMPI PUSH2 0x17DF PUSH2 0x150D JUMP JUMPDEST JUMPDEST PUSH0 PUSH2 0x17ED DUP9 DUP3 DUP10 ADD PUSH2 0x15D7 JUMP JUMPDEST SWAP6 POP POP PUSH1 0x20 PUSH2 0x17FE DUP9 DUP3 DUP10 ADD PUSH2 0x1645 JUMP JUMPDEST SWAP5 POP POP PUSH1 0x40 PUSH2 0x180F DUP9 DUP3 DUP10 ADD PUSH2 0x160A JUMP JUMPDEST SWAP4 POP POP PUSH1 0x60 PUSH2 0x1820 DUP9 DUP3 DUP10 ADD PUSH2 0x160A JUMP JUMPDEST SWAP3 POP POP PUSH1 0x80 PUSH2 0x1831 DUP9 DUP3 DUP10 ADD PUSH2 0x1707 JUMP JUMPDEST SWAP2 POP POP SWAP3 SWAP6 POP SWAP3 SWAP6 SWAP1 SWAP4 POP JUMP JUMPDEST PUSH0 PUSH1 0x20 DUP3 DUP5 SUB SLT ISZERO PUSH2 0x1853 JUMPI PUSH2 0x1852 PUSH2 0x150D JUMP JUMPDEST JUMPDEST PUSH0 PUSH2 0x1860 DUP5 DUP3 DUP6 ADD PUSH2 0x15D7 JUMP JUMPDEST SWAP2 POP POP SWAP3 SWAP2 POP POP JUMP JUMPDEST PUSH2 0x1872 DUP2 PUSH2 0x1659 JUMP JUMPDEST DUP3 MSTORE POP POP JUMP JUMPDEST PUSH0 PUSH1 0x20 DUP3 ADD SWAP1 POP PUSH2 0x188B PUSH0 DUP4 ADD DUP5 PUSH2 0x1869 JUMP JUMPDEST SWAP3 SWAP2 POP POP JUMP JUMPDEST PUSH0 DUP1 PUSH0 DUP1 PUSH0 PUSH1 0xA0 DUP7 DUP9 SUB SLT ISZERO PUSH2 0x18AA JUMPI PUSH2 0x18A9 PUSH2 0x150D JUMP JUMPDEST JUMPDEST PUSH0 PUSH2 0x18B7 DUP9 DUP3 DUP10 ADD PUSH2 0x15D7 JUMP JUMPDEST SWAP6 POP POP PUSH1 0x20 PUSH2 0x18C8 DUP9 DUP3 DUP10 ADD PUSH2 0x1678 JUMP JUMPDEST SWAP5 POP POP PUSH1 0x40 PUSH2 0x18D9 DUP9 DUP3 DUP10 ADD PUSH2 0x160A JUMP JUMPDEST SWAP4 POP POP PUSH1 0x60 PUSH2 0x18EA DUP9 DUP3 DUP10 ADD PUSH2 0x160A JUMP JUMPDEST SWAP3 POP POP PUSH1 0x80 PUSH2 0x18FB DUP9 DUP3 DUP10 ADD PUSH2 0x1645 JUMP JUMPDEST SWAP2 POP POP SWAP3 SWAP6 POP SWAP3 SWAP6 SWAP1 SWAP4 POP JUMP JUMPDEST PUSH2 0x1911 DUP2 PUSH2 0x161E JUMP JUMPDEST DUP3 MSTORE POP POP JUMP JUMPDEST PUSH0 PUSH1 0x20 DUP3 ADD SWAP1 POP PUSH2 0x192A PUSH0 DUP4 ADD DUP5 PUSH2 0x1908 JUMP JUMPDEST SWAP3 SWAP2 POP POP JUMP JUMPDEST PUSH0 DUP2 MLOAD SWAP1 POP PUSH2 0x193E DUP2 PUSH2 0x15F4 JUMP JUMPDEST SWAP3 SWAP2 POP POP JUMP JUMPDEST PUSH0 PUSH1 0x20 DUP3 DUP5 SUB SLT ISZERO PUSH2 0x1959 JUMPI PUSH2 0x1958 PUSH2 0x150D JUMP JUMPDEST JUMPDEST PUSH0 PUSH2 0x1966 DUP5 DUP3 DUP6 ADD PUSH2 0x1930 JUMP JUMPDEST SWAP2 POP POP SWAP3 SWAP2 POP POP JUMP JUMPDEST PUSH0 DUP2 SWAP1 POP SWAP2 SWAP1 POP JUMP JUMPDEST PUSH0 PUSH2 0x1992 PUSH2 0x198D PUSH2 0x1988 DUP5 PUSH2 0x1511 JUMP JUMPDEST PUSH2 0x196F JUMP JUMPDEST PUSH2 0x1511 JUMP JUMPDEST SWAP1 POP SWAP2 SWAP1 POP JUMP JUMPDEST PUSH0 PUSH2 0x19A3 DUP3 PUSH2 0x1978 JUMP JUMPDEST SWAP1 POP SWAP2 SWAP1 POP JUMP JUMPDEST PUSH0 PUSH2 0x19B4 DUP3 PUSH2 0x1999 JUMP JUMPDEST SWAP1 POP SWAP2 SWAP1 POP JUMP JUMPDEST PUSH2 0x19C4 DUP2 PUSH2 0x19AA JUMP JUMPDEST DUP3 MSTORE POP POP JUMP JUMPDEST PUSH2 0x19D3 DUP2 PUSH2 0x15EB JUMP JUMPDEST DUP3 MSTORE POP POP JUMP JUMPDEST PUSH0 PUSH1 0x40 DUP3 ADD SWAP1 POP PUSH2 0x19EC PUSH0 DUP4 ADD DUP6 PUSH2 0x19BB JUMP JUMPDEST PUSH2 0x19F9 PUSH1 0x20 DUP4 ADD DUP5 PUSH2 0x19CA JUMP JUMPDEST SWAP4 SWAP3 POP POP POP JUMP JUMPDEST PUSH0 DUP2 ISZERO ISZERO SWAP1 POP SWAP2 SWAP1 POP JUMP JUMPDEST PUSH2 0x1A14 DUP2 PUSH2 0x1A00 JUMP JUMPDEST DUP2 EQ PUSH2 0x1A1E JUMPI PUSH0 DUP1 REVERT JUMPDEST POP JUMP JUMPDEST PUSH0 DUP2 MLOAD SWAP1 POP PUSH2 0x1A2F DUP2 PUSH2 0x1A0B JUMP JUMPDEST SWAP3 SWAP2 POP POP JUMP JUMPDEST PUSH0 PUSH1 0x20 DUP3 DUP5 SUB SLT ISZERO PUSH2 0x1A4A JUMPI PUSH2 0x1A49 PUSH2 0x150D JUMP JUMPDEST JUMPDEST PUSH0 PUSH2 0x1A57 DUP5 DUP3 DUP6 ADD PUSH2 0x1A21 JUMP JUMPDEST SWAP2 POP POP SWAP3 SWAP2 POP POP JUMP JUMPDEST PUSH0 DUP2 PUSH1 0x60 SHL SWAP1 POP SWAP2 SWAP1 POP JUMP JUMPDEST PUSH0 PUSH2 0x1A76 DUP3 PUSH2 0x1A60 JUMP JUMPDEST SWAP1 POP SWAP2 SWAP1 POP JUMP JUMPDEST PUSH0 PUSH2 0x1A87 DUP3 PUSH2 0x1A6C JUMP JUMPDEST SWAP1 POP SWAP2 SWAP1 POP JUMP JUMPDEST PUSH2 0x1A9F PUSH2 0x1A9A DUP3 PUSH2 0x161E JUMP JUMPDEST PUSH2 0x1A7D JUMP JUMPDEST DUP3 MSTORE POP POP JUMP JUMPDEST PUSH0 PUSH2 0x1AB0 DUP3 DUP5 PUSH2 0x1A8E JUMP JUMPDEST PUSH1 0x14 DUP3 ADD SWAP2 POP DUP2 SWAP1 POP SWAP3 SWAP2 POP POP JUMP JUMPDEST DUP3 DUP2 DUP4 CALLDATACOPY POP POP POP JUMP JUMPDEST PUSH2 0x1AD5 PUSH2 0x100 DUP4 DUP4 PUSH2 0x1ABF JUMP JUMPDEST POP POP JUMP JUMPDEST PUSH0 PUSH2 0x1A0 DUP3 ADD SWAP1 POP PUSH2 0x1AED PUSH0 DUP4 ADD DUP10 PUSH2 0x19CA JUMP JUMPDEST PUSH2 0x1AFA PUSH1 0x20 DUP4 ADD DUP9 PUSH2 0x19CA JUMP JUMPDEST PUSH2 0x1B07 PUSH1 0x40 DUP4 ADD DUP8 PUSH2 0x19CA JUMP JUMPDEST PUSH2 0x1B14 PUSH1 0x60 DUP4 ADD DUP7 PUSH2 0x19CA JUMP JUMPDEST PUSH2 0x1B21 PUSH1 0x80 DUP4 ADD DUP6 PUSH2 0x19CA JUMP JUMPDEST PUSH2 0x1B2E PUSH1 0xA0 DUP4 ADD DUP5 PUSH2 0x1AC8 JUMP JUMPDEST SWAP8 SWAP7 POP POP POP POP POP POP POP JUMP JUMPDEST PUSH32 0x4E487B7100000000000000000000000000000000000000000000000000000000 PUSH0 MSTORE PUSH1 0x11 PUSH1 0x4 MSTORE PUSH1 0x24 PUSH0 REVERT JUMPDEST PUSH0 PUSH2 0x1B70 DUP3 PUSH2 0x15EB JUMP JUMPDEST SWAP2 POP PUSH2 0x1B7B DUP4 PUSH2 0x15EB JUMP JUMPDEST SWAP3 POP DUP3 DUP3 ADD SWAP1 POP DUP1 DUP3 GT ISZERO PUSH2 0x1B93 JUMPI PUSH2 0x1B92 PUSH2 0x1B39 JUMP JUMPDEST JUMPDEST SWAP3 SWAP2 POP POP JUMP JUMPDEST PUSH0 PUSH2 0x1BA3 DUP3 PUSH2 0x15EB JUMP JUMPDEST SWAP2 POP PUSH2 0x1BAE DUP4 PUSH2 0x15EB JUMP JUMPDEST SWAP3 POP DUP3 DUP3 MUL PUSH2 0x1BBC DUP2 PUSH2 0x15EB JUMP JUMPDEST SWAP2 POP DUP3 DUP3 DIV DUP5 EQ DUP4 ISZERO OR PUSH2 0x1BD3 JUMPI PUSH2 0x1BD2 PUSH2 0x1B39 JUMP JUMPDEST JUMPDEST POP SWAP3 SWAP2 POP POP JUMP JUMPDEST PUSH32 0x4E487B7100000000000000000000000000000000000000000000000000000000 PUSH0 MSTORE PUSH1 0x12 PUSH1 0x4 MSTORE PUSH1 0x24 PUSH0 REVERT JUMPDEST PUSH0 PUSH2 0x1C11 DUP3 PUSH2 0x15EB JUMP JUMPDEST SWAP2 POP PUSH2 0x1C1C DUP4 PUSH2 0x15EB JUMP JUMPDEST SWAP3 POP DUP3 PUSH2 0x1C2C JUMPI PUSH2 0x1C2B PUSH2 0x1BDA JUMP JUMPDEST JUMPDEST DUP3 DUP3 DIV SWAP1 POP SWAP3 SWAP2 POP POP JUMP JUMPDEST PUSH0 PUSH2 0x1C41 DUP3 PUSH2 0x15EB JUMP JUMPDEST SWAP2 POP PUSH32 0xFFFFFFFFFFFFFFFFFFFFFFFFFFFFFFFFFFFFFFFFFFFFFFFFFFFFFFFFFFFFFFFF DUP3 SUB PUSH2 0x1C73 JUMPI PUSH2 0x1C72 PUSH2 0x1B39 JUMP JUMPDEST JUMPDEST PUSH1 0x1 DUP3 ADD SWAP1 POP SWAP2 SWAP1 POP JUMP JUMPDEST PUSH0 PUSH1 0x60 DUP3 ADD SWAP1 POP PUSH2 0x1C91 PUSH0 DUP4 ADD DUP7 PUSH2 0x1908 JUMP JUMPDEST PUSH2 0x1C9E PUSH1 0x20 DUP4 ADD DUP6 PUSH2 0x1908 JUMP JUMPDEST PUSH2 0x1CAB PUSH1 0x40 DUP4 ADD DUP5 PUSH2 0x19CA JUMP JUMPDEST SWAP5 SWAP4 POP POP POP POP JUMP JUMPDEST PUSH0 PUSH1 0x40 DUP3 ADD SWAP1 POP PUSH2 0x1CC6 PUSH0 DUP4 ADD DUP6 PUSH2 0x1908 JUMP JUMPDEST PUSH2 0x1CD3 PUSH1 0x20 DUP4 ADD DUP5 PUSH2 0x19CA JUMP JUMPDEST SWAP4 SWAP3 POP POP POP JUMP JUMPDEST PUSH0 DUP2 MLOAD SWAP1 POP SWAP2 SWAP1 POP JUMP JUMPDEST PUSH0 DUP2 SWAP1 POP SWAP3 SWAP2 POP POP JUMP JUMPDEST DUP3 DUP2 DUP4 MCOPY PUSH0 DUP4 DUP4 ADD MSTORE POP POP POP JUMP JUMPDEST PUSH0 PUSH2 0x1D06 DUP3 PUSH2 0x1CDA JUMP JUMPDEST PUSH2 0x1D10 DUP2 DUP6 PUSH2 0x1CE4 JUMP JUMPDEST SWAP4 POP PUSH2 0x1D20 DUP2 DUP6 PUSH1 0x20 DUP7 ADD PUSH2 0x1CEE JUMP JUMPDEST DUP1 DUP5 ADD SWAP2 POP POP SWAP3 SWAP2 POP POP JUMP JUMPDEST PUSH0 PUSH2 0x1D37 DUP3 DUP5 PUSH2 0x1CFC JUMP JUMPDEST SWAP2 POP DUP2 SWAP1 POP SWAP3 SWAP2 POP POP JUMP INVALID LOG2 PUSH5 0x6970667358 0x22 SLT KECCAK256 LOG3 0x2E SGT KECCAK256 SWAP7 CHAINID 0xAD DUP4 OR PUSH29 0xE908CDB232C80C4669E164D9A7DF70FFC90513044DD164736F6C634300 ADDMOD BYTE STOP CALLER "
				},
				"gasEstimates": {
					"creation": {
						"codeDepositCost": "1508800",
						"executionCost": "infinite",
						"totalCost": "infinite"
					},
					"external": {
						"addProduct(bytes16,bytes32,uint256,uint256,address)": "infinite",
						"hashOf(bytes16)": "2865",
						"hashOfReview(bytes16)": "2799",
						"makePayment(bytes16)": "infinite",
						"makePaymentWorldId(bytes16,address,uint256,uint256,uint256[8])": "infinite",
						"payout(address)": "infinite",
						"removeProduct(bytes16)": "90584",
						"submitReview(bytes16,bytes16,bytes32,address,uint256,uint256,uint256[8])": "infinite",
						"updateProduct(bytes16,uint256,uint256,address,bytes32)": "infinite"
					}
				},
				"methodIdentifiers": {
					"addProduct(bytes16,bytes32,uint256,uint256,address)": "beec5054",
					"hashOf(bytes16)": "bddbed0b",
					"hashOfReview(bytes16)": "571702a2",
					"makePayment(bytes16)": "74775266",
					"makePaymentWorldId(bytes16,address,uint256,uint256,uint256[8])": "4778f735",
					"payout(address)": "0b7e9c44",
					"removeProduct(bytes16)": "5ec4a9cd",
					"submitReview(bytes16,bytes16,bytes32,address,uint256,uint256,uint256[8])": "2a06ea2d",
					"updateProduct(bytes16,uint256,uint256,address,bytes32)": "113406fe"
				}
			},
			"storageLayout": {
				"storage": [
					{
						"astId": 42,
						"contract": "src/Web3Checkout.sol:Web3Checkout",
						"label": "products",
						"offset": 0,
						"slot": "0",
						"type": "t_mapping(t_bytes16,t_struct(ProductMetadata)20_storage)"
					},
					{
						"astId": 47,
						"contract": "src/Web3Checkout.sol:Web3Checkout",
						"label": "reviews",
						"offset": 0,
						"slot": "1",
						"type": "t_mapping(t_bytes16,t_struct(Review)27_storage)"
					},
					{
						"astId": 53,
						"contract": "src/Web3Checkout.sol:Web3Checkout",
						"label": "purchase_counts_addr",
						"offset": 0,
						"slot": "2",
						"type": "t_mapping(t_address,t_mapping(t_bytes16,t_uint256))"
					},
					{
						"astId": 59,
						"contract": "src/Web3Checkout.sol:Web3Checkout",
						"label": "purchase_counts_worldid",
						"offset": 0,
						"slot": "3",
						"type": "t_mapping(t_uint256,t_mapping(t_bytes16,t_uint256))"
					},
					{
						"astId": 65,
						"contract": "src/Web3Checkout.sol:Web3Checkout",
						"label": "reviews_submitted",
						"offset": 0,
						"slot": "4",
						"type": "t_mapping(t_uint256,t_mapping(t_bytes16,t_bool))"
					},
					{
						"astId": 77,
						"contract": "src/Web3Checkout.sol:Web3Checkout",
						"label": "nullifierHashes",
						"offset": 0,
						"slot": "5",
						"type": "t_mapping(t_uint256,t_bool)"
					}
				],
				"types": {
					"t_address": {
						"encoding": "inplace",
						"label": "address",
						"numberOfBytes": "20"
					},
					"t_bool": {
						"encoding": "inplace",
						"label": "bool",
						"numberOfBytes": "1"
					},
					"t_bytes16": {
						"encoding": "inplace",
						"label": "bytes16",
						"numberOfBytes": "16"
					},
					"t_bytes32": {
						"encoding": "inplace",
						"label": "bytes32",
						"numberOfBytes": "32"
					},
					"t_mapping(t_address,t_mapping(t_bytes16,t_uint256))": {
						"encoding": "mapping",
						"key": "t_address",
						"label": "mapping(address => mapping(bytes16 => uint256))",
						"numberOfBytes": "32",
						"value": "t_mapping(t_bytes16,t_uint256)"
					},
					"t_mapping(t_bytes16,t_bool)": {
						"encoding": "mapping",
						"key": "t_bytes16",
						"label": "mapping(bytes16 => bool)",
						"numberOfBytes": "32",
						"value": "t_bool"
					},
					"t_mapping(t_bytes16,t_struct(ProductMetadata)20_storage)": {
						"encoding": "mapping",
						"key": "t_bytes16",
						"label": "mapping(bytes16 => struct ProductMetadata)",
						"numberOfBytes": "32",
						"value": "t_struct(ProductMetadata)20_storage"
					},
					"t_mapping(t_bytes16,t_struct(Review)27_storage)": {
						"encoding": "mapping",
						"key": "t_bytes16",
						"label": "mapping(bytes16 => struct Review)",
						"numberOfBytes": "32",
						"value": "t_struct(Review)27_storage"
					},
					"t_mapping(t_bytes16,t_uint256)": {
						"encoding": "mapping",
						"key": "t_bytes16",
						"label": "mapping(bytes16 => uint256)",
						"numberOfBytes": "32",
						"value": "t_uint256"
					},
					"t_mapping(t_uint256,t_bool)": {
						"encoding": "mapping",
						"key": "t_uint256",
						"label": "mapping(uint256 => bool)",
						"numberOfBytes": "32",
						"value": "t_bool"
					},
					"t_mapping(t_uint256,t_mapping(t_bytes16,t_bool))": {
						"encoding": "mapping",
						"key": "t_uint256",
						"label": "mapping(uint256 => mapping(bytes16 => bool))",
						"numberOfBytes": "32",
						"value": "t_mapping(t_bytes16,t_bool)"
					},
					"t_mapping(t_uint256,t_mapping(t_bytes16,t_uint256))": {
						"encoding": "mapping",
						"key": "t_uint256",
						"label": "mapping(uint256 => mapping(bytes16 => uint256))",
						"numberOfBytes": "32",
						"value": "t_mapping(t_bytes16,t_uint256)"
					},
					"t_struct(ProductMetadata)20_storage": {
						"encoding": "inplace",
						"label": "struct ProductMetadata",
						"members": [
							{
								"astId": 9,
								"contract": "src/Web3Checkout.sol:Web3Checkout",
								"label": "id",
								"offset": 0,
								"slot": "0",
								"type": "t_bytes16"
							},
							{
								"astId": 11,
								"contract": "src/Web3Checkout.sol:Web3Checkout",
								"label": "h",
								"offset": 0,
								"slot": "1",
								"type": "t_bytes32"
							},
							{
								"astId": 13,
								"contract": "src/Web3Checkout.sol:Web3Checkout",
								"label": "price",
								"offset": 0,
								"slot": "2",
								"type": "t_uint256"
							},
							{
								"astId": 15,
								"contract": "src/Web3Checkout.sol:Web3Checkout",
								"label": "purchase_limit",
								"offset": 0,
								"slot": "3",
								"type": "t_uint256"
							},
							{
								"astId": 17,
								"contract": "src/Web3Checkout.sol:Web3Checkout",
								"label": "payee",
								"offset": 0,
								"slot": "4",
								"type": "t_address"
							},
							{
								"astId": 19,
								"contract": "src/Web3Checkout.sol:Web3Checkout",
								"label": "controller",
								"offset": 0,
								"slot": "5",
								"type": "t_address"
							}
						],
						"numberOfBytes": "192"
					},
					"t_struct(Review)27_storage": {
						"encoding": "inplace",
						"label": "struct Review",
						"members": [
							{
								"astId": 22,
								"contract": "src/Web3Checkout.sol:Web3Checkout",
								"label": "id",
								"offset": 0,
								"slot": "0",
								"type": "t_bytes16"
							},
							{
								"astId": 24,
								"contract": "src/Web3Checkout.sol:Web3Checkout",
								"label": "h",
								"offset": 0,
								"slot": "1",
								"type": "t_bytes32"
							},
							{
								"astId": 26,
								"contract": "src/Web3Checkout.sol:Web3Checkout",
								"label": "product_id",
								"offset": 0,
								"slot": "2",
								"type": "t_bytes16"
							}
						],
						"numberOfBytes": "96"
					},
					"t_uint256": {
						"encoding": "inplace",
						"label": "uint256",
						"numberOfBytes": "32"
					}
				}
			},
			"userdoc": {
				"kind": "user",
				"methods": {},
				"version": 1
			}
		}
	}
}