{
	"src/Web3Checkout.sol": {
		"Web3Checkout": {
			"abi": [
				{
					"inputs": [
						{
							"internalType": "address",
							"name": "controller",
							"type": "address"
						},
						{
							"internalType": "uint256",
							"name": "fee",
							"type": "uint256"
						},
						{
							"internalType": "contract IWorldID",
							"name": "_worldId",
							"type": "address"
						},
						{
							"internalType": "string",
							"name": "_appId",
							"type": "string"
						},
						{
							"internalType": "string",
							"name": "_actionId",
							"type": "string"
						},
						{
							"internalType": "contract IERC20",
							"name": "_token",
							"type": "address"
						}
					],
					"stateMutability": "nonpayable",
					"type": "constructor"
				},
				{
					"inputs": [
						{
							"internalType": "bytes16",
							"name": "id",
							"type": "bytes16"
						},
						{
							"internalType": "bytes32",
							"name": "h",
							"type": "bytes32"
						},
						{
							"internalType": "uint256",
							"name": "price",
							"type": "uint256"
						},
						{
							"internalType": "uint256",
							"name": "purchase_limit",
							"type": "uint256"
						},
						{
							"internalType": "address",
							"name": "payee",
							"type": "address"
						}
					],
					"name": "addProduct",
					"outputs": [],
					"stateMutability": "nonpayable",
					"type": "function"
				},
				{
					"inputs": [
						{
							"internalType": "bytes16",
							"name": "id",
							"type": "bytes16"
						}
					],
					"name": "hashOf",
					"outputs": [
						{
							"internalType": "bytes32",
							"name": "",
							"type": "bytes32"
						}
					],
					"stateMutability": "view",
					"type": "function"
				},
				{
					"inputs": [
						{
							"internalType": "bytes16",
							"name": "id",
							"type": "bytes16"
						}
					],
					"name": "hashOfReview",
					"outputs": [
						{
							"internalType": "bytes32",
							"name": "",
							"type": "bytes32"
						}
					],
					"stateMutability": "view",
					"type": "function"
				},
				{
					"inputs": [
						{
							"internalType": "bytes16",
							"name": "id",
							"type": "bytes16"
						}
					],
					"name": "makePayment",
					"outputs": [],
					"stateMutability": "payable",
					"type": "function"
				},
				{
					"inputs": [
						{
							"internalType": "bytes16",
							"name": "id",
							"type": "bytes16"
						},
						{
							"internalType": "address",
							"name": "signal",
							"type": "address"
						},
						{
							"internalType": "uint256",
							"name": "root",
							"type": "uint256"
						},
						{
							"internalType": "uint256",
							"name": "nullifierHash",
							"type": "uint256"
						},
						{
							"internalType": "uint256[8]",
							"name": "proof",
							"type": "uint256[8]"
						}
					],
					"name": "makePaymentWorldId",
					"outputs": [],
					"stateMutability": "payable",
					"type": "function"
				},
				{
					"inputs": [
						{
							"internalType": "address payable",
							"name": "addr",
							"type": "address"
						}
					],
					"name": "payout",
					"outputs": [],
					"stateMutability": "nonpayable",
					"type": "function"
				},
				{
					"inputs": [
						{
							"internalType": "bytes16",
							"name": "id",
							"type": "bytes16"
						}
					],
					"name": "removeProduct",
					"outputs": [],
					"stateMutability": "nonpayable",
					"type": "function"
				},
				{
					"inputs": [
						{
							"internalType": "bytes16",
							"name": "product_id",
							"type": "bytes16"
						},
						{
							"internalType": "bytes16",
							"name": "id",
							"type": "bytes16"
						},
						{
							"internalType": "bytes32",
							"name": "h",
							"type": "bytes32"
						},
						{
							"internalType": "address",
							"name": "signal",
							"type": "address"
						},
						{
							"internalType": "uint256",
							"name": "root",
							"type": "uint256"
						},
						{
							"internalType": "uint256",
							"name": "nullifierHash",
							"type": "uint256"
						},
						{
							"internalType": "uint256[8]",
							"name": "proof",
							"type": "uint256[8]"
						}
					],
					"name": "submitReview",
					"outputs": [],
					"stateMutability": "nonpayable",
					"type": "function"
				},
				{
					"inputs": [
						{
							"internalType": "bytes16",
							"name": "product_id",
							"type": "bytes16"
						},
						{
							"internalType": "bytes16",
							"name": "id",
							"type": "bytes16"
						},
						{
							"internalType": "bytes32",
							"name": "h",
							"type": "bytes32"
						}
					],
					"name": "submitReviewBasic",
					"outputs": [],
					"stateMutability": "nonpayable",
					"type": "function"
				},
				{
					"inputs": [
						{
							"internalType": "bytes16",
							"name": "id",
							"type": "bytes16"
						},
						{
							"internalType": "uint256",
							"name": "price",
							"type": "uint256"
						},
						{
							"internalType": "uint256",
							"name": "purchase_limit",
							"type": "uint256"
						},
						{
							"internalType": "address",
							"name": "payee",
							"type": "address"
						},
						{
							"internalType": "bytes32",
							"name": "new_h",
							"type": "bytes32"
						}
					],
					"name": "updateProduct",
					"outputs": [],
					"stateMutability": "nonpayable",
					"type": "function"
				}
			],
			"devdoc": {
				"kind": "dev",
				"methods": {},
				"version": 1
			},
			"evm": {
				"assembly": "    /* \"src/Web3Checkout.sol\":442:5367  contract Web3Checkout {... */\n  mstore(0x40, 0x0140)\n    /* \"src/Web3Checkout.sol\":1184:1185  1 */\n  0x01\n    /* \"src/Web3Checkout.sol\":1147:1185  uint256 internal immutable groupId = 1 */\n  0x0120\n  swap1\n  dup2\n  mstore\n  pop\n    /* \"src/Web3Checkout.sol\":1331:1736  constructor(... */\n  callvalue\n  dup1\n  iszero\n  tag_1\n  jumpi\n  0x00\n  dup1\n  revert\ntag_1:\n  pop\n  mload(0x40)\n  sub(codesize, bytecodeSize)\n  dup1\n  bytecodeSize\n  dup4\n  codecopy\n  dup2\n  dup2\n  add\n  0x40\n  mstore\n  dup2\n  add\n  swap1\n  tag_2\n  swap2\n  swap1\n  tag_3\n  jump\t// in\ntag_2:\n    /* \"src/Web3Checkout.sol\":1529:1539  controller */\n  dup6\n    /* \"src/Web3Checkout.sol\":1521:1539  owner = controller */\n  0xffffffffffffffffffffffffffffffffffffffff\n  and\n  0x80\n  dup2\n  0xffffffffffffffffffffffffffffffffffffffff\n  and\n  dup2\n  mstore\n  pop\n  pop\n    /* \"src/Web3Checkout.sol\":1563:1566  fee */\n  dup5\n    /* \"src/Web3Checkout.sol\":1549:1566  fee_percent = fee */\n  0xa0\n  dup2\n  dup2\n  mstore\n  pop\n  pop\n    /* \"src/Web3Checkout.sol\":1586:1594  _worldId */\n  dup4\n    /* \"src/Web3Checkout.sol\":1576:1594  worldId = _worldId */\n  0xffffffffffffffffffffffffffffffffffffffff\n  and\n  0xe0\n  dup2\n  0xffffffffffffffffffffffffffffffffffffffff\n  and\n  dup2\n  mstore\n  pop\n  pop\n    /* \"src/Web3Checkout.sol\":1624:1705  abi.encodePacked(abi.encodePacked(_appId).hashToField(), _actionId).hashToField() */\n  tag_6\n    /* \"src/Web3Checkout.sol\":1641:1679  abi.encodePacked(_appId).hashToField() */\n  tag_7\n    /* \"src/Web3Checkout.sol\":1658:1664  _appId */\n  dup5\n    /* \"src/Web3Checkout.sol\":1641:1665  abi.encodePacked(_appId) */\n  add(0x20, mload(0x40))\n  tag_8\n  swap2\n  swap1\n  tag_9\n  jump\t// in\ntag_8:\n  mload(0x40)\n  0x20\n  dup2\n  dup4\n  sub\n  sub\n  dup2\n  mstore\n  swap1\n  0x40\n  mstore\n    /* \"src/Web3Checkout.sol\":1641:1677  abi.encodePacked(_appId).hashToField */\n  shl(0x20, tag_10)\n    /* \"src/Web3Checkout.sol\":1641:1679  abi.encodePacked(_appId).hashToField() */\n  0x20\n  shr\n  jump\t// in\ntag_7:\n    /* \"src/Web3Checkout.sol\":1681:1690  _actionId */\n  dup4\n    /* \"src/Web3Checkout.sol\":1624:1691  abi.encodePacked(abi.encodePacked(_appId).hashToField(), _actionId) */\n  add(0x20, mload(0x40))\n  tag_11\n  swap3\n  swap2\n  swap1\n  tag_12\n  jump\t// in\ntag_11:\n  mload(0x40)\n  0x20\n  dup2\n  dup4\n  sub\n  sub\n  dup2\n  mstore\n  swap1\n  0x40\n  mstore\n    /* \"src/Web3Checkout.sol\":1624:1703  abi.encodePacked(abi.encodePacked(_appId).hashToField(), _actionId).hashToField */\n  shl(0x20, tag_10)\n    /* \"src/Web3Checkout.sol\":1624:1705  abi.encodePacked(abi.encodePacked(_appId).hashToField(), _actionId).hashToField() */\n  0x20\n  shr\n  jump\t// in\ntag_6:\n    /* \"src/Web3Checkout.sol\":1604:1705  externalNullifier = abi.encodePacked(abi.encodePacked(_appId).hashToField(), _actionId).hashToField() */\n  0x0100\n  dup2\n  dup2\n  mstore\n  pop\n  pop\n    /* \"src/Web3Checkout.sol\":1723:1729  _token */\n  dup1\n    /* \"src/Web3Checkout.sol\":1715:1729  token = _token */\n  0xffffffffffffffffffffffffffffffffffffffff\n  and\n  0xc0\n  dup2\n  0xffffffffffffffffffffffffffffffffffffffff\n  and\n  dup2\n  mstore\n  pop\n  pop\n    /* \"src/Web3Checkout.sol\":1331:1736  constructor(... */\n  pop\n  pop\n  pop\n  pop\n  pop\n  pop\n    /* \"src/Web3Checkout.sol\":442:5367  contract Web3Checkout {... */\n  jump(tag_13)\n    /* \"src/helpers/ByteHasher.sol\":302:447  function hashToField(bytes memory value) internal pure returns (uint256) {... */\ntag_10:\n    /* \"src/helpers/ByteHasher.sol\":366:373  uint256 */\n  0x00\n    /* \"src/helpers/ByteHasher.sol\":439:440  8 */\n  0x08\n    /* \"src/helpers/ByteHasher.sol\":427:432  value */\n  dup3\n    /* \"src/helpers/ByteHasher.sol\":410:433  abi.encodePacked(value) */\n  add(0x20, mload(0x40))\n  tag_15\n  swap2\n  swap1\n  tag_16\n  jump\t// in\ntag_15:\n  mload(0x40)\n  0x20\n  dup2\n  dup4\n  sub\n  sub\n  dup2\n  mstore\n  swap1\n  0x40\n  mstore\n    /* \"src/helpers/ByteHasher.sol\":400:434  keccak256(abi.encodePacked(value)) */\n  dup1\n  mload\n  swap1\n  0x20\n  add\n  keccak256\n    /* \"src/helpers/ByteHasher.sol\":392:435  uint256(keccak256(abi.encodePacked(value))) */\n  0x00\n  shr\n    /* \"src/helpers/ByteHasher.sol\":392:440  uint256(keccak256(abi.encodePacked(value))) >> 8 */\n  swap1\n  shr\n    /* \"src/helpers/ByteHasher.sol\":385:440  return uint256(keccak256(abi.encodePacked(value))) >> 8 */\n  swap1\n  pop\n    /* \"src/helpers/ByteHasher.sol\":302:447  function hashToField(bytes memory value) internal pure returns (uint256) {... */\n  swap2\n  swap1\n  pop\n  jump\t// out\n    /* \"#utility.yul\":7:82   */\ntag_17:\n    /* \"#utility.yul\":40:46   */\n  0x00\n    /* \"#utility.yul\":73:75   */\n  0x40\n    /* \"#utility.yul\":67:76   */\n  mload\n    /* \"#utility.yul\":57:76   */\n  swap1\n  pop\n    /* \"#utility.yul\":7:82   */\n  swap1\n  jump\t// out\n    /* \"#utility.yul\":88:205   */\ntag_18:\n    /* \"#utility.yul\":197:198   */\n  0x00\n    /* \"#utility.yul\":194:195   */\n  dup1\n    /* \"#utility.yul\":187:199   */\n  revert\n    /* \"#utility.yul\":211:328   */\ntag_19:\n    /* \"#utility.yul\":320:321   */\n  0x00\n    /* \"#utility.yul\":317:318   */\n  dup1\n    /* \"#utility.yul\":310:322   */\n  revert\n    /* \"#utility.yul\":334:460   */\ntag_20:\n    /* \"#utility.yul\":371:378   */\n  0x00\n    /* \"#utility.yul\":411:453   */\n  0xffffffffffffffffffffffffffffffffffffffff\n    /* \"#utility.yul\":404:409   */\n  dup3\n    /* \"#utility.yul\":400:454   */\n  and\n    /* \"#utility.yul\":389:454   */\n  swap1\n  pop\n    /* \"#utility.yul\":334:460   */\n  swap2\n  swap1\n  pop\n  jump\t// out\n    /* \"#utility.yul\":466:562   */\ntag_21:\n    /* \"#utility.yul\":503:510   */\n  0x00\n    /* \"#utility.yul\":532:556   */\n  tag_57\n    /* \"#utility.yul\":550:555   */\n  dup3\n    /* \"#utility.yul\":532:556   */\n  tag_20\n  jump\t// in\ntag_57:\n    /* \"#utility.yul\":521:556   */\n  swap1\n  pop\n    /* \"#utility.yul\":466:562   */\n  swap2\n  swap1\n  pop\n  jump\t// out\n    /* \"#utility.yul\":568:690   */\ntag_22:\n    /* \"#utility.yul\":641:665   */\n  tag_59\n    /* \"#utility.yul\":659:664   */\n  dup2\n    /* \"#utility.yul\":641:665   */\n  tag_21\n  jump\t// in\ntag_59:\n    /* \"#utility.yul\":634:639   */\n  dup2\n    /* \"#utility.yul\":631:666   */\n  eq\n    /* \"#utility.yul\":621:684   */\n  tag_60\n  jumpi\n    /* \"#utility.yul\":680:681   */\n  0x00\n    /* \"#utility.yul\":677:678   */\n  dup1\n    /* \"#utility.yul\":670:682   */\n  revert\n    /* \"#utility.yul\":621:684   */\ntag_60:\n    /* \"#utility.yul\":568:690   */\n  pop\n  jump\t// out\n    /* \"#utility.yul\":696:839   */\ntag_23:\n    /* \"#utility.yul\":753:758   */\n  0x00\n    /* \"#utility.yul\":784:790   */\n  dup2\n    /* \"#utility.yul\":778:791   */\n  mload\n    /* \"#utility.yul\":769:791   */\n  swap1\n  pop\n    /* \"#utility.yul\":800:833   */\n  tag_62\n    /* \"#utility.yul\":827:832   */\n  dup2\n    /* \"#utility.yul\":800:833   */\n  tag_22\n  jump\t// in\ntag_62:\n    /* \"#utility.yul\":696:839   */\n  swap3\n  swap2\n  pop\n  pop\n  jump\t// out\n    /* \"#utility.yul\":845:922   */\ntag_24:\n    /* \"#utility.yul\":882:889   */\n  0x00\n    /* \"#utility.yul\":911:916   */\n  dup2\n    /* \"#utility.yul\":900:916   */\n  swap1\n  pop\n    /* \"#utility.yul\":845:922   */\n  swap2\n  swap1\n  pop\n  jump\t// out\n    /* \"#utility.yul\":928:1050   */\ntag_25:\n    /* \"#utility.yul\":1001:1025   */\n  tag_65\n    /* \"#utility.yul\":1019:1024   */\n  dup2\n    /* \"#utility.yul\":1001:1025   */\n  tag_24\n  jump\t// in\ntag_65:\n    /* \"#utility.yul\":994:999   */\n  dup2\n    /* \"#utility.yul\":991:1026   */\n  eq\n    /* \"#utility.yul\":981:1044   */\n  tag_66\n  jumpi\n    /* \"#utility.yul\":1040:1041   */\n  0x00\n    /* \"#utility.yul\":1037:1038   */\n  dup1\n    /* \"#utility.yul\":1030:1042   */\n  revert\n    /* \"#utility.yul\":981:1044   */\ntag_66:\n    /* \"#utility.yul\":928:1050   */\n  pop\n  jump\t// out\n    /* \"#utility.yul\":1056:1199   */\ntag_26:\n    /* \"#utility.yul\":1113:1118   */\n  0x00\n    /* \"#utility.yul\":1144:1150   */\n  dup2\n    /* \"#utility.yul\":1138:1151   */\n  mload\n    /* \"#utility.yul\":1129:1151   */\n  swap1\n  pop\n    /* \"#utility.yul\":1160:1193   */\n  tag_68\n    /* \"#utility.yul\":1187:1192   */\n  dup2\n    /* \"#utility.yul\":1160:1193   */\n  tag_25\n  jump\t// in\ntag_68:\n    /* \"#utility.yul\":1056:1199   */\n  swap3\n  swap2\n  pop\n  pop\n  jump\t// out\n    /* \"#utility.yul\":1205:1317   */\ntag_27:\n    /* \"#utility.yul\":1258:1265   */\n  0x00\n    /* \"#utility.yul\":1287:1311   */\n  tag_70\n    /* \"#utility.yul\":1305:1310   */\n  dup3\n    /* \"#utility.yul\":1287:1311   */\n  tag_21\n  jump\t// in\ntag_70:\n    /* \"#utility.yul\":1276:1311   */\n  swap1\n  pop\n    /* \"#utility.yul\":1205:1317   */\n  swap2\n  swap1\n  pop\n  jump\t// out\n    /* \"#utility.yul\":1323:1477   */\ntag_28:\n    /* \"#utility.yul\":1412:1452   */\n  tag_72\n    /* \"#utility.yul\":1446:1451   */\n  dup2\n    /* \"#utility.yul\":1412:1452   */\n  tag_27\n  jump\t// in\ntag_72:\n    /* \"#utility.yul\":1405:1410   */\n  dup2\n    /* \"#utility.yul\":1402:1453   */\n  eq\n    /* \"#utility.yul\":1392:1471   */\n  tag_73\n  jumpi\n    /* \"#utility.yul\":1467:1468   */\n  0x00\n    /* \"#utility.yul\":1464:1465   */\n  dup1\n    /* \"#utility.yul\":1457:1469   */\n  revert\n    /* \"#utility.yul\":1392:1471   */\ntag_73:\n    /* \"#utility.yul\":1323:1477   */\n  pop\n  jump\t// out\n    /* \"#utility.yul\":1483:1658   */\ntag_29:\n    /* \"#utility.yul\":1556:1561   */\n  0x00\n    /* \"#utility.yul\":1587:1593   */\n  dup2\n    /* \"#utility.yul\":1581:1594   */\n  mload\n    /* \"#utility.yul\":1572:1594   */\n  swap1\n  pop\n    /* \"#utility.yul\":1603:1652   */\n  tag_75\n    /* \"#utility.yul\":1646:1651   */\n  dup2\n    /* \"#utility.yul\":1603:1652   */\n  tag_28\n  jump\t// in\ntag_75:\n    /* \"#utility.yul\":1483:1658   */\n  swap3\n  swap2\n  pop\n  pop\n  jump\t// out\n    /* \"#utility.yul\":1664:1781   */\ntag_30:\n    /* \"#utility.yul\":1773:1774   */\n  0x00\n    /* \"#utility.yul\":1770:1771   */\n  dup1\n    /* \"#utility.yul\":1763:1775   */\n  revert\n    /* \"#utility.yul\":1787:1904   */\ntag_31:\n    /* \"#utility.yul\":1896:1897   */\n  0x00\n    /* \"#utility.yul\":1893:1894   */\n  dup1\n    /* \"#utility.yul\":1886:1898   */\n  revert\n    /* \"#utility.yul\":1910:2012   */\ntag_32:\n    /* \"#utility.yul\":1951:1957   */\n  0x00\n    /* \"#utility.yul\":2002:2004   */\n  0x1f\n    /* \"#utility.yul\":1998:2005   */\n  not\n    /* \"#utility.yul\":1993:1995   */\n  0x1f\n    /* \"#utility.yul\":1986:1991   */\n  dup4\n    /* \"#utility.yul\":1982:1996   */\n  add\n    /* \"#utility.yul\":1978:2006   */\n  and\n    /* \"#utility.yul\":1968:2006   */\n  swap1\n  pop\n    /* \"#utility.yul\":1910:2012   */\n  swap2\n  swap1\n  pop\n  jump\t// out\n    /* \"#utility.yul\":2018:2198   */\ntag_33:\n    /* \"#utility.yul\":2066:2143   */\n  0x4e487b7100000000000000000000000000000000000000000000000000000000\n    /* \"#utility.yul\":2063:2064   */\n  0x00\n    /* \"#utility.yul\":2056:2144   */\n  mstore\n    /* \"#utility.yul\":2163:2167   */\n  0x41\n    /* \"#utility.yul\":2160:2161   */\n  0x04\n    /* \"#utility.yul\":2153:2168   */\n  mstore\n    /* \"#utility.yul\":2187:2191   */\n  0x24\n    /* \"#utility.yul\":2184:2185   */\n  0x00\n    /* \"#utility.yul\":2177:2192   */\n  revert\n    /* \"#utility.yul\":2204:2485   */\ntag_34:\n    /* \"#utility.yul\":2287:2314   */\n  tag_81\n    /* \"#utility.yul\":2309:2313   */\n  dup3\n    /* \"#utility.yul\":2287:2314   */\n  tag_32\n  jump\t// in\ntag_81:\n    /* \"#utility.yul\":2279:2285   */\n  dup2\n    /* \"#utility.yul\":2275:2315   */\n  add\n    /* \"#utility.yul\":2417:2423   */\n  dup2\n    /* \"#utility.yul\":2405:2415   */\n  dup2\n    /* \"#utility.yul\":2402:2424   */\n  lt\n    /* \"#utility.yul\":2381:2399   */\n  0xffffffffffffffff\n    /* \"#utility.yul\":2369:2379   */\n  dup3\n    /* \"#utility.yul\":2366:2400   */\n  gt\n    /* \"#utility.yul\":2363:2425   */\n  or\n    /* \"#utility.yul\":2360:2448   */\n  iszero\n  tag_82\n  jumpi\n    /* \"#utility.yul\":2428:2446   */\n  tag_83\n  tag_33\n  jump\t// in\ntag_83:\n    /* \"#utility.yul\":2360:2448   */\ntag_82:\n    /* \"#utility.yul\":2468:2478   */\n  dup1\n    /* \"#utility.yul\":2464:2466   */\n  0x40\n    /* \"#utility.yul\":2457:2479   */\n  mstore\n    /* \"#utility.yul\":2247:2485   */\n  pop\n    /* \"#utility.yul\":2204:2485   */\n  pop\n  pop\n  jump\t// out\n    /* \"#utility.yul\":2491:2620   */\ntag_35:\n    /* \"#utility.yul\":2525:2531   */\n  0x00\n    /* \"#utility.yul\":2552:2572   */\n  tag_85\n  tag_17\n  jump\t// in\ntag_85:\n    /* \"#utility.yul\":2542:2572   */\n  swap1\n  pop\n    /* \"#utility.yul\":2581:2614   */\n  tag_86\n    /* \"#utility.yul\":2609:2613   */\n  dup3\n    /* \"#utility.yul\":2601:2607   */\n  dup3\n    /* \"#utility.yul\":2581:2614   */\n  tag_34\n  jump\t// in\ntag_86:\n    /* \"#utility.yul\":2491:2620   */\n  swap2\n  swap1\n  pop\n  jump\t// out\n    /* \"#utility.yul\":2626:2934   */\ntag_36:\n    /* \"#utility.yul\":2688:2692   */\n  0x00\n    /* \"#utility.yul\":2778:2796   */\n  0xffffffffffffffff\n    /* \"#utility.yul\":2770:2776   */\n  dup3\n    /* \"#utility.yul\":2767:2797   */\n  gt\n    /* \"#utility.yul\":2764:2820   */\n  iszero\n  tag_88\n  jumpi\n    /* \"#utility.yul\":2800:2818   */\n  tag_89\n  tag_33\n  jump\t// in\ntag_89:\n    /* \"#utility.yul\":2764:2820   */\ntag_88:\n    /* \"#utility.yul\":2838:2867   */\n  tag_90\n    /* \"#utility.yul\":2860:2866   */\n  dup3\n    /* \"#utility.yul\":2838:2867   */\n  tag_32\n  jump\t// in\ntag_90:\n    /* \"#utility.yul\":2830:2867   */\n  swap1\n  pop\n    /* \"#utility.yul\":2922:2926   */\n  0x20\n    /* \"#utility.yul\":2916:2920   */\n  dup2\n    /* \"#utility.yul\":2912:2927   */\n  add\n    /* \"#utility.yul\":2904:2927   */\n  swap1\n  pop\n    /* \"#utility.yul\":2626:2934   */\n  swap2\n  swap1\n  pop\n  jump\t// out\n    /* \"#utility.yul\":2940:3079   */\ntag_37:\n    /* \"#utility.yul\":3029:3035   */\n  dup3\n    /* \"#utility.yul\":3024:3027   */\n  dup2\n    /* \"#utility.yul\":3019:3022   */\n  dup4\n    /* \"#utility.yul\":3013:3036   */\n  mcopy\n    /* \"#utility.yul\":3070:3071   */\n  0x00\n    /* \"#utility.yul\":3061:3067   */\n  dup4\n    /* \"#utility.yul\":3056:3059   */\n  dup4\n    /* \"#utility.yul\":3052:3068   */\n  add\n    /* \"#utility.yul\":3045:3072   */\n  mstore\n    /* \"#utility.yul\":2940:3079   */\n  pop\n  pop\n  pop\n  jump\t// out\n    /* \"#utility.yul\":3085:3519   */\ntag_38:\n    /* \"#utility.yul\":3174:3179   */\n  0x00\n    /* \"#utility.yul\":3199:3265   */\n  tag_93\n    /* \"#utility.yul\":3215:3264   */\n  tag_94\n    /* \"#utility.yul\":3257:3263   */\n  dup5\n    /* \"#utility.yul\":3215:3264   */\n  tag_36\n  jump\t// in\ntag_94:\n    /* \"#utility.yul\":3199:3265   */\n  tag_35\n  jump\t// in\ntag_93:\n    /* \"#utility.yul\":3190:3265   */\n  swap1\n  pop\n    /* \"#utility.yul\":3288:3294   */\n  dup3\n    /* \"#utility.yul\":3281:3286   */\n  dup2\n    /* \"#utility.yul\":3274:3295   */\n  mstore\n    /* \"#utility.yul\":3326:3330   */\n  0x20\n    /* \"#utility.yul\":3319:3324   */\n  dup2\n    /* \"#utility.yul\":3315:3331   */\n  add\n    /* \"#utility.yul\":3364:3367   */\n  dup5\n    /* \"#utility.yul\":3355:3361   */\n  dup5\n    /* \"#utility.yul\":3350:3353   */\n  dup5\n    /* \"#utility.yul\":3346:3362   */\n  add\n    /* \"#utility.yul\":3343:3368   */\n  gt\n    /* \"#utility.yul\":3340:3452   */\n  iszero\n  tag_95\n  jumpi\n    /* \"#utility.yul\":3371:3450   */\n  tag_96\n  tag_31\n  jump\t// in\ntag_96:\n    /* \"#utility.yul\":3340:3452   */\ntag_95:\n    /* \"#utility.yul\":3461:3513   */\n  tag_97\n    /* \"#utility.yul\":3506:3512   */\n  dup5\n    /* \"#utility.yul\":3501:3504   */\n  dup3\n    /* \"#utility.yul\":3496:3499   */\n  dup6\n    /* \"#utility.yul\":3461:3513   */\n  tag_37\n  jump\t// in\ntag_97:\n    /* \"#utility.yul\":3180:3519   */\n  pop\n    /* \"#utility.yul\":3085:3519   */\n  swap4\n  swap3\n  pop\n  pop\n  pop\n  jump\t// out\n    /* \"#utility.yul\":3539:3894   */\ntag_39:\n    /* \"#utility.yul\":3606:3611   */\n  0x00\n    /* \"#utility.yul\":3655:3658   */\n  dup3\n    /* \"#utility.yul\":3648:3652   */\n  0x1f\n    /* \"#utility.yul\":3640:3646   */\n  dup4\n    /* \"#utility.yul\":3636:3653   */\n  add\n    /* \"#utility.yul\":3632:3659   */\n  slt\n    /* \"#utility.yul\":3622:3744   */\n  tag_99\n  jumpi\n    /* \"#utility.yul\":3663:3742   */\n  tag_100\n  tag_30\n  jump\t// in\ntag_100:\n    /* \"#utility.yul\":3622:3744   */\ntag_99:\n    /* \"#utility.yul\":3773:3779   */\n  dup2\n    /* \"#utility.yul\":3767:3780   */\n  mload\n    /* \"#utility.yul\":3798:3888   */\n  tag_101\n    /* \"#utility.yul\":3884:3887   */\n  dup5\n    /* \"#utility.yul\":3876:3882   */\n  dup3\n    /* \"#utility.yul\":3869:3873   */\n  0x20\n    /* \"#utility.yul\":3861:3867   */\n  dup7\n    /* \"#utility.yul\":3857:3874   */\n  add\n    /* \"#utility.yul\":3798:3888   */\n  tag_38\n  jump\t// in\ntag_101:\n    /* \"#utility.yul\":3789:3888   */\n  swap2\n  pop\n    /* \"#utility.yul\":3612:3894   */\n  pop\n    /* \"#utility.yul\":3539:3894   */\n  swap3\n  swap2\n  pop\n  pop\n  jump\t// out\n    /* \"#utility.yul\":3900:4010   */\ntag_40:\n    /* \"#utility.yul\":3951:3958   */\n  0x00\n    /* \"#utility.yul\":3980:4004   */\n  tag_103\n    /* \"#utility.yul\":3998:4003   */\n  dup3\n    /* \"#utility.yul\":3980:4004   */\n  tag_21\n  jump\t// in\ntag_103:\n    /* \"#utility.yul\":3969:4004   */\n  swap1\n  pop\n    /* \"#utility.yul\":3900:4010   */\n  swap2\n  swap1\n  pop\n  jump\t// out\n    /* \"#utility.yul\":4016:4166   */\ntag_41:\n    /* \"#utility.yul\":4103:4141   */\n  tag_105\n    /* \"#utility.yul\":4135:4140   */\n  dup2\n    /* \"#utility.yul\":4103:4141   */\n  tag_40\n  jump\t// in\ntag_105:\n    /* \"#utility.yul\":4096:4101   */\n  dup2\n    /* \"#utility.yul\":4093:4142   */\n  eq\n    /* \"#utility.yul\":4083:4160   */\n  tag_106\n  jumpi\n    /* \"#utility.yul\":4156:4157   */\n  0x00\n    /* \"#utility.yul\":4153:4154   */\n  dup1\n    /* \"#utility.yul\":4146:4158   */\n  revert\n    /* \"#utility.yul\":4083:4160   */\ntag_106:\n    /* \"#utility.yul\":4016:4166   */\n  pop\n  jump\t// out\n    /* \"#utility.yul\":4172:4343   */\ntag_42:\n    /* \"#utility.yul\":4243:4248   */\n  0x00\n    /* \"#utility.yul\":4274:4280   */\n  dup2\n    /* \"#utility.yul\":4268:4281   */\n  mload\n    /* \"#utility.yul\":4259:4281   */\n  swap1\n  pop\n    /* \"#utility.yul\":4290:4337   */\n  tag_108\n    /* \"#utility.yul\":4331:4336   */\n  dup2\n    /* \"#utility.yul\":4290:4337   */\n  tag_41\n  jump\t// in\ntag_108:\n    /* \"#utility.yul\":4172:4343   */\n  swap3\n  swap2\n  pop\n  pop\n  jump\t// out\n    /* \"#utility.yul\":4349:5889   */\ntag_3:\n    /* \"#utility.yul\":4514:4520   */\n  0x00\n    /* \"#utility.yul\":4522:4528   */\n  dup1\n    /* \"#utility.yul\":4530:4536   */\n  0x00\n    /* \"#utility.yul\":4538:4544   */\n  dup1\n    /* \"#utility.yul\":4546:4552   */\n  0x00\n    /* \"#utility.yul\":4554:4560   */\n  dup1\n    /* \"#utility.yul\":4603:4606   */\n  0xc0\n    /* \"#utility.yul\":4591:4600   */\n  dup8\n    /* \"#utility.yul\":4582:4589   */\n  dup10\n    /* \"#utility.yul\":4578:4601   */\n  sub\n    /* \"#utility.yul\":4574:4607   */\n  slt\n    /* \"#utility.yul\":4571:4691   */\n  iszero\n  tag_110\n  jumpi\n    /* \"#utility.yul\":4610:4689   */\n  tag_111\n  tag_18\n  jump\t// in\ntag_111:\n    /* \"#utility.yul\":4571:4691   */\ntag_110:\n    /* \"#utility.yul\":4730:4731   */\n  0x00\n    /* \"#utility.yul\":4755:4819   */\n  tag_112\n    /* \"#utility.yul\":4811:4818   */\n  dup10\n    /* \"#utility.yul\":4802:4808   */\n  dup3\n    /* \"#utility.yul\":4791:4800   */\n  dup11\n    /* \"#utility.yul\":4787:4809   */\n  add\n    /* \"#utility.yul\":4755:4819   */\n  tag_23\n  jump\t// in\ntag_112:\n    /* \"#utility.yul\":4745:4819   */\n  swap7\n  pop\n    /* \"#utility.yul\":4701:4829   */\n  pop\n    /* \"#utility.yul\":4868:4870   */\n  0x20\n    /* \"#utility.yul\":4894:4958   */\n  tag_113\n    /* \"#utility.yul\":4950:4957   */\n  dup10\n    /* \"#utility.yul\":4941:4947   */\n  dup3\n    /* \"#utility.yul\":4930:4939   */\n  dup11\n    /* \"#utility.yul\":4926:4948   */\n  add\n    /* \"#utility.yul\":4894:4958   */\n  tag_26\n  jump\t// in\ntag_113:\n    /* \"#utility.yul\":4884:4958   */\n  swap6\n  pop\n    /* \"#utility.yul\":4839:4968   */\n  pop\n    /* \"#utility.yul\":5007:5009   */\n  0x40\n    /* \"#utility.yul\":5033:5113   */\n  tag_114\n    /* \"#utility.yul\":5105:5112   */\n  dup10\n    /* \"#utility.yul\":5096:5102   */\n  dup3\n    /* \"#utility.yul\":5085:5094   */\n  dup11\n    /* \"#utility.yul\":5081:5103   */\n  add\n    /* \"#utility.yul\":5033:5113   */\n  tag_29\n  jump\t// in\ntag_114:\n    /* \"#utility.yul\":5023:5113   */\n  swap5\n  pop\n    /* \"#utility.yul\":4978:5123   */\n  pop\n    /* \"#utility.yul\":5183:5185   */\n  0x60\n    /* \"#utility.yul\":5172:5181   */\n  dup8\n    /* \"#utility.yul\":5168:5186   */\n  add\n    /* \"#utility.yul\":5162:5187   */\n  mload\n    /* \"#utility.yul\":5214:5232   */\n  0xffffffffffffffff\n    /* \"#utility.yul\":5206:5212   */\n  dup2\n    /* \"#utility.yul\":5203:5233   */\n  gt\n    /* \"#utility.yul\":5200:5317   */\n  iszero\n  tag_115\n  jumpi\n    /* \"#utility.yul\":5236:5315   */\n  tag_116\n  tag_19\n  jump\t// in\ntag_116:\n    /* \"#utility.yul\":5200:5317   */\ntag_115:\n    /* \"#utility.yul\":5341:5415   */\n  tag_117\n    /* \"#utility.yul\":5407:5414   */\n  dup10\n    /* \"#utility.yul\":5398:5404   */\n  dup3\n    /* \"#utility.yul\":5387:5396   */\n  dup11\n    /* \"#utility.yul\":5383:5405   */\n  add\n    /* \"#utility.yul\":5341:5415   */\n  tag_39\n  jump\t// in\ntag_117:\n    /* \"#utility.yul\":5331:5415   */\n  swap4\n  pop\n    /* \"#utility.yul\":5133:5425   */\n  pop\n    /* \"#utility.yul\":5485:5488   */\n  0x80\n    /* \"#utility.yul\":5474:5483   */\n  dup8\n    /* \"#utility.yul\":5470:5489   */\n  add\n    /* \"#utility.yul\":5464:5490   */\n  mload\n    /* \"#utility.yul\":5517:5535   */\n  0xffffffffffffffff\n    /* \"#utility.yul\":5509:5515   */\n  dup2\n    /* \"#utility.yul\":5506:5536   */\n  gt\n    /* \"#utility.yul\":5503:5620   */\n  iszero\n  tag_118\n  jumpi\n    /* \"#utility.yul\":5539:5618   */\n  tag_119\n  tag_19\n  jump\t// in\ntag_119:\n    /* \"#utility.yul\":5503:5620   */\ntag_118:\n    /* \"#utility.yul\":5644:5718   */\n  tag_120\n    /* \"#utility.yul\":5710:5717   */\n  dup10\n    /* \"#utility.yul\":5701:5707   */\n  dup3\n    /* \"#utility.yul\":5690:5699   */\n  dup11\n    /* \"#utility.yul\":5686:5708   */\n  add\n    /* \"#utility.yul\":5644:5718   */\n  tag_39\n  jump\t// in\ntag_120:\n    /* \"#utility.yul\":5634:5718   */\n  swap3\n  pop\n    /* \"#utility.yul\":5435:5728   */\n  pop\n    /* \"#utility.yul\":5767:5770   */\n  0xa0\n    /* \"#utility.yul\":5794:5872   */\n  tag_121\n    /* \"#utility.yul\":5864:5871   */\n  dup10\n    /* \"#utility.yul\":5855:5861   */\n  dup3\n    /* \"#utility.yul\":5844:5853   */\n  dup11\n    /* \"#utility.yul\":5840:5862   */\n  add\n    /* \"#utility.yul\":5794:5872   */\n  tag_42\n  jump\t// in\ntag_121:\n    /* \"#utility.yul\":5784:5872   */\n  swap2\n  pop\n    /* \"#utility.yul\":5738:5882   */\n  pop\n    /* \"#utility.yul\":4349:5889   */\n  swap3\n  swap6\n  pop\n  swap3\n  swap6\n  pop\n  swap3\n  swap6\n  jump\t// out\n    /* \"#utility.yul\":5895:5994   */\ntag_43:\n    /* \"#utility.yul\":5947:5953   */\n  0x00\n    /* \"#utility.yul\":5981:5986   */\n  dup2\n    /* \"#utility.yul\":5975:5987   */\n  mload\n    /* \"#utility.yul\":5965:5987   */\n  swap1\n  pop\n    /* \"#utility.yul\":5895:5994   */\n  swap2\n  swap1\n  pop\n  jump\t// out\n    /* \"#utility.yul\":6000:6148   */\ntag_44:\n    /* \"#utility.yul\":6102:6113   */\n  0x00\n    /* \"#utility.yul\":6139:6142   */\n  dup2\n    /* \"#utility.yul\":6124:6142   */\n  swap1\n  pop\n    /* \"#utility.yul\":6000:6148   */\n  swap3\n  swap2\n  pop\n  pop\n  jump\t// out\n    /* \"#utility.yul\":6154:6544   */\ntag_45:\n    /* \"#utility.yul\":6260:6263   */\n  0x00\n    /* \"#utility.yul\":6288:6327   */\n  tag_125\n    /* \"#utility.yul\":6321:6326   */\n  dup3\n    /* \"#utility.yul\":6288:6327   */\n  tag_43\n  jump\t// in\ntag_125:\n    /* \"#utility.yul\":6343:6432   */\n  tag_126\n    /* \"#utility.yul\":6425:6431   */\n  dup2\n    /* \"#utility.yul\":6420:6423   */\n  dup6\n    /* \"#utility.yul\":6343:6432   */\n  tag_44\n  jump\t// in\ntag_126:\n    /* \"#utility.yul\":6336:6432   */\n  swap4\n  pop\n    /* \"#utility.yul\":6441:6506   */\n  tag_127\n    /* \"#utility.yul\":6499:6505   */\n  dup2\n    /* \"#utility.yul\":6494:6497   */\n  dup6\n    /* \"#utility.yul\":6487:6491   */\n  0x20\n    /* \"#utility.yul\":6480:6485   */\n  dup7\n    /* \"#utility.yul\":6476:6492   */\n  add\n    /* \"#utility.yul\":6441:6506   */\n  tag_37\n  jump\t// in\ntag_127:\n    /* \"#utility.yul\":6531:6537   */\n  dup1\n    /* \"#utility.yul\":6526:6529   */\n  dup5\n    /* \"#utility.yul\":6522:6538   */\n  add\n    /* \"#utility.yul\":6515:6538   */\n  swap2\n  pop\n    /* \"#utility.yul\":6264:6544   */\n  pop\n    /* \"#utility.yul\":6154:6544   */\n  swap3\n  swap2\n  pop\n  pop\n  jump\t// out\n    /* \"#utility.yul\":6550:6825   */\ntag_9:\n    /* \"#utility.yul\":6682:6685   */\n  0x00\n    /* \"#utility.yul\":6704:6799   */\n  tag_129\n    /* \"#utility.yul\":6795:6798   */\n  dup3\n    /* \"#utility.yul\":6786:6792   */\n  dup5\n    /* \"#utility.yul\":6704:6799   */\n  tag_45\n  jump\t// in\ntag_129:\n    /* \"#utility.yul\":6697:6799   */\n  swap2\n  pop\n    /* \"#utility.yul\":6816:6819   */\n  dup2\n    /* \"#utility.yul\":6809:6819   */\n  swap1\n  pop\n    /* \"#utility.yul\":6550:6825   */\n  swap3\n  swap2\n  pop\n  pop\n  jump\t// out\n    /* \"#utility.yul\":6831:6910   */\ntag_46:\n    /* \"#utility.yul\":6870:6877   */\n  0x00\n    /* \"#utility.yul\":6899:6904   */\n  dup2\n    /* \"#utility.yul\":6888:6904   */\n  swap1\n  pop\n    /* \"#utility.yul\":6831:6910   */\n  swap2\n  swap1\n  pop\n  jump\t// out\n    /* \"#utility.yul\":6916:7073   */\ntag_47:\n    /* \"#utility.yul\":7021:7066   */\n  tag_132\n    /* \"#utility.yul\":7041:7065   */\n  tag_133\n    /* \"#utility.yul\":7059:7064   */\n  dup3\n    /* \"#utility.yul\":7041:7065   */\n  tag_24\n  jump\t// in\ntag_133:\n    /* \"#utility.yul\":7021:7066   */\n  tag_46\n  jump\t// in\ntag_132:\n    /* \"#utility.yul\":7016:7019   */\n  dup3\n    /* \"#utility.yul\":7009:7067   */\n  mstore\n    /* \"#utility.yul\":6916:7073   */\n  pop\n  pop\n  jump\t// out\n    /* \"#utility.yul\":7079:7495   */\ntag_12:\n    /* \"#utility.yul\":7239:7242   */\n  0x00\n    /* \"#utility.yul\":7254:7329   */\n  tag_135\n    /* \"#utility.yul\":7325:7328   */\n  dup3\n    /* \"#utility.yul\":7316:7322   */\n  dup6\n    /* \"#utility.yul\":7254:7329   */\n  tag_47\n  jump\t// in\ntag_135:\n    /* \"#utility.yul\":7354:7356   */\n  0x20\n    /* \"#utility.yul\":7349:7352   */\n  dup3\n    /* \"#utility.yul\":7345:7357   */\n  add\n    /* \"#utility.yul\":7338:7357   */\n  swap2\n  pop\n    /* \"#utility.yul\":7374:7469   */\n  tag_136\n    /* \"#utility.yul\":7465:7468   */\n  dup3\n    /* \"#utility.yul\":7456:7462   */\n  dup5\n    /* \"#utility.yul\":7374:7469   */\n  tag_45\n  jump\t// in\ntag_136:\n    /* \"#utility.yul\":7367:7469   */\n  swap2\n  pop\n    /* \"#utility.yul\":7486:7489   */\n  dup2\n    /* \"#utility.yul\":7479:7489   */\n  swap1\n  pop\n    /* \"#utility.yul\":7079:7495   */\n  swap4\n  swap3\n  pop\n  pop\n  pop\n  jump\t// out\n    /* \"#utility.yul\":7501:7599   */\ntag_48:\n    /* \"#utility.yul\":7552:7558   */\n  0x00\n    /* \"#utility.yul\":7586:7591   */\n  dup2\n    /* \"#utility.yul\":7580:7592   */\n  mload\n    /* \"#utility.yul\":7570:7592   */\n  swap1\n  pop\n    /* \"#utility.yul\":7501:7599   */\n  swap2\n  swap1\n  pop\n  jump\t// out\n    /* \"#utility.yul\":7605:7752   */\ntag_49:\n    /* \"#utility.yul\":7706:7717   */\n  0x00\n    /* \"#utility.yul\":7743:7746   */\n  dup2\n    /* \"#utility.yul\":7728:7746   */\n  swap1\n  pop\n    /* \"#utility.yul\":7605:7752   */\n  swap3\n  swap2\n  pop\n  pop\n  jump\t// out\n    /* \"#utility.yul\":7758:8144   */\ntag_50:\n    /* \"#utility.yul\":7862:7865   */\n  0x00\n    /* \"#utility.yul\":7890:7928   */\n  tag_140\n    /* \"#utility.yul\":7922:7927   */\n  dup3\n    /* \"#utility.yul\":7890:7928   */\n  tag_48\n  jump\t// in\ntag_140:\n    /* \"#utility.yul\":7944:8032   */\n  tag_141\n    /* \"#utility.yul\":8025:8031   */\n  dup2\n    /* \"#utility.yul\":8020:8023   */\n  dup6\n    /* \"#utility.yul\":7944:8032   */\n  tag_49\n  jump\t// in\ntag_141:\n    /* \"#utility.yul\":7937:8032   */\n  swap4\n  pop\n    /* \"#utility.yul\":8041:8106   */\n  tag_142\n    /* \"#utility.yul\":8099:8105   */\n  dup2\n    /* \"#utility.yul\":8094:8097   */\n  dup6\n    /* \"#utility.yul\":8087:8091   */\n  0x20\n    /* \"#utility.yul\":8080:8085   */\n  dup7\n    /* \"#utility.yul\":8076:8092   */\n  add\n    /* \"#utility.yul\":8041:8106   */\n  tag_37\n  jump\t// in\ntag_142:\n    /* \"#utility.yul\":8131:8137   */\n  dup1\n    /* \"#utility.yul\":8126:8129   */\n  dup5\n    /* \"#utility.yul\":8122:8138   */\n  add\n    /* \"#utility.yul\":8115:8138   */\n  swap2\n  pop\n    /* \"#utility.yul\":7866:8144   */\n  pop\n    /* \"#utility.yul\":7758:8144   */\n  swap3\n  swap2\n  pop\n  pop\n  jump\t// out\n    /* \"#utility.yul\":8150:8421   */\ntag_16:\n    /* \"#utility.yul\":8280:8283   */\n  0x00\n    /* \"#utility.yul\":8302:8395   */\n  tag_144\n    /* \"#utility.yul\":8391:8394   */\n  dup3\n    /* \"#utility.yul\":8382:8388   */\n  dup5\n    /* \"#utility.yul\":8302:8395   */\n  tag_50\n  jump\t// in\ntag_144:\n    /* \"#utility.yul\":8295:8395   */\n  swap2\n  pop\n    /* \"#utility.yul\":8412:8415   */\n  dup2\n    /* \"#utility.yul\":8405:8415   */\n  swap1\n  pop\n    /* \"#utility.yul\":8150:8421   */\n  swap3\n  swap2\n  pop\n  pop\n  jump\t// out\n    /* \"src/Web3Checkout.sol\":442:5367  contract Web3Checkout {... */\ntag_13:\n  mload(0x80)\n  mload(0xa0)\n  mload(0xc0)\n  mload(0xe0)\n  mload(0x0100)\n  mload(0x0120)\n  codecopy(0x00, dataOffset(sub_0), dataSize(sub_0))\n  0x00\n  assignImmutable(\"0x2bf418e3ea3cce1b306c1bbf566df40bf3703cc73b456ccd399088d784bc76ee\")\n  0x00\n  assignImmutable(\"0xf1ae7da53f98170be52cc9330214a82f7ba06ee306297b4e1fb86fb21c611aa6\")\n  0x00\n  assignImmutable(\"0x57014f1e5f1d53e43fa40624186159531d6372d1ab8f40ec7882845ca66de31d\")\n  0x00\n  assignImmutable(\"0x5bc0457d8881b800fd1bc0d6df907345b3bf287e43a5790ded3d08dbacf9c03a\")\n  0x00\n  assignImmutable(\"0x77c32b454bb61eb9df9e3848d0ded3e59753acda90ae58befe564733aec82e4c\")\n  0x00\n  assignImmutable(\"0x8b953cbb84328003779eb1ef176ef07f7dd0ae3d4a8e408de53d15a36466c86e\")\n  return(0x00, dataSize(sub_0))\nstop\n\nsub_0: assembly {\n        /* \"src/Web3Checkout.sol\":442:5367  contract Web3Checkout {... */\n      mstore(0x40, 0x80)\n      jumpi(tag_1, lt(calldatasize, 0x04))\n      shr(0xe0, calldataload(0x00))\n      dup1\n      0x5ec4a9cd\n      gt\n      tag_12\n      jumpi\n      dup1\n      0x5ec4a9cd\n      eq\n      tag_7\n      jumpi\n      dup1\n      0x74775266\n      eq\n      tag_8\n      jumpi\n      dup1\n      0xacc4c198\n      eq\n      tag_9\n      jumpi\n      dup1\n      0xbddbed0b\n      eq\n      tag_10\n      jumpi\n      dup1\n      0xbeec5054\n      eq\n      tag_11\n      jumpi\n      jump(tag_1)\n    tag_12:\n      dup1\n      0x0b7e9c44\n      eq\n      tag_2\n      jumpi\n      dup1\n      0x113406fe\n      eq\n      tag_3\n      jumpi\n      dup1\n      0x2a06ea2d\n      eq\n      tag_4\n      jumpi\n      dup1\n      0x4778f735\n      eq\n      tag_5\n      jumpi\n      dup1\n      0x571702a2\n      eq\n      tag_6\n      jumpi\n    tag_1:\n      0x00\n      dup1\n      revert\n        /* \"src/Web3Checkout.sol\":2594:2718  function payout(address payable addr) public onlyOwner {... */\n    tag_2:\n      callvalue\n      dup1\n      iszero\n      tag_13\n      jumpi\n      0x00\n      dup1\n      revert\n    tag_13:\n      pop\n      tag_14\n      0x04\n      dup1\n      calldatasize\n      sub\n      dup2\n      add\n      swap1\n      tag_15\n      swap2\n      swap1\n      tag_16\n      jump\t// in\n    tag_15:\n      tag_17\n      jump\t// in\n    tag_14:\n      stop\n        /* \"src/Web3Checkout.sol\":2338:2588  function updateProduct(bytes16 id, uint256 price, uint256 purchase_limit, address payee, bytes32 new_h) public {... */\n    tag_3:\n      callvalue\n      dup1\n      iszero\n      tag_18\n      jumpi\n      0x00\n      dup1\n      revert\n    tag_18:\n      pop\n      tag_19\n      0x04\n      dup1\n      calldatasize\n      sub\n      dup2\n      add\n      swap1\n      tag_20\n      swap2\n      swap1\n      tag_21\n      jump\t// in\n    tag_20:\n      tag_22\n      jump\t// in\n    tag_19:\n      stop\n        /* \"src/Web3Checkout.sol\":4039:4853  function submitReview(... */\n    tag_4:\n      callvalue\n      dup1\n      iszero\n      tag_23\n      jumpi\n      0x00\n      dup1\n      revert\n    tag_23:\n      pop\n      tag_24\n      0x04\n      dup1\n      calldatasize\n      sub\n      dup2\n      add\n      swap1\n      tag_25\n      swap2\n      swap1\n      tag_26\n      jump\t// in\n    tag_25:\n      tag_27\n      jump\t// in\n    tag_24:\n      stop\n        /* \"src/Web3Checkout.sol\":3158:4033  function makePaymentWorldId(... */\n    tag_5:\n      tag_28\n      0x04\n      dup1\n      calldatasize\n      sub\n      dup2\n      add\n      swap1\n      tag_29\n      swap2\n      swap1\n      tag_30\n      jump\t// in\n    tag_29:\n      tag_31\n      jump\t// in\n    tag_28:\n      stop\n        /* \"src/Web3Checkout.sol\":1844:1945  function hashOfReview(bytes16 id) public view returns (bytes32) {... */\n    tag_6:\n      callvalue\n      dup1\n      iszero\n      tag_32\n      jumpi\n      0x00\n      dup1\n      revert\n    tag_32:\n      pop\n      tag_33\n      0x04\n      dup1\n      calldatasize\n      sub\n      dup2\n      add\n      swap1\n      tag_34\n      swap2\n      swap1\n      tag_35\n      jump\t// in\n    tag_34:\n      tag_36\n      jump\t// in\n    tag_33:\n      mload(0x40)\n      tag_37\n      swap2\n      swap1\n      tag_38\n      jump\t// in\n    tag_37:\n      mload(0x40)\n      dup1\n      swap2\n      sub\n      swap1\n      return\n        /* \"src/Web3Checkout.sol\":2197:2332  function removeProduct(bytes16 id) public {... */\n    tag_7:\n      callvalue\n      dup1\n      iszero\n      tag_39\n      jumpi\n      0x00\n      dup1\n      revert\n    tag_39:\n      pop\n      tag_40\n      0x04\n      dup1\n      calldatasize\n      sub\n      dup2\n      add\n      swap1\n      tag_41\n      swap2\n      swap1\n      tag_35\n      jump\t// in\n    tag_41:\n      tag_42\n      jump\t// in\n    tag_40:\n      stop\n        /* \"src/Web3Checkout.sol\":2724:3152  function makePayment(bytes16 id) public payable {... */\n    tag_8:\n      tag_43\n      0x04\n      dup1\n      calldatasize\n      sub\n      dup2\n      add\n      swap1\n      tag_44\n      swap2\n      swap1\n      tag_35\n      jump\t// in\n    tag_44:\n      tag_45\n      jump\t// in\n    tag_43:\n      stop\n        /* \"src/Web3Checkout.sol\":4859:5365  function submitReviewBasic(... */\n    tag_9:\n      callvalue\n      dup1\n      iszero\n      tag_46\n      jumpi\n      0x00\n      dup1\n      revert\n    tag_46:\n      pop\n      tag_47\n      0x04\n      dup1\n      calldatasize\n      sub\n      dup2\n      add\n      swap1\n      tag_48\n      swap2\n      swap1\n      tag_49\n      jump\t// in\n    tag_48:\n      tag_50\n      jump\t// in\n    tag_47:\n      stop\n        /* \"src/Web3Checkout.sol\":1742:1838  function hashOf(bytes16 id) public view returns (bytes32) {... */\n    tag_10:\n      callvalue\n      dup1\n      iszero\n      tag_51\n      jumpi\n      0x00\n      dup1\n      revert\n    tag_51:\n      pop\n      tag_52\n      0x04\n      dup1\n      calldatasize\n      sub\n      dup2\n      add\n      swap1\n      tag_53\n      swap2\n      swap1\n      tag_35\n      jump\t// in\n    tag_53:\n      tag_54\n      jump\t// in\n    tag_52:\n      mload(0x40)\n      tag_55\n      swap2\n      swap1\n      tag_38\n      jump\t// in\n    tag_55:\n      mload(0x40)\n      dup1\n      swap2\n      sub\n      swap1\n      return\n        /* \"src/Web3Checkout.sol\":1951:2191  function addProduct(bytes16 id, bytes32 h, uint256 price, uint256 purchase_limit, address payee) public {... */\n    tag_11:\n      callvalue\n      dup1\n      iszero\n      tag_56\n      jumpi\n      0x00\n      dup1\n      revert\n    tag_56:\n      pop\n      tag_57\n      0x04\n      dup1\n      calldatasize\n      sub\n      dup2\n      add\n      swap1\n      tag_58\n      swap2\n      swap1\n      tag_59\n      jump\t// in\n    tag_58:\n      tag_60\n      jump\t// in\n    tag_57:\n      stop\n        /* \"src/Web3Checkout.sol\":2594:2718  function payout(address payable addr) public onlyOwner {... */\n    tag_17:\n        /* \"src/Web3Checkout.sol\":1301:1306  owner */\n      immutable(\"0x8b953cbb84328003779eb1ef176ef07f7dd0ae3d4a8e408de53d15a36466c86e\")\n        /* \"src/Web3Checkout.sol\":1287:1306  msg.sender == owner */\n      0xffffffffffffffffffffffffffffffffffffffff\n      and\n        /* \"src/Web3Checkout.sol\":1287:1297  msg.sender */\n      caller\n        /* \"src/Web3Checkout.sol\":1287:1306  msg.sender == owner */\n      0xffffffffffffffffffffffffffffffffffffffff\n      and\n      eq\n        /* \"src/Web3Checkout.sol\":1279:1307  require(msg.sender == owner) */\n      tag_62\n      jumpi\n      0x00\n      dup1\n      revert\n    tag_62:\n        /* \"src/Web3Checkout.sol\":2659:2664  token */\n      immutable(\"0x5bc0457d8881b800fd1bc0d6df907345b3bf287e43a5790ded3d08dbacf9c03a\")\n        /* \"src/Web3Checkout.sol\":2659:2673  token.transfer */\n      0xffffffffffffffffffffffffffffffffffffffff\n      and\n      0xa9059cbb\n        /* \"src/Web3Checkout.sol\":2674:2678  addr */\n      dup3\n        /* \"src/Web3Checkout.sol\":2680:2685  token */\n      immutable(\"0x5bc0457d8881b800fd1bc0d6df907345b3bf287e43a5790ded3d08dbacf9c03a\")\n        /* \"src/Web3Checkout.sol\":2680:2695  token.balanceOf */\n      0xffffffffffffffffffffffffffffffffffffffff\n      and\n      0x70a08231\n        /* \"src/Web3Checkout.sol\":2704:2708  this */\n      address\n        /* \"src/Web3Checkout.sol\":2680:2710  token.balanceOf(address(this)) */\n      mload(0x40)\n      dup3\n      0xffffffff\n      and\n      0xe0\n      shl\n      dup2\n      mstore\n      0x04\n      add\n      tag_64\n      swap2\n      swap1\n      tag_65\n      jump\t// in\n    tag_64:\n      0x20\n      mload(0x40)\n      dup1\n      dup4\n      sub\n      dup2\n      dup7\n      gas\n      staticcall\n      iszero\n      dup1\n      iszero\n      tag_67\n      jumpi\n      returndatasize\n      0x00\n      dup1\n      returndatacopy\n      revert(0x00, returndatasize)\n    tag_67:\n      pop\n      pop\n      pop\n      pop\n      mload(0x40)\n      returndatasize\n      not(0x1f)\n      0x1f\n      dup3\n      add\n      and\n      dup3\n      add\n      dup1\n      0x40\n      mstore\n      pop\n      dup2\n      add\n      swap1\n      tag_68\n      swap2\n      swap1\n      tag_69\n      jump\t// in\n    tag_68:\n        /* \"src/Web3Checkout.sol\":2659:2711  token.transfer(addr, token.balanceOf(address(this))) */\n      mload(0x40)\n      dup4\n      0xffffffff\n      and\n      0xe0\n      shl\n      dup2\n      mstore\n      0x04\n      add\n      tag_70\n      swap3\n      swap2\n      swap1\n      tag_71\n      jump\t// in\n    tag_70:\n      0x20\n      mload(0x40)\n      dup1\n      dup4\n      sub\n      dup2\n      0x00\n      dup8\n      gas\n      call\n      iszero\n      dup1\n      iszero\n      tag_73\n      jumpi\n      returndatasize\n      0x00\n      dup1\n      returndatacopy\n      revert(0x00, returndatasize)\n    tag_73:\n      pop\n      pop\n      pop\n      pop\n      mload(0x40)\n      returndatasize\n      not(0x1f)\n      0x1f\n      dup3\n      add\n      and\n      dup3\n      add\n      dup1\n      0x40\n      mstore\n      pop\n      dup2\n      add\n      swap1\n      tag_74\n      swap2\n      swap1\n      tag_75\n      jump\t// in\n    tag_74:\n      pop\n        /* \"src/Web3Checkout.sol\":2594:2718  function payout(address payable addr) public onlyOwner {... */\n      pop\n      jump\t// out\n        /* \"src/Web3Checkout.sol\":2338:2588  function updateProduct(bytes16 id, uint256 price, uint256 purchase_limit, address payee, bytes32 new_h) public {... */\n    tag_22:\n        /* \"src/Web3Checkout.sol\":2503:2520  removeProduct(id) */\n      tag_77\n        /* \"src/Web3Checkout.sol\":2517:2519  id */\n      dup6\n        /* \"src/Web3Checkout.sol\":2503:2516  removeProduct */\n      tag_42\n        /* \"src/Web3Checkout.sol\":2503:2520  removeProduct(id) */\n      jump\t// in\n    tag_77:\n        /* \"src/Web3Checkout.sol\":2530:2581  addProduct(id, new_h, price, purchase_limit, payee) */\n      tag_78\n        /* \"src/Web3Checkout.sol\":2541:2543  id */\n      dup6\n        /* \"src/Web3Checkout.sol\":2545:2550  new_h */\n      dup3\n        /* \"src/Web3Checkout.sol\":2552:2557  price */\n      dup7\n        /* \"src/Web3Checkout.sol\":2559:2573  purchase_limit */\n      dup7\n        /* \"src/Web3Checkout.sol\":2575:2580  payee */\n      dup7\n        /* \"src/Web3Checkout.sol\":2530:2540  addProduct */\n      tag_60\n        /* \"src/Web3Checkout.sol\":2530:2581  addProduct(id, new_h, price, purchase_limit, payee) */\n      jump\t// in\n    tag_78:\n        /* \"src/Web3Checkout.sol\":2338:2588  function updateProduct(bytes16 id, uint256 price, uint256 purchase_limit, address payee, bytes32 new_h) public {... */\n      pop\n      pop\n      pop\n      pop\n      pop\n      jump\t// out\n        /* \"src/Web3Checkout.sol\":4039:4853  function submitReview(... */\n    tag_27:\n        /* \"src/Web3Checkout.sol\":4264:4271  worldId */\n      immutable(\"0x57014f1e5f1d53e43fa40624186159531d6372d1ab8f40ec7882845ca66de31d\")\n        /* \"src/Web3Checkout.sol\":4264:4283  worldId.verifyProof */\n      0xffffffffffffffffffffffffffffffffffffffff\n      and\n      0x3bc778e3\n        /* \"src/Web3Checkout.sol\":4297:4301  root */\n      dup5\n        /* \"src/Web3Checkout.sol\":4303:4310  groupId */\n      immutable(\"0x2bf418e3ea3cce1b306c1bbf566df40bf3703cc73b456ccd399088d784bc76ee\")\n        /* \"src/Web3Checkout.sol\":4312:4350  abi.encodePacked(signal).hashToField() */\n      tag_80\n        /* \"src/Web3Checkout.sol\":4329:4335  signal */\n      dup9\n        /* \"src/Web3Checkout.sol\":4312:4336  abi.encodePacked(signal) */\n      add(0x20, mload(0x40))\n      tag_81\n      swap2\n      swap1\n      tag_82\n      jump\t// in\n    tag_81:\n      mload(0x40)\n      0x20\n      dup2\n      dup4\n      sub\n      sub\n      dup2\n      mstore\n      swap1\n      0x40\n      mstore\n        /* \"src/Web3Checkout.sol\":4312:4348  abi.encodePacked(signal).hashToField */\n      tag_83\n        /* \"src/Web3Checkout.sol\":4312:4350  abi.encodePacked(signal).hashToField() */\n      jump\t// in\n    tag_80:\n        /* \"src/Web3Checkout.sol\":4352:4365  nullifierHash */\n      dup7\n        /* \"src/Web3Checkout.sol\":4367:4384  externalNullifier */\n      immutable(\"0xf1ae7da53f98170be52cc9330214a82f7ba06ee306297b4e1fb86fb21c611aa6\")\n        /* \"src/Web3Checkout.sol\":4386:4391  proof */\n      dup8\n        /* \"src/Web3Checkout.sol\":4264:4401  worldId.verifyProof(... */\n      mload(0x40)\n      dup8\n      0xffffffff\n      and\n      0xe0\n      shl\n      dup2\n      mstore\n      0x04\n      add\n      tag_84\n      swap7\n      swap6\n      swap5\n      swap4\n      swap3\n      swap2\n      swap1\n      tag_85\n      jump\t// in\n    tag_84:\n      0x00\n      mload(0x40)\n      dup1\n      dup4\n      sub\n      dup2\n      dup7\n      dup1\n      extcodesize\n      iszero\n      dup1\n      iszero\n      tag_86\n      jumpi\n      0x00\n      dup1\n      revert\n    tag_86:\n      pop\n      gas\n      staticcall\n      iszero\n      dup1\n      iszero\n      tag_88\n      jumpi\n      returndatasize\n      0x00\n      dup1\n      returndatacopy\n      revert(0x00, returndatasize)\n    tag_88:\n      pop\n      pop\n      pop\n      pop\n        /* \"src/Web3Checkout.sol\":4412:4439  ProductMetadata memory meta */\n      0x00\n        /* \"src/Web3Checkout.sol\":4442:4450  products */\n      dup1\n        /* \"src/Web3Checkout.sol\":4442:4462  products[product_id] */\n      0x00\n        /* \"src/Web3Checkout.sol\":4451:4461  product_id */\n      dup10\n        /* \"src/Web3Checkout.sol\":4442:4462  products[product_id] */\n      not(0xffffffffffffffffffffffffffffffff)\n      and\n      not(0xffffffffffffffffffffffffffffffff)\n      and\n      dup2\n      mstore\n      0x20\n      add\n      swap1\n      dup2\n      mstore\n      0x20\n      add\n      0x00\n      keccak256\n        /* \"src/Web3Checkout.sol\":4412:4462  ProductMetadata memory meta = products[product_id] */\n      mload(0x40)\n      dup1\n      0xc0\n      add\n      0x40\n      mstore\n      swap1\n      dup2\n      0x00\n      dup3\n      add\n      0x00\n      swap1\n      sload\n      swap1\n      0x0100\n      exp\n      swap1\n      div\n      0x80\n      shl\n      not(0xffffffffffffffffffffffffffffffff)\n      and\n      not(0xffffffffffffffffffffffffffffffff)\n      and\n      dup2\n      mstore\n      0x20\n      add\n      0x01\n      dup3\n      add\n      sload\n      dup2\n      mstore\n      0x20\n      add\n      0x02\n      dup3\n      add\n      sload\n      dup2\n      mstore\n      0x20\n      add\n      0x03\n      dup3\n      add\n      sload\n      dup2\n      mstore\n      0x20\n      add\n      0x04\n      dup3\n      add\n      0x00\n      swap1\n      sload\n      swap1\n      0x0100\n      exp\n      swap1\n      div\n      0xffffffffffffffffffffffffffffffffffffffff\n      and\n      0xffffffffffffffffffffffffffffffffffffffff\n      and\n      0xffffffffffffffffffffffffffffffffffffffff\n      and\n      dup2\n      mstore\n      0x20\n      add\n      0x05\n      dup3\n      add\n      0x00\n      swap1\n      sload\n      swap1\n      0x0100\n      exp\n      swap1\n      div\n      0xffffffffffffffffffffffffffffffffffffffff\n      and\n      0xffffffffffffffffffffffffffffffffffffffff\n      and\n      0xffffffffffffffffffffffffffffffffffffffff\n      and\n      dup2\n      mstore\n      pop\n      pop\n      swap1\n      pop\n        /* \"src/Web3Checkout.sol\":4490:4493  0x0 */\n      0x00\n        /* \"src/Web3Checkout.sol\":4480:4493  meta.h != 0x0 */\n      dup1\n      shl\n        /* \"src/Web3Checkout.sol\":4480:4484  meta */\n      dup2\n        /* \"src/Web3Checkout.sol\":4480:4486  meta.h */\n      0x20\n      add\n      mload\n        /* \"src/Web3Checkout.sol\":4480:4493  meta.h != 0x0 */\n      sub\n        /* \"src/Web3Checkout.sol\":4472:4494  require(meta.h != 0x0) */\n      tag_89\n      jumpi\n      0x00\n      dup1\n      revert\n    tag_89:\n        /* \"src/Web3Checkout.sol\":4558:4563  false */\n      0x00\n        /* \"src/Web3Checkout.sol\":4513:4563  reviews_submitted[nullifierHash][meta.id] == false */\n      iszero\n      iszero\n        /* \"src/Web3Checkout.sol\":4513:4530  reviews_submitted */\n      0x04\n        /* \"src/Web3Checkout.sol\":4513:4545  reviews_submitted[nullifierHash] */\n      0x00\n        /* \"src/Web3Checkout.sol\":4531:4544  nullifierHash */\n      dup6\n        /* \"src/Web3Checkout.sol\":4513:4545  reviews_submitted[nullifierHash] */\n      dup2\n      mstore\n      0x20\n      add\n      swap1\n      dup2\n      mstore\n      0x20\n      add\n      0x00\n      keccak256\n        /* \"src/Web3Checkout.sol\":4513:4554  reviews_submitted[nullifierHash][meta.id] */\n      0x00\n        /* \"src/Web3Checkout.sol\":4546:4550  meta */\n      dup4\n        /* \"src/Web3Checkout.sol\":4546:4553  meta.id */\n      0x00\n      add\n      mload\n        /* \"src/Web3Checkout.sol\":4513:4554  reviews_submitted[nullifierHash][meta.id] */\n      not(0xffffffffffffffffffffffffffffffff)\n      and\n      not(0xffffffffffffffffffffffffffffffff)\n      and\n      dup2\n      mstore\n      0x20\n      add\n      swap1\n      dup2\n      mstore\n      0x20\n      add\n      0x00\n      keccak256\n      0x00\n      swap1\n      sload\n      swap1\n      0x0100\n      exp\n      swap1\n      div\n      0xff\n      and\n        /* \"src/Web3Checkout.sol\":4513:4563  reviews_submitted[nullifierHash][meta.id] == false */\n      iszero\n      iszero\n      eq\n        /* \"src/Web3Checkout.sol\":4505:4564  require(reviews_submitted[nullifierHash][meta.id] == false) */\n      tag_90\n      jumpi\n      0x00\n      dup1\n      revert\n    tag_90:\n        /* \"src/Web3Checkout.sol\":4575:4599  uint256 sender_purchases */\n      0x00\n        /* \"src/Web3Checkout.sol\":4649:4672  purchase_counts_worldid */\n      0x03\n        /* \"src/Web3Checkout.sol\":4649:4687  purchase_counts_worldid[nullifierHash] */\n      0x00\n        /* \"src/Web3Checkout.sol\":4673:4686  nullifierHash */\n      dup6\n        /* \"src/Web3Checkout.sol\":4649:4687  purchase_counts_worldid[nullifierHash] */\n      dup2\n      mstore\n      0x20\n      add\n      swap1\n      dup2\n      mstore\n      0x20\n      add\n      0x00\n      keccak256\n        /* \"src/Web3Checkout.sol\":4649:4699  purchase_counts_worldid[nullifierHash][product_id] */\n      0x00\n        /* \"src/Web3Checkout.sol\":4688:4698  product_id */\n      dup11\n        /* \"src/Web3Checkout.sol\":4649:4699  purchase_counts_worldid[nullifierHash][product_id] */\n      not(0xffffffffffffffffffffffffffffffff)\n      and\n      not(0xffffffffffffffffffffffffffffffff)\n      and\n      dup2\n      mstore\n      0x20\n      add\n      swap1\n      dup2\n      mstore\n      0x20\n      add\n      0x00\n      keccak256\n      sload\n        /* \"src/Web3Checkout.sol\":4602:4622  purchase_counts_addr */\n      0x02\n        /* \"src/Web3Checkout.sol\":4602:4634  purchase_counts_addr[msg.sender] */\n      0x00\n        /* \"src/Web3Checkout.sol\":4623:4633  msg.sender */\n      caller\n        /* \"src/Web3Checkout.sol\":4602:4634  purchase_counts_addr[msg.sender] */\n      0xffffffffffffffffffffffffffffffffffffffff\n      and\n      0xffffffffffffffffffffffffffffffffffffffff\n      and\n      dup2\n      mstore\n      0x20\n      add\n      swap1\n      dup2\n      mstore\n      0x20\n      add\n      0x00\n      keccak256\n        /* \"src/Web3Checkout.sol\":4602:4646  purchase_counts_addr[msg.sender][product_id] */\n      0x00\n        /* \"src/Web3Checkout.sol\":4635:4645  product_id */\n      dup12\n        /* \"src/Web3Checkout.sol\":4602:4646  purchase_counts_addr[msg.sender][product_id] */\n      not(0xffffffffffffffffffffffffffffffff)\n      and\n      not(0xffffffffffffffffffffffffffffffff)\n      and\n      dup2\n      mstore\n      0x20\n      add\n      swap1\n      dup2\n      mstore\n      0x20\n      add\n      0x00\n      keccak256\n      sload\n        /* \"src/Web3Checkout.sol\":4602:4699  purchase_counts_addr[msg.sender][product_id] + purchase_counts_worldid[nullifierHash][product_id] */\n      tag_91\n      swap2\n      swap1\n      tag_92\n      jump\t// in\n    tag_91:\n        /* \"src/Web3Checkout.sol\":4575:4699  uint256 sender_purchases = purchase_counts_addr[msg.sender][product_id] + purchase_counts_worldid[nullifierHash][product_id] */\n      swap1\n      pop\n        /* \"src/Web3Checkout.sol\":4736:4737  0 */\n      0x00\n        /* \"src/Web3Checkout.sol\":4717:4733  sender_purchases */\n      dup2\n        /* \"src/Web3Checkout.sol\":4717:4737  sender_purchases > 0 */\n      gt\n        /* \"src/Web3Checkout.sol\":4709:4738  require(sender_purchases > 0) */\n      tag_93\n      jumpi\n      0x00\n      dup1\n      revert\n    tag_93:\n        /* \"src/Web3Checkout.sol\":4793:4797  true */\n      0x01\n        /* \"src/Web3Checkout.sol\":4749:4766  reviews_submitted */\n      0x04\n        /* \"src/Web3Checkout.sol\":4749:4781  reviews_submitted[nullifierHash] */\n      0x00\n        /* \"src/Web3Checkout.sol\":4767:4780  nullifierHash */\n      dup7\n        /* \"src/Web3Checkout.sol\":4749:4781  reviews_submitted[nullifierHash] */\n      dup2\n      mstore\n      0x20\n      add\n      swap1\n      dup2\n      mstore\n      0x20\n      add\n      0x00\n      keccak256\n        /* \"src/Web3Checkout.sol\":4749:4790  reviews_submitted[nullifierHash][meta.id] */\n      0x00\n        /* \"src/Web3Checkout.sol\":4782:4786  meta */\n      dup5\n        /* \"src/Web3Checkout.sol\":4782:4789  meta.id */\n      0x00\n      add\n      mload\n        /* \"src/Web3Checkout.sol\":4749:4790  reviews_submitted[nullifierHash][meta.id] */\n      not(0xffffffffffffffffffffffffffffffff)\n      and\n      not(0xffffffffffffffffffffffffffffffff)\n      and\n      dup2\n      mstore\n      0x20\n      add\n      swap1\n      dup2\n      mstore\n      0x20\n      add\n      0x00\n      keccak256\n      0x00\n        /* \"src/Web3Checkout.sol\":4749:4797  reviews_submitted[nullifierHash][meta.id] = true */\n      0x0100\n      exp\n      dup2\n      sload\n      dup2\n      0xff\n      mul\n      not\n      and\n      swap1\n      dup4\n      iszero\n      iszero\n      mul\n      or\n      swap1\n      sstore\n      pop\n        /* \"src/Web3Checkout.sol\":4821:4846  Review(id, h, product_id) */\n      mload(0x40)\n      dup1\n      0x60\n      add\n      0x40\n      mstore\n      dup1\n        /* \"src/Web3Checkout.sol\":4828:4830  id */\n      dup10\n        /* \"src/Web3Checkout.sol\":4821:4846  Review(id, h, product_id) */\n      not(0xffffffffffffffffffffffffffffffff)\n      and\n      dup2\n      mstore\n      0x20\n      add\n        /* \"src/Web3Checkout.sol\":4832:4833  h */\n      dup9\n        /* \"src/Web3Checkout.sol\":4821:4846  Review(id, h, product_id) */\n      dup2\n      mstore\n      0x20\n      add\n        /* \"src/Web3Checkout.sol\":4835:4845  product_id */\n      dup11\n        /* \"src/Web3Checkout.sol\":4821:4846  Review(id, h, product_id) */\n      not(0xffffffffffffffffffffffffffffffff)\n      and\n      dup2\n      mstore\n      pop\n        /* \"src/Web3Checkout.sol\":4807:4814  reviews */\n      0x01\n        /* \"src/Web3Checkout.sol\":4807:4818  reviews[id] */\n      0x00\n        /* \"src/Web3Checkout.sol\":4815:4817  id */\n      dup11\n        /* \"src/Web3Checkout.sol\":4807:4818  reviews[id] */\n      not(0xffffffffffffffffffffffffffffffff)\n      and\n      not(0xffffffffffffffffffffffffffffffff)\n      and\n      dup2\n      mstore\n      0x20\n      add\n      swap1\n      dup2\n      mstore\n      0x20\n      add\n      0x00\n      keccak256\n        /* \"src/Web3Checkout.sol\":4807:4846  reviews[id] = Review(id, h, product_id) */\n      0x00\n      dup3\n      add\n      mload\n      dup2\n      0x00\n      add\n      exp(0x0100, 0x00)\n      dup2\n      sload\n      dup2\n      0xffffffffffffffffffffffffffffffff\n      mul\n      not\n      and\n      swap1\n      dup4\n      0x80\n      shr\n      mul\n      or\n      swap1\n      sstore\n      pop\n      0x20\n      dup3\n      add\n      mload\n      dup2\n      0x01\n      add\n      sstore\n      0x40\n      dup3\n      add\n      mload\n      dup2\n      0x02\n      add\n      exp(0x0100, 0x00)\n      dup2\n      sload\n      dup2\n      0xffffffffffffffffffffffffffffffff\n      mul\n      not\n      and\n      swap1\n      dup4\n      0x80\n      shr\n      mul\n      or\n      swap1\n      sstore\n      pop\n      swap1\n      pop\n      pop\n        /* \"src/Web3Checkout.sol\":4254:4853  {... */\n      pop\n      pop\n        /* \"src/Web3Checkout.sol\":4039:4853  function submitReview(... */\n      pop\n      pop\n      pop\n      pop\n      pop\n      pop\n      pop\n      jump\t// out\n        /* \"src/Web3Checkout.sol\":3158:4033  function makePaymentWorldId(... */\n    tag_31:\n        /* \"src/Web3Checkout.sol\":3349:3356  worldId */\n      immutable(\"0x57014f1e5f1d53e43fa40624186159531d6372d1ab8f40ec7882845ca66de31d\")\n        /* \"src/Web3Checkout.sol\":3349:3368  worldId.verifyProof */\n      0xffffffffffffffffffffffffffffffffffffffff\n      and\n      0x3bc778e3\n        /* \"src/Web3Checkout.sol\":3382:3386  root */\n      dup5\n        /* \"src/Web3Checkout.sol\":3388:3395  groupId */\n      immutable(\"0x2bf418e3ea3cce1b306c1bbf566df40bf3703cc73b456ccd399088d784bc76ee\")\n        /* \"src/Web3Checkout.sol\":3397:3435  abi.encodePacked(signal).hashToField() */\n      tag_95\n        /* \"src/Web3Checkout.sol\":3414:3420  signal */\n      dup9\n        /* \"src/Web3Checkout.sol\":3397:3421  abi.encodePacked(signal) */\n      add(0x20, mload(0x40))\n      tag_96\n      swap2\n      swap1\n      tag_82\n      jump\t// in\n    tag_96:\n      mload(0x40)\n      0x20\n      dup2\n      dup4\n      sub\n      sub\n      dup2\n      mstore\n      swap1\n      0x40\n      mstore\n        /* \"src/Web3Checkout.sol\":3397:3433  abi.encodePacked(signal).hashToField */\n      tag_83\n        /* \"src/Web3Checkout.sol\":3397:3435  abi.encodePacked(signal).hashToField() */\n      jump\t// in\n    tag_95:\n        /* \"src/Web3Checkout.sol\":3437:3450  nullifierHash */\n      dup7\n        /* \"src/Web3Checkout.sol\":3452:3469  externalNullifier */\n      immutable(\"0xf1ae7da53f98170be52cc9330214a82f7ba06ee306297b4e1fb86fb21c611aa6\")\n        /* \"src/Web3Checkout.sol\":3471:3476  proof */\n      dup8\n        /* \"src/Web3Checkout.sol\":3349:3486  worldId.verifyProof(... */\n      mload(0x40)\n      dup8\n      0xffffffff\n      and\n      0xe0\n      shl\n      dup2\n      mstore\n      0x04\n      add\n      tag_97\n      swap7\n      swap6\n      swap5\n      swap4\n      swap3\n      swap2\n      swap1\n      tag_85\n      jump\t// in\n    tag_97:\n      0x00\n      mload(0x40)\n      dup1\n      dup4\n      sub\n      dup2\n      dup7\n      dup1\n      extcodesize\n      iszero\n      dup1\n      iszero\n      tag_98\n      jumpi\n      0x00\n      dup1\n      revert\n    tag_98:\n      pop\n      gas\n      staticcall\n      iszero\n      dup1\n      iszero\n      tag_100\n      jumpi\n      returndatasize\n      0x00\n      dup1\n      returndatacopy\n      revert(0x00, returndatasize)\n    tag_100:\n      pop\n      pop\n      pop\n      pop\n        /* \"src/Web3Checkout.sol\":3497:3524  ProductMetadata memory meta */\n      0x00\n        /* \"src/Web3Checkout.sol\":3527:3535  products */\n      dup1\n        /* \"src/Web3Checkout.sol\":3527:3539  products[id] */\n      0x00\n        /* \"src/Web3Checkout.sol\":3536:3538  id */\n      dup8\n        /* \"src/Web3Checkout.sol\":3527:3539  products[id] */\n      not(0xffffffffffffffffffffffffffffffff)\n      and\n      not(0xffffffffffffffffffffffffffffffff)\n      and\n      dup2\n      mstore\n      0x20\n      add\n      swap1\n      dup2\n      mstore\n      0x20\n      add\n      0x00\n      keccak256\n        /* \"src/Web3Checkout.sol\":3497:3539  ProductMetadata memory meta = products[id] */\n      mload(0x40)\n      dup1\n      0xc0\n      add\n      0x40\n      mstore\n      swap1\n      dup2\n      0x00\n      dup3\n      add\n      0x00\n      swap1\n      sload\n      swap1\n      0x0100\n      exp\n      swap1\n      div\n      0x80\n      shl\n      not(0xffffffffffffffffffffffffffffffff)\n      and\n      not(0xffffffffffffffffffffffffffffffff)\n      and\n      dup2\n      mstore\n      0x20\n      add\n      0x01\n      dup3\n      add\n      sload\n      dup2\n      mstore\n      0x20\n      add\n      0x02\n      dup3\n      add\n      sload\n      dup2\n      mstore\n      0x20\n      add\n      0x03\n      dup3\n      add\n      sload\n      dup2\n      mstore\n      0x20\n      add\n      0x04\n      dup3\n      add\n      0x00\n      swap1\n      sload\n      swap1\n      0x0100\n      exp\n      swap1\n      div\n      0xffffffffffffffffffffffffffffffffffffffff\n      and\n      0xffffffffffffffffffffffffffffffffffffffff\n      and\n      0xffffffffffffffffffffffffffffffffffffffff\n      and\n      dup2\n      mstore\n      0x20\n      add\n      0x05\n      dup3\n      add\n      0x00\n      swap1\n      sload\n      swap1\n      0x0100\n      exp\n      swap1\n      div\n      0xffffffffffffffffffffffffffffffffffffffff\n      and\n      0xffffffffffffffffffffffffffffffffffffffff\n      and\n      0xffffffffffffffffffffffffffffffffffffffff\n      and\n      dup2\n      mstore\n      pop\n      pop\n      swap1\n      pop\n        /* \"src/Web3Checkout.sol\":3567:3570  0x0 */\n      0x00\n        /* \"src/Web3Checkout.sol\":3557:3570  meta.h != 0x0 */\n      dup1\n      shl\n        /* \"src/Web3Checkout.sol\":3557:3561  meta */\n      dup2\n        /* \"src/Web3Checkout.sol\":3557:3563  meta.h */\n      0x20\n      add\n      mload\n        /* \"src/Web3Checkout.sol\":3557:3570  meta.h != 0x0 */\n      sub\n        /* \"src/Web3Checkout.sol\":3549:3571  require(meta.h != 0x0) */\n      tag_101\n      jumpi\n      0x00\n      dup1\n      revert\n    tag_101:\n        /* \"src/Web3Checkout.sol\":3582:3602  uint256 sender_limit */\n      0x00\n        /* \"src/Web3Checkout.sol\":3644:3667  purchase_counts_worldid */\n      0x03\n        /* \"src/Web3Checkout.sol\":3644:3682  purchase_counts_worldid[nullifierHash] */\n      0x00\n        /* \"src/Web3Checkout.sol\":3668:3681  nullifierHash */\n      dup6\n        /* \"src/Web3Checkout.sol\":3644:3682  purchase_counts_worldid[nullifierHash] */\n      dup2\n      mstore\n      0x20\n      add\n      swap1\n      dup2\n      mstore\n      0x20\n      add\n      0x00\n      keccak256\n        /* \"src/Web3Checkout.sol\":3644:3686  purchase_counts_worldid[nullifierHash][id] */\n      0x00\n        /* \"src/Web3Checkout.sol\":3683:3685  id */\n      dup9\n        /* \"src/Web3Checkout.sol\":3644:3686  purchase_counts_worldid[nullifierHash][id] */\n      not(0xffffffffffffffffffffffffffffffff)\n      and\n      not(0xffffffffffffffffffffffffffffffff)\n      and\n      dup2\n      mstore\n      0x20\n      add\n      swap1\n      dup2\n      mstore\n      0x20\n      add\n      0x00\n      keccak256\n      sload\n        /* \"src/Web3Checkout.sol\":3605:3625  purchase_counts_addr */\n      0x02\n        /* \"src/Web3Checkout.sol\":3605:3637  purchase_counts_addr[msg.sender] */\n      0x00\n        /* \"src/Web3Checkout.sol\":3626:3636  msg.sender */\n      caller\n        /* \"src/Web3Checkout.sol\":3605:3637  purchase_counts_addr[msg.sender] */\n      0xffffffffffffffffffffffffffffffffffffffff\n      and\n      0xffffffffffffffffffffffffffffffffffffffff\n      and\n      dup2\n      mstore\n      0x20\n      add\n      swap1\n      dup2\n      mstore\n      0x20\n      add\n      0x00\n      keccak256\n        /* \"src/Web3Checkout.sol\":3605:3641  purchase_counts_addr[msg.sender][id] */\n      0x00\n        /* \"src/Web3Checkout.sol\":3638:3640  id */\n      dup10\n        /* \"src/Web3Checkout.sol\":3605:3641  purchase_counts_addr[msg.sender][id] */\n      not(0xffffffffffffffffffffffffffffffff)\n      and\n      not(0xffffffffffffffffffffffffffffffff)\n      and\n      dup2\n      mstore\n      0x20\n      add\n      swap1\n      dup2\n      mstore\n      0x20\n      add\n      0x00\n      keccak256\n      sload\n        /* \"src/Web3Checkout.sol\":3605:3686  purchase_counts_addr[msg.sender][id] + purchase_counts_worldid[nullifierHash][id] */\n      tag_102\n      swap2\n      swap1\n      tag_92\n      jump\t// in\n    tag_102:\n        /* \"src/Web3Checkout.sol\":3582:3686  uint256 sender_limit = purchase_counts_addr[msg.sender][id] + purchase_counts_worldid[nullifierHash][id] */\n      swap1\n      pop\n        /* \"src/Web3Checkout.sol\":3727:3728  0 */\n      0x00\n        /* \"src/Web3Checkout.sol\":3705:3709  meta */\n      dup3\n        /* \"src/Web3Checkout.sol\":3705:3724  meta.purchase_limit */\n      0x60\n      add\n      mload\n        /* \"src/Web3Checkout.sol\":3705:3728  meta.purchase_limit > 0 */\n      gt\n        /* \"src/Web3Checkout.sol\":3705:3766  meta.purchase_limit > 0 && sender_limit < meta.purchase_limit */\n      dup1\n      iszero\n      tag_103\n      jumpi\n      pop\n        /* \"src/Web3Checkout.sol\":3747:3751  meta */\n      dup2\n        /* \"src/Web3Checkout.sol\":3747:3766  meta.purchase_limit */\n      0x60\n      add\n      mload\n        /* \"src/Web3Checkout.sol\":3732:3744  sender_limit */\n      dup2\n        /* \"src/Web3Checkout.sol\":3732:3766  sender_limit < meta.purchase_limit */\n      lt\n        /* \"src/Web3Checkout.sol\":3705:3766  meta.purchase_limit > 0 && sender_limit < meta.purchase_limit */\n    tag_103:\n        /* \"src/Web3Checkout.sol\":3697:3767  require(meta.purchase_limit > 0 && sender_limit < meta.purchase_limit) */\n      tag_104\n      jumpi\n      0x00\n      dup1\n      revert\n    tag_104:\n        /* \"src/Web3Checkout.sol\":3778:3793  uint256 our_fee */\n      0x00\n        /* \"src/Web3Checkout.sol\":3831:3837  10_000 */\n      0x2710\n        /* \"src/Web3Checkout.sol\":3824:3827  100 */\n      0x64\n        /* \"src/Web3Checkout.sol\":3810:3821  fee_percent */\n      immutable(\"0x77c32b454bb61eb9df9e3848d0ded3e59753acda90ae58befe564733aec82e4c\")\n        /* \"src/Web3Checkout.sol\":3810:3827  fee_percent * 100 */\n      tag_105\n      swap2\n      swap1\n      tag_106\n      jump\t// in\n    tag_105:\n        /* \"src/Web3Checkout.sol\":3796:3800  meta */\n      dup5\n        /* \"src/Web3Checkout.sol\":3796:3806  meta.price */\n      0x40\n      add\n      mload\n        /* \"src/Web3Checkout.sol\":3796:3828  meta.price * (fee_percent * 100) */\n      tag_107\n      swap2\n      swap1\n      tag_106\n      jump\t// in\n    tag_107:\n        /* \"src/Web3Checkout.sol\":3796:3837  meta.price * (fee_percent * 100) / 10_000 */\n      tag_108\n      swap2\n      swap1\n      tag_109\n      jump\t// in\n    tag_108:\n        /* \"src/Web3Checkout.sol\":3778:3837  uint256 our_fee = meta.price * (fee_percent * 100) / 10_000 */\n      swap1\n      pop\n        /* \"src/Web3Checkout.sol\":3858:3881  purchase_counts_worldid */\n      0x03\n        /* \"src/Web3Checkout.sol\":3858:3896  purchase_counts_worldid[nullifierHash] */\n      0x00\n        /* \"src/Web3Checkout.sol\":3882:3895  nullifierHash */\n      dup7\n        /* \"src/Web3Checkout.sol\":3858:3896  purchase_counts_worldid[nullifierHash] */\n      dup2\n      mstore\n      0x20\n      add\n      swap1\n      dup2\n      mstore\n      0x20\n      add\n      0x00\n      keccak256\n        /* \"src/Web3Checkout.sol\":3858:3900  purchase_counts_worldid[nullifierHash][id] */\n      0x00\n        /* \"src/Web3Checkout.sol\":3897:3899  id */\n      dup10\n        /* \"src/Web3Checkout.sol\":3858:3900  purchase_counts_worldid[nullifierHash][id] */\n      not(0xffffffffffffffffffffffffffffffff)\n      and\n      not(0xffffffffffffffffffffffffffffffff)\n      and\n      dup2\n      mstore\n      0x20\n      add\n      swap1\n      dup2\n      mstore\n      0x20\n      add\n      0x00\n      keccak256\n      0x00\n        /* \"src/Web3Checkout.sol\":3856:3900  ++purchase_counts_worldid[nullifierHash][id] */\n      dup2\n      sload\n      tag_110\n      swap1\n      tag_111\n      jump\t// in\n    tag_110:\n      swap2\n      swap1\n      pop\n      dup2\n      swap1\n      sstore\n      pop\n        /* \"src/Web3Checkout.sol\":3911:3916  token */\n      immutable(\"0x5bc0457d8881b800fd1bc0d6df907345b3bf287e43a5790ded3d08dbacf9c03a\")\n        /* \"src/Web3Checkout.sol\":3911:3929  token.transferFrom */\n      0xffffffffffffffffffffffffffffffffffffffff\n      and\n      0x23b872dd\n        /* \"src/Web3Checkout.sol\":3930:3940  msg.sender */\n      caller\n        /* \"src/Web3Checkout.sol\":3950:3954  this */\n      address\n        /* \"src/Web3Checkout.sol\":3970:3977  our_fee */\n      dup5\n        /* \"src/Web3Checkout.sol\":3957:3961  meta */\n      dup8\n        /* \"src/Web3Checkout.sol\":3957:3967  meta.price */\n      0x40\n      add\n      mload\n        /* \"src/Web3Checkout.sol\":3957:3977  meta.price + our_fee */\n      tag_112\n      swap2\n      swap1\n      tag_92\n      jump\t// in\n    tag_112:\n        /* \"src/Web3Checkout.sol\":3911:3978  token.transferFrom(msg.sender, address(this), meta.price + our_fee) */\n      mload(0x40)\n      dup5\n      0xffffffff\n      and\n      0xe0\n      shl\n      dup2\n      mstore\n      0x04\n      add\n      tag_113\n      swap4\n      swap3\n      swap2\n      swap1\n      tag_114\n      jump\t// in\n    tag_113:\n      0x20\n      mload(0x40)\n      dup1\n      dup4\n      sub\n      dup2\n      0x00\n      dup8\n      gas\n      call\n      iszero\n      dup1\n      iszero\n      tag_116\n      jumpi\n      returndatasize\n      0x00\n      dup1\n      returndatacopy\n      revert(0x00, returndatasize)\n    tag_116:\n      pop\n      pop\n      pop\n      pop\n      mload(0x40)\n      returndatasize\n      not(0x1f)\n      0x1f\n      dup3\n      add\n      and\n      dup3\n      add\n      dup1\n      0x40\n      mstore\n      pop\n      dup2\n      add\n      swap1\n      tag_117\n      swap2\n      swap1\n      tag_75\n      jump\t// in\n    tag_117:\n      pop\n        /* \"src/Web3Checkout.sol\":3988:3993  token */\n      immutable(\"0x5bc0457d8881b800fd1bc0d6df907345b3bf287e43a5790ded3d08dbacf9c03a\")\n        /* \"src/Web3Checkout.sol\":3988:4002  token.transfer */\n      0xffffffffffffffffffffffffffffffffffffffff\n      and\n      0xa9059cbb\n        /* \"src/Web3Checkout.sol\":4003:4007  meta */\n      dup5\n        /* \"src/Web3Checkout.sol\":4003:4013  meta.payee */\n      0x80\n      add\n      mload\n        /* \"src/Web3Checkout.sol\":4015:4019  meta */\n      dup6\n        /* \"src/Web3Checkout.sol\":4015:4025  meta.price */\n      0x40\n      add\n      mload\n        /* \"src/Web3Checkout.sol\":3988:4026  token.transfer(meta.payee, meta.price) */\n      mload(0x40)\n      dup4\n      0xffffffff\n      and\n      0xe0\n      shl\n      dup2\n      mstore\n      0x04\n      add\n      tag_118\n      swap3\n      swap2\n      swap1\n      tag_119\n      jump\t// in\n    tag_118:\n      0x20\n      mload(0x40)\n      dup1\n      dup4\n      sub\n      dup2\n      0x00\n      dup8\n      gas\n      call\n      iszero\n      dup1\n      iszero\n      tag_121\n      jumpi\n      returndatasize\n      0x00\n      dup1\n      returndatacopy\n      revert(0x00, returndatasize)\n    tag_121:\n      pop\n      pop\n      pop\n      pop\n      mload(0x40)\n      returndatasize\n      not(0x1f)\n      0x1f\n      dup3\n      add\n      and\n      dup3\n      add\n      dup1\n      0x40\n      mstore\n      pop\n      dup2\n      add\n      swap1\n      tag_122\n      swap2\n      swap1\n      tag_75\n      jump\t// in\n    tag_122:\n      pop\n        /* \"src/Web3Checkout.sol\":3339:4033  {... */\n      pop\n      pop\n      pop\n        /* \"src/Web3Checkout.sol\":3158:4033  function makePaymentWorldId(... */\n      pop\n      pop\n      pop\n      pop\n      pop\n      jump\t// out\n        /* \"src/Web3Checkout.sol\":1844:1945  function hashOfReview(bytes16 id) public view returns (bytes32) {... */\n    tag_36:\n        /* \"src/Web3Checkout.sol\":1899:1906  bytes32 */\n      0x00\n        /* \"src/Web3Checkout.sol\":1925:1932  reviews */\n      0x01\n        /* \"src/Web3Checkout.sol\":1925:1936  reviews[id] */\n      0x00\n        /* \"src/Web3Checkout.sol\":1933:1935  id */\n      dup4\n        /* \"src/Web3Checkout.sol\":1925:1936  reviews[id] */\n      not(0xffffffffffffffffffffffffffffffff)\n      and\n      not(0xffffffffffffffffffffffffffffffff)\n      and\n      dup2\n      mstore\n      0x20\n      add\n      swap1\n      dup2\n      mstore\n      0x20\n      add\n      0x00\n      keccak256\n        /* \"src/Web3Checkout.sol\":1925:1938  reviews[id].h */\n      0x01\n      add\n      sload\n        /* \"src/Web3Checkout.sol\":1918:1938  return reviews[id].h */\n      swap1\n      pop\n        /* \"src/Web3Checkout.sol\":1844:1945  function hashOfReview(bytes16 id) public view returns (bytes32) {... */\n      swap2\n      swap1\n      pop\n      jump\t// out\n        /* \"src/Web3Checkout.sol\":2197:2332  function removeProduct(bytes16 id) public {... */\n    tag_42:\n        /* \"src/Web3Checkout.sol\":2284:2294  msg.sender */\n      caller\n        /* \"src/Web3Checkout.sol\":2257:2294  products[id].controller == msg.sender */\n      0xffffffffffffffffffffffffffffffffffffffff\n      and\n        /* \"src/Web3Checkout.sol\":2257:2265  products */\n      0x00\n        /* \"src/Web3Checkout.sol\":2257:2269  products[id] */\n      dup1\n        /* \"src/Web3Checkout.sol\":2266:2268  id */\n      dup4\n        /* \"src/Web3Checkout.sol\":2257:2269  products[id] */\n      not(0xffffffffffffffffffffffffffffffff)\n      and\n      not(0xffffffffffffffffffffffffffffffff)\n      and\n      dup2\n      mstore\n      0x20\n      add\n      swap1\n      dup2\n      mstore\n      0x20\n      add\n      0x00\n      keccak256\n        /* \"src/Web3Checkout.sol\":2257:2280  products[id].controller */\n      0x05\n      add\n      0x00\n      swap1\n      sload\n      swap1\n      0x0100\n      exp\n      swap1\n      div\n      0xffffffffffffffffffffffffffffffffffffffff\n      and\n        /* \"src/Web3Checkout.sol\":2257:2294  products[id].controller == msg.sender */\n      0xffffffffffffffffffffffffffffffffffffffff\n      and\n      eq\n        /* \"src/Web3Checkout.sol\":2249:2295  require(products[id].controller == msg.sender) */\n      tag_125\n      jumpi\n      0x00\n      dup1\n      revert\n    tag_125:\n        /* \"src/Web3Checkout.sol\":2313:2321  products */\n      0x00\n        /* \"src/Web3Checkout.sol\":2313:2325  products[id] */\n      dup1\n        /* \"src/Web3Checkout.sol\":2322:2324  id */\n      dup3\n        /* \"src/Web3Checkout.sol\":2313:2325  products[id] */\n      not(0xffffffffffffffffffffffffffffffff)\n      and\n      not(0xffffffffffffffffffffffffffffffff)\n      and\n      dup2\n      mstore\n      0x20\n      add\n      swap1\n      dup2\n      mstore\n      0x20\n      add\n      0x00\n      keccak256\n      0x00\n        /* \"src/Web3Checkout.sol\":2306:2325  delete products[id] */\n      dup1\n      dup3\n      add\n      exp(0x0100, 0x00)\n      dup2\n      sload\n      swap1\n      0xffffffffffffffffffffffffffffffff\n      mul\n      not\n      and\n      swap1\n      sstore\n      0x01\n      dup3\n      add\n      0x00\n      swap1\n      sstore\n      0x02\n      dup3\n      add\n      0x00\n      swap1\n      sstore\n      0x03\n      dup3\n      add\n      0x00\n      swap1\n      sstore\n      0x04\n      dup3\n      add\n      exp(0x0100, 0x00)\n      dup2\n      sload\n      swap1\n      0xffffffffffffffffffffffffffffffffffffffff\n      mul\n      not\n      and\n      swap1\n      sstore\n      0x05\n      dup3\n      add\n      exp(0x0100, 0x00)\n      dup2\n      sload\n      swap1\n      0xffffffffffffffffffffffffffffffffffffffff\n      mul\n      not\n      and\n      swap1\n      sstore\n      pop\n      pop\n        /* \"src/Web3Checkout.sol\":2197:2332  function removeProduct(bytes16 id) public {... */\n      pop\n      jump\t// out\n        /* \"src/Web3Checkout.sol\":2724:3152  function makePayment(bytes16 id) public payable {... */\n    tag_45:\n        /* \"src/Web3Checkout.sol\":2782:2809  ProductMetadata memory meta */\n      0x00\n        /* \"src/Web3Checkout.sol\":2812:2820  products */\n      dup1\n        /* \"src/Web3Checkout.sol\":2812:2824  products[id] */\n      0x00\n        /* \"src/Web3Checkout.sol\":2821:2823  id */\n      dup4\n        /* \"src/Web3Checkout.sol\":2812:2824  products[id] */\n      not(0xffffffffffffffffffffffffffffffff)\n      and\n      not(0xffffffffffffffffffffffffffffffff)\n      and\n      dup2\n      mstore\n      0x20\n      add\n      swap1\n      dup2\n      mstore\n      0x20\n      add\n      0x00\n      keccak256\n        /* \"src/Web3Checkout.sol\":2782:2824  ProductMetadata memory meta = products[id] */\n      mload(0x40)\n      dup1\n      0xc0\n      add\n      0x40\n      mstore\n      swap1\n      dup2\n      0x00\n      dup3\n      add\n      0x00\n      swap1\n      sload\n      swap1\n      0x0100\n      exp\n      swap1\n      div\n      0x80\n      shl\n      not(0xffffffffffffffffffffffffffffffff)\n      and\n      not(0xffffffffffffffffffffffffffffffff)\n      and\n      dup2\n      mstore\n      0x20\n      add\n      0x01\n      dup3\n      add\n      sload\n      dup2\n      mstore\n      0x20\n      add\n      0x02\n      dup3\n      add\n      sload\n      dup2\n      mstore\n      0x20\n      add\n      0x03\n      dup3\n      add\n      sload\n      dup2\n      mstore\n      0x20\n      add\n      0x04\n      dup3\n      add\n      0x00\n      swap1\n      sload\n      swap1\n      0x0100\n      exp\n      swap1\n      div\n      0xffffffffffffffffffffffffffffffffffffffff\n      and\n      0xffffffffffffffffffffffffffffffffffffffff\n      and\n      0xffffffffffffffffffffffffffffffffffffffff\n      and\n      dup2\n      mstore\n      0x20\n      add\n      0x05\n      dup3\n      add\n      0x00\n      swap1\n      sload\n      swap1\n      0x0100\n      exp\n      swap1\n      div\n      0xffffffffffffffffffffffffffffffffffffffff\n      and\n      0xffffffffffffffffffffffffffffffffffffffff\n      and\n      0xffffffffffffffffffffffffffffffffffffffff\n      and\n      dup2\n      mstore\n      pop\n      pop\n      swap1\n      pop\n        /* \"src/Web3Checkout.sol\":2852:2855  0x0 */\n      0x00\n        /* \"src/Web3Checkout.sol\":2842:2855  meta.h != 0x0 */\n      dup1\n      shl\n        /* \"src/Web3Checkout.sol\":2842:2846  meta */\n      dup2\n        /* \"src/Web3Checkout.sol\":2842:2848  meta.h */\n      0x20\n      add\n      mload\n        /* \"src/Web3Checkout.sol\":2842:2855  meta.h != 0x0 */\n      sub\n        /* \"src/Web3Checkout.sol\":2834:2856  require(meta.h != 0x0) */\n      tag_127\n      jumpi\n      0x00\n      dup1\n      revert\n    tag_127:\n        /* \"src/Web3Checkout.sol\":2898:2899  0 */\n      0x00\n        /* \"src/Web3Checkout.sol\":2875:2879  meta */\n      dup2\n        /* \"src/Web3Checkout.sol\":2875:2894  meta.purchase_limit */\n      0x60\n      add\n      mload\n        /* \"src/Web3Checkout.sol\":2875:2899  meta.purchase_limit == 0 */\n      eq\n        /* \"src/Web3Checkout.sol\":2867:2900  require(meta.purchase_limit == 0) */\n      tag_128\n      jumpi\n      0x00\n      dup1\n      revert\n    tag_128:\n        /* \"src/Web3Checkout.sol\":2911:2926  uint256 our_fee */\n      0x00\n        /* \"src/Web3Checkout.sol\":2964:2970  10_000 */\n      0x2710\n        /* \"src/Web3Checkout.sol\":2957:2960  100 */\n      0x64\n        /* \"src/Web3Checkout.sol\":2943:2954  fee_percent */\n      immutable(\"0x77c32b454bb61eb9df9e3848d0ded3e59753acda90ae58befe564733aec82e4c\")\n        /* \"src/Web3Checkout.sol\":2943:2960  fee_percent * 100 */\n      tag_129\n      swap2\n      swap1\n      tag_106\n      jump\t// in\n    tag_129:\n        /* \"src/Web3Checkout.sol\":2929:2933  meta */\n      dup4\n        /* \"src/Web3Checkout.sol\":2929:2939  meta.price */\n      0x40\n      add\n      mload\n        /* \"src/Web3Checkout.sol\":2929:2961  meta.price * (fee_percent * 100) */\n      tag_130\n      swap2\n      swap1\n      tag_106\n      jump\t// in\n    tag_130:\n        /* \"src/Web3Checkout.sol\":2929:2970  meta.price * (fee_percent * 100) / 10_000 */\n      tag_131\n      swap2\n      swap1\n      tag_109\n      jump\t// in\n    tag_131:\n        /* \"src/Web3Checkout.sol\":2911:2970  uint256 our_fee = meta.price * (fee_percent * 100) / 10_000 */\n      swap1\n      pop\n        /* \"src/Web3Checkout.sol\":2983:3003  purchase_counts_addr */\n      0x02\n        /* \"src/Web3Checkout.sol\":2983:3015  purchase_counts_addr[msg.sender] */\n      0x00\n        /* \"src/Web3Checkout.sol\":3004:3014  msg.sender */\n      caller\n        /* \"src/Web3Checkout.sol\":2983:3015  purchase_counts_addr[msg.sender] */\n      0xffffffffffffffffffffffffffffffffffffffff\n      and\n      0xffffffffffffffffffffffffffffffffffffffff\n      and\n      dup2\n      mstore\n      0x20\n      add\n      swap1\n      dup2\n      mstore\n      0x20\n      add\n      0x00\n      keccak256\n        /* \"src/Web3Checkout.sol\":2983:3019  purchase_counts_addr[msg.sender][id] */\n      0x00\n        /* \"src/Web3Checkout.sol\":3016:3018  id */\n      dup5\n        /* \"src/Web3Checkout.sol\":2983:3019  purchase_counts_addr[msg.sender][id] */\n      not(0xffffffffffffffffffffffffffffffff)\n      and\n      not(0xffffffffffffffffffffffffffffffff)\n      and\n      dup2\n      mstore\n      0x20\n      add\n      swap1\n      dup2\n      mstore\n      0x20\n      add\n      0x00\n      keccak256\n      0x00\n        /* \"src/Web3Checkout.sol\":2981:3019  ++purchase_counts_addr[msg.sender][id] */\n      dup2\n      sload\n      tag_132\n      swap1\n      tag_111\n      jump\t// in\n    tag_132:\n      swap2\n      swap1\n      pop\n      dup2\n      swap1\n      sstore\n      pop\n        /* \"src/Web3Checkout.sol\":3030:3035  token */\n      immutable(\"0x5bc0457d8881b800fd1bc0d6df907345b3bf287e43a5790ded3d08dbacf9c03a\")\n        /* \"src/Web3Checkout.sol\":3030:3048  token.transferFrom */\n      0xffffffffffffffffffffffffffffffffffffffff\n      and\n      0x23b872dd\n        /* \"src/Web3Checkout.sol\":3049:3059  msg.sender */\n      caller\n        /* \"src/Web3Checkout.sol\":3069:3073  this */\n      address\n        /* \"src/Web3Checkout.sol\":3089:3096  our_fee */\n      dup5\n        /* \"src/Web3Checkout.sol\":3076:3080  meta */\n      dup7\n        /* \"src/Web3Checkout.sol\":3076:3086  meta.price */\n      0x40\n      add\n      mload\n        /* \"src/Web3Checkout.sol\":3076:3096  meta.price + our_fee */\n      tag_133\n      swap2\n      swap1\n      tag_92\n      jump\t// in\n    tag_133:\n        /* \"src/Web3Checkout.sol\":3030:3097  token.transferFrom(msg.sender, address(this), meta.price + our_fee) */\n      mload(0x40)\n      dup5\n      0xffffffff\n      and\n      0xe0\n      shl\n      dup2\n      mstore\n      0x04\n      add\n      tag_134\n      swap4\n      swap3\n      swap2\n      swap1\n      tag_114\n      jump\t// in\n    tag_134:\n      0x20\n      mload(0x40)\n      dup1\n      dup4\n      sub\n      dup2\n      0x00\n      dup8\n      gas\n      call\n      iszero\n      dup1\n      iszero\n      tag_136\n      jumpi\n      returndatasize\n      0x00\n      dup1\n      returndatacopy\n      revert(0x00, returndatasize)\n    tag_136:\n      pop\n      pop\n      pop\n      pop\n      mload(0x40)\n      returndatasize\n      not(0x1f)\n      0x1f\n      dup3\n      add\n      and\n      dup3\n      add\n      dup1\n      0x40\n      mstore\n      pop\n      dup2\n      add\n      swap1\n      tag_137\n      swap2\n      swap1\n      tag_75\n      jump\t// in\n    tag_137:\n      pop\n        /* \"src/Web3Checkout.sol\":3107:3112  token */\n      immutable(\"0x5bc0457d8881b800fd1bc0d6df907345b3bf287e43a5790ded3d08dbacf9c03a\")\n        /* \"src/Web3Checkout.sol\":3107:3121  token.transfer */\n      0xffffffffffffffffffffffffffffffffffffffff\n      and\n      0xa9059cbb\n        /* \"src/Web3Checkout.sol\":3122:3126  meta */\n      dup4\n        /* \"src/Web3Checkout.sol\":3122:3132  meta.payee */\n      0x80\n      add\n      mload\n        /* \"src/Web3Checkout.sol\":3134:3138  meta */\n      dup5\n        /* \"src/Web3Checkout.sol\":3134:3144  meta.price */\n      0x40\n      add\n      mload\n        /* \"src/Web3Checkout.sol\":3107:3145  token.transfer(meta.payee, meta.price) */\n      mload(0x40)\n      dup4\n      0xffffffff\n      and\n      0xe0\n      shl\n      dup2\n      mstore\n      0x04\n      add\n      tag_138\n      swap3\n      swap2\n      swap1\n      tag_119\n      jump\t// in\n    tag_138:\n      0x20\n      mload(0x40)\n      dup1\n      dup4\n      sub\n      dup2\n      0x00\n      dup8\n      gas\n      call\n      iszero\n      dup1\n      iszero\n      tag_140\n      jumpi\n      returndatasize\n      0x00\n      dup1\n      returndatacopy\n      revert(0x00, returndatasize)\n    tag_140:\n      pop\n      pop\n      pop\n      pop\n      mload(0x40)\n      returndatasize\n      not(0x1f)\n      0x1f\n      dup3\n      add\n      and\n      dup3\n      add\n      dup1\n      0x40\n      mstore\n      pop\n      dup2\n      add\n      swap1\n      tag_141\n      swap2\n      swap1\n      tag_75\n      jump\t// in\n    tag_141:\n      pop\n        /* \"src/Web3Checkout.sol\":2772:3152  {... */\n      pop\n      pop\n        /* \"src/Web3Checkout.sol\":2724:3152  function makePayment(bytes16 id) public payable {... */\n      pop\n      jump\t// out\n        /* \"src/Web3Checkout.sol\":4859:5365  function submitReviewBasic(... */\n    tag_50:\n        /* \"src/Web3Checkout.sol\":4981:5008  ProductMetadata memory meta */\n      0x00\n        /* \"src/Web3Checkout.sol\":5011:5019  products */\n      dup1\n        /* \"src/Web3Checkout.sol\":5011:5031  products[product_id] */\n      0x00\n        /* \"src/Web3Checkout.sol\":5020:5030  product_id */\n      dup6\n        /* \"src/Web3Checkout.sol\":5011:5031  products[product_id] */\n      not(0xffffffffffffffffffffffffffffffff)\n      and\n      not(0xffffffffffffffffffffffffffffffff)\n      and\n      dup2\n      mstore\n      0x20\n      add\n      swap1\n      dup2\n      mstore\n      0x20\n      add\n      0x00\n      keccak256\n        /* \"src/Web3Checkout.sol\":4981:5031  ProductMetadata memory meta = products[product_id] */\n      mload(0x40)\n      dup1\n      0xc0\n      add\n      0x40\n      mstore\n      swap1\n      dup2\n      0x00\n      dup3\n      add\n      0x00\n      swap1\n      sload\n      swap1\n      0x0100\n      exp\n      swap1\n      div\n      0x80\n      shl\n      not(0xffffffffffffffffffffffffffffffff)\n      and\n      not(0xffffffffffffffffffffffffffffffff)\n      and\n      dup2\n      mstore\n      0x20\n      add\n      0x01\n      dup3\n      add\n      sload\n      dup2\n      mstore\n      0x20\n      add\n      0x02\n      dup3\n      add\n      sload\n      dup2\n      mstore\n      0x20\n      add\n      0x03\n      dup3\n      add\n      sload\n      dup2\n      mstore\n      0x20\n      add\n      0x04\n      dup3\n      add\n      0x00\n      swap1\n      sload\n      swap1\n      0x0100\n      exp\n      swap1\n      div\n      0xffffffffffffffffffffffffffffffffffffffff\n      and\n      0xffffffffffffffffffffffffffffffffffffffff\n      and\n      0xffffffffffffffffffffffffffffffffffffffff\n      and\n      dup2\n      mstore\n      0x20\n      add\n      0x05\n      dup3\n      add\n      0x00\n      swap1\n      sload\n      swap1\n      0x0100\n      exp\n      swap1\n      div\n      0xffffffffffffffffffffffffffffffffffffffff\n      and\n      0xffffffffffffffffffffffffffffffffffffffff\n      and\n      0xffffffffffffffffffffffffffffffffffffffff\n      and\n      dup2\n      mstore\n      pop\n      pop\n      swap1\n      pop\n        /* \"src/Web3Checkout.sol\":5059:5062  0x0 */\n      0x00\n        /* \"src/Web3Checkout.sol\":5049:5062  meta.h != 0x0 */\n      dup1\n      shl\n        /* \"src/Web3Checkout.sol\":5049:5053  meta */\n      dup2\n        /* \"src/Web3Checkout.sol\":5049:5055  meta.h */\n      0x20\n      add\n      mload\n        /* \"src/Web3Checkout.sol\":5049:5062  meta.h != 0x0 */\n      sub\n        /* \"src/Web3Checkout.sol\":5041:5063  require(meta.h != 0x0) */\n      tag_143\n      jumpi\n      0x00\n      dup1\n      revert\n    tag_143:\n        /* \"src/Web3Checkout.sol\":5125:5130  false */\n      0x00\n        /* \"src/Web3Checkout.sol\":5082:5130  reviews_submitted2[msg.sender][meta.id] == false */\n      iszero\n      iszero\n        /* \"src/Web3Checkout.sol\":5082:5100  reviews_submitted2 */\n      0x05\n        /* \"src/Web3Checkout.sol\":5082:5112  reviews_submitted2[msg.sender] */\n      0x00\n        /* \"src/Web3Checkout.sol\":5101:5111  msg.sender */\n      caller\n        /* \"src/Web3Checkout.sol\":5082:5112  reviews_submitted2[msg.sender] */\n      0xffffffffffffffffffffffffffffffffffffffff\n      and\n      0xffffffffffffffffffffffffffffffffffffffff\n      and\n      dup2\n      mstore\n      0x20\n      add\n      swap1\n      dup2\n      mstore\n      0x20\n      add\n      0x00\n      keccak256\n        /* \"src/Web3Checkout.sol\":5082:5121  reviews_submitted2[msg.sender][meta.id] */\n      0x00\n        /* \"src/Web3Checkout.sol\":5113:5117  meta */\n      dup4\n        /* \"src/Web3Checkout.sol\":5113:5120  meta.id */\n      0x00\n      add\n      mload\n        /* \"src/Web3Checkout.sol\":5082:5121  reviews_submitted2[msg.sender][meta.id] */\n      not(0xffffffffffffffffffffffffffffffff)\n      and\n      not(0xffffffffffffffffffffffffffffffff)\n      and\n      dup2\n      mstore\n      0x20\n      add\n      swap1\n      dup2\n      mstore\n      0x20\n      add\n      0x00\n      keccak256\n      0x00\n      swap1\n      sload\n      swap1\n      0x0100\n      exp\n      swap1\n      div\n      0xff\n      and\n        /* \"src/Web3Checkout.sol\":5082:5130  reviews_submitted2[msg.sender][meta.id] == false */\n      iszero\n      iszero\n      eq\n        /* \"src/Web3Checkout.sol\":5074:5131  require(reviews_submitted2[msg.sender][meta.id] == false) */\n      tag_144\n      jumpi\n      0x00\n      dup1\n      revert\n    tag_144:\n        /* \"src/Web3Checkout.sol\":5142:5166  uint256 sender_purchases */\n      0x00\n        /* \"src/Web3Checkout.sol\":5169:5189  purchase_counts_addr */\n      0x02\n        /* \"src/Web3Checkout.sol\":5169:5201  purchase_counts_addr[msg.sender] */\n      0x00\n        /* \"src/Web3Checkout.sol\":5190:5200  msg.sender */\n      caller\n        /* \"src/Web3Checkout.sol\":5169:5201  purchase_counts_addr[msg.sender] */\n      0xffffffffffffffffffffffffffffffffffffffff\n      and\n      0xffffffffffffffffffffffffffffffffffffffff\n      and\n      dup2\n      mstore\n      0x20\n      add\n      swap1\n      dup2\n      mstore\n      0x20\n      add\n      0x00\n      keccak256\n        /* \"src/Web3Checkout.sol\":5169:5213  purchase_counts_addr[msg.sender][product_id] */\n      0x00\n        /* \"src/Web3Checkout.sol\":5202:5212  product_id */\n      dup7\n        /* \"src/Web3Checkout.sol\":5169:5213  purchase_counts_addr[msg.sender][product_id] */\n      not(0xffffffffffffffffffffffffffffffff)\n      and\n      not(0xffffffffffffffffffffffffffffffff)\n      and\n      dup2\n      mstore\n      0x20\n      add\n      swap1\n      dup2\n      mstore\n      0x20\n      add\n      0x00\n      keccak256\n      sload\n        /* \"src/Web3Checkout.sol\":5142:5213  uint256 sender_purchases = purchase_counts_addr[msg.sender][product_id] */\n      swap1\n      pop\n        /* \"src/Web3Checkout.sol\":5250:5251  0 */\n      0x00\n        /* \"src/Web3Checkout.sol\":5231:5247  sender_purchases */\n      dup2\n        /* \"src/Web3Checkout.sol\":5231:5251  sender_purchases > 0 */\n      gt\n        /* \"src/Web3Checkout.sol\":5223:5252  require(sender_purchases > 0) */\n      tag_145\n      jumpi\n      0x00\n      dup1\n      revert\n    tag_145:\n        /* \"src/Web3Checkout.sol\":5305:5309  true */\n      0x01\n        /* \"src/Web3Checkout.sol\":5263:5281  reviews_submitted2 */\n      0x05\n        /* \"src/Web3Checkout.sol\":5263:5293  reviews_submitted2[msg.sender] */\n      0x00\n        /* \"src/Web3Checkout.sol\":5282:5292  msg.sender */\n      caller\n        /* \"src/Web3Checkout.sol\":5263:5293  reviews_submitted2[msg.sender] */\n      0xffffffffffffffffffffffffffffffffffffffff\n      and\n      0xffffffffffffffffffffffffffffffffffffffff\n      and\n      dup2\n      mstore\n      0x20\n      add\n      swap1\n      dup2\n      mstore\n      0x20\n      add\n      0x00\n      keccak256\n        /* \"src/Web3Checkout.sol\":5263:5302  reviews_submitted2[msg.sender][meta.id] */\n      0x00\n        /* \"src/Web3Checkout.sol\":5294:5298  meta */\n      dup5\n        /* \"src/Web3Checkout.sol\":5294:5301  meta.id */\n      0x00\n      add\n      mload\n        /* \"src/Web3Checkout.sol\":5263:5302  reviews_submitted2[msg.sender][meta.id] */\n      not(0xffffffffffffffffffffffffffffffff)\n      and\n      not(0xffffffffffffffffffffffffffffffff)\n      and\n      dup2\n      mstore\n      0x20\n      add\n      swap1\n      dup2\n      mstore\n      0x20\n      add\n      0x00\n      keccak256\n      0x00\n        /* \"src/Web3Checkout.sol\":5263:5309  reviews_submitted2[msg.sender][meta.id] = true */\n      0x0100\n      exp\n      dup2\n      sload\n      dup2\n      0xff\n      mul\n      not\n      and\n      swap1\n      dup4\n      iszero\n      iszero\n      mul\n      or\n      swap1\n      sstore\n      pop\n        /* \"src/Web3Checkout.sol\":5333:5358  Review(id, h, product_id) */\n      mload(0x40)\n      dup1\n      0x60\n      add\n      0x40\n      mstore\n      dup1\n        /* \"src/Web3Checkout.sol\":5340:5342  id */\n      dup6\n        /* \"src/Web3Checkout.sol\":5333:5358  Review(id, h, product_id) */\n      not(0xffffffffffffffffffffffffffffffff)\n      and\n      dup2\n      mstore\n      0x20\n      add\n        /* \"src/Web3Checkout.sol\":5344:5345  h */\n      dup5\n        /* \"src/Web3Checkout.sol\":5333:5358  Review(id, h, product_id) */\n      dup2\n      mstore\n      0x20\n      add\n        /* \"src/Web3Checkout.sol\":5347:5357  product_id */\n      dup7\n        /* \"src/Web3Checkout.sol\":5333:5358  Review(id, h, product_id) */\n      not(0xffffffffffffffffffffffffffffffff)\n      and\n      dup2\n      mstore\n      pop\n        /* \"src/Web3Checkout.sol\":5319:5326  reviews */\n      0x01\n        /* \"src/Web3Checkout.sol\":5319:5330  reviews[id] */\n      0x00\n        /* \"src/Web3Checkout.sol\":5327:5329  id */\n      dup7\n        /* \"src/Web3Checkout.sol\":5319:5330  reviews[id] */\n      not(0xffffffffffffffffffffffffffffffff)\n      and\n      not(0xffffffffffffffffffffffffffffffff)\n      and\n      dup2\n      mstore\n      0x20\n      add\n      swap1\n      dup2\n      mstore\n      0x20\n      add\n      0x00\n      keccak256\n        /* \"src/Web3Checkout.sol\":5319:5358  reviews[id] = Review(id, h, product_id) */\n      0x00\n      dup3\n      add\n      mload\n      dup2\n      0x00\n      add\n      exp(0x0100, 0x00)\n      dup2\n      sload\n      dup2\n      0xffffffffffffffffffffffffffffffff\n      mul\n      not\n      and\n      swap1\n      dup4\n      0x80\n      shr\n      mul\n      or\n      swap1\n      sstore\n      pop\n      0x20\n      dup3\n      add\n      mload\n      dup2\n      0x01\n      add\n      sstore\n      0x40\n      dup3\n      add\n      mload\n      dup2\n      0x02\n      add\n      exp(0x0100, 0x00)\n      dup2\n      sload\n      dup2\n      0xffffffffffffffffffffffffffffffff\n      mul\n      not\n      and\n      swap1\n      dup4\n      0x80\n      shr\n      mul\n      or\n      swap1\n      sstore\n      pop\n      swap1\n      pop\n      pop\n        /* \"src/Web3Checkout.sol\":4966:5365  {... */\n      pop\n      pop\n        /* \"src/Web3Checkout.sol\":4859:5365  function submitReviewBasic(... */\n      pop\n      pop\n      pop\n      jump\t// out\n        /* \"src/Web3Checkout.sol\":1742:1838  function hashOf(bytes16 id) public view returns (bytes32) {... */\n    tag_54:\n        /* \"src/Web3Checkout.sol\":1791:1798  bytes32 */\n      0x00\n        /* \"src/Web3Checkout.sol\":1817:1825  products */\n      dup1\n        /* \"src/Web3Checkout.sol\":1817:1829  products[id] */\n      0x00\n        /* \"src/Web3Checkout.sol\":1826:1828  id */\n      dup4\n        /* \"src/Web3Checkout.sol\":1817:1829  products[id] */\n      not(0xffffffffffffffffffffffffffffffff)\n      and\n      not(0xffffffffffffffffffffffffffffffff)\n      and\n      dup2\n      mstore\n      0x20\n      add\n      swap1\n      dup2\n      mstore\n      0x20\n      add\n      0x00\n      keccak256\n        /* \"src/Web3Checkout.sol\":1817:1831  products[id].h */\n      0x01\n      add\n      sload\n        /* \"src/Web3Checkout.sol\":1810:1831  return products[id].h */\n      swap1\n      pop\n        /* \"src/Web3Checkout.sol\":1742:1838  function hashOf(bytes16 id) public view returns (bytes32) {... */\n      swap2\n      swap1\n      pop\n      jump\t// out\n        /* \"src/Web3Checkout.sol\":1951:2191  function addProduct(bytes16 id, bytes32 h, uint256 price, uint256 purchase_limit, address payee) public {... */\n    tag_60:\n        /* \"src/Web3Checkout.sol\":2091:2094  0x0 */\n      0x00\n        /* \"src/Web3Checkout.sol\":2073:2094  products[id].h == 0x0 */\n      dup1\n      shl\n        /* \"src/Web3Checkout.sol\":2073:2081  products */\n      0x00\n        /* \"src/Web3Checkout.sol\":2073:2085  products[id] */\n      dup1\n        /* \"src/Web3Checkout.sol\":2082:2084  id */\n      dup8\n        /* \"src/Web3Checkout.sol\":2073:2085  products[id] */\n      not(0xffffffffffffffffffffffffffffffff)\n      and\n      not(0xffffffffffffffffffffffffffffffff)\n      and\n      dup2\n      mstore\n      0x20\n      add\n      swap1\n      dup2\n      mstore\n      0x20\n      add\n      0x00\n      keccak256\n        /* \"src/Web3Checkout.sol\":2073:2087  products[id].h */\n      0x01\n      add\n      sload\n        /* \"src/Web3Checkout.sol\":2073:2094  products[id].h == 0x0 */\n      eq\n        /* \"src/Web3Checkout.sol\":2065:2095  require(products[id].h == 0x0) */\n      tag_148\n      jumpi\n      0x00\n      dup1\n      revert\n    tag_148:\n        /* \"src/Web3Checkout.sol\":2120:2184  ProductMetadata(id, h, price, purchase_limit, payee, msg.sender) */\n      mload(0x40)\n      dup1\n      0xc0\n      add\n      0x40\n      mstore\n      dup1\n        /* \"src/Web3Checkout.sol\":2136:2138  id */\n      dup7\n        /* \"src/Web3Checkout.sol\":2120:2184  ProductMetadata(id, h, price, purchase_limit, payee, msg.sender) */\n      not(0xffffffffffffffffffffffffffffffff)\n      and\n      dup2\n      mstore\n      0x20\n      add\n        /* \"src/Web3Checkout.sol\":2140:2141  h */\n      dup6\n        /* \"src/Web3Checkout.sol\":2120:2184  ProductMetadata(id, h, price, purchase_limit, payee, msg.sender) */\n      dup2\n      mstore\n      0x20\n      add\n        /* \"src/Web3Checkout.sol\":2143:2148  price */\n      dup5\n        /* \"src/Web3Checkout.sol\":2120:2184  ProductMetadata(id, h, price, purchase_limit, payee, msg.sender) */\n      dup2\n      mstore\n      0x20\n      add\n        /* \"src/Web3Checkout.sol\":2150:2164  purchase_limit */\n      dup4\n        /* \"src/Web3Checkout.sol\":2120:2184  ProductMetadata(id, h, price, purchase_limit, payee, msg.sender) */\n      dup2\n      mstore\n      0x20\n      add\n        /* \"src/Web3Checkout.sol\":2166:2171  payee */\n      dup3\n        /* \"src/Web3Checkout.sol\":2120:2184  ProductMetadata(id, h, price, purchase_limit, payee, msg.sender) */\n      0xffffffffffffffffffffffffffffffffffffffff\n      and\n      dup2\n      mstore\n      0x20\n      add\n        /* \"src/Web3Checkout.sol\":2173:2183  msg.sender */\n      caller\n        /* \"src/Web3Checkout.sol\":2120:2184  ProductMetadata(id, h, price, purchase_limit, payee, msg.sender) */\n      0xffffffffffffffffffffffffffffffffffffffff\n      and\n      dup2\n      mstore\n      pop\n        /* \"src/Web3Checkout.sol\":2105:2113  products */\n      0x00\n        /* \"src/Web3Checkout.sol\":2105:2117  products[id] */\n      dup1\n        /* \"src/Web3Checkout.sol\":2114:2116  id */\n      dup8\n        /* \"src/Web3Checkout.sol\":2105:2117  products[id] */\n      not(0xffffffffffffffffffffffffffffffff)\n      and\n      not(0xffffffffffffffffffffffffffffffff)\n      and\n      dup2\n      mstore\n      0x20\n      add\n      swap1\n      dup2\n      mstore\n      0x20\n      add\n      0x00\n      keccak256\n        /* \"src/Web3Checkout.sol\":2105:2184  products[id] = ProductMetadata(id, h, price, purchase_limit, payee, msg.sender) */\n      0x00\n      dup3\n      add\n      mload\n      dup2\n      0x00\n      add\n      exp(0x0100, 0x00)\n      dup2\n      sload\n      dup2\n      0xffffffffffffffffffffffffffffffff\n      mul\n      not\n      and\n      swap1\n      dup4\n      0x80\n      shr\n      mul\n      or\n      swap1\n      sstore\n      pop\n      0x20\n      dup3\n      add\n      mload\n      dup2\n      0x01\n      add\n      sstore\n      0x40\n      dup3\n      add\n      mload\n      dup2\n      0x02\n      add\n      sstore\n      0x60\n      dup3\n      add\n      mload\n      dup2\n      0x03\n      add\n      sstore\n      0x80\n      dup3\n      add\n      mload\n      dup2\n      0x04\n      add\n      exp(0x0100, 0x00)\n      dup2\n      sload\n      dup2\n      0xffffffffffffffffffffffffffffffffffffffff\n      mul\n      not\n      and\n      swap1\n      dup4\n      0xffffffffffffffffffffffffffffffffffffffff\n      and\n      mul\n      or\n      swap1\n      sstore\n      pop\n      0xa0\n      dup3\n      add\n      mload\n      dup2\n      0x05\n      add\n      exp(0x0100, 0x00)\n      dup2\n      sload\n      dup2\n      0xffffffffffffffffffffffffffffffffffffffff\n      mul\n      not\n      and\n      swap1\n      dup4\n      0xffffffffffffffffffffffffffffffffffffffff\n      and\n      mul\n      or\n      swap1\n      sstore\n      pop\n      swap1\n      pop\n      pop\n        /* \"src/Web3Checkout.sol\":1951:2191  function addProduct(bytes16 id, bytes32 h, uint256 price, uint256 purchase_limit, address payee) public {... */\n      pop\n      pop\n      pop\n      pop\n      pop\n      jump\t// out\n        /* \"src/helpers/ByteHasher.sol\":302:447  function hashToField(bytes memory value) internal pure returns (uint256) {... */\n    tag_83:\n        /* \"src/helpers/ByteHasher.sol\":366:373  uint256 */\n      0x00\n        /* \"src/helpers/ByteHasher.sol\":439:440  8 */\n      0x08\n        /* \"src/helpers/ByteHasher.sol\":427:432  value */\n      dup3\n        /* \"src/helpers/ByteHasher.sol\":410:433  abi.encodePacked(value) */\n      add(0x20, mload(0x40))\n      tag_150\n      swap2\n      swap1\n      tag_151\n      jump\t// in\n    tag_150:\n      mload(0x40)\n      0x20\n      dup2\n      dup4\n      sub\n      sub\n      dup2\n      mstore\n      swap1\n      0x40\n      mstore\n        /* \"src/helpers/ByteHasher.sol\":400:434  keccak256(abi.encodePacked(value)) */\n      dup1\n      mload\n      swap1\n      0x20\n      add\n      keccak256\n        /* \"src/helpers/ByteHasher.sol\":392:435  uint256(keccak256(abi.encodePacked(value))) */\n      0x00\n      shr\n        /* \"src/helpers/ByteHasher.sol\":392:440  uint256(keccak256(abi.encodePacked(value))) >> 8 */\n      swap1\n      shr\n        /* \"src/helpers/ByteHasher.sol\":385:440  return uint256(keccak256(abi.encodePacked(value))) >> 8 */\n      swap1\n      pop\n        /* \"src/helpers/ByteHasher.sol\":302:447  function hashToField(bytes memory value) internal pure returns (uint256) {... */\n      swap2\n      swap1\n      pop\n      jump\t// out\n        /* \"#utility.yul\":88:205   */\n    tag_153:\n        /* \"#utility.yul\":197:198   */\n      0x00\n        /* \"#utility.yul\":194:195   */\n      dup1\n        /* \"#utility.yul\":187:199   */\n      revert\n        /* \"#utility.yul\":334:460   */\n    tag_155:\n        /* \"#utility.yul\":371:378   */\n      0x00\n        /* \"#utility.yul\":411:453   */\n      0xffffffffffffffffffffffffffffffffffffffff\n        /* \"#utility.yul\":404:409   */\n      dup3\n        /* \"#utility.yul\":400:454   */\n      and\n        /* \"#utility.yul\":389:454   */\n      swap1\n      pop\n        /* \"#utility.yul\":334:460   */\n      swap2\n      swap1\n      pop\n      jump\t// out\n        /* \"#utility.yul\":466:570   */\n    tag_156:\n        /* \"#utility.yul\":511:518   */\n      0x00\n        /* \"#utility.yul\":540:564   */\n      tag_203\n        /* \"#utility.yul\":558:563   */\n      dup3\n        /* \"#utility.yul\":540:564   */\n      tag_155\n      jump\t// in\n    tag_203:\n        /* \"#utility.yul\":529:564   */\n      swap1\n      pop\n        /* \"#utility.yul\":466:570   */\n      swap2\n      swap1\n      pop\n      jump\t// out\n        /* \"#utility.yul\":576:714   */\n    tag_157:\n        /* \"#utility.yul\":657:689   */\n      tag_205\n        /* \"#utility.yul\":683:688   */\n      dup2\n        /* \"#utility.yul\":657:689   */\n      tag_156\n      jump\t// in\n    tag_205:\n        /* \"#utility.yul\":650:655   */\n      dup2\n        /* \"#utility.yul\":647:690   */\n      eq\n        /* \"#utility.yul\":637:708   */\n      tag_206\n      jumpi\n        /* \"#utility.yul\":704:705   */\n      0x00\n        /* \"#utility.yul\":701:702   */\n      dup1\n        /* \"#utility.yul\":694:706   */\n      revert\n        /* \"#utility.yul\":637:708   */\n    tag_206:\n        /* \"#utility.yul\":576:714   */\n      pop\n      jump\t// out\n        /* \"#utility.yul\":720:875   */\n    tag_158:\n        /* \"#utility.yul\":774:779   */\n      0x00\n        /* \"#utility.yul\":812:818   */\n      dup2\n        /* \"#utility.yul\":799:819   */\n      calldataload\n        /* \"#utility.yul\":790:819   */\n      swap1\n      pop\n        /* \"#utility.yul\":828:869   */\n      tag_208\n        /* \"#utility.yul\":863:868   */\n      dup2\n        /* \"#utility.yul\":828:869   */\n      tag_157\n      jump\t// in\n    tag_208:\n        /* \"#utility.yul\":720:875   */\n      swap3\n      swap2\n      pop\n      pop\n      jump\t// out\n        /* \"#utility.yul\":881:1226   */\n    tag_16:\n        /* \"#utility.yul\":948:954   */\n      0x00\n        /* \"#utility.yul\":997:999   */\n      0x20\n        /* \"#utility.yul\":985:994   */\n      dup3\n        /* \"#utility.yul\":976:983   */\n      dup5\n        /* \"#utility.yul\":972:995   */\n      sub\n        /* \"#utility.yul\":968:1000   */\n      slt\n        /* \"#utility.yul\":965:1084   */\n      iszero\n      tag_210\n      jumpi\n        /* \"#utility.yul\":1003:1082   */\n      tag_211\n      tag_153\n      jump\t// in\n    tag_211:\n        /* \"#utility.yul\":965:1084   */\n    tag_210:\n        /* \"#utility.yul\":1123:1124   */\n      0x00\n        /* \"#utility.yul\":1148:1209   */\n      tag_212\n        /* \"#utility.yul\":1201:1208   */\n      dup5\n        /* \"#utility.yul\":1192:1198   */\n      dup3\n        /* \"#utility.yul\":1181:1190   */\n      dup6\n        /* \"#utility.yul\":1177:1199   */\n      add\n        /* \"#utility.yul\":1148:1209   */\n      tag_158\n      jump\t// in\n    tag_212:\n        /* \"#utility.yul\":1138:1209   */\n      swap2\n      pop\n        /* \"#utility.yul\":1094:1219   */\n      pop\n        /* \"#utility.yul\":881:1226   */\n      swap3\n      swap2\n      pop\n      pop\n      jump\t// out\n        /* \"#utility.yul\":1232:1382   */\n    tag_159:\n        /* \"#utility.yul\":1269:1276   */\n      0x00\n        /* \"#utility.yul\":1309:1375   */\n      0xffffffffffffffffffffffffffffffff00000000000000000000000000000000\n        /* \"#utility.yul\":1302:1307   */\n      dup3\n        /* \"#utility.yul\":1298:1376   */\n      and\n        /* \"#utility.yul\":1287:1376   */\n      swap1\n      pop\n        /* \"#utility.yul\":1232:1382   */\n      swap2\n      swap1\n      pop\n      jump\t// out\n        /* \"#utility.yul\":1388:1510   */\n    tag_160:\n        /* \"#utility.yul\":1461:1485   */\n      tag_215\n        /* \"#utility.yul\":1479:1484   */\n      dup2\n        /* \"#utility.yul\":1461:1485   */\n      tag_159\n      jump\t// in\n    tag_215:\n        /* \"#utility.yul\":1454:1459   */\n      dup2\n        /* \"#utility.yul\":1451:1486   */\n      eq\n        /* \"#utility.yul\":1441:1504   */\n      tag_216\n      jumpi\n        /* \"#utility.yul\":1500:1501   */\n      0x00\n        /* \"#utility.yul\":1497:1498   */\n      dup1\n        /* \"#utility.yul\":1490:1502   */\n      revert\n        /* \"#utility.yul\":1441:1504   */\n    tag_216:\n        /* \"#utility.yul\":1388:1510   */\n      pop\n      jump\t// out\n        /* \"#utility.yul\":1516:1655   */\n    tag_161:\n        /* \"#utility.yul\":1562:1567   */\n      0x00\n        /* \"#utility.yul\":1600:1606   */\n      dup2\n        /* \"#utility.yul\":1587:1607   */\n      calldataload\n        /* \"#utility.yul\":1578:1607   */\n      swap1\n      pop\n        /* \"#utility.yul\":1616:1649   */\n      tag_218\n        /* \"#utility.yul\":1643:1648   */\n      dup2\n        /* \"#utility.yul\":1616:1649   */\n      tag_160\n      jump\t// in\n    tag_218:\n        /* \"#utility.yul\":1516:1655   */\n      swap3\n      swap2\n      pop\n      pop\n      jump\t// out\n        /* \"#utility.yul\":1661:1738   */\n    tag_162:\n        /* \"#utility.yul\":1698:1705   */\n      0x00\n        /* \"#utility.yul\":1727:1732   */\n      dup2\n        /* \"#utility.yul\":1716:1732   */\n      swap1\n      pop\n        /* \"#utility.yul\":1661:1738   */\n      swap2\n      swap1\n      pop\n      jump\t// out\n        /* \"#utility.yul\":1744:1866   */\n    tag_163:\n        /* \"#utility.yul\":1817:1841   */\n      tag_221\n        /* \"#utility.yul\":1835:1840   */\n      dup2\n        /* \"#utility.yul\":1817:1841   */\n      tag_162\n      jump\t// in\n    tag_221:\n        /* \"#utility.yul\":1810:1815   */\n      dup2\n        /* \"#utility.yul\":1807:1842   */\n      eq\n        /* \"#utility.yul\":1797:1860   */\n      tag_222\n      jumpi\n        /* \"#utility.yul\":1856:1857   */\n      0x00\n        /* \"#utility.yul\":1853:1854   */\n      dup1\n        /* \"#utility.yul\":1846:1858   */\n      revert\n        /* \"#utility.yul\":1797:1860   */\n    tag_222:\n        /* \"#utility.yul\":1744:1866   */\n      pop\n      jump\t// out\n        /* \"#utility.yul\":1872:2011   */\n    tag_164:\n        /* \"#utility.yul\":1918:1923   */\n      0x00\n        /* \"#utility.yul\":1956:1962   */\n      dup2\n        /* \"#utility.yul\":1943:1963   */\n      calldataload\n        /* \"#utility.yul\":1934:1963   */\n      swap1\n      pop\n        /* \"#utility.yul\":1972:2005   */\n      tag_224\n        /* \"#utility.yul\":1999:2004   */\n      dup2\n        /* \"#utility.yul\":1972:2005   */\n      tag_163\n      jump\t// in\n    tag_224:\n        /* \"#utility.yul\":1872:2011   */\n      swap3\n      swap2\n      pop\n      pop\n      jump\t// out\n        /* \"#utility.yul\":2017:2113   */\n    tag_165:\n        /* \"#utility.yul\":2054:2061   */\n      0x00\n        /* \"#utility.yul\":2083:2107   */\n      tag_226\n        /* \"#utility.yul\":2101:2106   */\n      dup3\n        /* \"#utility.yul\":2083:2107   */\n      tag_155\n      jump\t// in\n    tag_226:\n        /* \"#utility.yul\":2072:2107   */\n      swap1\n      pop\n        /* \"#utility.yul\":2017:2113   */\n      swap2\n      swap1\n      pop\n      jump\t// out\n        /* \"#utility.yul\":2119:2241   */\n    tag_166:\n        /* \"#utility.yul\":2192:2216   */\n      tag_228\n        /* \"#utility.yul\":2210:2215   */\n      dup2\n        /* \"#utility.yul\":2192:2216   */\n      tag_165\n      jump\t// in\n    tag_228:\n        /* \"#utility.yul\":2185:2190   */\n      dup2\n        /* \"#utility.yul\":2182:2217   */\n      eq\n        /* \"#utility.yul\":2172:2235   */\n      tag_229\n      jumpi\n        /* \"#utility.yul\":2231:2232   */\n      0x00\n        /* \"#utility.yul\":2228:2229   */\n      dup1\n        /* \"#utility.yul\":2221:2233   */\n      revert\n        /* \"#utility.yul\":2172:2235   */\n    tag_229:\n        /* \"#utility.yul\":2119:2241   */\n      pop\n      jump\t// out\n        /* \"#utility.yul\":2247:2386   */\n    tag_167:\n        /* \"#utility.yul\":2293:2298   */\n      0x00\n        /* \"#utility.yul\":2331:2337   */\n      dup2\n        /* \"#utility.yul\":2318:2338   */\n      calldataload\n        /* \"#utility.yul\":2309:2338   */\n      swap1\n      pop\n        /* \"#utility.yul\":2347:2380   */\n      tag_231\n        /* \"#utility.yul\":2374:2379   */\n      dup2\n        /* \"#utility.yul\":2347:2380   */\n      tag_166\n      jump\t// in\n    tag_231:\n        /* \"#utility.yul\":2247:2386   */\n      swap3\n      swap2\n      pop\n      pop\n      jump\t// out\n        /* \"#utility.yul\":2392:2469   */\n    tag_168:\n        /* \"#utility.yul\":2429:2436   */\n      0x00\n        /* \"#utility.yul\":2458:2463   */\n      dup2\n        /* \"#utility.yul\":2447:2463   */\n      swap1\n      pop\n        /* \"#utility.yul\":2392:2469   */\n      swap2\n      swap1\n      pop\n      jump\t// out\n        /* \"#utility.yul\":2475:2597   */\n    tag_169:\n        /* \"#utility.yul\":2548:2572   */\n      tag_234\n        /* \"#utility.yul\":2566:2571   */\n      dup2\n        /* \"#utility.yul\":2548:2572   */\n      tag_168\n      jump\t// in\n    tag_234:\n        /* \"#utility.yul\":2541:2546   */\n      dup2\n        /* \"#utility.yul\":2538:2573   */\n      eq\n        /* \"#utility.yul\":2528:2591   */\n      tag_235\n      jumpi\n        /* \"#utility.yul\":2587:2588   */\n      0x00\n        /* \"#utility.yul\":2584:2585   */\n      dup1\n        /* \"#utility.yul\":2577:2589   */\n      revert\n        /* \"#utility.yul\":2528:2591   */\n    tag_235:\n        /* \"#utility.yul\":2475:2597   */\n      pop\n      jump\t// out\n        /* \"#utility.yul\":2603:2742   */\n    tag_170:\n        /* \"#utility.yul\":2649:2654   */\n      0x00\n        /* \"#utility.yul\":2687:2693   */\n      dup2\n        /* \"#utility.yul\":2674:2694   */\n      calldataload\n        /* \"#utility.yul\":2665:2694   */\n      swap1\n      pop\n        /* \"#utility.yul\":2703:2736   */\n      tag_237\n        /* \"#utility.yul\":2730:2735   */\n      dup2\n        /* \"#utility.yul\":2703:2736   */\n      tag_169\n      jump\t// in\n    tag_237:\n        /* \"#utility.yul\":2603:2742   */\n      swap3\n      swap2\n      pop\n      pop\n      jump\t// out\n        /* \"#utility.yul\":2748:3659   */\n    tag_21:\n        /* \"#utility.yul\":2843:2849   */\n      0x00\n        /* \"#utility.yul\":2851:2857   */\n      dup1\n        /* \"#utility.yul\":2859:2865   */\n      0x00\n        /* \"#utility.yul\":2867:2873   */\n      dup1\n        /* \"#utility.yul\":2875:2881   */\n      0x00\n        /* \"#utility.yul\":2924:2927   */\n      0xa0\n        /* \"#utility.yul\":2912:2921   */\n      dup7\n        /* \"#utility.yul\":2903:2910   */\n      dup9\n        /* \"#utility.yul\":2899:2922   */\n      sub\n        /* \"#utility.yul\":2895:2928   */\n      slt\n        /* \"#utility.yul\":2892:3012   */\n      iszero\n      tag_239\n      jumpi\n        /* \"#utility.yul\":2931:3010   */\n      tag_240\n      tag_153\n      jump\t// in\n    tag_240:\n        /* \"#utility.yul\":2892:3012   */\n    tag_239:\n        /* \"#utility.yul\":3051:3052   */\n      0x00\n        /* \"#utility.yul\":3076:3129   */\n      tag_241\n        /* \"#utility.yul\":3121:3128   */\n      dup9\n        /* \"#utility.yul\":3112:3118   */\n      dup3\n        /* \"#utility.yul\":3101:3110   */\n      dup10\n        /* \"#utility.yul\":3097:3119   */\n      add\n        /* \"#utility.yul\":3076:3129   */\n      tag_161\n      jump\t// in\n    tag_241:\n        /* \"#utility.yul\":3066:3129   */\n      swap6\n      pop\n        /* \"#utility.yul\":3022:3139   */\n      pop\n        /* \"#utility.yul\":3178:3180   */\n      0x20\n        /* \"#utility.yul\":3204:3257   */\n      tag_242\n        /* \"#utility.yul\":3249:3256   */\n      dup9\n        /* \"#utility.yul\":3240:3246   */\n      dup3\n        /* \"#utility.yul\":3229:3238   */\n      dup10\n        /* \"#utility.yul\":3225:3247   */\n      add\n        /* \"#utility.yul\":3204:3257   */\n      tag_164\n      jump\t// in\n    tag_242:\n        /* \"#utility.yul\":3194:3257   */\n      swap5\n      pop\n        /* \"#utility.yul\":3149:3267   */\n      pop\n        /* \"#utility.yul\":3306:3308   */\n      0x40\n        /* \"#utility.yul\":3332:3385   */\n      tag_243\n        /* \"#utility.yul\":3377:3384   */\n      dup9\n        /* \"#utility.yul\":3368:3374   */\n      dup3\n        /* \"#utility.yul\":3357:3366   */\n      dup10\n        /* \"#utility.yul\":3353:3375   */\n      add\n        /* \"#utility.yul\":3332:3385   */\n      tag_164\n      jump\t// in\n    tag_243:\n        /* \"#utility.yul\":3322:3385   */\n      swap4\n      pop\n        /* \"#utility.yul\":3277:3395   */\n      pop\n        /* \"#utility.yul\":3434:3436   */\n      0x60\n        /* \"#utility.yul\":3460:3513   */\n      tag_244\n        /* \"#utility.yul\":3505:3512   */\n      dup9\n        /* \"#utility.yul\":3496:3502   */\n      dup3\n        /* \"#utility.yul\":3485:3494   */\n      dup10\n        /* \"#utility.yul\":3481:3503   */\n      add\n        /* \"#utility.yul\":3460:3513   */\n      tag_167\n      jump\t// in\n    tag_244:\n        /* \"#utility.yul\":3450:3513   */\n      swap3\n      pop\n        /* \"#utility.yul\":3405:3523   */\n      pop\n        /* \"#utility.yul\":3562:3565   */\n      0x80\n        /* \"#utility.yul\":3589:3642   */\n      tag_245\n        /* \"#utility.yul\":3634:3641   */\n      dup9\n        /* \"#utility.yul\":3625:3631   */\n      dup3\n        /* \"#utility.yul\":3614:3623   */\n      dup10\n        /* \"#utility.yul\":3610:3632   */\n      add\n        /* \"#utility.yul\":3589:3642   */\n      tag_170\n      jump\t// in\n    tag_245:\n        /* \"#utility.yul\":3579:3642   */\n      swap2\n      pop\n        /* \"#utility.yul\":3533:3652   */\n      pop\n        /* \"#utility.yul\":2748:3659   */\n      swap3\n      swap6\n      pop\n      swap3\n      swap6\n      swap1\n      swap4\n      pop\n      jump\t// out\n        /* \"#utility.yul\":3665:3782   */\n    tag_171:\n        /* \"#utility.yul\":3774:3775   */\n      0x00\n        /* \"#utility.yul\":3771:3772   */\n      dup1\n        /* \"#utility.yul\":3764:3776   */\n      revert\n        /* \"#utility.yul\":3806:4055   */\n    tag_172:\n        /* \"#utility.yul\":3877:3885   */\n      0x00\n        /* \"#utility.yul\":3908:3914   */\n      dup2\n        /* \"#utility.yul\":3896:3914   */\n      swap1\n      pop\n        /* \"#utility.yul\":3961:3964   */\n      dup3\n        /* \"#utility.yul\":3953:3957   */\n      0x20\n        /* \"#utility.yul\":3947:3951   */\n      0x08\n        /* \"#utility.yul\":3943:3958   */\n      mul\n        /* \"#utility.yul\":3933:3941   */\n      dup3\n        /* \"#utility.yul\":3929:3959   */\n      add\n        /* \"#utility.yul\":3926:3965   */\n      gt\n        /* \"#utility.yul\":3923:4049   */\n      iszero\n      tag_248\n      jumpi\n        /* \"#utility.yul\":3968:4047   */\n      tag_249\n      tag_171\n      jump\t// in\n    tag_249:\n        /* \"#utility.yul\":3923:4049   */\n    tag_248:\n        /* \"#utility.yul\":3806:4055   */\n      swap3\n      swap2\n      pop\n      pop\n      jump\t// out\n        /* \"#utility.yul\":4061:5314   */\n    tag_26:\n        /* \"#utility.yul\":4199:4205   */\n      0x00\n        /* \"#utility.yul\":4207:4213   */\n      dup1\n        /* \"#utility.yul\":4215:4221   */\n      0x00\n        /* \"#utility.yul\":4223:4229   */\n      dup1\n        /* \"#utility.yul\":4231:4237   */\n      0x00\n        /* \"#utility.yul\":4239:4245   */\n      dup1\n        /* \"#utility.yul\":4247:4253   */\n      0x00\n        /* \"#utility.yul\":4296:4299   */\n      0x01c0\n        /* \"#utility.yul\":4284:4293   */\n      dup9\n        /* \"#utility.yul\":4275:4282   */\n      dup11\n        /* \"#utility.yul\":4271:4294   */\n      sub\n        /* \"#utility.yul\":4267:4300   */\n      slt\n        /* \"#utility.yul\":4264:4384   */\n      iszero\n      tag_251\n      jumpi\n        /* \"#utility.yul\":4303:4382   */\n      tag_252\n      tag_153\n      jump\t// in\n    tag_252:\n        /* \"#utility.yul\":4264:4384   */\n    tag_251:\n        /* \"#utility.yul\":4423:4424   */\n      0x00\n        /* \"#utility.yul\":4448:4501   */\n      tag_253\n        /* \"#utility.yul\":4493:4500   */\n      dup11\n        /* \"#utility.yul\":4484:4490   */\n      dup3\n        /* \"#utility.yul\":4473:4482   */\n      dup12\n        /* \"#utility.yul\":4469:4491   */\n      add\n        /* \"#utility.yul\":4448:4501   */\n      tag_161\n      jump\t// in\n    tag_253:\n        /* \"#utility.yul\":4438:4501   */\n      swap8\n      pop\n        /* \"#utility.yul\":4394:4511   */\n      pop\n        /* \"#utility.yul\":4550:4552   */\n      0x20\n        /* \"#utility.yul\":4576:4629   */\n      tag_254\n        /* \"#utility.yul\":4621:4628   */\n      dup11\n        /* \"#utility.yul\":4612:4618   */\n      dup3\n        /* \"#utility.yul\":4601:4610   */\n      dup12\n        /* \"#utility.yul\":4597:4619   */\n      add\n        /* \"#utility.yul\":4576:4629   */\n      tag_161\n      jump\t// in\n    tag_254:\n        /* \"#utility.yul\":4566:4629   */\n      swap7\n      pop\n        /* \"#utility.yul\":4521:4639   */\n      pop\n        /* \"#utility.yul\":4678:4680   */\n      0x40\n        /* \"#utility.yul\":4704:4757   */\n      tag_255\n        /* \"#utility.yul\":4749:4756   */\n      dup11\n        /* \"#utility.yul\":4740:4746   */\n      dup3\n        /* \"#utility.yul\":4729:4738   */\n      dup12\n        /* \"#utility.yul\":4725:4747   */\n      add\n        /* \"#utility.yul\":4704:4757   */\n      tag_170\n      jump\t// in\n    tag_255:\n        /* \"#utility.yul\":4694:4757   */\n      swap6\n      pop\n        /* \"#utility.yul\":4649:4767   */\n      pop\n        /* \"#utility.yul\":4806:4808   */\n      0x60\n        /* \"#utility.yul\":4832:4885   */\n      tag_256\n        /* \"#utility.yul\":4877:4884   */\n      dup11\n        /* \"#utility.yul\":4868:4874   */\n      dup3\n        /* \"#utility.yul\":4857:4866   */\n      dup12\n        /* \"#utility.yul\":4853:4875   */\n      add\n        /* \"#utility.yul\":4832:4885   */\n      tag_167\n      jump\t// in\n    tag_256:\n        /* \"#utility.yul\":4822:4885   */\n      swap5\n      pop\n        /* \"#utility.yul\":4777:4895   */\n      pop\n        /* \"#utility.yul\":4934:4937   */\n      0x80\n        /* \"#utility.yul\":4961:5014   */\n      tag_257\n        /* \"#utility.yul\":5006:5013   */\n      dup11\n        /* \"#utility.yul\":4997:5003   */\n      dup3\n        /* \"#utility.yul\":4986:4995   */\n      dup12\n        /* \"#utility.yul\":4982:5004   */\n      add\n        /* \"#utility.yul\":4961:5014   */\n      tag_164\n      jump\t// in\n    tag_257:\n        /* \"#utility.yul\":4951:5014   */\n      swap4\n      pop\n        /* \"#utility.yul\":4905:5024   */\n      pop\n        /* \"#utility.yul\":5063:5066   */\n      0xa0\n        /* \"#utility.yul\":5090:5143   */\n      tag_258\n        /* \"#utility.yul\":5135:5142   */\n      dup11\n        /* \"#utility.yul\":5126:5132   */\n      dup3\n        /* \"#utility.yul\":5115:5124   */\n      dup12\n        /* \"#utility.yul\":5111:5133   */\n      add\n        /* \"#utility.yul\":5090:5143   */\n      tag_164\n      jump\t// in\n    tag_258:\n        /* \"#utility.yul\":5080:5143   */\n      swap3\n      pop\n        /* \"#utility.yul\":5034:5153   */\n      pop\n        /* \"#utility.yul\":5192:5195   */\n      0xc0\n        /* \"#utility.yul\":5219:5297   */\n      tag_259\n        /* \"#utility.yul\":5289:5296   */\n      dup11\n        /* \"#utility.yul\":5280:5286   */\n      dup3\n        /* \"#utility.yul\":5269:5278   */\n      dup12\n        /* \"#utility.yul\":5265:5287   */\n      add\n        /* \"#utility.yul\":5219:5297   */\n      tag_172\n      jump\t// in\n    tag_259:\n        /* \"#utility.yul\":5209:5297   */\n      swap2\n      pop\n        /* \"#utility.yul\":5163:5307   */\n      pop\n        /* \"#utility.yul\":4061:5314   */\n      swap3\n      swap6\n      swap9\n      swap2\n      swap5\n      swap8\n      pop\n      swap3\n      swap6\n      pop\n      jump\t// out\n        /* \"#utility.yul\":5320:6281   */\n    tag_30:\n        /* \"#utility.yul\":5440:5446   */\n      0x00\n        /* \"#utility.yul\":5448:5454   */\n      dup1\n        /* \"#utility.yul\":5456:5462   */\n      0x00\n        /* \"#utility.yul\":5464:5470   */\n      dup1\n        /* \"#utility.yul\":5472:5478   */\n      0x00\n        /* \"#utility.yul\":5521:5524   */\n      0x0180\n        /* \"#utility.yul\":5509:5518   */\n      dup7\n        /* \"#utility.yul\":5500:5507   */\n      dup9\n        /* \"#utility.yul\":5496:5519   */\n      sub\n        /* \"#utility.yul\":5492:5525   */\n      slt\n        /* \"#utility.yul\":5489:5609   */\n      iszero\n      tag_261\n      jumpi\n        /* \"#utility.yul\":5528:5607   */\n      tag_262\n      tag_153\n      jump\t// in\n    tag_262:\n        /* \"#utility.yul\":5489:5609   */\n    tag_261:\n        /* \"#utility.yul\":5648:5649   */\n      0x00\n        /* \"#utility.yul\":5673:5726   */\n      tag_263\n        /* \"#utility.yul\":5718:5725   */\n      dup9\n        /* \"#utility.yul\":5709:5715   */\n      dup3\n        /* \"#utility.yul\":5698:5707   */\n      dup10\n        /* \"#utility.yul\":5694:5716   */\n      add\n        /* \"#utility.yul\":5673:5726   */\n      tag_161\n      jump\t// in\n    tag_263:\n        /* \"#utility.yul\":5663:5726   */\n      swap6\n      pop\n        /* \"#utility.yul\":5619:5736   */\n      pop\n        /* \"#utility.yul\":5775:5777   */\n      0x20\n        /* \"#utility.yul\":5801:5854   */\n      tag_264\n        /* \"#utility.yul\":5846:5853   */\n      dup9\n        /* \"#utility.yul\":5837:5843   */\n      dup3\n        /* \"#utility.yul\":5826:5835   */\n      dup10\n        /* \"#utility.yul\":5822:5844   */\n      add\n        /* \"#utility.yul\":5801:5854   */\n      tag_167\n      jump\t// in\n    tag_264:\n        /* \"#utility.yul\":5791:5854   */\n      swap5\n      pop\n        /* \"#utility.yul\":5746:5864   */\n      pop\n        /* \"#utility.yul\":5903:5905   */\n      0x40\n        /* \"#utility.yul\":5929:5982   */\n      tag_265\n        /* \"#utility.yul\":5974:5981   */\n      dup9\n        /* \"#utility.yul\":5965:5971   */\n      dup3\n        /* \"#utility.yul\":5954:5963   */\n      dup10\n        /* \"#utility.yul\":5950:5972   */\n      add\n        /* \"#utility.yul\":5929:5982   */\n      tag_164\n      jump\t// in\n    tag_265:\n        /* \"#utility.yul\":5919:5982   */\n      swap4\n      pop\n        /* \"#utility.yul\":5874:5992   */\n      pop\n        /* \"#utility.yul\":6031:6033   */\n      0x60\n        /* \"#utility.yul\":6057:6110   */\n      tag_266\n        /* \"#utility.yul\":6102:6109   */\n      dup9\n        /* \"#utility.yul\":6093:6099   */\n      dup3\n        /* \"#utility.yul\":6082:6091   */\n      dup10\n        /* \"#utility.yul\":6078:6100   */\n      add\n        /* \"#utility.yul\":6057:6110   */\n      tag_164\n      jump\t// in\n    tag_266:\n        /* \"#utility.yul\":6047:6110   */\n      swap3\n      pop\n        /* \"#utility.yul\":6002:6120   */\n      pop\n        /* \"#utility.yul\":6159:6162   */\n      0x80\n        /* \"#utility.yul\":6186:6264   */\n      tag_267\n        /* \"#utility.yul\":6256:6263   */\n      dup9\n        /* \"#utility.yul\":6247:6253   */\n      dup3\n        /* \"#utility.yul\":6236:6245   */\n      dup10\n        /* \"#utility.yul\":6232:6254   */\n      add\n        /* \"#utility.yul\":6186:6264   */\n      tag_172\n      jump\t// in\n    tag_267:\n        /* \"#utility.yul\":6176:6264   */\n      swap2\n      pop\n        /* \"#utility.yul\":6130:6274   */\n      pop\n        /* \"#utility.yul\":5320:6281   */\n      swap3\n      swap6\n      pop\n      swap3\n      swap6\n      swap1\n      swap4\n      pop\n      jump\t// out\n        /* \"#utility.yul\":6287:6616   */\n    tag_35:\n        /* \"#utility.yul\":6346:6352   */\n      0x00\n        /* \"#utility.yul\":6395:6397   */\n      0x20\n        /* \"#utility.yul\":6383:6392   */\n      dup3\n        /* \"#utility.yul\":6374:6381   */\n      dup5\n        /* \"#utility.yul\":6370:6393   */\n      sub\n        /* \"#utility.yul\":6366:6398   */\n      slt\n        /* \"#utility.yul\":6363:6482   */\n      iszero\n      tag_269\n      jumpi\n        /* \"#utility.yul\":6401:6480   */\n      tag_270\n      tag_153\n      jump\t// in\n    tag_270:\n        /* \"#utility.yul\":6363:6482   */\n    tag_269:\n        /* \"#utility.yul\":6521:6522   */\n      0x00\n        /* \"#utility.yul\":6546:6599   */\n      tag_271\n        /* \"#utility.yul\":6591:6598   */\n      dup5\n        /* \"#utility.yul\":6582:6588   */\n      dup3\n        /* \"#utility.yul\":6571:6580   */\n      dup6\n        /* \"#utility.yul\":6567:6589   */\n      add\n        /* \"#utility.yul\":6546:6599   */\n      tag_161\n      jump\t// in\n    tag_271:\n        /* \"#utility.yul\":6536:6599   */\n      swap2\n      pop\n        /* \"#utility.yul\":6492:6609   */\n      pop\n        /* \"#utility.yul\":6287:6616   */\n      swap3\n      swap2\n      pop\n      pop\n      jump\t// out\n        /* \"#utility.yul\":6622:6740   */\n    tag_173:\n        /* \"#utility.yul\":6709:6733   */\n      tag_273\n        /* \"#utility.yul\":6727:6732   */\n      dup2\n        /* \"#utility.yul\":6709:6733   */\n      tag_168\n      jump\t// in\n    tag_273:\n        /* \"#utility.yul\":6704:6707   */\n      dup3\n        /* \"#utility.yul\":6697:6734   */\n      mstore\n        /* \"#utility.yul\":6622:6740   */\n      pop\n      pop\n      jump\t// out\n        /* \"#utility.yul\":6746:6968   */\n    tag_38:\n        /* \"#utility.yul\":6839:6843   */\n      0x00\n        /* \"#utility.yul\":6877:6879   */\n      0x20\n        /* \"#utility.yul\":6866:6875   */\n      dup3\n        /* \"#utility.yul\":6862:6880   */\n      add\n        /* \"#utility.yul\":6854:6880   */\n      swap1\n      pop\n        /* \"#utility.yul\":6890:6961   */\n      tag_275\n        /* \"#utility.yul\":6958:6959   */\n      0x00\n        /* \"#utility.yul\":6947:6956   */\n      dup4\n        /* \"#utility.yul\":6943:6960   */\n      add\n        /* \"#utility.yul\":6934:6940   */\n      dup5\n        /* \"#utility.yul\":6890:6961   */\n      tag_173\n      jump\t// in\n    tag_275:\n        /* \"#utility.yul\":6746:6968   */\n      swap3\n      swap2\n      pop\n      pop\n      jump\t// out\n        /* \"#utility.yul\":6974:7593   */\n    tag_49:\n        /* \"#utility.yul\":7051:7057   */\n      0x00\n        /* \"#utility.yul\":7059:7065   */\n      dup1\n        /* \"#utility.yul\":7067:7073   */\n      0x00\n        /* \"#utility.yul\":7116:7118   */\n      0x60\n        /* \"#utility.yul\":7104:7113   */\n      dup5\n        /* \"#utility.yul\":7095:7102   */\n      dup7\n        /* \"#utility.yul\":7091:7114   */\n      sub\n        /* \"#utility.yul\":7087:7119   */\n      slt\n        /* \"#utility.yul\":7084:7203   */\n      iszero\n      tag_277\n      jumpi\n        /* \"#utility.yul\":7122:7201   */\n      tag_278\n      tag_153\n      jump\t// in\n    tag_278:\n        /* \"#utility.yul\":7084:7203   */\n    tag_277:\n        /* \"#utility.yul\":7242:7243   */\n      0x00\n        /* \"#utility.yul\":7267:7320   */\n      tag_279\n        /* \"#utility.yul\":7312:7319   */\n      dup7\n        /* \"#utility.yul\":7303:7309   */\n      dup3\n        /* \"#utility.yul\":7292:7301   */\n      dup8\n        /* \"#utility.yul\":7288:7310   */\n      add\n        /* \"#utility.yul\":7267:7320   */\n      tag_161\n      jump\t// in\n    tag_279:\n        /* \"#utility.yul\":7257:7320   */\n      swap4\n      pop\n        /* \"#utility.yul\":7213:7330   */\n      pop\n        /* \"#utility.yul\":7369:7371   */\n      0x20\n        /* \"#utility.yul\":7395:7448   */\n      tag_280\n        /* \"#utility.yul\":7440:7447   */\n      dup7\n        /* \"#utility.yul\":7431:7437   */\n      dup3\n        /* \"#utility.yul\":7420:7429   */\n      dup8\n        /* \"#utility.yul\":7416:7438   */\n      add\n        /* \"#utility.yul\":7395:7448   */\n      tag_161\n      jump\t// in\n    tag_280:\n        /* \"#utility.yul\":7385:7448   */\n      swap3\n      pop\n        /* \"#utility.yul\":7340:7458   */\n      pop\n        /* \"#utility.yul\":7497:7499   */\n      0x40\n        /* \"#utility.yul\":7523:7576   */\n      tag_281\n        /* \"#utility.yul\":7568:7575   */\n      dup7\n        /* \"#utility.yul\":7559:7565   */\n      dup3\n        /* \"#utility.yul\":7548:7557   */\n      dup8\n        /* \"#utility.yul\":7544:7566   */\n      add\n        /* \"#utility.yul\":7523:7576   */\n      tag_170\n      jump\t// in\n    tag_281:\n        /* \"#utility.yul\":7513:7576   */\n      swap2\n      pop\n        /* \"#utility.yul\":7468:7586   */\n      pop\n        /* \"#utility.yul\":6974:7593   */\n      swap3\n      pop\n      swap3\n      pop\n      swap3\n      jump\t// out\n        /* \"#utility.yul\":7599:8510   */\n    tag_59:\n        /* \"#utility.yul\":7694:7700   */\n      0x00\n        /* \"#utility.yul\":7702:7708   */\n      dup1\n        /* \"#utility.yul\":7710:7716   */\n      0x00\n        /* \"#utility.yul\":7718:7724   */\n      dup1\n        /* \"#utility.yul\":7726:7732   */\n      0x00\n        /* \"#utility.yul\":7775:7778   */\n      0xa0\n        /* \"#utility.yul\":7763:7772   */\n      dup7\n        /* \"#utility.yul\":7754:7761   */\n      dup9\n        /* \"#utility.yul\":7750:7773   */\n      sub\n        /* \"#utility.yul\":7746:7779   */\n      slt\n        /* \"#utility.yul\":7743:7863   */\n      iszero\n      tag_283\n      jumpi\n        /* \"#utility.yul\":7782:7861   */\n      tag_284\n      tag_153\n      jump\t// in\n    tag_284:\n        /* \"#utility.yul\":7743:7863   */\n    tag_283:\n        /* \"#utility.yul\":7902:7903   */\n      0x00\n        /* \"#utility.yul\":7927:7980   */\n      tag_285\n        /* \"#utility.yul\":7972:7979   */\n      dup9\n        /* \"#utility.yul\":7963:7969   */\n      dup3\n        /* \"#utility.yul\":7952:7961   */\n      dup10\n        /* \"#utility.yul\":7948:7970   */\n      add\n        /* \"#utility.yul\":7927:7980   */\n      tag_161\n      jump\t// in\n    tag_285:\n        /* \"#utility.yul\":7917:7980   */\n      swap6\n      pop\n        /* \"#utility.yul\":7873:7990   */\n      pop\n        /* \"#utility.yul\":8029:8031   */\n      0x20\n        /* \"#utility.yul\":8055:8108   */\n      tag_286\n        /* \"#utility.yul\":8100:8107   */\n      dup9\n        /* \"#utility.yul\":8091:8097   */\n      dup3\n        /* \"#utility.yul\":8080:8089   */\n      dup10\n        /* \"#utility.yul\":8076:8098   */\n      add\n        /* \"#utility.yul\":8055:8108   */\n      tag_170\n      jump\t// in\n    tag_286:\n        /* \"#utility.yul\":8045:8108   */\n      swap5\n      pop\n        /* \"#utility.yul\":8000:8118   */\n      pop\n        /* \"#utility.yul\":8157:8159   */\n      0x40\n        /* \"#utility.yul\":8183:8236   */\n      tag_287\n        /* \"#utility.yul\":8228:8235   */\n      dup9\n        /* \"#utility.yul\":8219:8225   */\n      dup3\n        /* \"#utility.yul\":8208:8217   */\n      dup10\n        /* \"#utility.yul\":8204:8226   */\n      add\n        /* \"#utility.yul\":8183:8236   */\n      tag_164\n      jump\t// in\n    tag_287:\n        /* \"#utility.yul\":8173:8236   */\n      swap4\n      pop\n        /* \"#utility.yul\":8128:8246   */\n      pop\n        /* \"#utility.yul\":8285:8287   */\n      0x60\n        /* \"#utility.yul\":8311:8364   */\n      tag_288\n        /* \"#utility.yul\":8356:8363   */\n      dup9\n        /* \"#utility.yul\":8347:8353   */\n      dup3\n        /* \"#utility.yul\":8336:8345   */\n      dup10\n        /* \"#utility.yul\":8332:8354   */\n      add\n        /* \"#utility.yul\":8311:8364   */\n      tag_164\n      jump\t// in\n    tag_288:\n        /* \"#utility.yul\":8301:8364   */\n      swap3\n      pop\n        /* \"#utility.yul\":8256:8374   */\n      pop\n        /* \"#utility.yul\":8413:8416   */\n      0x80\n        /* \"#utility.yul\":8440:8493   */\n      tag_289\n        /* \"#utility.yul\":8485:8492   */\n      dup9\n        /* \"#utility.yul\":8476:8482   */\n      dup3\n        /* \"#utility.yul\":8465:8474   */\n      dup10\n        /* \"#utility.yul\":8461:8483   */\n      add\n        /* \"#utility.yul\":8440:8493   */\n      tag_167\n      jump\t// in\n    tag_289:\n        /* \"#utility.yul\":8430:8493   */\n      swap2\n      pop\n        /* \"#utility.yul\":8384:8503   */\n      pop\n        /* \"#utility.yul\":7599:8510   */\n      swap3\n      swap6\n      pop\n      swap3\n      swap6\n      swap1\n      swap4\n      pop\n      jump\t// out\n        /* \"#utility.yul\":8516:8634   */\n    tag_174:\n        /* \"#utility.yul\":8603:8627   */\n      tag_291\n        /* \"#utility.yul\":8621:8626   */\n      dup2\n        /* \"#utility.yul\":8603:8627   */\n      tag_165\n      jump\t// in\n    tag_291:\n        /* \"#utility.yul\":8598:8601   */\n      dup3\n        /* \"#utility.yul\":8591:8628   */\n      mstore\n        /* \"#utility.yul\":8516:8634   */\n      pop\n      pop\n      jump\t// out\n        /* \"#utility.yul\":8640:8862   */\n    tag_65:\n        /* \"#utility.yul\":8733:8737   */\n      0x00\n        /* \"#utility.yul\":8771:8773   */\n      0x20\n        /* \"#utility.yul\":8760:8769   */\n      dup3\n        /* \"#utility.yul\":8756:8774   */\n      add\n        /* \"#utility.yul\":8748:8774   */\n      swap1\n      pop\n        /* \"#utility.yul\":8784:8855   */\n      tag_293\n        /* \"#utility.yul\":8852:8853   */\n      0x00\n        /* \"#utility.yul\":8841:8850   */\n      dup4\n        /* \"#utility.yul\":8837:8854   */\n      add\n        /* \"#utility.yul\":8828:8834   */\n      dup5\n        /* \"#utility.yul\":8784:8855   */\n      tag_174\n      jump\t// in\n    tag_293:\n        /* \"#utility.yul\":8640:8862   */\n      swap3\n      swap2\n      pop\n      pop\n      jump\t// out\n        /* \"#utility.yul\":8868:9011   */\n    tag_175:\n        /* \"#utility.yul\":8925:8930   */\n      0x00\n        /* \"#utility.yul\":8956:8962   */\n      dup2\n        /* \"#utility.yul\":8950:8963   */\n      mload\n        /* \"#utility.yul\":8941:8963   */\n      swap1\n      pop\n        /* \"#utility.yul\":8972:9005   */\n      tag_295\n        /* \"#utility.yul\":8999:9004   */\n      dup2\n        /* \"#utility.yul\":8972:9005   */\n      tag_163\n      jump\t// in\n    tag_295:\n        /* \"#utility.yul\":8868:9011   */\n      swap3\n      swap2\n      pop\n      pop\n      jump\t// out\n        /* \"#utility.yul\":9017:9368   */\n    tag_69:\n        /* \"#utility.yul\":9087:9093   */\n      0x00\n        /* \"#utility.yul\":9136:9138   */\n      0x20\n        /* \"#utility.yul\":9124:9133   */\n      dup3\n        /* \"#utility.yul\":9115:9122   */\n      dup5\n        /* \"#utility.yul\":9111:9134   */\n      sub\n        /* \"#utility.yul\":9107:9139   */\n      slt\n        /* \"#utility.yul\":9104:9223   */\n      iszero\n      tag_297\n      jumpi\n        /* \"#utility.yul\":9142:9221   */\n      tag_298\n      tag_153\n      jump\t// in\n    tag_298:\n        /* \"#utility.yul\":9104:9223   */\n    tag_297:\n        /* \"#utility.yul\":9262:9263   */\n      0x00\n        /* \"#utility.yul\":9287:9351   */\n      tag_299\n        /* \"#utility.yul\":9343:9350   */\n      dup5\n        /* \"#utility.yul\":9334:9340   */\n      dup3\n        /* \"#utility.yul\":9323:9332   */\n      dup6\n        /* \"#utility.yul\":9319:9341   */\n      add\n        /* \"#utility.yul\":9287:9351   */\n      tag_175\n      jump\t// in\n    tag_299:\n        /* \"#utility.yul\":9277:9351   */\n      swap2\n      pop\n        /* \"#utility.yul\":9233:9361   */\n      pop\n        /* \"#utility.yul\":9017:9368   */\n      swap3\n      swap2\n      pop\n      pop\n      jump\t// out\n        /* \"#utility.yul\":9374:9434   */\n    tag_176:\n        /* \"#utility.yul\":9402:9405   */\n      0x00\n        /* \"#utility.yul\":9423:9428   */\n      dup2\n        /* \"#utility.yul\":9416:9428   */\n      swap1\n      pop\n        /* \"#utility.yul\":9374:9434   */\n      swap2\n      swap1\n      pop\n      jump\t// out\n        /* \"#utility.yul\":9440:9582   */\n    tag_177:\n        /* \"#utility.yul\":9490:9499   */\n      0x00\n        /* \"#utility.yul\":9523:9576   */\n      tag_302\n        /* \"#utility.yul\":9541:9575   */\n      tag_303\n        /* \"#utility.yul\":9550:9574   */\n      tag_304\n        /* \"#utility.yul\":9568:9573   */\n      dup5\n        /* \"#utility.yul\":9550:9574   */\n      tag_155\n      jump\t// in\n    tag_304:\n        /* \"#utility.yul\":9541:9575   */\n      tag_176\n      jump\t// in\n    tag_303:\n        /* \"#utility.yul\":9523:9576   */\n      tag_155\n      jump\t// in\n    tag_302:\n        /* \"#utility.yul\":9510:9576   */\n      swap1\n      pop\n        /* \"#utility.yul\":9440:9582   */\n      swap2\n      swap1\n      pop\n      jump\t// out\n        /* \"#utility.yul\":9588:9714   */\n    tag_178:\n        /* \"#utility.yul\":9638:9647   */\n      0x00\n        /* \"#utility.yul\":9671:9708   */\n      tag_306\n        /* \"#utility.yul\":9702:9707   */\n      dup3\n        /* \"#utility.yul\":9671:9708   */\n      tag_177\n      jump\t// in\n    tag_306:\n        /* \"#utility.yul\":9658:9708   */\n      swap1\n      pop\n        /* \"#utility.yul\":9588:9714   */\n      swap2\n      swap1\n      pop\n      jump\t// out\n        /* \"#utility.yul\":9720:9854   */\n    tag_179:\n        /* \"#utility.yul\":9778:9787   */\n      0x00\n        /* \"#utility.yul\":9811:9848   */\n      tag_308\n        /* \"#utility.yul\":9842:9847   */\n      dup3\n        /* \"#utility.yul\":9811:9848   */\n      tag_178\n      jump\t// in\n    tag_308:\n        /* \"#utility.yul\":9798:9848   */\n      swap1\n      pop\n        /* \"#utility.yul\":9720:9854   */\n      swap2\n      swap1\n      pop\n      jump\t// out\n        /* \"#utility.yul\":9860:10007   */\n    tag_180:\n        /* \"#utility.yul\":9955:10000   */\n      tag_310\n        /* \"#utility.yul\":9994:9999   */\n      dup2\n        /* \"#utility.yul\":9955:10000   */\n      tag_179\n      jump\t// in\n    tag_310:\n        /* \"#utility.yul\":9950:9953   */\n      dup3\n        /* \"#utility.yul\":9943:10001   */\n      mstore\n        /* \"#utility.yul\":9860:10007   */\n      pop\n      pop\n      jump\t// out\n        /* \"#utility.yul\":10013:10131   */\n    tag_181:\n        /* \"#utility.yul\":10100:10124   */\n      tag_312\n        /* \"#utility.yul\":10118:10123   */\n      dup2\n        /* \"#utility.yul\":10100:10124   */\n      tag_162\n      jump\t// in\n    tag_312:\n        /* \"#utility.yul\":10095:10098   */\n      dup3\n        /* \"#utility.yul\":10088:10125   */\n      mstore\n        /* \"#utility.yul\":10013:10131   */\n      pop\n      pop\n      jump\t// out\n        /* \"#utility.yul\":10137:10485   */\n    tag_71:\n        /* \"#utility.yul\":10266:10270   */\n      0x00\n        /* \"#utility.yul\":10304:10306   */\n      0x40\n        /* \"#utility.yul\":10293:10302   */\n      dup3\n        /* \"#utility.yul\":10289:10307   */\n      add\n        /* \"#utility.yul\":10281:10307   */\n      swap1\n      pop\n        /* \"#utility.yul\":10317:10396   */\n      tag_314\n        /* \"#utility.yul\":10393:10394   */\n      0x00\n        /* \"#utility.yul\":10382:10391   */\n      dup4\n        /* \"#utility.yul\":10378:10395   */\n      add\n        /* \"#utility.yul\":10369:10375   */\n      dup6\n        /* \"#utility.yul\":10317:10396   */\n      tag_180\n      jump\t// in\n    tag_314:\n        /* \"#utility.yul\":10406:10478   */\n      tag_315\n        /* \"#utility.yul\":10474:10476   */\n      0x20\n        /* \"#utility.yul\":10463:10472   */\n      dup4\n        /* \"#utility.yul\":10459:10477   */\n      add\n        /* \"#utility.yul\":10450:10456   */\n      dup5\n        /* \"#utility.yul\":10406:10478   */\n      tag_181\n      jump\t// in\n    tag_315:\n        /* \"#utility.yul\":10137:10485   */\n      swap4\n      swap3\n      pop\n      pop\n      pop\n      jump\t// out\n        /* \"#utility.yul\":10491:10581   */\n    tag_182:\n        /* \"#utility.yul\":10525:10532   */\n      0x00\n        /* \"#utility.yul\":10568:10573   */\n      dup2\n        /* \"#utility.yul\":10561:10574   */\n      iszero\n        /* \"#utility.yul\":10554:10575   */\n      iszero\n        /* \"#utility.yul\":10543:10575   */\n      swap1\n      pop\n        /* \"#utility.yul\":10491:10581   */\n      swap2\n      swap1\n      pop\n      jump\t// out\n        /* \"#utility.yul\":10587:10703   */\n    tag_183:\n        /* \"#utility.yul\":10657:10678   */\n      tag_318\n        /* \"#utility.yul\":10672:10677   */\n      dup2\n        /* \"#utility.yul\":10657:10678   */\n      tag_182\n      jump\t// in\n    tag_318:\n        /* \"#utility.yul\":10650:10655   */\n      dup2\n        /* \"#utility.yul\":10647:10679   */\n      eq\n        /* \"#utility.yul\":10637:10697   */\n      tag_319\n      jumpi\n        /* \"#utility.yul\":10693:10694   */\n      0x00\n        /* \"#utility.yul\":10690:10691   */\n      dup1\n        /* \"#utility.yul\":10683:10695   */\n      revert\n        /* \"#utility.yul\":10637:10697   */\n    tag_319:\n        /* \"#utility.yul\":10587:10703   */\n      pop\n      jump\t// out\n        /* \"#utility.yul\":10709:10846   */\n    tag_184:\n        /* \"#utility.yul\":10763:10768   */\n      0x00\n        /* \"#utility.yul\":10794:10800   */\n      dup2\n        /* \"#utility.yul\":10788:10801   */\n      mload\n        /* \"#utility.yul\":10779:10801   */\n      swap1\n      pop\n        /* \"#utility.yul\":10810:10840   */\n      tag_321\n        /* \"#utility.yul\":10834:10839   */\n      dup2\n        /* \"#utility.yul\":10810:10840   */\n      tag_183\n      jump\t// in\n    tag_321:\n        /* \"#utility.yul\":10709:10846   */\n      swap3\n      swap2\n      pop\n      pop\n      jump\t// out\n        /* \"#utility.yul\":10852:11197   */\n    tag_75:\n        /* \"#utility.yul\":10919:10925   */\n      0x00\n        /* \"#utility.yul\":10968:10970   */\n      0x20\n        /* \"#utility.yul\":10956:10965   */\n      dup3\n        /* \"#utility.yul\":10947:10954   */\n      dup5\n        /* \"#utility.yul\":10943:10966   */\n      sub\n        /* \"#utility.yul\":10939:10971   */\n      slt\n        /* \"#utility.yul\":10936:11055   */\n      iszero\n      tag_323\n      jumpi\n        /* \"#utility.yul\":10974:11053   */\n      tag_324\n      tag_153\n      jump\t// in\n    tag_324:\n        /* \"#utility.yul\":10936:11055   */\n    tag_323:\n        /* \"#utility.yul\":11094:11095   */\n      0x00\n        /* \"#utility.yul\":11119:11180   */\n      tag_325\n        /* \"#utility.yul\":11172:11179   */\n      dup5\n        /* \"#utility.yul\":11163:11169   */\n      dup3\n        /* \"#utility.yul\":11152:11161   */\n      dup6\n        /* \"#utility.yul\":11148:11170   */\n      add\n        /* \"#utility.yul\":11119:11180   */\n      tag_184\n      jump\t// in\n    tag_325:\n        /* \"#utility.yul\":11109:11180   */\n      swap2\n      pop\n        /* \"#utility.yul\":11065:11190   */\n      pop\n        /* \"#utility.yul\":10852:11197   */\n      swap3\n      swap2\n      pop\n      pop\n      jump\t// out\n        /* \"#utility.yul\":11203:11297   */\n    tag_185:\n        /* \"#utility.yul\":11236:11244   */\n      0x00\n        /* \"#utility.yul\":11284:11289   */\n      dup2\n        /* \"#utility.yul\":11280:11282   */\n      0x60\n        /* \"#utility.yul\":11276:11290   */\n      shl\n        /* \"#utility.yul\":11255:11290   */\n      swap1\n      pop\n        /* \"#utility.yul\":11203:11297   */\n      swap2\n      swap1\n      pop\n      jump\t// out\n        /* \"#utility.yul\":11303:11397   */\n    tag_186:\n        /* \"#utility.yul\":11342:11349   */\n      0x00\n        /* \"#utility.yul\":11371:11391   */\n      tag_328\n        /* \"#utility.yul\":11385:11390   */\n      dup3\n        /* \"#utility.yul\":11371:11391   */\n      tag_185\n      jump\t// in\n    tag_328:\n        /* \"#utility.yul\":11360:11391   */\n      swap1\n      pop\n        /* \"#utility.yul\":11303:11397   */\n      swap2\n      swap1\n      pop\n      jump\t// out\n        /* \"#utility.yul\":11403:11503   */\n    tag_187:\n        /* \"#utility.yul\":11442:11449   */\n      0x00\n        /* \"#utility.yul\":11471:11497   */\n      tag_330\n        /* \"#utility.yul\":11491:11496   */\n      dup3\n        /* \"#utility.yul\":11471:11497   */\n      tag_186\n      jump\t// in\n    tag_330:\n        /* \"#utility.yul\":11460:11497   */\n      swap1\n      pop\n        /* \"#utility.yul\":11403:11503   */\n      swap2\n      swap1\n      pop\n      jump\t// out\n        /* \"#utility.yul\":11509:11666   */\n    tag_188:\n        /* \"#utility.yul\":11614:11659   */\n      tag_332\n        /* \"#utility.yul\":11634:11658   */\n      tag_333\n        /* \"#utility.yul\":11652:11657   */\n      dup3\n        /* \"#utility.yul\":11634:11658   */\n      tag_165\n      jump\t// in\n    tag_333:\n        /* \"#utility.yul\":11614:11659   */\n      tag_187\n      jump\t// in\n    tag_332:\n        /* \"#utility.yul\":11609:11612   */\n      dup3\n        /* \"#utility.yul\":11602:11660   */\n      mstore\n        /* \"#utility.yul\":11509:11666   */\n      pop\n      pop\n      jump\t// out\n        /* \"#utility.yul\":11672:11928   */\n    tag_82:\n        /* \"#utility.yul\":11784:11787   */\n      0x00\n        /* \"#utility.yul\":11799:11874   */\n      tag_335\n        /* \"#utility.yul\":11870:11873   */\n      dup3\n        /* \"#utility.yul\":11861:11867   */\n      dup5\n        /* \"#utility.yul\":11799:11874   */\n      tag_188\n      jump\t// in\n    tag_335:\n        /* \"#utility.yul\":11899:11901   */\n      0x14\n        /* \"#utility.yul\":11894:11897   */\n      dup3\n        /* \"#utility.yul\":11890:11902   */\n      add\n        /* \"#utility.yul\":11883:11902   */\n      swap2\n      pop\n        /* \"#utility.yul\":11919:11922   */\n      dup2\n        /* \"#utility.yul\":11912:11922   */\n      swap1\n      pop\n        /* \"#utility.yul\":11672:11928   */\n      swap3\n      swap2\n      pop\n      pop\n      jump\t// out\n        /* \"#utility.yul\":11934:12033   */\n    tag_189:\n        /* \"#utility.yul\":12019:12025   */\n      dup3\n        /* \"#utility.yul\":12014:12017   */\n      dup2\n        /* \"#utility.yul\":12009:12012   */\n      dup4\n        /* \"#utility.yul\":11996:12026   */\n      calldatacopy\n        /* \"#utility.yul\":11934:12033   */\n      pop\n      pop\n      pop\n      jump\t// out\n        /* \"#utility.yul\":12071:12243   */\n    tag_190:\n        /* \"#utility.yul\":12194:12237   */\n      tag_338\n        /* \"#utility.yul\":12230:12236   */\n      0x0100\n        /* \"#utility.yul\":12225:12228   */\n      dup4\n        /* \"#utility.yul\":12218:12223   */\n      dup4\n        /* \"#utility.yul\":12194:12237   */\n      tag_189\n      jump\t// in\n    tag_338:\n        /* \"#utility.yul\":12071:12243   */\n      pop\n      pop\n      jump\t// out\n        /* \"#utility.yul\":12249:13120   */\n    tag_85:\n        /* \"#utility.yul\":12530:12534   */\n      0x00\n        /* \"#utility.yul\":12568:12571   */\n      0x01a0\n        /* \"#utility.yul\":12557:12566   */\n      dup3\n        /* \"#utility.yul\":12553:12572   */\n      add\n        /* \"#utility.yul\":12545:12572   */\n      swap1\n      pop\n        /* \"#utility.yul\":12582:12653   */\n      tag_340\n        /* \"#utility.yul\":12650:12651   */\n      0x00\n        /* \"#utility.yul\":12639:12648   */\n      dup4\n        /* \"#utility.yul\":12635:12652   */\n      add\n        /* \"#utility.yul\":12626:12632   */\n      dup10\n        /* \"#utility.yul\":12582:12653   */\n      tag_181\n      jump\t// in\n    tag_340:\n        /* \"#utility.yul\":12663:12735   */\n      tag_341\n        /* \"#utility.yul\":12731:12733   */\n      0x20\n        /* \"#utility.yul\":12720:12729   */\n      dup4\n        /* \"#utility.yul\":12716:12734   */\n      add\n        /* \"#utility.yul\":12707:12713   */\n      dup9\n        /* \"#utility.yul\":12663:12735   */\n      tag_181\n      jump\t// in\n    tag_341:\n        /* \"#utility.yul\":12745:12817   */\n      tag_342\n        /* \"#utility.yul\":12813:12815   */\n      0x40\n        /* \"#utility.yul\":12802:12811   */\n      dup4\n        /* \"#utility.yul\":12798:12816   */\n      add\n        /* \"#utility.yul\":12789:12795   */\n      dup8\n        /* \"#utility.yul\":12745:12817   */\n      tag_181\n      jump\t// in\n    tag_342:\n        /* \"#utility.yul\":12827:12899   */\n      tag_343\n        /* \"#utility.yul\":12895:12897   */\n      0x60\n        /* \"#utility.yul\":12884:12893   */\n      dup4\n        /* \"#utility.yul\":12880:12898   */\n      add\n        /* \"#utility.yul\":12871:12877   */\n      dup7\n        /* \"#utility.yul\":12827:12899   */\n      tag_181\n      jump\t// in\n    tag_343:\n        /* \"#utility.yul\":12909:12982   */\n      tag_344\n        /* \"#utility.yul\":12977:12980   */\n      0x80\n        /* \"#utility.yul\":12966:12975   */\n      dup4\n        /* \"#utility.yul\":12962:12981   */\n      add\n        /* \"#utility.yul\":12953:12959   */\n      dup6\n        /* \"#utility.yul\":12909:12982   */\n      tag_181\n      jump\t// in\n    tag_344:\n        /* \"#utility.yul\":12992:13113   */\n      tag_345\n        /* \"#utility.yul\":13108:13111   */\n      0xa0\n        /* \"#utility.yul\":13097:13106   */\n      dup4\n        /* \"#utility.yul\":13093:13112   */\n      add\n        /* \"#utility.yul\":13084:13090   */\n      dup5\n        /* \"#utility.yul\":12992:13113   */\n      tag_190\n      jump\t// in\n    tag_345:\n        /* \"#utility.yul\":12249:13120   */\n      swap8\n      swap7\n      pop\n      pop\n      pop\n      pop\n      pop\n      pop\n      pop\n      jump\t// out\n        /* \"#utility.yul\":13126:13306   */\n    tag_191:\n        /* \"#utility.yul\":13174:13251   */\n      0x4e487b7100000000000000000000000000000000000000000000000000000000\n        /* \"#utility.yul\":13171:13172   */\n      0x00\n        /* \"#utility.yul\":13164:13252   */\n      mstore\n        /* \"#utility.yul\":13271:13275   */\n      0x11\n        /* \"#utility.yul\":13268:13269   */\n      0x04\n        /* \"#utility.yul\":13261:13276   */\n      mstore\n        /* \"#utility.yul\":13295:13299   */\n      0x24\n        /* \"#utility.yul\":13292:13293   */\n      0x00\n        /* \"#utility.yul\":13285:13300   */\n      revert\n        /* \"#utility.yul\":13312:13503   */\n    tag_92:\n        /* \"#utility.yul\":13352:13355   */\n      0x00\n        /* \"#utility.yul\":13371:13391   */\n      tag_348\n        /* \"#utility.yul\":13389:13390   */\n      dup3\n        /* \"#utility.yul\":13371:13391   */\n      tag_162\n      jump\t// in\n    tag_348:\n        /* \"#utility.yul\":13366:13391   */\n      swap2\n      pop\n        /* \"#utility.yul\":13405:13425   */\n      tag_349\n        /* \"#utility.yul\":13423:13424   */\n      dup4\n        /* \"#utility.yul\":13405:13425   */\n      tag_162\n      jump\t// in\n    tag_349:\n        /* \"#utility.yul\":13400:13425   */\n      swap3\n      pop\n        /* \"#utility.yul\":13448:13449   */\n      dup3\n        /* \"#utility.yul\":13445:13446   */\n      dup3\n        /* \"#utility.yul\":13441:13450   */\n      add\n        /* \"#utility.yul\":13434:13450   */\n      swap1\n      pop\n        /* \"#utility.yul\":13469:13472   */\n      dup1\n        /* \"#utility.yul\":13466:13467   */\n      dup3\n        /* \"#utility.yul\":13463:13473   */\n      gt\n        /* \"#utility.yul\":13460:13496   */\n      iszero\n      tag_350\n      jumpi\n        /* \"#utility.yul\":13476:13494   */\n      tag_351\n      tag_191\n      jump\t// in\n    tag_351:\n        /* \"#utility.yul\":13460:13496   */\n    tag_350:\n        /* \"#utility.yul\":13312:13503   */\n      swap3\n      swap2\n      pop\n      pop\n      jump\t// out\n        /* \"#utility.yul\":13509:13919   */\n    tag_106:\n        /* \"#utility.yul\":13549:13556   */\n      0x00\n        /* \"#utility.yul\":13572:13592   */\n      tag_353\n        /* \"#utility.yul\":13590:13591   */\n      dup3\n        /* \"#utility.yul\":13572:13592   */\n      tag_162\n      jump\t// in\n    tag_353:\n        /* \"#utility.yul\":13567:13592   */\n      swap2\n      pop\n        /* \"#utility.yul\":13606:13626   */\n      tag_354\n        /* \"#utility.yul\":13624:13625   */\n      dup4\n        /* \"#utility.yul\":13606:13626   */\n      tag_162\n      jump\t// in\n    tag_354:\n        /* \"#utility.yul\":13601:13626   */\n      swap3\n      pop\n        /* \"#utility.yul\":13661:13662   */\n      dup3\n        /* \"#utility.yul\":13658:13659   */\n      dup3\n        /* \"#utility.yul\":13654:13663   */\n      mul\n        /* \"#utility.yul\":13683:13713   */\n      tag_355\n        /* \"#utility.yul\":13701:13712   */\n      dup2\n        /* \"#utility.yul\":13683:13713   */\n      tag_162\n      jump\t// in\n    tag_355:\n        /* \"#utility.yul\":13672:13713   */\n      swap2\n      pop\n        /* \"#utility.yul\":13862:13863   */\n      dup3\n        /* \"#utility.yul\":13853:13860   */\n      dup3\n        /* \"#utility.yul\":13849:13864   */\n      div\n        /* \"#utility.yul\":13846:13847   */\n      dup5\n        /* \"#utility.yul\":13843:13865   */\n      eq\n        /* \"#utility.yul\":13823:13824   */\n      dup4\n        /* \"#utility.yul\":13816:13825   */\n      iszero\n        /* \"#utility.yul\":13796:13879   */\n      or\n        /* \"#utility.yul\":13773:13912   */\n      tag_356\n      jumpi\n        /* \"#utility.yul\":13892:13910   */\n      tag_357\n      tag_191\n      jump\t// in\n    tag_357:\n        /* \"#utility.yul\":13773:13912   */\n    tag_356:\n        /* \"#utility.yul\":13557:13919   */\n      pop\n        /* \"#utility.yul\":13509:13919   */\n      swap3\n      swap2\n      pop\n      pop\n      jump\t// out\n        /* \"#utility.yul\":13925:14105   */\n    tag_192:\n        /* \"#utility.yul\":13973:14050   */\n      0x4e487b7100000000000000000000000000000000000000000000000000000000\n        /* \"#utility.yul\":13970:13971   */\n      0x00\n        /* \"#utility.yul\":13963:14051   */\n      mstore\n        /* \"#utility.yul\":14070:14074   */\n      0x12\n        /* \"#utility.yul\":14067:14068   */\n      0x04\n        /* \"#utility.yul\":14060:14075   */\n      mstore\n        /* \"#utility.yul\":14094:14098   */\n      0x24\n        /* \"#utility.yul\":14091:14092   */\n      0x00\n        /* \"#utility.yul\":14084:14099   */\n      revert\n        /* \"#utility.yul\":14111:14296   */\n    tag_109:\n        /* \"#utility.yul\":14151:14152   */\n      0x00\n        /* \"#utility.yul\":14168:14188   */\n      tag_360\n        /* \"#utility.yul\":14186:14187   */\n      dup3\n        /* \"#utility.yul\":14168:14188   */\n      tag_162\n      jump\t// in\n    tag_360:\n        /* \"#utility.yul\":14163:14188   */\n      swap2\n      pop\n        /* \"#utility.yul\":14202:14222   */\n      tag_361\n        /* \"#utility.yul\":14220:14221   */\n      dup4\n        /* \"#utility.yul\":14202:14222   */\n      tag_162\n      jump\t// in\n    tag_361:\n        /* \"#utility.yul\":14197:14222   */\n      swap3\n      pop\n        /* \"#utility.yul\":14241:14242   */\n      dup3\n        /* \"#utility.yul\":14231:14266   */\n      tag_362\n      jumpi\n        /* \"#utility.yul\":14246:14264   */\n      tag_363\n      tag_192\n      jump\t// in\n    tag_363:\n        /* \"#utility.yul\":14231:14266   */\n    tag_362:\n        /* \"#utility.yul\":14288:14289   */\n      dup3\n        /* \"#utility.yul\":14285:14286   */\n      dup3\n        /* \"#utility.yul\":14281:14290   */\n      div\n        /* \"#utility.yul\":14276:14290   */\n      swap1\n      pop\n        /* \"#utility.yul\":14111:14296   */\n      swap3\n      swap2\n      pop\n      pop\n      jump\t// out\n        /* \"#utility.yul\":14302:14535   */\n    tag_111:\n        /* \"#utility.yul\":14341:14344   */\n      0x00\n        /* \"#utility.yul\":14364:14388   */\n      tag_365\n        /* \"#utility.yul\":14382:14387   */\n      dup3\n        /* \"#utility.yul\":14364:14388   */\n      tag_162\n      jump\t// in\n    tag_365:\n        /* \"#utility.yul\":14355:14388   */\n      swap2\n      pop\n        /* \"#utility.yul\":14410:14476   */\n      0xffffffffffffffffffffffffffffffffffffffffffffffffffffffffffffffff\n        /* \"#utility.yul\":14403:14408   */\n      dup3\n        /* \"#utility.yul\":14400:14477   */\n      sub\n        /* \"#utility.yul\":14397:14500   */\n      tag_366\n      jumpi\n        /* \"#utility.yul\":14480:14498   */\n      tag_367\n      tag_191\n      jump\t// in\n    tag_367:\n        /* \"#utility.yul\":14397:14500   */\n    tag_366:\n        /* \"#utility.yul\":14527:14528   */\n      0x01\n        /* \"#utility.yul\":14520:14525   */\n      dup3\n        /* \"#utility.yul\":14516:14529   */\n      add\n        /* \"#utility.yul\":14509:14529   */\n      swap1\n      pop\n        /* \"#utility.yul\":14302:14535   */\n      swap2\n      swap1\n      pop\n      jump\t// out\n        /* \"#utility.yul\":14541:14983   */\n    tag_114:\n        /* \"#utility.yul\":14690:14694   */\n      0x00\n        /* \"#utility.yul\":14728:14730   */\n      0x60\n        /* \"#utility.yul\":14717:14726   */\n      dup3\n        /* \"#utility.yul\":14713:14731   */\n      add\n        /* \"#utility.yul\":14705:14731   */\n      swap1\n      pop\n        /* \"#utility.yul\":14741:14812   */\n      tag_369\n        /* \"#utility.yul\":14809:14810   */\n      0x00\n        /* \"#utility.yul\":14798:14807   */\n      dup4\n        /* \"#utility.yul\":14794:14811   */\n      add\n        /* \"#utility.yul\":14785:14791   */\n      dup7\n        /* \"#utility.yul\":14741:14812   */\n      tag_174\n      jump\t// in\n    tag_369:\n        /* \"#utility.yul\":14822:14894   */\n      tag_370\n        /* \"#utility.yul\":14890:14892   */\n      0x20\n        /* \"#utility.yul\":14879:14888   */\n      dup4\n        /* \"#utility.yul\":14875:14893   */\n      add\n        /* \"#utility.yul\":14866:14872   */\n      dup6\n        /* \"#utility.yul\":14822:14894   */\n      tag_174\n      jump\t// in\n    tag_370:\n        /* \"#utility.yul\":14904:14976   */\n      tag_371\n        /* \"#utility.yul\":14972:14974   */\n      0x40\n        /* \"#utility.yul\":14961:14970   */\n      dup4\n        /* \"#utility.yul\":14957:14975   */\n      add\n        /* \"#utility.yul\":14948:14954   */\n      dup5\n        /* \"#utility.yul\":14904:14976   */\n      tag_181\n      jump\t// in\n    tag_371:\n        /* \"#utility.yul\":14541:14983   */\n      swap5\n      swap4\n      pop\n      pop\n      pop\n      pop\n      jump\t// out\n        /* \"#utility.yul\":14989:15321   */\n    tag_119:\n        /* \"#utility.yul\":15110:15114   */\n      0x00\n        /* \"#utility.yul\":15148:15150   */\n      0x40\n        /* \"#utility.yul\":15137:15146   */\n      dup3\n        /* \"#utility.yul\":15133:15151   */\n      add\n        /* \"#utility.yul\":15125:15151   */\n      swap1\n      pop\n        /* \"#utility.yul\":15161:15232   */\n      tag_373\n        /* \"#utility.yul\":15229:15230   */\n      0x00\n        /* \"#utility.yul\":15218:15227   */\n      dup4\n        /* \"#utility.yul\":15214:15231   */\n      add\n        /* \"#utility.yul\":15205:15211   */\n      dup6\n        /* \"#utility.yul\":15161:15232   */\n      tag_174\n      jump\t// in\n    tag_373:\n        /* \"#utility.yul\":15242:15314   */\n      tag_374\n        /* \"#utility.yul\":15310:15312   */\n      0x20\n        /* \"#utility.yul\":15299:15308   */\n      dup4\n        /* \"#utility.yul\":15295:15313   */\n      add\n        /* \"#utility.yul\":15286:15292   */\n      dup5\n        /* \"#utility.yul\":15242:15314   */\n      tag_181\n      jump\t// in\n    tag_374:\n        /* \"#utility.yul\":14989:15321   */\n      swap4\n      swap3\n      pop\n      pop\n      pop\n      jump\t// out\n        /* \"#utility.yul\":15327:15425   */\n    tag_193:\n        /* \"#utility.yul\":15378:15384   */\n      0x00\n        /* \"#utility.yul\":15412:15417   */\n      dup2\n        /* \"#utility.yul\":15406:15418   */\n      mload\n        /* \"#utility.yul\":15396:15418   */\n      swap1\n      pop\n        /* \"#utility.yul\":15327:15425   */\n      swap2\n      swap1\n      pop\n      jump\t// out\n        /* \"#utility.yul\":15431:15578   */\n    tag_194:\n        /* \"#utility.yul\":15532:15543   */\n      0x00\n        /* \"#utility.yul\":15569:15572   */\n      dup2\n        /* \"#utility.yul\":15554:15572   */\n      swap1\n      pop\n        /* \"#utility.yul\":15431:15578   */\n      swap3\n      swap2\n      pop\n      pop\n      jump\t// out\n        /* \"#utility.yul\":15584:15723   */\n    tag_195:\n        /* \"#utility.yul\":15673:15679   */\n      dup3\n        /* \"#utility.yul\":15668:15671   */\n      dup2\n        /* \"#utility.yul\":15663:15666   */\n      dup4\n        /* \"#utility.yul\":15657:15680   */\n      mcopy\n        /* \"#utility.yul\":15714:15715   */\n      0x00\n        /* \"#utility.yul\":15705:15711   */\n      dup4\n        /* \"#utility.yul\":15700:15703   */\n      dup4\n        /* \"#utility.yul\":15696:15712   */\n      add\n        /* \"#utility.yul\":15689:15716   */\n      mstore\n        /* \"#utility.yul\":15584:15723   */\n      pop\n      pop\n      pop\n      jump\t// out\n        /* \"#utility.yul\":15729:16115   */\n    tag_196:\n        /* \"#utility.yul\":15833:15836   */\n      0x00\n        /* \"#utility.yul\":15861:15899   */\n      tag_379\n        /* \"#utility.yul\":15893:15898   */\n      dup3\n        /* \"#utility.yul\":15861:15899   */\n      tag_193\n      jump\t// in\n    tag_379:\n        /* \"#utility.yul\":15915:16003   */\n      tag_380\n        /* \"#utility.yul\":15996:16002   */\n      dup2\n        /* \"#utility.yul\":15991:15994   */\n      dup6\n        /* \"#utility.yul\":15915:16003   */\n      tag_194\n      jump\t// in\n    tag_380:\n        /* \"#utility.yul\":15908:16003   */\n      swap4\n      pop\n        /* \"#utility.yul\":16012:16077   */\n      tag_381\n        /* \"#utility.yul\":16070:16076   */\n      dup2\n        /* \"#utility.yul\":16065:16068   */\n      dup6\n        /* \"#utility.yul\":16058:16062   */\n      0x20\n        /* \"#utility.yul\":16051:16056   */\n      dup7\n        /* \"#utility.yul\":16047:16063   */\n      add\n        /* \"#utility.yul\":16012:16077   */\n      tag_195\n      jump\t// in\n    tag_381:\n        /* \"#utility.yul\":16102:16108   */\n      dup1\n        /* \"#utility.yul\":16097:16100   */\n      dup5\n        /* \"#utility.yul\":16093:16109   */\n      add\n        /* \"#utility.yul\":16086:16109   */\n      swap2\n      pop\n        /* \"#utility.yul\":15837:16115   */\n      pop\n        /* \"#utility.yul\":15729:16115   */\n      swap3\n      swap2\n      pop\n      pop\n      jump\t// out\n        /* \"#utility.yul\":16121:16392   */\n    tag_151:\n        /* \"#utility.yul\":16251:16254   */\n      0x00\n        /* \"#utility.yul\":16273:16366   */\n      tag_383\n        /* \"#utility.yul\":16362:16365   */\n      dup3\n        /* \"#utility.yul\":16353:16359   */\n      dup5\n        /* \"#utility.yul\":16273:16366   */\n      tag_196\n      jump\t// in\n    tag_383:\n        /* \"#utility.yul\":16266:16366   */\n      swap2\n      pop\n        /* \"#utility.yul\":16383:16386   */\n      dup2\n        /* \"#utility.yul\":16376:16386   */\n      swap1\n      pop\n        /* \"#utility.yul\":16121:16392   */\n      swap3\n      swap2\n      pop\n      pop\n      jump\t// out\n\n    auxdata: 0xa2646970667358221220df524558f1de27f9989d67f6692296577e758617cdad5b7ab4d154768077a42b64736f6c634300081a0033\n}\n",
				"bytecode": {
					"linkReferences": {},
					"object": "610140604052600161012090815250348015610019575f80fd5b506040516127ef3803806127ef833981810160405281019061003b91906103d4565b8573ffffffffffffffffffffffffffffffffffffffff1660808173ffffffffffffffffffffffffffffffffffffffff16815250508460a081815250508373ffffffffffffffffffffffffffffffffffffffff1660e08173ffffffffffffffffffffffffffffffffffffffff16815250506101086100dc846040516020016100c291906104d9565b60405160208183030381529060405261014f60201b60201c565b836040516020016100ee92919061050f565b60405160208183030381529060405261014f60201b60201c565b61010081815250508073ffffffffffffffffffffffffffffffffffffffff1660c08173ffffffffffffffffffffffffffffffffffffffff1681525050505050505050610590565b5f600882604051602001610163919061057a565b604051602081830303815290604052805190602001205f1c901c9050919050565b5f604051905090565b5f80fd5b5f80fd5b5f73ffffffffffffffffffffffffffffffffffffffff82169050919050565b5f6101be82610195565b9050919050565b6101ce816101b4565b81146101d8575f80fd5b50565b5f815190506101e9816101c5565b92915050565b5f819050919050565b610201816101ef565b811461020b575f80fd5b50565b5f8151905061021c816101f8565b92915050565b5f61022c826101b4565b9050919050565b61023c81610222565b8114610246575f80fd5b50565b5f8151905061025781610233565b92915050565b5f80fd5b5f80fd5b5f601f19601f8301169050919050565b7f4e487b71000000000000000000000000000000000000000000000000000000005f52604160045260245ffd5b6102ab82610265565b810181811067ffffffffffffffff821117156102ca576102c9610275565b5b80604052505050565b5f6102dc610184565b90506102e882826102a2565b919050565b5f67ffffffffffffffff82111561030757610306610275565b5b61031082610265565b9050602081019050919050565b8281835e5f83830152505050565b5f61033d610338846102ed565b6102d3565b90508281526020810184848401111561035957610358610261565b5b61036484828561031d565b509392505050565b5f82601f8301126103805761037f61025d565b5b815161039084826020860161032b565b91505092915050565b5f6103a3826101b4565b9050919050565b6103b381610399565b81146103bd575f80fd5b50565b5f815190506103ce816103aa565b92915050565b5f805f805f8060c087890312156103ee576103ed61018d565b5b5f6103fb89828a016101db565b965050602061040c89828a0161020e565b955050604061041d89828a01610249565b945050606087015167ffffffffffffffff81111561043e5761043d610191565b5b61044a89828a0161036c565b935050608087015167ffffffffffffffff81111561046b5761046a610191565b5b61047789828a0161036c565b92505060a061048889828a016103c0565b9150509295509295509295565b5f81519050919050565b5f81905092915050565b5f6104b382610495565b6104bd818561049f565b93506104cd81856020860161031d565b80840191505092915050565b5f6104e482846104a9565b915081905092915050565b5f819050919050565b610509610504826101ef565b6104ef565b82525050565b5f61051a82856104f8565b60208201915061052a82846104a9565b91508190509392505050565b5f81519050919050565b5f81905092915050565b5f61055482610536565b61055e8185610540565b935061056e81856020860161031d565b80840191505092915050565b5f610585828461054a565b915081905092915050565b60805160a05160c05160e05161010051610120516121d96106165f395f818161041d01526108ee01525f8181610467015261093801525f81816103e001526108b101525f818161028d015281816102ca01528181610c8901528181610d36015281816111ac015261125901525f8181610bea01526110e101525f61023601526121d95ff3fe608060405260043610610090575f3560e01c80635ec4a9cd116100585780635ec4a9cd14610164578063747752661461018c578063acc4c198146101a8578063bddbed0b146101d0578063beec50541461020c57610090565b80630b7e9c4414610094578063113406fe146100bc5780632a06ea2d146100e45780634778f7351461010c578063571702a214610128575b5f80fd5b34801561009f575f80fd5b506100ba60048036038101906100b5919061197c565b610234565b005b3480156100c7575f80fd5b506100e260048036038101906100dd9190611a9d565b6103c1565b005b3480156100ef575f80fd5b5061010a60048036038101906101059190611b39565b6103de565b005b61012660048036038101906101219190611bd7565b6108af565b005b348015610133575f80fd5b5061014e60048036038101906101499190611c4f565b610de2565b60405161015b9190611c89565b60405180910390f35b34801561016f575f80fd5b5061018a60048036038101906101859190611c4f565b610e25565b005b6101a660048036038101906101a19190611c4f565b610f72565b005b3480156101b3575f80fd5b506101ce60048036038101906101c99190611ca2565b611300565b005b3480156101db575f80fd5b506101f660048036038101906101f19190611c4f565b6116de565b6040516102039190611c89565b60405180910390f35b348015610217575f80fd5b50610232600480360381019061022d9190611cf2565b611720565b005b7f000000000000000000000000000000000000000000000000000000000000000073ffffffffffffffffffffffffffffffffffffffff163373ffffffffffffffffffffffffffffffffffffffff161461028b575f80fd5b7f000000000000000000000000000000000000000000000000000000000000000073ffffffffffffffffffffffffffffffffffffffff1663a9059cbb827f000000000000000000000000000000000000000000000000000000000000000073ffffffffffffffffffffffffffffffffffffffff166370a08231306040518263ffffffff1660e01b81526004016103219190611d78565b602060405180830381865afa15801561033c573d5f803e3d5ffd5b505050506040513d601f19601f820116820180604052508101906103609190611da5565b6040518363ffffffff1660e01b815260040161037d929190611e3a565b6020604051808303815f875af1158015610399573d5f803e3d5ffd5b505050506040513d601f19601f820116820180604052508101906103bd9190611e96565b5050565b6103ca85610e25565b6103d78582868686611720565b5050505050565b7f000000000000000000000000000000000000000000000000000000000000000073ffffffffffffffffffffffffffffffffffffffff16633bc778e3847f0000000000000000000000000000000000000000000000000000000000000000610464886040516020016104509190611f06565b6040516020818303038152906040526118e9565b867f0000000000000000000000000000000000000000000000000000000000000000876040518763ffffffff1660e01b81526004016104a896959493929190611f3a565b5f6040518083038186803b1580156104be575f80fd5b505afa1580156104d0573d5f803e3d5ffd5b505050505f805f896fffffffffffffffffffffffffffffffff19166fffffffffffffffffffffffffffffffff191681526020019081526020015f206040518060c00160405290815f82015f9054906101000a900460801b6fffffffffffffffffffffffffffffffff19166fffffffffffffffffffffffffffffffff19168152602001600182015481526020016002820154815260200160038201548152602001600482015f9054906101000a900473ffffffffffffffffffffffffffffffffffffffff1673ffffffffffffffffffffffffffffffffffffffff1673ffffffffffffffffffffffffffffffffffffffff168152602001600582015f9054906101000a900473ffffffffffffffffffffffffffffffffffffffff1673ffffffffffffffffffffffffffffffffffffffff1673ffffffffffffffffffffffffffffffffffffffff168152505090505f801b81602001510361062c575f80fd5b5f151560045f8581526020019081526020015f205f835f01516fffffffffffffffffffffffffffffffff19166fffffffffffffffffffffffffffffffff191681526020019081526020015f205f9054906101000a900460ff16151514610690575f80fd5b5f60035f8581526020019081526020015f205f8a6fffffffffffffffffffffffffffffffff19166fffffffffffffffffffffffffffffffff191681526020019081526020015f205460025f3373ffffffffffffffffffffffffffffffffffffffff1673ffffffffffffffffffffffffffffffffffffffff1681526020019081526020015f205f8b6fffffffffffffffffffffffffffffffff19166fffffffffffffffffffffffffffffffff191681526020019081526020015f20546107559190611fc7565b90505f8111610762575f80fd5b600160045f8681526020019081526020015f205f845f01516fffffffffffffffffffffffffffffffff19166fffffffffffffffffffffffffffffffff191681526020019081526020015f205f6101000a81548160ff0219169083151502179055506040518060600160405280896fffffffffffffffffffffffffffffffff191681526020018881526020018a6fffffffffffffffffffffffffffffffff191681525060015f8a6fffffffffffffffffffffffffffffffff19166fffffffffffffffffffffffffffffffff191681526020019081526020015f205f820151815f015f6101000a8154816fffffffffffffffffffffffffffffffff021916908360801c0217905550602082015181600101556040820151816002015f6101000a8154816fffffffffffffffffffffffffffffffff021916908360801c0217905550905050505050505050505050565b7f000000000000000000000000000000000000000000000000000000000000000073ffffffffffffffffffffffffffffffffffffffff16633bc778e3847f0000000000000000000000000000000000000000000000000000000000000000610935886040516020016109219190611f06565b6040516020818303038152906040526118e9565b867f0000000000000000000000000000000000000000000000000000000000000000876040518763ffffffff1660e01b815260040161097996959493929190611f3a565b5f6040518083038186803b15801561098f575f80fd5b505afa1580156109a1573d5f803e3d5ffd5b505050505f805f876fffffffffffffffffffffffffffffffff19166fffffffffffffffffffffffffffffffff191681526020019081526020015f206040518060c00160405290815f82015f9054906101000a900460801b6fffffffffffffffffffffffffffffffff19166fffffffffffffffffffffffffffffffff19168152602001600182015481526020016002820154815260200160038201548152602001600482015f9054906101000a900473ffffffffffffffffffffffffffffffffffffffff1673ffffffffffffffffffffffffffffffffffffffff1673ffffffffffffffffffffffffffffffffffffffff168152602001600582015f9054906101000a900473ffffffffffffffffffffffffffffffffffffffff1673ffffffffffffffffffffffffffffffffffffffff1673ffffffffffffffffffffffffffffffffffffffff168152505090505f801b816020015103610afd575f80fd5b5f60035f8581526020019081526020015f205f886fffffffffffffffffffffffffffffffff19166fffffffffffffffffffffffffffffffff191681526020019081526020015f205460025f3373ffffffffffffffffffffffffffffffffffffffff1673ffffffffffffffffffffffffffffffffffffffff1681526020019081526020015f205f896fffffffffffffffffffffffffffffffff19166fffffffffffffffffffffffffffffffff191681526020019081526020015f2054610bc29190611fc7565b90505f8260600151118015610bda5750816060015181105b610be2575f80fd5b5f61271060647f0000000000000000000000000000000000000000000000000000000000000000610c139190611ffa565b8460400151610c229190611ffa565b610c2c9190612068565b905060035f8681526020019081526020015f205f896fffffffffffffffffffffffffffffffff19166fffffffffffffffffffffffffffffffff191681526020019081526020015f205f8154610c8090612098565b919050819055507f000000000000000000000000000000000000000000000000000000000000000073ffffffffffffffffffffffffffffffffffffffff166323b872dd3330848760400151610cd59190611fc7565b6040518463ffffffff1660e01b8152600401610cf3939291906120df565b6020604051808303815f875af1158015610d0f573d5f803e3d5ffd5b505050506040513d601f19601f82011682018060405250810190610d339190611e96565b507f000000000000000000000000000000000000000000000000000000000000000073ffffffffffffffffffffffffffffffffffffffff1663a9059cbb846080015185604001516040518363ffffffff1660e01b8152600401610d97929190612114565b6020604051808303815f875af1158015610db3573d5f803e3d5ffd5b505050506040513d601f19601f82011682018060405250810190610dd79190611e96565b505050505050505050565b5f60015f836fffffffffffffffffffffffffffffffff19166fffffffffffffffffffffffffffffffff191681526020019081526020015f20600101549050919050565b3373ffffffffffffffffffffffffffffffffffffffff165f80836fffffffffffffffffffffffffffffffff19166fffffffffffffffffffffffffffffffff191681526020019081526020015f206005015f9054906101000a900473ffffffffffffffffffffffffffffffffffffffff1673ffffffffffffffffffffffffffffffffffffffff1614610eb4575f80fd5b5f80826fffffffffffffffffffffffffffffffff19166fffffffffffffffffffffffffffffffff191681526020019081526020015f205f8082015f6101000a8154906fffffffffffffffffffffffffffffffff0219169055600182015f9055600282015f9055600382015f9055600482015f6101000a81549073ffffffffffffffffffffffffffffffffffffffff0219169055600582015f6101000a81549073ffffffffffffffffffffffffffffffffffffffff0219169055505050565b5f805f836fffffffffffffffffffffffffffffffff19166fffffffffffffffffffffffffffffffff191681526020019081526020015f206040518060c00160405290815f82015f9054906101000a900460801b6fffffffffffffffffffffffffffffffff19166fffffffffffffffffffffffffffffffff19168152602001600182015481526020016002820154815260200160038201548152602001600482015f9054906101000a900473ffffffffffffffffffffffffffffffffffffffff1673ffffffffffffffffffffffffffffffffffffffff1673ffffffffffffffffffffffffffffffffffffffff168152602001600582015f9054906101000a900473ffffffffffffffffffffffffffffffffffffffff1673ffffffffffffffffffffffffffffffffffffffff1673ffffffffffffffffffffffffffffffffffffffff168152505090505f801b8160200151036110ca575f80fd5b5f8160600151146110d9575f80fd5b5f61271060647f000000000000000000000000000000000000000000000000000000000000000061110a9190611ffa565b83604001516111199190611ffa565b6111239190612068565b905060025f3373ffffffffffffffffffffffffffffffffffffffff1673ffffffffffffffffffffffffffffffffffffffff1681526020019081526020015f205f846fffffffffffffffffffffffffffffffff19166fffffffffffffffffffffffffffffffff191681526020019081526020015f205f81546111a390612098565b919050819055507f000000000000000000000000000000000000000000000000000000000000000073ffffffffffffffffffffffffffffffffffffffff166323b872dd33308486604001516111f89190611fc7565b6040518463ffffffff1660e01b8152600401611216939291906120df565b6020604051808303815f875af1158015611232573d5f803e3d5ffd5b505050506040513d601f19601f820116820180604052508101906112569190611e96565b507f000000000000000000000000000000000000000000000000000000000000000073ffffffffffffffffffffffffffffffffffffffff1663a9059cbb836080015184604001516040518363ffffffff1660e01b81526004016112ba929190612114565b6020604051808303815f875af11580156112d6573d5f803e3d5ffd5b505050506040513d601f19601f820116820180604052508101906112fa9190611e96565b50505050565b5f805f856fffffffffffffffffffffffffffffffff19166fffffffffffffffffffffffffffffffff191681526020019081526020015f206040518060c00160405290815f82015f9054906101000a900460801b6fffffffffffffffffffffffffffffffff19166fffffffffffffffffffffffffffffffff19168152602001600182015481526020016002820154815260200160038201548152602001600482015f9054906101000a900473ffffffffffffffffffffffffffffffffffffffff1673ffffffffffffffffffffffffffffffffffffffff1673ffffffffffffffffffffffffffffffffffffffff168152602001600582015f9054906101000a900473ffffffffffffffffffffffffffffffffffffffff1673ffffffffffffffffffffffffffffffffffffffff1673ffffffffffffffffffffffffffffffffffffffff168152505090505f801b816020015103611458575f80fd5b5f151560055f3373ffffffffffffffffffffffffffffffffffffffff1673ffffffffffffffffffffffffffffffffffffffff1681526020019081526020015f205f835f01516fffffffffffffffffffffffffffffffff19166fffffffffffffffffffffffffffffffff191681526020019081526020015f205f9054906101000a900460ff161515146114e8575f80fd5b5f60025f3373ffffffffffffffffffffffffffffffffffffffff1673ffffffffffffffffffffffffffffffffffffffff1681526020019081526020015f205f866fffffffffffffffffffffffffffffffff19166fffffffffffffffffffffffffffffffff191681526020019081526020015f205490505f8111611569575f80fd5b600160055f3373ffffffffffffffffffffffffffffffffffffffff1673ffffffffffffffffffffffffffffffffffffffff1681526020019081526020015f205f845f01516fffffffffffffffffffffffffffffffff19166fffffffffffffffffffffffffffffffff191681526020019081526020015f205f6101000a81548160ff0219169083151502179055506040518060600160405280856fffffffffffffffffffffffffffffffff19168152602001848152602001866fffffffffffffffffffffffffffffffff191681525060015f866fffffffffffffffffffffffffffffffff19166fffffffffffffffffffffffffffffffff191681526020019081526020015f205f820151815f015f6101000a8154816fffffffffffffffffffffffffffffffff021916908360801c0217905550602082015181600101556040820151816002015f6101000a8154816fffffffffffffffffffffffffffffffff021916908360801c02179055509050505050505050565b5f805f836fffffffffffffffffffffffffffffffff19166fffffffffffffffffffffffffffffffff191681526020019081526020015f20600101549050919050565b5f801b5f80876fffffffffffffffffffffffffffffffff19166fffffffffffffffffffffffffffffffff191681526020019081526020015f206001015414611766575f80fd5b6040518060c00160405280866fffffffffffffffffffffffffffffffff191681526020018581526020018481526020018381526020018273ffffffffffffffffffffffffffffffffffffffff1681526020013373ffffffffffffffffffffffffffffffffffffffff168152505f80876fffffffffffffffffffffffffffffffff19166fffffffffffffffffffffffffffffffff191681526020019081526020015f205f820151815f015f6101000a8154816fffffffffffffffffffffffffffffffff021916908360801c02179055506020820151816001015560408201518160020155606082015181600301556080820151816004015f6101000a81548173ffffffffffffffffffffffffffffffffffffffff021916908373ffffffffffffffffffffffffffffffffffffffff16021790555060a0820151816005015f6101000a81548173ffffffffffffffffffffffffffffffffffffffff021916908373ffffffffffffffffffffffffffffffffffffffff1602179055509050505050505050565b5f6008826040516020016118fd919061218d565b604051602081830303815290604052805190602001205f1c901c9050919050565b5f80fd5b5f73ffffffffffffffffffffffffffffffffffffffff82169050919050565b5f61194b82611922565b9050919050565b61195b81611941565b8114611965575f80fd5b50565b5f8135905061197681611952565b92915050565b5f602082840312156119915761199061191e565b5b5f61199e84828501611968565b91505092915050565b5f7fffffffffffffffffffffffffffffffff0000000000000000000000000000000082169050919050565b6119db816119a7565b81146119e5575f80fd5b50565b5f813590506119f6816119d2565b92915050565b5f819050919050565b611a0e816119fc565b8114611a18575f80fd5b50565b5f81359050611a2981611a05565b92915050565b5f611a3982611922565b9050919050565b611a4981611a2f565b8114611a53575f80fd5b50565b5f81359050611a6481611a40565b92915050565b5f819050919050565b611a7c81611a6a565b8114611a86575f80fd5b50565b5f81359050611a9781611a73565b92915050565b5f805f805f60a08688031215611ab657611ab561191e565b5b5f611ac3888289016119e8565b9550506020611ad488828901611a1b565b9450506040611ae588828901611a1b565b9350506060611af688828901611a56565b9250506080611b0788828901611a89565b9150509295509295909350565b5f80fd5b5f81905082602060080282011115611b3357611b32611b14565b5b92915050565b5f805f805f805f6101c0888a031215611b5557611b5461191e565b5b5f611b628a828b016119e8565b9750506020611b738a828b016119e8565b9650506040611b848a828b01611a89565b9550506060611b958a828b01611a56565b9450506080611ba68a828b01611a1b565b93505060a0611bb78a828b01611a1b565b92505060c0611bc88a828b01611b18565b91505092959891949750929550565b5f805f805f6101808688031215611bf157611bf061191e565b5b5f611bfe888289016119e8565b9550506020611c0f88828901611a56565b9450506040611c2088828901611a1b565b9350506060611c3188828901611a1b565b9250506080611c4288828901611b18565b9150509295509295909350565b5f60208284031215611c6457611c6361191e565b5b5f611c71848285016119e8565b91505092915050565b611c8381611a6a565b82525050565b5f602082019050611c9c5f830184611c7a565b92915050565b5f805f60608486031215611cb957611cb861191e565b5b5f611cc6868287016119e8565b9350506020611cd7868287016119e8565b9250506040611ce886828701611a89565b9150509250925092565b5f805f805f60a08688031215611d0b57611d0a61191e565b5b5f611d18888289016119e8565b9550506020611d2988828901611a89565b9450506040611d3a88828901611a1b565b9350506060611d4b88828901611a1b565b9250506080611d5c88828901611a56565b9150509295509295909350565b611d7281611a2f565b82525050565b5f602082019050611d8b5f830184611d69565b92915050565b5f81519050611d9f81611a05565b92915050565b5f60208284031215611dba57611db961191e565b5b5f611dc784828501611d91565b91505092915050565b5f819050919050565b5f611df3611dee611de984611922565b611dd0565b611922565b9050919050565b5f611e0482611dd9565b9050919050565b5f611e1582611dfa565b9050919050565b611e2581611e0b565b82525050565b611e34816119fc565b82525050565b5f604082019050611e4d5f830185611e1c565b611e5a6020830184611e2b565b9392505050565b5f8115159050919050565b611e7581611e61565b8114611e7f575f80fd5b50565b5f81519050611e9081611e6c565b92915050565b5f60208284031215611eab57611eaa61191e565b5b5f611eb884828501611e82565b91505092915050565b5f8160601b9050919050565b5f611ed782611ec1565b9050919050565b5f611ee882611ecd565b9050919050565b611f00611efb82611a2f565b611ede565b82525050565b5f611f118284611eef565b60148201915081905092915050565b82818337505050565b611f366101008383611f20565b5050565b5f6101a082019050611f4e5f830189611e2b565b611f5b6020830188611e2b565b611f686040830187611e2b565b611f756060830186611e2b565b611f826080830185611e2b565b611f8f60a0830184611f29565b979650505050505050565b7f4e487b71000000000000000000000000000000000000000000000000000000005f52601160045260245ffd5b5f611fd1826119fc565b9150611fdc836119fc565b9250828201905080821115611ff457611ff3611f9a565b5b92915050565b5f612004826119fc565b915061200f836119fc565b925082820261201d816119fc565b9150828204841483151761203457612033611f9a565b5b5092915050565b7f4e487b71000000000000000000000000000000000000000000000000000000005f52601260045260245ffd5b5f612072826119fc565b915061207d836119fc565b92508261208d5761208c61203b565b5b828204905092915050565b5f6120a2826119fc565b91507fffffffffffffffffffffffffffffffffffffffffffffffffffffffffffffffff82036120d4576120d3611f9a565b5b600182019050919050565b5f6060820190506120f25f830186611d69565b6120ff6020830185611d69565b61210c6040830184611e2b565b949350505050565b5f6040820190506121275f830185611d69565b6121346020830184611e2b565b9392505050565b5f81519050919050565b5f81905092915050565b8281835e5f83830152505050565b5f6121678261213b565b6121718185612145565b935061218181856020860161214f565b80840191505092915050565b5f612198828461215d565b91508190509291505056fea2646970667358221220df524558f1de27f9989d67f6692296577e758617cdad5b7ab4d154768077a42b64736f6c634300081a0033",
					"opcodes": "PUSH2 0x140 PUSH1 0x40 MSTORE PUSH1 0x1 PUSH2 0x120 SWAP1 DUP2 MSTORE POP CALLVALUE DUP1 ISZERO PUSH2 0x19 JUMPI PUSH0 DUP1 REVERT JUMPDEST POP PUSH1 0x40 MLOAD PUSH2 0x27EF CODESIZE SUB DUP1 PUSH2 0x27EF DUP4 CODECOPY DUP2 DUP2 ADD PUSH1 0x40 MSTORE DUP2 ADD SWAP1 PUSH2 0x3B SWAP2 SWAP1 PUSH2 0x3D4 JUMP JUMPDEST DUP6 PUSH20 0xFFFFFFFFFFFFFFFFFFFFFFFFFFFFFFFFFFFFFFFF AND PUSH1 0x80 DUP2 PUSH20 0xFFFFFFFFFFFFFFFFFFFFFFFFFFFFFFFFFFFFFFFF AND DUP2 MSTORE POP POP DUP5 PUSH1 0xA0 DUP2 DUP2 MSTORE POP POP DUP4 PUSH20 0xFFFFFFFFFFFFFFFFFFFFFFFFFFFFFFFFFFFFFFFF AND PUSH1 0xE0 DUP2 PUSH20 0xFFFFFFFFFFFFFFFFFFFFFFFFFFFFFFFFFFFFFFFF AND DUP2 MSTORE POP POP PUSH2 0x108 PUSH2 0xDC DUP5 PUSH1 0x40 MLOAD PUSH1 0x20 ADD PUSH2 0xC2 SWAP2 SWAP1 PUSH2 0x4D9 JUMP JUMPDEST PUSH1 0x40 MLOAD PUSH1 0x20 DUP2 DUP4 SUB SUB DUP2 MSTORE SWAP1 PUSH1 0x40 MSTORE PUSH2 0x14F PUSH1 0x20 SHL PUSH1 0x20 SHR JUMP JUMPDEST DUP4 PUSH1 0x40 MLOAD PUSH1 0x20 ADD PUSH2 0xEE SWAP3 SWAP2 SWAP1 PUSH2 0x50F JUMP JUMPDEST PUSH1 0x40 MLOAD PUSH1 0x20 DUP2 DUP4 SUB SUB DUP2 MSTORE SWAP1 PUSH1 0x40 MSTORE PUSH2 0x14F PUSH1 0x20 SHL PUSH1 0x20 SHR JUMP JUMPDEST PUSH2 0x100 DUP2 DUP2 MSTORE POP POP DUP1 PUSH20 0xFFFFFFFFFFFFFFFFFFFFFFFFFFFFFFFFFFFFFFFF AND PUSH1 0xC0 DUP2 PUSH20 0xFFFFFFFFFFFFFFFFFFFFFFFFFFFFFFFFFFFFFFFF AND DUP2 MSTORE POP POP POP POP POP POP POP POP PUSH2 0x590 JUMP JUMPDEST PUSH0 PUSH1 0x8 DUP3 PUSH1 0x40 MLOAD PUSH1 0x20 ADD PUSH2 0x163 SWAP2 SWAP1 PUSH2 0x57A JUMP JUMPDEST PUSH1 0x40 MLOAD PUSH1 0x20 DUP2 DUP4 SUB SUB DUP2 MSTORE SWAP1 PUSH1 0x40 MSTORE DUP1 MLOAD SWAP1 PUSH1 0x20 ADD KECCAK256 PUSH0 SHR SWAP1 SHR SWAP1 POP SWAP2 SWAP1 POP JUMP JUMPDEST PUSH0 PUSH1 0x40 MLOAD SWAP1 POP SWAP1 JUMP JUMPDEST PUSH0 DUP1 REVERT JUMPDEST PUSH0 DUP1 REVERT JUMPDEST PUSH0 PUSH20 0xFFFFFFFFFFFFFFFFFFFFFFFFFFFFFFFFFFFFFFFF DUP3 AND SWAP1 POP SWAP2 SWAP1 POP JUMP JUMPDEST PUSH0 PUSH2 0x1BE DUP3 PUSH2 0x195 JUMP JUMPDEST SWAP1 POP SWAP2 SWAP1 POP JUMP JUMPDEST PUSH2 0x1CE DUP2 PUSH2 0x1B4 JUMP JUMPDEST DUP2 EQ PUSH2 0x1D8 JUMPI PUSH0 DUP1 REVERT JUMPDEST POP JUMP JUMPDEST PUSH0 DUP2 MLOAD SWAP1 POP PUSH2 0x1E9 DUP2 PUSH2 0x1C5 JUMP JUMPDEST SWAP3 SWAP2 POP POP JUMP JUMPDEST PUSH0 DUP2 SWAP1 POP SWAP2 SWAP1 POP JUMP JUMPDEST PUSH2 0x201 DUP2 PUSH2 0x1EF JUMP JUMPDEST DUP2 EQ PUSH2 0x20B JUMPI PUSH0 DUP1 REVERT JUMPDEST POP JUMP JUMPDEST PUSH0 DUP2 MLOAD SWAP1 POP PUSH2 0x21C DUP2 PUSH2 0x1F8 JUMP JUMPDEST SWAP3 SWAP2 POP POP JUMP JUMPDEST PUSH0 PUSH2 0x22C DUP3 PUSH2 0x1B4 JUMP JUMPDEST SWAP1 POP SWAP2 SWAP1 POP JUMP JUMPDEST PUSH2 0x23C DUP2 PUSH2 0x222 JUMP JUMPDEST DUP2 EQ PUSH2 0x246 JUMPI PUSH0 DUP1 REVERT JUMPDEST POP JUMP JUMPDEST PUSH0 DUP2 MLOAD SWAP1 POP PUSH2 0x257 DUP2 PUSH2 0x233 JUMP JUMPDEST SWAP3 SWAP2 POP POP JUMP JUMPDEST PUSH0 DUP1 REVERT JUMPDEST PUSH0 DUP1 REVERT JUMPDEST PUSH0 PUSH1 0x1F NOT PUSH1 0x1F DUP4 ADD AND SWAP1 POP SWAP2 SWAP1 POP JUMP JUMPDEST PUSH32 0x4E487B7100000000000000000000000000000000000000000000000000000000 PUSH0 MSTORE PUSH1 0x41 PUSH1 0x4 MSTORE PUSH1 0x24 PUSH0 REVERT JUMPDEST PUSH2 0x2AB DUP3 PUSH2 0x265 JUMP JUMPDEST DUP2 ADD DUP2 DUP2 LT PUSH8 0xFFFFFFFFFFFFFFFF DUP3 GT OR ISZERO PUSH2 0x2CA JUMPI PUSH2 0x2C9 PUSH2 0x275 JUMP JUMPDEST JUMPDEST DUP1 PUSH1 0x40 MSTORE POP POP POP JUMP JUMPDEST PUSH0 PUSH2 0x2DC PUSH2 0x184 JUMP JUMPDEST SWAP1 POP PUSH2 0x2E8 DUP3 DUP3 PUSH2 0x2A2 JUMP JUMPDEST SWAP2 SWAP1 POP JUMP JUMPDEST PUSH0 PUSH8 0xFFFFFFFFFFFFFFFF DUP3 GT ISZERO PUSH2 0x307 JUMPI PUSH2 0x306 PUSH2 0x275 JUMP JUMPDEST JUMPDEST PUSH2 0x310 DUP3 PUSH2 0x265 JUMP JUMPDEST SWAP1 POP PUSH1 0x20 DUP2 ADD SWAP1 POP SWAP2 SWAP1 POP JUMP JUMPDEST DUP3 DUP2 DUP4 MCOPY PUSH0 DUP4 DUP4 ADD MSTORE POP POP POP JUMP JUMPDEST PUSH0 PUSH2 0x33D PUSH2 0x338 DUP5 PUSH2 0x2ED JUMP JUMPDEST PUSH2 0x2D3 JUMP JUMPDEST SWAP1 POP DUP3 DUP2 MSTORE PUSH1 0x20 DUP2 ADD DUP5 DUP5 DUP5 ADD GT ISZERO PUSH2 0x359 JUMPI PUSH2 0x358 PUSH2 0x261 JUMP JUMPDEST JUMPDEST PUSH2 0x364 DUP5 DUP3 DUP6 PUSH2 0x31D JUMP JUMPDEST POP SWAP4 SWAP3 POP POP POP JUMP JUMPDEST PUSH0 DUP3 PUSH1 0x1F DUP4 ADD SLT PUSH2 0x380 JUMPI PUSH2 0x37F PUSH2 0x25D JUMP JUMPDEST JUMPDEST DUP2 MLOAD PUSH2 0x390 DUP5 DUP3 PUSH1 0x20 DUP7 ADD PUSH2 0x32B JUMP JUMPDEST SWAP2 POP POP SWAP3 SWAP2 POP POP JUMP JUMPDEST PUSH0 PUSH2 0x3A3 DUP3 PUSH2 0x1B4 JUMP JUMPDEST SWAP1 POP SWAP2 SWAP1 POP JUMP JUMPDEST PUSH2 0x3B3 DUP2 PUSH2 0x399 JUMP JUMPDEST DUP2 EQ PUSH2 0x3BD JUMPI PUSH0 DUP1 REVERT JUMPDEST POP JUMP JUMPDEST PUSH0 DUP2 MLOAD SWAP1 POP PUSH2 0x3CE DUP2 PUSH2 0x3AA JUMP JUMPDEST SWAP3 SWAP2 POP POP JUMP JUMPDEST PUSH0 DUP1 PUSH0 DUP1 PUSH0 DUP1 PUSH1 0xC0 DUP8 DUP10 SUB SLT ISZERO PUSH2 0x3EE JUMPI PUSH2 0x3ED PUSH2 0x18D JUMP JUMPDEST JUMPDEST PUSH0 PUSH2 0x3FB DUP10 DUP3 DUP11 ADD PUSH2 0x1DB JUMP JUMPDEST SWAP7 POP POP PUSH1 0x20 PUSH2 0x40C DUP10 DUP3 DUP11 ADD PUSH2 0x20E JUMP JUMPDEST SWAP6 POP POP PUSH1 0x40 PUSH2 0x41D DUP10 DUP3 DUP11 ADD PUSH2 0x249 JUMP JUMPDEST SWAP5 POP POP PUSH1 0x60 DUP8 ADD MLOAD PUSH8 0xFFFFFFFFFFFFFFFF DUP2 GT ISZERO PUSH2 0x43E JUMPI PUSH2 0x43D PUSH2 0x191 JUMP JUMPDEST JUMPDEST PUSH2 0x44A DUP10 DUP3 DUP11 ADD PUSH2 0x36C JUMP JUMPDEST SWAP4 POP POP PUSH1 0x80 DUP8 ADD MLOAD PUSH8 0xFFFFFFFFFFFFFFFF DUP2 GT ISZERO PUSH2 0x46B JUMPI PUSH2 0x46A PUSH2 0x191 JUMP JUMPDEST JUMPDEST PUSH2 0x477 DUP10 DUP3 DUP11 ADD PUSH2 0x36C JUMP JUMPDEST SWAP3 POP POP PUSH1 0xA0 PUSH2 0x488 DUP10 DUP3 DUP11 ADD PUSH2 0x3C0 JUMP JUMPDEST SWAP2 POP POP SWAP3 SWAP6 POP SWAP3 SWAP6 POP SWAP3 SWAP6 JUMP JUMPDEST PUSH0 DUP2 MLOAD SWAP1 POP SWAP2 SWAP1 POP JUMP JUMPDEST PUSH0 DUP2 SWAP1 POP SWAP3 SWAP2 POP POP JUMP JUMPDEST PUSH0 PUSH2 0x4B3 DUP3 PUSH2 0x495 JUMP JUMPDEST PUSH2 0x4BD DUP2 DUP6 PUSH2 0x49F JUMP JUMPDEST SWAP4 POP PUSH2 0x4CD DUP2 DUP6 PUSH1 0x20 DUP7 ADD PUSH2 0x31D JUMP JUMPDEST DUP1 DUP5 ADD SWAP2 POP POP SWAP3 SWAP2 POP POP JUMP JUMPDEST PUSH0 PUSH2 0x4E4 DUP3 DUP5 PUSH2 0x4A9 JUMP JUMPDEST SWAP2 POP DUP2 SWAP1 POP SWAP3 SWAP2 POP POP JUMP JUMPDEST PUSH0 DUP2 SWAP1 POP SWAP2 SWAP1 POP JUMP JUMPDEST PUSH2 0x509 PUSH2 0x504 DUP3 PUSH2 0x1EF JUMP JUMPDEST PUSH2 0x4EF JUMP JUMPDEST DUP3 MSTORE POP POP JUMP JUMPDEST PUSH0 PUSH2 0x51A DUP3 DUP6 PUSH2 0x4F8 JUMP JUMPDEST PUSH1 0x20 DUP3 ADD SWAP2 POP PUSH2 0x52A DUP3 DUP5 PUSH2 0x4A9 JUMP JUMPDEST SWAP2 POP DUP2 SWAP1 POP SWAP4 SWAP3 POP POP POP JUMP JUMPDEST PUSH0 DUP2 MLOAD SWAP1 POP SWAP2 SWAP1 POP JUMP JUMPDEST PUSH0 DUP2 SWAP1 POP SWAP3 SWAP2 POP POP JUMP JUMPDEST PUSH0 PUSH2 0x554 DUP3 PUSH2 0x536 JUMP JUMPDEST PUSH2 0x55E DUP2 DUP6 PUSH2 0x540 JUMP JUMPDEST SWAP4 POP PUSH2 0x56E DUP2 DUP6 PUSH1 0x20 DUP7 ADD PUSH2 0x31D JUMP JUMPDEST DUP1 DUP5 ADD SWAP2 POP POP SWAP3 SWAP2 POP POP JUMP JUMPDEST PUSH0 PUSH2 0x585 DUP3 DUP5 PUSH2 0x54A JUMP JUMPDEST SWAP2 POP DUP2 SWAP1 POP SWAP3 SWAP2 POP POP JUMP JUMPDEST PUSH1 0x80 MLOAD PUSH1 0xA0 MLOAD PUSH1 0xC0 MLOAD PUSH1 0xE0 MLOAD PUSH2 0x100 MLOAD PUSH2 0x120 MLOAD PUSH2 0x21D9 PUSH2 0x616 PUSH0 CODECOPY PUSH0 DUP2 DUP2 PUSH2 0x41D ADD MSTORE PUSH2 0x8EE ADD MSTORE PUSH0 DUP2 DUP2 PUSH2 0x467 ADD MSTORE PUSH2 0x938 ADD MSTORE PUSH0 DUP2 DUP2 PUSH2 0x3E0 ADD MSTORE PUSH2 0x8B1 ADD MSTORE PUSH0 DUP2 DUP2 PUSH2 0x28D ADD MSTORE DUP2 DUP2 PUSH2 0x2CA ADD MSTORE DUP2 DUP2 PUSH2 0xC89 ADD MSTORE DUP2 DUP2 PUSH2 0xD36 ADD MSTORE DUP2 DUP2 PUSH2 0x11AC ADD MSTORE PUSH2 0x1259 ADD MSTORE PUSH0 DUP2 DUP2 PUSH2 0xBEA ADD MSTORE PUSH2 0x10E1 ADD MSTORE PUSH0 PUSH2 0x236 ADD MSTORE PUSH2 0x21D9 PUSH0 RETURN INVALID PUSH1 0x80 PUSH1 0x40 MSTORE PUSH1 0x4 CALLDATASIZE LT PUSH2 0x90 JUMPI PUSH0 CALLDATALOAD PUSH1 0xE0 SHR DUP1 PUSH4 0x5EC4A9CD GT PUSH2 0x58 JUMPI DUP1 PUSH4 0x5EC4A9CD EQ PUSH2 0x164 JUMPI DUP1 PUSH4 0x74775266 EQ PUSH2 0x18C JUMPI DUP1 PUSH4 0xACC4C198 EQ PUSH2 0x1A8 JUMPI DUP1 PUSH4 0xBDDBED0B EQ PUSH2 0x1D0 JUMPI DUP1 PUSH4 0xBEEC5054 EQ PUSH2 0x20C JUMPI PUSH2 0x90 JUMP JUMPDEST DUP1 PUSH4 0xB7E9C44 EQ PUSH2 0x94 JUMPI DUP1 PUSH4 0x113406FE EQ PUSH2 0xBC JUMPI DUP1 PUSH4 0x2A06EA2D EQ PUSH2 0xE4 JUMPI DUP1 PUSH4 0x4778F735 EQ PUSH2 0x10C JUMPI DUP1 PUSH4 0x571702A2 EQ PUSH2 0x128 JUMPI JUMPDEST PUSH0 DUP1 REVERT JUMPDEST CALLVALUE DUP1 ISZERO PUSH2 0x9F JUMPI PUSH0 DUP1 REVERT JUMPDEST POP PUSH2 0xBA PUSH1 0x4 DUP1 CALLDATASIZE SUB DUP2 ADD SWAP1 PUSH2 0xB5 SWAP2 SWAP1 PUSH2 0x197C JUMP JUMPDEST PUSH2 0x234 JUMP JUMPDEST STOP JUMPDEST CALLVALUE DUP1 ISZERO PUSH2 0xC7 JUMPI PUSH0 DUP1 REVERT JUMPDEST POP PUSH2 0xE2 PUSH1 0x4 DUP1 CALLDATASIZE SUB DUP2 ADD SWAP1 PUSH2 0xDD SWAP2 SWAP1 PUSH2 0x1A9D JUMP JUMPDEST PUSH2 0x3C1 JUMP JUMPDEST STOP JUMPDEST CALLVALUE DUP1 ISZERO PUSH2 0xEF JUMPI PUSH0 DUP1 REVERT JUMPDEST POP PUSH2 0x10A PUSH1 0x4 DUP1 CALLDATASIZE SUB DUP2 ADD SWAP1 PUSH2 0x105 SWAP2 SWAP1 PUSH2 0x1B39 JUMP JUMPDEST PUSH2 0x3DE JUMP JUMPDEST STOP JUMPDEST PUSH2 0x126 PUSH1 0x4 DUP1 CALLDATASIZE SUB DUP2 ADD SWAP1 PUSH2 0x121 SWAP2 SWAP1 PUSH2 0x1BD7 JUMP JUMPDEST PUSH2 0x8AF JUMP JUMPDEST STOP JUMPDEST CALLVALUE DUP1 ISZERO PUSH2 0x133 JUMPI PUSH0 DUP1 REVERT JUMPDEST POP PUSH2 0x14E PUSH1 0x4 DUP1 CALLDATASIZE SUB DUP2 ADD SWAP1 PUSH2 0x149 SWAP2 SWAP1 PUSH2 0x1C4F JUMP JUMPDEST PUSH2 0xDE2 JUMP JUMPDEST PUSH1 0x40 MLOAD PUSH2 0x15B SWAP2 SWAP1 PUSH2 0x1C89 JUMP JUMPDEST PUSH1 0x40 MLOAD DUP1 SWAP2 SUB SWAP1 RETURN JUMPDEST CALLVALUE DUP1 ISZERO PUSH2 0x16F JUMPI PUSH0 DUP1 REVERT JUMPDEST POP PUSH2 0x18A PUSH1 0x4 DUP1 CALLDATASIZE SUB DUP2 ADD SWAP1 PUSH2 0x185 SWAP2 SWAP1 PUSH2 0x1C4F JUMP JUMPDEST PUSH2 0xE25 JUMP JUMPDEST STOP JUMPDEST PUSH2 0x1A6 PUSH1 0x4 DUP1 CALLDATASIZE SUB DUP2 ADD SWAP1 PUSH2 0x1A1 SWAP2 SWAP1 PUSH2 0x1C4F JUMP JUMPDEST PUSH2 0xF72 JUMP JUMPDEST STOP JUMPDEST CALLVALUE DUP1 ISZERO PUSH2 0x1B3 JUMPI PUSH0 DUP1 REVERT JUMPDEST POP PUSH2 0x1CE PUSH1 0x4 DUP1 CALLDATASIZE SUB DUP2 ADD SWAP1 PUSH2 0x1C9 SWAP2 SWAP1 PUSH2 0x1CA2 JUMP JUMPDEST PUSH2 0x1300 JUMP JUMPDEST STOP JUMPDEST CALLVALUE DUP1 ISZERO PUSH2 0x1DB JUMPI PUSH0 DUP1 REVERT JUMPDEST POP PUSH2 0x1F6 PUSH1 0x4 DUP1 CALLDATASIZE SUB DUP2 ADD SWAP1 PUSH2 0x1F1 SWAP2 SWAP1 PUSH2 0x1C4F JUMP JUMPDEST PUSH2 0x16DE JUMP JUMPDEST PUSH1 0x40 MLOAD PUSH2 0x203 SWAP2 SWAP1 PUSH2 0x1C89 JUMP JUMPDEST PUSH1 0x40 MLOAD DUP1 SWAP2 SUB SWAP1 RETURN JUMPDEST CALLVALUE DUP1 ISZERO PUSH2 0x217 JUMPI PUSH0 DUP1 REVERT JUMPDEST POP PUSH2 0x232 PUSH1 0x4 DUP1 CALLDATASIZE SUB DUP2 ADD SWAP1 PUSH2 0x22D SWAP2 SWAP1 PUSH2 0x1CF2 JUMP JUMPDEST PUSH2 0x1720 JUMP JUMPDEST STOP JUMPDEST PUSH32 0x0 PUSH20 0xFFFFFFFFFFFFFFFFFFFFFFFFFFFFFFFFFFFFFFFF AND CALLER PUSH20 0xFFFFFFFFFFFFFFFFFFFFFFFFFFFFFFFFFFFFFFFF AND EQ PUSH2 0x28B JUMPI PUSH0 DUP1 REVERT JUMPDEST PUSH32 0x0 PUSH20 0xFFFFFFFFFFFFFFFFFFFFFFFFFFFFFFFFFFFFFFFF AND PUSH4 0xA9059CBB DUP3 PUSH32 0x0 PUSH20 0xFFFFFFFFFFFFFFFFFFFFFFFFFFFFFFFFFFFFFFFF AND PUSH4 0x70A08231 ADDRESS PUSH1 0x40 MLOAD DUP3 PUSH4 0xFFFFFFFF AND PUSH1 0xE0 SHL DUP2 MSTORE PUSH1 0x4 ADD PUSH2 0x321 SWAP2 SWAP1 PUSH2 0x1D78 JUMP JUMPDEST PUSH1 0x20 PUSH1 0x40 MLOAD DUP1 DUP4 SUB DUP2 DUP7 GAS STATICCALL ISZERO DUP1 ISZERO PUSH2 0x33C JUMPI RETURNDATASIZE PUSH0 DUP1 RETURNDATACOPY RETURNDATASIZE PUSH0 REVERT JUMPDEST POP POP POP POP PUSH1 0x40 MLOAD RETURNDATASIZE PUSH1 0x1F NOT PUSH1 0x1F DUP3 ADD AND DUP3 ADD DUP1 PUSH1 0x40 MSTORE POP DUP2 ADD SWAP1 PUSH2 0x360 SWAP2 SWAP1 PUSH2 0x1DA5 JUMP JUMPDEST PUSH1 0x40 MLOAD DUP4 PUSH4 0xFFFFFFFF AND PUSH1 0xE0 SHL DUP2 MSTORE PUSH1 0x4 ADD PUSH2 0x37D SWAP3 SWAP2 SWAP1 PUSH2 0x1E3A JUMP JUMPDEST PUSH1 0x20 PUSH1 0x40 MLOAD DUP1 DUP4 SUB DUP2 PUSH0 DUP8 GAS CALL ISZERO DUP1 ISZERO PUSH2 0x399 JUMPI RETURNDATASIZE PUSH0 DUP1 RETURNDATACOPY RETURNDATASIZE PUSH0 REVERT JUMPDEST POP POP POP POP PUSH1 0x40 MLOAD RETURNDATASIZE PUSH1 0x1F NOT PUSH1 0x1F DUP3 ADD AND DUP3 ADD DUP1 PUSH1 0x40 MSTORE POP DUP2 ADD SWAP1 PUSH2 0x3BD SWAP2 SWAP1 PUSH2 0x1E96 JUMP JUMPDEST POP POP JUMP JUMPDEST PUSH2 0x3CA DUP6 PUSH2 0xE25 JUMP JUMPDEST PUSH2 0x3D7 DUP6 DUP3 DUP7 DUP7 DUP7 PUSH2 0x1720 JUMP JUMPDEST POP POP POP POP POP JUMP JUMPDEST PUSH32 0x0 PUSH20 0xFFFFFFFFFFFFFFFFFFFFFFFFFFFFFFFFFFFFFFFF AND PUSH4 0x3BC778E3 DUP5 PUSH32 0x0 PUSH2 0x464 DUP9 PUSH1 0x40 MLOAD PUSH1 0x20 ADD PUSH2 0x450 SWAP2 SWAP1 PUSH2 0x1F06 JUMP JUMPDEST PUSH1 0x40 MLOAD PUSH1 0x20 DUP2 DUP4 SUB SUB DUP2 MSTORE SWAP1 PUSH1 0x40 MSTORE PUSH2 0x18E9 JUMP JUMPDEST DUP7 PUSH32 0x0 DUP8 PUSH1 0x40 MLOAD DUP8 PUSH4 0xFFFFFFFF AND PUSH1 0xE0 SHL DUP2 MSTORE PUSH1 0x4 ADD PUSH2 0x4A8 SWAP7 SWAP6 SWAP5 SWAP4 SWAP3 SWAP2 SWAP1 PUSH2 0x1F3A JUMP JUMPDEST PUSH0 PUSH1 0x40 MLOAD DUP1 DUP4 SUB DUP2 DUP7 DUP1 EXTCODESIZE ISZERO DUP1 ISZERO PUSH2 0x4BE JUMPI PUSH0 DUP1 REVERT JUMPDEST POP GAS STATICCALL ISZERO DUP1 ISZERO PUSH2 0x4D0 JUMPI RETURNDATASIZE PUSH0 DUP1 RETURNDATACOPY RETURNDATASIZE PUSH0 REVERT JUMPDEST POP POP POP POP PUSH0 DUP1 PUSH0 DUP10 PUSH16 0xFFFFFFFFFFFFFFFFFFFFFFFFFFFFFFFF NOT AND PUSH16 0xFFFFFFFFFFFFFFFFFFFFFFFFFFFFFFFF NOT AND DUP2 MSTORE PUSH1 0x20 ADD SWAP1 DUP2 MSTORE PUSH1 0x20 ADD PUSH0 KECCAK256 PUSH1 0x40 MLOAD DUP1 PUSH1 0xC0 ADD PUSH1 0x40 MSTORE SWAP1 DUP2 PUSH0 DUP3 ADD PUSH0 SWAP1 SLOAD SWAP1 PUSH2 0x100 EXP SWAP1 DIV PUSH1 0x80 SHL PUSH16 0xFFFFFFFFFFFFFFFFFFFFFFFFFFFFFFFF NOT AND PUSH16 0xFFFFFFFFFFFFFFFFFFFFFFFFFFFFFFFF NOT AND DUP2 MSTORE PUSH1 0x20 ADD PUSH1 0x1 DUP3 ADD SLOAD DUP2 MSTORE PUSH1 0x20 ADD PUSH1 0x2 DUP3 ADD SLOAD DUP2 MSTORE PUSH1 0x20 ADD PUSH1 0x3 DUP3 ADD SLOAD DUP2 MSTORE PUSH1 0x20 ADD PUSH1 0x4 DUP3 ADD PUSH0 SWAP1 SLOAD SWAP1 PUSH2 0x100 EXP SWAP1 DIV PUSH20 0xFFFFFFFFFFFFFFFFFFFFFFFFFFFFFFFFFFFFFFFF AND PUSH20 0xFFFFFFFFFFFFFFFFFFFFFFFFFFFFFFFFFFFFFFFF AND PUSH20 0xFFFFFFFFFFFFFFFFFFFFFFFFFFFFFFFFFFFFFFFF AND DUP2 MSTORE PUSH1 0x20 ADD PUSH1 0x5 DUP3 ADD PUSH0 SWAP1 SLOAD SWAP1 PUSH2 0x100 EXP SWAP1 DIV PUSH20 0xFFFFFFFFFFFFFFFFFFFFFFFFFFFFFFFFFFFFFFFF AND PUSH20 0xFFFFFFFFFFFFFFFFFFFFFFFFFFFFFFFFFFFFFFFF AND PUSH20 0xFFFFFFFFFFFFFFFFFFFFFFFFFFFFFFFFFFFFFFFF AND DUP2 MSTORE POP POP SWAP1 POP PUSH0 DUP1 SHL DUP2 PUSH1 0x20 ADD MLOAD SUB PUSH2 0x62C JUMPI PUSH0 DUP1 REVERT JUMPDEST PUSH0 ISZERO ISZERO PUSH1 0x4 PUSH0 DUP6 DUP2 MSTORE PUSH1 0x20 ADD SWAP1 DUP2 MSTORE PUSH1 0x20 ADD PUSH0 KECCAK256 PUSH0 DUP4 PUSH0 ADD MLOAD PUSH16 0xFFFFFFFFFFFFFFFFFFFFFFFFFFFFFFFF NOT AND PUSH16 0xFFFFFFFFFFFFFFFFFFFFFFFFFFFFFFFF NOT AND DUP2 MSTORE PUSH1 0x20 ADD SWAP1 DUP2 MSTORE PUSH1 0x20 ADD PUSH0 KECCAK256 PUSH0 SWAP1 SLOAD SWAP1 PUSH2 0x100 EXP SWAP1 DIV PUSH1 0xFF AND ISZERO ISZERO EQ PUSH2 0x690 JUMPI PUSH0 DUP1 REVERT JUMPDEST PUSH0 PUSH1 0x3 PUSH0 DUP6 DUP2 MSTORE PUSH1 0x20 ADD SWAP1 DUP2 MSTORE PUSH1 0x20 ADD PUSH0 KECCAK256 PUSH0 DUP11 PUSH16 0xFFFFFFFFFFFFFFFFFFFFFFFFFFFFFFFF NOT AND PUSH16 0xFFFFFFFFFFFFFFFFFFFFFFFFFFFFFFFF NOT AND DUP2 MSTORE PUSH1 0x20 ADD SWAP1 DUP2 MSTORE PUSH1 0x20 ADD PUSH0 KECCAK256 SLOAD PUSH1 0x2 PUSH0 CALLER PUSH20 0xFFFFFFFFFFFFFFFFFFFFFFFFFFFFFFFFFFFFFFFF AND PUSH20 0xFFFFFFFFFFFFFFFFFFFFFFFFFFFFFFFFFFFFFFFF AND DUP2 MSTORE PUSH1 0x20 ADD SWAP1 DUP2 MSTORE PUSH1 0x20 ADD PUSH0 KECCAK256 PUSH0 DUP12 PUSH16 0xFFFFFFFFFFFFFFFFFFFFFFFFFFFFFFFF NOT AND PUSH16 0xFFFFFFFFFFFFFFFFFFFFFFFFFFFFFFFF NOT AND DUP2 MSTORE PUSH1 0x20 ADD SWAP1 DUP2 MSTORE PUSH1 0x20 ADD PUSH0 KECCAK256 SLOAD PUSH2 0x755 SWAP2 SWAP1 PUSH2 0x1FC7 JUMP JUMPDEST SWAP1 POP PUSH0 DUP2 GT PUSH2 0x762 JUMPI PUSH0 DUP1 REVERT JUMPDEST PUSH1 0x1 PUSH1 0x4 PUSH0 DUP7 DUP2 MSTORE PUSH1 0x20 ADD SWAP1 DUP2 MSTORE PUSH1 0x20 ADD PUSH0 KECCAK256 PUSH0 DUP5 PUSH0 ADD MLOAD PUSH16 0xFFFFFFFFFFFFFFFFFFFFFFFFFFFFFFFF NOT AND PUSH16 0xFFFFFFFFFFFFFFFFFFFFFFFFFFFFFFFF NOT AND DUP2 MSTORE PUSH1 0x20 ADD SWAP1 DUP2 MSTORE PUSH1 0x20 ADD PUSH0 KECCAK256 PUSH0 PUSH2 0x100 EXP DUP2 SLOAD DUP2 PUSH1 0xFF MUL NOT AND SWAP1 DUP4 ISZERO ISZERO MUL OR SWAP1 SSTORE POP PUSH1 0x40 MLOAD DUP1 PUSH1 0x60 ADD PUSH1 0x40 MSTORE DUP1 DUP10 PUSH16 0xFFFFFFFFFFFFFFFFFFFFFFFFFFFFFFFF NOT AND DUP2 MSTORE PUSH1 0x20 ADD DUP9 DUP2 MSTORE PUSH1 0x20 ADD DUP11 PUSH16 0xFFFFFFFFFFFFFFFFFFFFFFFFFFFFFFFF NOT AND DUP2 MSTORE POP PUSH1 0x1 PUSH0 DUP11 PUSH16 0xFFFFFFFFFFFFFFFFFFFFFFFFFFFFFFFF NOT AND PUSH16 0xFFFFFFFFFFFFFFFFFFFFFFFFFFFFFFFF NOT AND DUP2 MSTORE PUSH1 0x20 ADD SWAP1 DUP2 MSTORE PUSH1 0x20 ADD PUSH0 KECCAK256 PUSH0 DUP3 ADD MLOAD DUP2 PUSH0 ADD PUSH0 PUSH2 0x100 EXP DUP2 SLOAD DUP2 PUSH16 0xFFFFFFFFFFFFFFFFFFFFFFFFFFFFFFFF MUL NOT AND SWAP1 DUP4 PUSH1 0x80 SHR MUL OR SWAP1 SSTORE POP PUSH1 0x20 DUP3 ADD MLOAD DUP2 PUSH1 0x1 ADD SSTORE PUSH1 0x40 DUP3 ADD MLOAD DUP2 PUSH1 0x2 ADD PUSH0 PUSH2 0x100 EXP DUP2 SLOAD DUP2 PUSH16 0xFFFFFFFFFFFFFFFFFFFFFFFFFFFFFFFF MUL NOT AND SWAP1 DUP4 PUSH1 0x80 SHR MUL OR SWAP1 SSTORE POP SWAP1 POP POP POP POP POP POP POP POP POP POP POP JUMP JUMPDEST PUSH32 0x0 PUSH20 0xFFFFFFFFFFFFFFFFFFFFFFFFFFFFFFFFFFFFFFFF AND PUSH4 0x3BC778E3 DUP5 PUSH32 0x0 PUSH2 0x935 DUP9 PUSH1 0x40 MLOAD PUSH1 0x20 ADD PUSH2 0x921 SWAP2 SWAP1 PUSH2 0x1F06 JUMP JUMPDEST PUSH1 0x40 MLOAD PUSH1 0x20 DUP2 DUP4 SUB SUB DUP2 MSTORE SWAP1 PUSH1 0x40 MSTORE PUSH2 0x18E9 JUMP JUMPDEST DUP7 PUSH32 0x0 DUP8 PUSH1 0x40 MLOAD DUP8 PUSH4 0xFFFFFFFF AND PUSH1 0xE0 SHL DUP2 MSTORE PUSH1 0x4 ADD PUSH2 0x979 SWAP7 SWAP6 SWAP5 SWAP4 SWAP3 SWAP2 SWAP1 PUSH2 0x1F3A JUMP JUMPDEST PUSH0 PUSH1 0x40 MLOAD DUP1 DUP4 SUB DUP2 DUP7 DUP1 EXTCODESIZE ISZERO DUP1 ISZERO PUSH2 0x98F JUMPI PUSH0 DUP1 REVERT JUMPDEST POP GAS STATICCALL ISZERO DUP1 ISZERO PUSH2 0x9A1 JUMPI RETURNDATASIZE PUSH0 DUP1 RETURNDATACOPY RETURNDATASIZE PUSH0 REVERT JUMPDEST POP POP POP POP PUSH0 DUP1 PUSH0 DUP8 PUSH16 0xFFFFFFFFFFFFFFFFFFFFFFFFFFFFFFFF NOT AND PUSH16 0xFFFFFFFFFFFFFFFFFFFFFFFFFFFFFFFF NOT AND DUP2 MSTORE PUSH1 0x20 ADD SWAP1 DUP2 MSTORE PUSH1 0x20 ADD PUSH0 KECCAK256 PUSH1 0x40 MLOAD DUP1 PUSH1 0xC0 ADD PUSH1 0x40 MSTORE SWAP1 DUP2 PUSH0 DUP3 ADD PUSH0 SWAP1 SLOAD SWAP1 PUSH2 0x100 EXP SWAP1 DIV PUSH1 0x80 SHL PUSH16 0xFFFFFFFFFFFFFFFFFFFFFFFFFFFFFFFF NOT AND PUSH16 0xFFFFFFFFFFFFFFFFFFFFFFFFFFFFFFFF NOT AND DUP2 MSTORE PUSH1 0x20 ADD PUSH1 0x1 DUP3 ADD SLOAD DUP2 MSTORE PUSH1 0x20 ADD PUSH1 0x2 DUP3 ADD SLOAD DUP2 MSTORE PUSH1 0x20 ADD PUSH1 0x3 DUP3 ADD SLOAD DUP2 MSTORE PUSH1 0x20 ADD PUSH1 0x4 DUP3 ADD PUSH0 SWAP1 SLOAD SWAP1 PUSH2 0x100 EXP SWAP1 DIV PUSH20 0xFFFFFFFFFFFFFFFFFFFFFFFFFFFFFFFFFFFFFFFF AND PUSH20 0xFFFFFFFFFFFFFFFFFFFFFFFFFFFFFFFFFFFFFFFF AND PUSH20 0xFFFFFFFFFFFFFFFFFFFFFFFFFFFFFFFFFFFFFFFF AND DUP2 MSTORE PUSH1 0x20 ADD PUSH1 0x5 DUP3 ADD PUSH0 SWAP1 SLOAD SWAP1 PUSH2 0x100 EXP SWAP1 DIV PUSH20 0xFFFFFFFFFFFFFFFFFFFFFFFFFFFFFFFFFFFFFFFF AND PUSH20 0xFFFFFFFFFFFFFFFFFFFFFFFFFFFFFFFFFFFFFFFF AND PUSH20 0xFFFFFFFFFFFFFFFFFFFFFFFFFFFFFFFFFFFFFFFF AND DUP2 MSTORE POP POP SWAP1 POP PUSH0 DUP1 SHL DUP2 PUSH1 0x20 ADD MLOAD SUB PUSH2 0xAFD JUMPI PUSH0 DUP1 REVERT JUMPDEST PUSH0 PUSH1 0x3 PUSH0 DUP6 DUP2 MSTORE PUSH1 0x20 ADD SWAP1 DUP2 MSTORE PUSH1 0x20 ADD PUSH0 KECCAK256 PUSH0 DUP9 PUSH16 0xFFFFFFFFFFFFFFFFFFFFFFFFFFFFFFFF NOT AND PUSH16 0xFFFFFFFFFFFFFFFFFFFFFFFFFFFFFFFF NOT AND DUP2 MSTORE PUSH1 0x20 ADD SWAP1 DUP2 MSTORE PUSH1 0x20 ADD PUSH0 KECCAK256 SLOAD PUSH1 0x2 PUSH0 CALLER PUSH20 0xFFFFFFFFFFFFFFFFFFFFFFFFFFFFFFFFFFFFFFFF AND PUSH20 0xFFFFFFFFFFFFFFFFFFFFFFFFFFFFFFFFFFFFFFFF AND DUP2 MSTORE PUSH1 0x20 ADD SWAP1 DUP2 MSTORE PUSH1 0x20 ADD PUSH0 KECCAK256 PUSH0 DUP10 PUSH16 0xFFFFFFFFFFFFFFFFFFFFFFFFFFFFFFFF NOT AND PUSH16 0xFFFFFFFFFFFFFFFFFFFFFFFFFFFFFFFF NOT AND DUP2 MSTORE PUSH1 0x20 ADD SWAP1 DUP2 MSTORE PUSH1 0x20 ADD PUSH0 KECCAK256 SLOAD PUSH2 0xBC2 SWAP2 SWAP1 PUSH2 0x1FC7 JUMP JUMPDEST SWAP1 POP PUSH0 DUP3 PUSH1 0x60 ADD MLOAD GT DUP1 ISZERO PUSH2 0xBDA JUMPI POP DUP2 PUSH1 0x60 ADD MLOAD DUP2 LT JUMPDEST PUSH2 0xBE2 JUMPI PUSH0 DUP1 REVERT JUMPDEST PUSH0 PUSH2 0x2710 PUSH1 0x64 PUSH32 0x0 PUSH2 0xC13 SWAP2 SWAP1 PUSH2 0x1FFA JUMP JUMPDEST DUP5 PUSH1 0x40 ADD MLOAD PUSH2 0xC22 SWAP2 SWAP1 PUSH2 0x1FFA JUMP JUMPDEST PUSH2 0xC2C SWAP2 SWAP1 PUSH2 0x2068 JUMP JUMPDEST SWAP1 POP PUSH1 0x3 PUSH0 DUP7 DUP2 MSTORE PUSH1 0x20 ADD SWAP1 DUP2 MSTORE PUSH1 0x20 ADD PUSH0 KECCAK256 PUSH0 DUP10 PUSH16 0xFFFFFFFFFFFFFFFFFFFFFFFFFFFFFFFF NOT AND PUSH16 0xFFFFFFFFFFFFFFFFFFFFFFFFFFFFFFFF NOT AND DUP2 MSTORE PUSH1 0x20 ADD SWAP1 DUP2 MSTORE PUSH1 0x20 ADD PUSH0 KECCAK256 PUSH0 DUP2 SLOAD PUSH2 0xC80 SWAP1 PUSH2 0x2098 JUMP JUMPDEST SWAP2 SWAP1 POP DUP2 SWAP1 SSTORE POP PUSH32 0x0 PUSH20 0xFFFFFFFFFFFFFFFFFFFFFFFFFFFFFFFFFFFFFFFF AND PUSH4 0x23B872DD CALLER ADDRESS DUP5 DUP8 PUSH1 0x40 ADD MLOAD PUSH2 0xCD5 SWAP2 SWAP1 PUSH2 0x1FC7 JUMP JUMPDEST PUSH1 0x40 MLOAD DUP5 PUSH4 0xFFFFFFFF AND PUSH1 0xE0 SHL DUP2 MSTORE PUSH1 0x4 ADD PUSH2 0xCF3 SWAP4 SWAP3 SWAP2 SWAP1 PUSH2 0x20DF JUMP JUMPDEST PUSH1 0x20 PUSH1 0x40 MLOAD DUP1 DUP4 SUB DUP2 PUSH0 DUP8 GAS CALL ISZERO DUP1 ISZERO PUSH2 0xD0F JUMPI RETURNDATASIZE PUSH0 DUP1 RETURNDATACOPY RETURNDATASIZE PUSH0 REVERT JUMPDEST POP POP POP POP PUSH1 0x40 MLOAD RETURNDATASIZE PUSH1 0x1F NOT PUSH1 0x1F DUP3 ADD AND DUP3 ADD DUP1 PUSH1 0x40 MSTORE POP DUP2 ADD SWAP1 PUSH2 0xD33 SWAP2 SWAP1 PUSH2 0x1E96 JUMP JUMPDEST POP PUSH32 0x0 PUSH20 0xFFFFFFFFFFFFFFFFFFFFFFFFFFFFFFFFFFFFFFFF AND PUSH4 0xA9059CBB DUP5 PUSH1 0x80 ADD MLOAD DUP6 PUSH1 0x40 ADD MLOAD PUSH1 0x40 MLOAD DUP4 PUSH4 0xFFFFFFFF AND PUSH1 0xE0 SHL DUP2 MSTORE PUSH1 0x4 ADD PUSH2 0xD97 SWAP3 SWAP2 SWAP1 PUSH2 0x2114 JUMP JUMPDEST PUSH1 0x20 PUSH1 0x40 MLOAD DUP1 DUP4 SUB DUP2 PUSH0 DUP8 GAS CALL ISZERO DUP1 ISZERO PUSH2 0xDB3 JUMPI RETURNDATASIZE PUSH0 DUP1 RETURNDATACOPY RETURNDATASIZE PUSH0 REVERT JUMPDEST POP POP POP POP PUSH1 0x40 MLOAD RETURNDATASIZE PUSH1 0x1F NOT PUSH1 0x1F DUP3 ADD AND DUP3 ADD DUP1 PUSH1 0x40 MSTORE POP DUP2 ADD SWAP1 PUSH2 0xDD7 SWAP2 SWAP1 PUSH2 0x1E96 JUMP JUMPDEST POP POP POP POP POP POP POP POP POP JUMP JUMPDEST PUSH0 PUSH1 0x1 PUSH0 DUP4 PUSH16 0xFFFFFFFFFFFFFFFFFFFFFFFFFFFFFFFF NOT AND PUSH16 0xFFFFFFFFFFFFFFFFFFFFFFFFFFFFFFFF NOT AND DUP2 MSTORE PUSH1 0x20 ADD SWAP1 DUP2 MSTORE PUSH1 0x20 ADD PUSH0 KECCAK256 PUSH1 0x1 ADD SLOAD SWAP1 POP SWAP2 SWAP1 POP JUMP JUMPDEST CALLER PUSH20 0xFFFFFFFFFFFFFFFFFFFFFFFFFFFFFFFFFFFFFFFF AND PUSH0 DUP1 DUP4 PUSH16 0xFFFFFFFFFFFFFFFFFFFFFFFFFFFFFFFF NOT AND PUSH16 0xFFFFFFFFFFFFFFFFFFFFFFFFFFFFFFFF NOT AND DUP2 MSTORE PUSH1 0x20 ADD SWAP1 DUP2 MSTORE PUSH1 0x20 ADD PUSH0 KECCAK256 PUSH1 0x5 ADD PUSH0 SWAP1 SLOAD SWAP1 PUSH2 0x100 EXP SWAP1 DIV PUSH20 0xFFFFFFFFFFFFFFFFFFFFFFFFFFFFFFFFFFFFFFFF AND PUSH20 0xFFFFFFFFFFFFFFFFFFFFFFFFFFFFFFFFFFFFFFFF AND EQ PUSH2 0xEB4 JUMPI PUSH0 DUP1 REVERT JUMPDEST PUSH0 DUP1 DUP3 PUSH16 0xFFFFFFFFFFFFFFFFFFFFFFFFFFFFFFFF NOT AND PUSH16 0xFFFFFFFFFFFFFFFFFFFFFFFFFFFFFFFF NOT AND DUP2 MSTORE PUSH1 0x20 ADD SWAP1 DUP2 MSTORE PUSH1 0x20 ADD PUSH0 KECCAK256 PUSH0 DUP1 DUP3 ADD PUSH0 PUSH2 0x100 EXP DUP2 SLOAD SWAP1 PUSH16 0xFFFFFFFFFFFFFFFFFFFFFFFFFFFFFFFF MUL NOT AND SWAP1 SSTORE PUSH1 0x1 DUP3 ADD PUSH0 SWAP1 SSTORE PUSH1 0x2 DUP3 ADD PUSH0 SWAP1 SSTORE PUSH1 0x3 DUP3 ADD PUSH0 SWAP1 SSTORE PUSH1 0x4 DUP3 ADD PUSH0 PUSH2 0x100 EXP DUP2 SLOAD SWAP1 PUSH20 0xFFFFFFFFFFFFFFFFFFFFFFFFFFFFFFFFFFFFFFFF MUL NOT AND SWAP1 SSTORE PUSH1 0x5 DUP3 ADD PUSH0 PUSH2 0x100 EXP DUP2 SLOAD SWAP1 PUSH20 0xFFFFFFFFFFFFFFFFFFFFFFFFFFFFFFFFFFFFFFFF MUL NOT AND SWAP1 SSTORE POP POP POP JUMP JUMPDEST PUSH0 DUP1 PUSH0 DUP4 PUSH16 0xFFFFFFFFFFFFFFFFFFFFFFFFFFFFFFFF NOT AND PUSH16 0xFFFFFFFFFFFFFFFFFFFFFFFFFFFFFFFF NOT AND DUP2 MSTORE PUSH1 0x20 ADD SWAP1 DUP2 MSTORE PUSH1 0x20 ADD PUSH0 KECCAK256 PUSH1 0x40 MLOAD DUP1 PUSH1 0xC0 ADD PUSH1 0x40 MSTORE SWAP1 DUP2 PUSH0 DUP3 ADD PUSH0 SWAP1 SLOAD SWAP1 PUSH2 0x100 EXP SWAP1 DIV PUSH1 0x80 SHL PUSH16 0xFFFFFFFFFFFFFFFFFFFFFFFFFFFFFFFF NOT AND PUSH16 0xFFFFFFFFFFFFFFFFFFFFFFFFFFFFFFFF NOT AND DUP2 MSTORE PUSH1 0x20 ADD PUSH1 0x1 DUP3 ADD SLOAD DUP2 MSTORE PUSH1 0x20 ADD PUSH1 0x2 DUP3 ADD SLOAD DUP2 MSTORE PUSH1 0x20 ADD PUSH1 0x3 DUP3 ADD SLOAD DUP2 MSTORE PUSH1 0x20 ADD PUSH1 0x4 DUP3 ADD PUSH0 SWAP1 SLOAD SWAP1 PUSH2 0x100 EXP SWAP1 DIV PUSH20 0xFFFFFFFFFFFFFFFFFFFFFFFFFFFFFFFFFFFFFFFF AND PUSH20 0xFFFFFFFFFFFFFFFFFFFFFFFFFFFFFFFFFFFFFFFF AND PUSH20 0xFFFFFFFFFFFFFFFFFFFFFFFFFFFFFFFFFFFFFFFF AND DUP2 MSTORE PUSH1 0x20 ADD PUSH1 0x5 DUP3 ADD PUSH0 SWAP1 SLOAD SWAP1 PUSH2 0x100 EXP SWAP1 DIV PUSH20 0xFFFFFFFFFFFFFFFFFFFFFFFFFFFFFFFFFFFFFFFF AND PUSH20 0xFFFFFFFFFFFFFFFFFFFFFFFFFFFFFFFFFFFFFFFF AND PUSH20 0xFFFFFFFFFFFFFFFFFFFFFFFFFFFFFFFFFFFFFFFF AND DUP2 MSTORE POP POP SWAP1 POP PUSH0 DUP1 SHL DUP2 PUSH1 0x20 ADD MLOAD SUB PUSH2 0x10CA JUMPI PUSH0 DUP1 REVERT JUMPDEST PUSH0 DUP2 PUSH1 0x60 ADD MLOAD EQ PUSH2 0x10D9 JUMPI PUSH0 DUP1 REVERT JUMPDEST PUSH0 PUSH2 0x2710 PUSH1 0x64 PUSH32 0x0 PUSH2 0x110A SWAP2 SWAP1 PUSH2 0x1FFA JUMP JUMPDEST DUP4 PUSH1 0x40 ADD MLOAD PUSH2 0x1119 SWAP2 SWAP1 PUSH2 0x1FFA JUMP JUMPDEST PUSH2 0x1123 SWAP2 SWAP1 PUSH2 0x2068 JUMP JUMPDEST SWAP1 POP PUSH1 0x2 PUSH0 CALLER PUSH20 0xFFFFFFFFFFFFFFFFFFFFFFFFFFFFFFFFFFFFFFFF AND PUSH20 0xFFFFFFFFFFFFFFFFFFFFFFFFFFFFFFFFFFFFFFFF AND DUP2 MSTORE PUSH1 0x20 ADD SWAP1 DUP2 MSTORE PUSH1 0x20 ADD PUSH0 KECCAK256 PUSH0 DUP5 PUSH16 0xFFFFFFFFFFFFFFFFFFFFFFFFFFFFFFFF NOT AND PUSH16 0xFFFFFFFFFFFFFFFFFFFFFFFFFFFFFFFF NOT AND DUP2 MSTORE PUSH1 0x20 ADD SWAP1 DUP2 MSTORE PUSH1 0x20 ADD PUSH0 KECCAK256 PUSH0 DUP2 SLOAD PUSH2 0x11A3 SWAP1 PUSH2 0x2098 JUMP JUMPDEST SWAP2 SWAP1 POP DUP2 SWAP1 SSTORE POP PUSH32 0x0 PUSH20 0xFFFFFFFFFFFFFFFFFFFFFFFFFFFFFFFFFFFFFFFF AND PUSH4 0x23B872DD CALLER ADDRESS DUP5 DUP7 PUSH1 0x40 ADD MLOAD PUSH2 0x11F8 SWAP2 SWAP1 PUSH2 0x1FC7 JUMP JUMPDEST PUSH1 0x40 MLOAD DUP5 PUSH4 0xFFFFFFFF AND PUSH1 0xE0 SHL DUP2 MSTORE PUSH1 0x4 ADD PUSH2 0x1216 SWAP4 SWAP3 SWAP2 SWAP1 PUSH2 0x20DF JUMP JUMPDEST PUSH1 0x20 PUSH1 0x40 MLOAD DUP1 DUP4 SUB DUP2 PUSH0 DUP8 GAS CALL ISZERO DUP1 ISZERO PUSH2 0x1232 JUMPI RETURNDATASIZE PUSH0 DUP1 RETURNDATACOPY RETURNDATASIZE PUSH0 REVERT JUMPDEST POP POP POP POP PUSH1 0x40 MLOAD RETURNDATASIZE PUSH1 0x1F NOT PUSH1 0x1F DUP3 ADD AND DUP3 ADD DUP1 PUSH1 0x40 MSTORE POP DUP2 ADD SWAP1 PUSH2 0x1256 SWAP2 SWAP1 PUSH2 0x1E96 JUMP JUMPDEST POP PUSH32 0x0 PUSH20 0xFFFFFFFFFFFFFFFFFFFFFFFFFFFFFFFFFFFFFFFF AND PUSH4 0xA9059CBB DUP4 PUSH1 0x80 ADD MLOAD DUP5 PUSH1 0x40 ADD MLOAD PUSH1 0x40 MLOAD DUP4 PUSH4 0xFFFFFFFF AND PUSH1 0xE0 SHL DUP2 MSTORE PUSH1 0x4 ADD PUSH2 0x12BA SWAP3 SWAP2 SWAP1 PUSH2 0x2114 JUMP JUMPDEST PUSH1 0x20 PUSH1 0x40 MLOAD DUP1 DUP4 SUB DUP2 PUSH0 DUP8 GAS CALL ISZERO DUP1 ISZERO PUSH2 0x12D6 JUMPI RETURNDATASIZE PUSH0 DUP1 RETURNDATACOPY RETURNDATASIZE PUSH0 REVERT JUMPDEST POP POP POP POP PUSH1 0x40 MLOAD RETURNDATASIZE PUSH1 0x1F NOT PUSH1 0x1F DUP3 ADD AND DUP3 ADD DUP1 PUSH1 0x40 MSTORE POP DUP2 ADD SWAP1 PUSH2 0x12FA SWAP2 SWAP1 PUSH2 0x1E96 JUMP JUMPDEST POP POP POP POP JUMP JUMPDEST PUSH0 DUP1 PUSH0 DUP6 PUSH16 0xFFFFFFFFFFFFFFFFFFFFFFFFFFFFFFFF NOT AND PUSH16 0xFFFFFFFFFFFFFFFFFFFFFFFFFFFFFFFF NOT AND DUP2 MSTORE PUSH1 0x20 ADD SWAP1 DUP2 MSTORE PUSH1 0x20 ADD PUSH0 KECCAK256 PUSH1 0x40 MLOAD DUP1 PUSH1 0xC0 ADD PUSH1 0x40 MSTORE SWAP1 DUP2 PUSH0 DUP3 ADD PUSH0 SWAP1 SLOAD SWAP1 PUSH2 0x100 EXP SWAP1 DIV PUSH1 0x80 SHL PUSH16 0xFFFFFFFFFFFFFFFFFFFFFFFFFFFFFFFF NOT AND PUSH16 0xFFFFFFFFFFFFFFFFFFFFFFFFFFFFFFFF NOT AND DUP2 MSTORE PUSH1 0x20 ADD PUSH1 0x1 DUP3 ADD SLOAD DUP2 MSTORE PUSH1 0x20 ADD PUSH1 0x2 DUP3 ADD SLOAD DUP2 MSTORE PUSH1 0x20 ADD PUSH1 0x3 DUP3 ADD SLOAD DUP2 MSTORE PUSH1 0x20 ADD PUSH1 0x4 DUP3 ADD PUSH0 SWAP1 SLOAD SWAP1 PUSH2 0x100 EXP SWAP1 DIV PUSH20 0xFFFFFFFFFFFFFFFFFFFFFFFFFFFFFFFFFFFFFFFF AND PUSH20 0xFFFFFFFFFFFFFFFFFFFFFFFFFFFFFFFFFFFFFFFF AND PUSH20 0xFFFFFFFFFFFFFFFFFFFFFFFFFFFFFFFFFFFFFFFF AND DUP2 MSTORE PUSH1 0x20 ADD PUSH1 0x5 DUP3 ADD PUSH0 SWAP1 SLOAD SWAP1 PUSH2 0x100 EXP SWAP1 DIV PUSH20 0xFFFFFFFFFFFFFFFFFFFFFFFFFFFFFFFFFFFFFFFF AND PUSH20 0xFFFFFFFFFFFFFFFFFFFFFFFFFFFFFFFFFFFFFFFF AND PUSH20 0xFFFFFFFFFFFFFFFFFFFFFFFFFFFFFFFFFFFFFFFF AND DUP2 MSTORE POP POP SWAP1 POP PUSH0 DUP1 SHL DUP2 PUSH1 0x20 ADD MLOAD SUB PUSH2 0x1458 JUMPI PUSH0 DUP1 REVERT JUMPDEST PUSH0 ISZERO ISZERO PUSH1 0x5 PUSH0 CALLER PUSH20 0xFFFFFFFFFFFFFFFFFFFFFFFFFFFFFFFFFFFFFFFF AND PUSH20 0xFFFFFFFFFFFFFFFFFFFFFFFFFFFFFFFFFFFFFFFF AND DUP2 MSTORE PUSH1 0x20 ADD SWAP1 DUP2 MSTORE PUSH1 0x20 ADD PUSH0 KECCAK256 PUSH0 DUP4 PUSH0 ADD MLOAD PUSH16 0xFFFFFFFFFFFFFFFFFFFFFFFFFFFFFFFF NOT AND PUSH16 0xFFFFFFFFFFFFFFFFFFFFFFFFFFFFFFFF NOT AND DUP2 MSTORE PUSH1 0x20 ADD SWAP1 DUP2 MSTORE PUSH1 0x20 ADD PUSH0 KECCAK256 PUSH0 SWAP1 SLOAD SWAP1 PUSH2 0x100 EXP SWAP1 DIV PUSH1 0xFF AND ISZERO ISZERO EQ PUSH2 0x14E8 JUMPI PUSH0 DUP1 REVERT JUMPDEST PUSH0 PUSH1 0x2 PUSH0 CALLER PUSH20 0xFFFFFFFFFFFFFFFFFFFFFFFFFFFFFFFFFFFFFFFF AND PUSH20 0xFFFFFFFFFFFFFFFFFFFFFFFFFFFFFFFFFFFFFFFF AND DUP2 MSTORE PUSH1 0x20 ADD SWAP1 DUP2 MSTORE PUSH1 0x20 ADD PUSH0 KECCAK256 PUSH0 DUP7 PUSH16 0xFFFFFFFFFFFFFFFFFFFFFFFFFFFFFFFF NOT AND PUSH16 0xFFFFFFFFFFFFFFFFFFFFFFFFFFFFFFFF NOT AND DUP2 MSTORE PUSH1 0x20 ADD SWAP1 DUP2 MSTORE PUSH1 0x20 ADD PUSH0 KECCAK256 SLOAD SWAP1 POP PUSH0 DUP2 GT PUSH2 0x1569 JUMPI PUSH0 DUP1 REVERT JUMPDEST PUSH1 0x1 PUSH1 0x5 PUSH0 CALLER PUSH20 0xFFFFFFFFFFFFFFFFFFFFFFFFFFFFFFFFFFFFFFFF AND PUSH20 0xFFFFFFFFFFFFFFFFFFFFFFFFFFFFFFFFFFFFFFFF AND DUP2 MSTORE PUSH1 0x20 ADD SWAP1 DUP2 MSTORE PUSH1 0x20 ADD PUSH0 KECCAK256 PUSH0 DUP5 PUSH0 ADD MLOAD PUSH16 0xFFFFFFFFFFFFFFFFFFFFFFFFFFFFFFFF NOT AND PUSH16 0xFFFFFFFFFFFFFFFFFFFFFFFFFFFFFFFF NOT AND DUP2 MSTORE PUSH1 0x20 ADD SWAP1 DUP2 MSTORE PUSH1 0x20 ADD PUSH0 KECCAK256 PUSH0 PUSH2 0x100 EXP DUP2 SLOAD DUP2 PUSH1 0xFF MUL NOT AND SWAP1 DUP4 ISZERO ISZERO MUL OR SWAP1 SSTORE POP PUSH1 0x40 MLOAD DUP1 PUSH1 0x60 ADD PUSH1 0x40 MSTORE DUP1 DUP6 PUSH16 0xFFFFFFFFFFFFFFFFFFFFFFFFFFFFFFFF NOT AND DUP2 MSTORE PUSH1 0x20 ADD DUP5 DUP2 MSTORE PUSH1 0x20 ADD DUP7 PUSH16 0xFFFFFFFFFFFFFFFFFFFFFFFFFFFFFFFF NOT AND DUP2 MSTORE POP PUSH1 0x1 PUSH0 DUP7 PUSH16 0xFFFFFFFFFFFFFFFFFFFFFFFFFFFFFFFF NOT AND PUSH16 0xFFFFFFFFFFFFFFFFFFFFFFFFFFFFFFFF NOT AND DUP2 MSTORE PUSH1 0x20 ADD SWAP1 DUP2 MSTORE PUSH1 0x20 ADD PUSH0 KECCAK256 PUSH0 DUP3 ADD MLOAD DUP2 PUSH0 ADD PUSH0 PUSH2 0x100 EXP DUP2 SLOAD DUP2 PUSH16 0xFFFFFFFFFFFFFFFFFFFFFFFFFFFFFFFF MUL NOT AND SWAP1 DUP4 PUSH1 0x80 SHR MUL OR SWAP1 SSTORE POP PUSH1 0x20 DUP3 ADD MLOAD DUP2 PUSH1 0x1 ADD SSTORE PUSH1 0x40 DUP3 ADD MLOAD DUP2 PUSH1 0x2 ADD PUSH0 PUSH2 0x100 EXP DUP2 SLOAD DUP2 PUSH16 0xFFFFFFFFFFFFFFFFFFFFFFFFFFFFFFFF MUL NOT AND SWAP1 DUP4 PUSH1 0x80 SHR MUL OR SWAP1 SSTORE POP SWAP1 POP POP POP POP POP POP POP JUMP JUMPDEST PUSH0 DUP1 PUSH0 DUP4 PUSH16 0xFFFFFFFFFFFFFFFFFFFFFFFFFFFFFFFF NOT AND PUSH16 0xFFFFFFFFFFFFFFFFFFFFFFFFFFFFFFFF NOT AND DUP2 MSTORE PUSH1 0x20 ADD SWAP1 DUP2 MSTORE PUSH1 0x20 ADD PUSH0 KECCAK256 PUSH1 0x1 ADD SLOAD SWAP1 POP SWAP2 SWAP1 POP JUMP JUMPDEST PUSH0 DUP1 SHL PUSH0 DUP1 DUP8 PUSH16 0xFFFFFFFFFFFFFFFFFFFFFFFFFFFFFFFF NOT AND PUSH16 0xFFFFFFFFFFFFFFFFFFFFFFFFFFFFFFFF NOT AND DUP2 MSTORE PUSH1 0x20 ADD SWAP1 DUP2 MSTORE PUSH1 0x20 ADD PUSH0 KECCAK256 PUSH1 0x1 ADD SLOAD EQ PUSH2 0x1766 JUMPI PUSH0 DUP1 REVERT JUMPDEST PUSH1 0x40 MLOAD DUP1 PUSH1 0xC0 ADD PUSH1 0x40 MSTORE DUP1 DUP7 PUSH16 0xFFFFFFFFFFFFFFFFFFFFFFFFFFFFFFFF NOT AND DUP2 MSTORE PUSH1 0x20 ADD DUP6 DUP2 MSTORE PUSH1 0x20 ADD DUP5 DUP2 MSTORE PUSH1 0x20 ADD DUP4 DUP2 MSTORE PUSH1 0x20 ADD DUP3 PUSH20 0xFFFFFFFFFFFFFFFFFFFFFFFFFFFFFFFFFFFFFFFF AND DUP2 MSTORE PUSH1 0x20 ADD CALLER PUSH20 0xFFFFFFFFFFFFFFFFFFFFFFFFFFFFFFFFFFFFFFFF AND DUP2 MSTORE POP PUSH0 DUP1 DUP8 PUSH16 0xFFFFFFFFFFFFFFFFFFFFFFFFFFFFFFFF NOT AND PUSH16 0xFFFFFFFFFFFFFFFFFFFFFFFFFFFFFFFF NOT AND DUP2 MSTORE PUSH1 0x20 ADD SWAP1 DUP2 MSTORE PUSH1 0x20 ADD PUSH0 KECCAK256 PUSH0 DUP3 ADD MLOAD DUP2 PUSH0 ADD PUSH0 PUSH2 0x100 EXP DUP2 SLOAD DUP2 PUSH16 0xFFFFFFFFFFFFFFFFFFFFFFFFFFFFFFFF MUL NOT AND SWAP1 DUP4 PUSH1 0x80 SHR MUL OR SWAP1 SSTORE POP PUSH1 0x20 DUP3 ADD MLOAD DUP2 PUSH1 0x1 ADD SSTORE PUSH1 0x40 DUP3 ADD MLOAD DUP2 PUSH1 0x2 ADD SSTORE PUSH1 0x60 DUP3 ADD MLOAD DUP2 PUSH1 0x3 ADD SSTORE PUSH1 0x80 DUP3 ADD MLOAD DUP2 PUSH1 0x4 ADD PUSH0 PUSH2 0x100 EXP DUP2 SLOAD DUP2 PUSH20 0xFFFFFFFFFFFFFFFFFFFFFFFFFFFFFFFFFFFFFFFF MUL NOT AND SWAP1 DUP4 PUSH20 0xFFFFFFFFFFFFFFFFFFFFFFFFFFFFFFFFFFFFFFFF AND MUL OR SWAP1 SSTORE POP PUSH1 0xA0 DUP3 ADD MLOAD DUP2 PUSH1 0x5 ADD PUSH0 PUSH2 0x100 EXP DUP2 SLOAD DUP2 PUSH20 0xFFFFFFFFFFFFFFFFFFFFFFFFFFFFFFFFFFFFFFFF MUL NOT AND SWAP1 DUP4 PUSH20 0xFFFFFFFFFFFFFFFFFFFFFFFFFFFFFFFFFFFFFFFF AND MUL OR SWAP1 SSTORE POP SWAP1 POP POP POP POP POP POP POP JUMP JUMPDEST PUSH0 PUSH1 0x8 DUP3 PUSH1 0x40 MLOAD PUSH1 0x20 ADD PUSH2 0x18FD SWAP2 SWAP1 PUSH2 0x218D JUMP JUMPDEST PUSH1 0x40 MLOAD PUSH1 0x20 DUP2 DUP4 SUB SUB DUP2 MSTORE SWAP1 PUSH1 0x40 MSTORE DUP1 MLOAD SWAP1 PUSH1 0x20 ADD KECCAK256 PUSH0 SHR SWAP1 SHR SWAP1 POP SWAP2 SWAP1 POP JUMP JUMPDEST PUSH0 DUP1 REVERT JUMPDEST PUSH0 PUSH20 0xFFFFFFFFFFFFFFFFFFFFFFFFFFFFFFFFFFFFFFFF DUP3 AND SWAP1 POP SWAP2 SWAP1 POP JUMP JUMPDEST PUSH0 PUSH2 0x194B DUP3 PUSH2 0x1922 JUMP JUMPDEST SWAP1 POP SWAP2 SWAP1 POP JUMP JUMPDEST PUSH2 0x195B DUP2 PUSH2 0x1941 JUMP JUMPDEST DUP2 EQ PUSH2 0x1965 JUMPI PUSH0 DUP1 REVERT JUMPDEST POP JUMP JUMPDEST PUSH0 DUP2 CALLDATALOAD SWAP1 POP PUSH2 0x1976 DUP2 PUSH2 0x1952 JUMP JUMPDEST SWAP3 SWAP2 POP POP JUMP JUMPDEST PUSH0 PUSH1 0x20 DUP3 DUP5 SUB SLT ISZERO PUSH2 0x1991 JUMPI PUSH2 0x1990 PUSH2 0x191E JUMP JUMPDEST JUMPDEST PUSH0 PUSH2 0x199E DUP5 DUP3 DUP6 ADD PUSH2 0x1968 JUMP JUMPDEST SWAP2 POP POP SWAP3 SWAP2 POP POP JUMP JUMPDEST PUSH0 PUSH32 0xFFFFFFFFFFFFFFFFFFFFFFFFFFFFFFFF00000000000000000000000000000000 DUP3 AND SWAP1 POP SWAP2 SWAP1 POP JUMP JUMPDEST PUSH2 0x19DB DUP2 PUSH2 0x19A7 JUMP JUMPDEST DUP2 EQ PUSH2 0x19E5 JUMPI PUSH0 DUP1 REVERT JUMPDEST POP JUMP JUMPDEST PUSH0 DUP2 CALLDATALOAD SWAP1 POP PUSH2 0x19F6 DUP2 PUSH2 0x19D2 JUMP JUMPDEST SWAP3 SWAP2 POP POP JUMP JUMPDEST PUSH0 DUP2 SWAP1 POP SWAP2 SWAP1 POP JUMP JUMPDEST PUSH2 0x1A0E DUP2 PUSH2 0x19FC JUMP JUMPDEST DUP2 EQ PUSH2 0x1A18 JUMPI PUSH0 DUP1 REVERT JUMPDEST POP JUMP JUMPDEST PUSH0 DUP2 CALLDATALOAD SWAP1 POP PUSH2 0x1A29 DUP2 PUSH2 0x1A05 JUMP JUMPDEST SWAP3 SWAP2 POP POP JUMP JUMPDEST PUSH0 PUSH2 0x1A39 DUP3 PUSH2 0x1922 JUMP JUMPDEST SWAP1 POP SWAP2 SWAP1 POP JUMP JUMPDEST PUSH2 0x1A49 DUP2 PUSH2 0x1A2F JUMP JUMPDEST DUP2 EQ PUSH2 0x1A53 JUMPI PUSH0 DUP1 REVERT JUMPDEST POP JUMP JUMPDEST PUSH0 DUP2 CALLDATALOAD SWAP1 POP PUSH2 0x1A64 DUP2 PUSH2 0x1A40 JUMP JUMPDEST SWAP3 SWAP2 POP POP JUMP JUMPDEST PUSH0 DUP2 SWAP1 POP SWAP2 SWAP1 POP JUMP JUMPDEST PUSH2 0x1A7C DUP2 PUSH2 0x1A6A JUMP JUMPDEST DUP2 EQ PUSH2 0x1A86 JUMPI PUSH0 DUP1 REVERT JUMPDEST POP JUMP JUMPDEST PUSH0 DUP2 CALLDATALOAD SWAP1 POP PUSH2 0x1A97 DUP2 PUSH2 0x1A73 JUMP JUMPDEST SWAP3 SWAP2 POP POP JUMP JUMPDEST PUSH0 DUP1 PUSH0 DUP1 PUSH0 PUSH1 0xA0 DUP7 DUP9 SUB SLT ISZERO PUSH2 0x1AB6 JUMPI PUSH2 0x1AB5 PUSH2 0x191E JUMP JUMPDEST JUMPDEST PUSH0 PUSH2 0x1AC3 DUP9 DUP3 DUP10 ADD PUSH2 0x19E8 JUMP JUMPDEST SWAP6 POP POP PUSH1 0x20 PUSH2 0x1AD4 DUP9 DUP3 DUP10 ADD PUSH2 0x1A1B JUMP JUMPDEST SWAP5 POP POP PUSH1 0x40 PUSH2 0x1AE5 DUP9 DUP3 DUP10 ADD PUSH2 0x1A1B JUMP JUMPDEST SWAP4 POP POP PUSH1 0x60 PUSH2 0x1AF6 DUP9 DUP3 DUP10 ADD PUSH2 0x1A56 JUMP JUMPDEST SWAP3 POP POP PUSH1 0x80 PUSH2 0x1B07 DUP9 DUP3 DUP10 ADD PUSH2 0x1A89 JUMP JUMPDEST SWAP2 POP POP SWAP3 SWAP6 POP SWAP3 SWAP6 SWAP1 SWAP4 POP JUMP JUMPDEST PUSH0 DUP1 REVERT JUMPDEST PUSH0 DUP2 SWAP1 POP DUP3 PUSH1 0x20 PUSH1 0x8 MUL DUP3 ADD GT ISZERO PUSH2 0x1B33 JUMPI PUSH2 0x1B32 PUSH2 0x1B14 JUMP JUMPDEST JUMPDEST SWAP3 SWAP2 POP POP JUMP JUMPDEST PUSH0 DUP1 PUSH0 DUP1 PUSH0 DUP1 PUSH0 PUSH2 0x1C0 DUP9 DUP11 SUB SLT ISZERO PUSH2 0x1B55 JUMPI PUSH2 0x1B54 PUSH2 0x191E JUMP JUMPDEST JUMPDEST PUSH0 PUSH2 0x1B62 DUP11 DUP3 DUP12 ADD PUSH2 0x19E8 JUMP JUMPDEST SWAP8 POP POP PUSH1 0x20 PUSH2 0x1B73 DUP11 DUP3 DUP12 ADD PUSH2 0x19E8 JUMP JUMPDEST SWAP7 POP POP PUSH1 0x40 PUSH2 0x1B84 DUP11 DUP3 DUP12 ADD PUSH2 0x1A89 JUMP JUMPDEST SWAP6 POP POP PUSH1 0x60 PUSH2 0x1B95 DUP11 DUP3 DUP12 ADD PUSH2 0x1A56 JUMP JUMPDEST SWAP5 POP POP PUSH1 0x80 PUSH2 0x1BA6 DUP11 DUP3 DUP12 ADD PUSH2 0x1A1B JUMP JUMPDEST SWAP4 POP POP PUSH1 0xA0 PUSH2 0x1BB7 DUP11 DUP3 DUP12 ADD PUSH2 0x1A1B JUMP JUMPDEST SWAP3 POP POP PUSH1 0xC0 PUSH2 0x1BC8 DUP11 DUP3 DUP12 ADD PUSH2 0x1B18 JUMP JUMPDEST SWAP2 POP POP SWAP3 SWAP6 SWAP9 SWAP2 SWAP5 SWAP8 POP SWAP3 SWAP6 POP JUMP JUMPDEST PUSH0 DUP1 PUSH0 DUP1 PUSH0 PUSH2 0x180 DUP7 DUP9 SUB SLT ISZERO PUSH2 0x1BF1 JUMPI PUSH2 0x1BF0 PUSH2 0x191E JUMP JUMPDEST JUMPDEST PUSH0 PUSH2 0x1BFE DUP9 DUP3 DUP10 ADD PUSH2 0x19E8 JUMP JUMPDEST SWAP6 POP POP PUSH1 0x20 PUSH2 0x1C0F DUP9 DUP3 DUP10 ADD PUSH2 0x1A56 JUMP JUMPDEST SWAP5 POP POP PUSH1 0x40 PUSH2 0x1C20 DUP9 DUP3 DUP10 ADD PUSH2 0x1A1B JUMP JUMPDEST SWAP4 POP POP PUSH1 0x60 PUSH2 0x1C31 DUP9 DUP3 DUP10 ADD PUSH2 0x1A1B JUMP JUMPDEST SWAP3 POP POP PUSH1 0x80 PUSH2 0x1C42 DUP9 DUP3 DUP10 ADD PUSH2 0x1B18 JUMP JUMPDEST SWAP2 POP POP SWAP3 SWAP6 POP SWAP3 SWAP6 SWAP1 SWAP4 POP JUMP JUMPDEST PUSH0 PUSH1 0x20 DUP3 DUP5 SUB SLT ISZERO PUSH2 0x1C64 JUMPI PUSH2 0x1C63 PUSH2 0x191E JUMP JUMPDEST JUMPDEST PUSH0 PUSH2 0x1C71 DUP5 DUP3 DUP6 ADD PUSH2 0x19E8 JUMP JUMPDEST SWAP2 POP POP SWAP3 SWAP2 POP POP JUMP JUMPDEST PUSH2 0x1C83 DUP2 PUSH2 0x1A6A JUMP JUMPDEST DUP3 MSTORE POP POP JUMP JUMPDEST PUSH0 PUSH1 0x20 DUP3 ADD SWAP1 POP PUSH2 0x1C9C PUSH0 DUP4 ADD DUP5 PUSH2 0x1C7A JUMP JUMPDEST SWAP3 SWAP2 POP POP JUMP JUMPDEST PUSH0 DUP1 PUSH0 PUSH1 0x60 DUP5 DUP7 SUB SLT ISZERO PUSH2 0x1CB9 JUMPI PUSH2 0x1CB8 PUSH2 0x191E JUMP JUMPDEST JUMPDEST PUSH0 PUSH2 0x1CC6 DUP7 DUP3 DUP8 ADD PUSH2 0x19E8 JUMP JUMPDEST SWAP4 POP POP PUSH1 0x20 PUSH2 0x1CD7 DUP7 DUP3 DUP8 ADD PUSH2 0x19E8 JUMP JUMPDEST SWAP3 POP POP PUSH1 0x40 PUSH2 0x1CE8 DUP7 DUP3 DUP8 ADD PUSH2 0x1A89 JUMP JUMPDEST SWAP2 POP POP SWAP3 POP SWAP3 POP SWAP3 JUMP JUMPDEST PUSH0 DUP1 PUSH0 DUP1 PUSH0 PUSH1 0xA0 DUP7 DUP9 SUB SLT ISZERO PUSH2 0x1D0B JUMPI PUSH2 0x1D0A PUSH2 0x191E JUMP JUMPDEST JUMPDEST PUSH0 PUSH2 0x1D18 DUP9 DUP3 DUP10 ADD PUSH2 0x19E8 JUMP JUMPDEST SWAP6 POP POP PUSH1 0x20 PUSH2 0x1D29 DUP9 DUP3 DUP10 ADD PUSH2 0x1A89 JUMP JUMPDEST SWAP5 POP POP PUSH1 0x40 PUSH2 0x1D3A DUP9 DUP3 DUP10 ADD PUSH2 0x1A1B JUMP JUMPDEST SWAP4 POP POP PUSH1 0x60 PUSH2 0x1D4B DUP9 DUP3 DUP10 ADD PUSH2 0x1A1B JUMP JUMPDEST SWAP3 POP POP PUSH1 0x80 PUSH2 0x1D5C DUP9 DUP3 DUP10 ADD PUSH2 0x1A56 JUMP JUMPDEST SWAP2 POP POP SWAP3 SWAP6 POP SWAP3 SWAP6 SWAP1 SWAP4 POP JUMP JUMPDEST PUSH2 0x1D72 DUP2 PUSH2 0x1A2F JUMP JUMPDEST DUP3 MSTORE POP POP JUMP JUMPDEST PUSH0 PUSH1 0x20 DUP3 ADD SWAP1 POP PUSH2 0x1D8B PUSH0 DUP4 ADD DUP5 PUSH2 0x1D69 JUMP JUMPDEST SWAP3 SWAP2 POP POP JUMP JUMPDEST PUSH0 DUP2 MLOAD SWAP1 POP PUSH2 0x1D9F DUP2 PUSH2 0x1A05 JUMP JUMPDEST SWAP3 SWAP2 POP POP JUMP JUMPDEST PUSH0 PUSH1 0x20 DUP3 DUP5 SUB SLT ISZERO PUSH2 0x1DBA JUMPI PUSH2 0x1DB9 PUSH2 0x191E JUMP JUMPDEST JUMPDEST PUSH0 PUSH2 0x1DC7 DUP5 DUP3 DUP6 ADD PUSH2 0x1D91 JUMP JUMPDEST SWAP2 POP POP SWAP3 SWAP2 POP POP JUMP JUMPDEST PUSH0 DUP2 SWAP1 POP SWAP2 SWAP1 POP JUMP JUMPDEST PUSH0 PUSH2 0x1DF3 PUSH2 0x1DEE PUSH2 0x1DE9 DUP5 PUSH2 0x1922 JUMP JUMPDEST PUSH2 0x1DD0 JUMP JUMPDEST PUSH2 0x1922 JUMP JUMPDEST SWAP1 POP SWAP2 SWAP1 POP JUMP JUMPDEST PUSH0 PUSH2 0x1E04 DUP3 PUSH2 0x1DD9 JUMP JUMPDEST SWAP1 POP SWAP2 SWAP1 POP JUMP JUMPDEST PUSH0 PUSH2 0x1E15 DUP3 PUSH2 0x1DFA JUMP JUMPDEST SWAP1 POP SWAP2 SWAP1 POP JUMP JUMPDEST PUSH2 0x1E25 DUP2 PUSH2 0x1E0B JUMP JUMPDEST DUP3 MSTORE POP POP JUMP JUMPDEST PUSH2 0x1E34 DUP2 PUSH2 0x19FC JUMP JUMPDEST DUP3 MSTORE POP POP JUMP JUMPDEST PUSH0 PUSH1 0x40 DUP3 ADD SWAP1 POP PUSH2 0x1E4D PUSH0 DUP4 ADD DUP6 PUSH2 0x1E1C JUMP JUMPDEST PUSH2 0x1E5A PUSH1 0x20 DUP4 ADD DUP5 PUSH2 0x1E2B JUMP JUMPDEST SWAP4 SWAP3 POP POP POP JUMP JUMPDEST PUSH0 DUP2 ISZERO ISZERO SWAP1 POP SWAP2 SWAP1 POP JUMP JUMPDEST PUSH2 0x1E75 DUP2 PUSH2 0x1E61 JUMP JUMPDEST DUP2 EQ PUSH2 0x1E7F JUMPI PUSH0 DUP1 REVERT JUMPDEST POP JUMP JUMPDEST PUSH0 DUP2 MLOAD SWAP1 POP PUSH2 0x1E90 DUP2 PUSH2 0x1E6C JUMP JUMPDEST SWAP3 SWAP2 POP POP JUMP JUMPDEST PUSH0 PUSH1 0x20 DUP3 DUP5 SUB SLT ISZERO PUSH2 0x1EAB JUMPI PUSH2 0x1EAA PUSH2 0x191E JUMP JUMPDEST JUMPDEST PUSH0 PUSH2 0x1EB8 DUP5 DUP3 DUP6 ADD PUSH2 0x1E82 JUMP JUMPDEST SWAP2 POP POP SWAP3 SWAP2 POP POP JUMP JUMPDEST PUSH0 DUP2 PUSH1 0x60 SHL SWAP1 POP SWAP2 SWAP1 POP JUMP JUMPDEST PUSH0 PUSH2 0x1ED7 DUP3 PUSH2 0x1EC1 JUMP JUMPDEST SWAP1 POP SWAP2 SWAP1 POP JUMP JUMPDEST PUSH0 PUSH2 0x1EE8 DUP3 PUSH2 0x1ECD JUMP JUMPDEST SWAP1 POP SWAP2 SWAP1 POP JUMP JUMPDEST PUSH2 0x1F00 PUSH2 0x1EFB DUP3 PUSH2 0x1A2F JUMP JUMPDEST PUSH2 0x1EDE JUMP JUMPDEST DUP3 MSTORE POP POP JUMP JUMPDEST PUSH0 PUSH2 0x1F11 DUP3 DUP5 PUSH2 0x1EEF JUMP JUMPDEST PUSH1 0x14 DUP3 ADD SWAP2 POP DUP2 SWAP1 POP SWAP3 SWAP2 POP POP JUMP JUMPDEST DUP3 DUP2 DUP4 CALLDATACOPY POP POP POP JUMP JUMPDEST PUSH2 0x1F36 PUSH2 0x100 DUP4 DUP4 PUSH2 0x1F20 JUMP JUMPDEST POP POP JUMP JUMPDEST PUSH0 PUSH2 0x1A0 DUP3 ADD SWAP1 POP PUSH2 0x1F4E PUSH0 DUP4 ADD DUP10 PUSH2 0x1E2B JUMP JUMPDEST PUSH2 0x1F5B PUSH1 0x20 DUP4 ADD DUP9 PUSH2 0x1E2B JUMP JUMPDEST PUSH2 0x1F68 PUSH1 0x40 DUP4 ADD DUP8 PUSH2 0x1E2B JUMP JUMPDEST PUSH2 0x1F75 PUSH1 0x60 DUP4 ADD DUP7 PUSH2 0x1E2B JUMP JUMPDEST PUSH2 0x1F82 PUSH1 0x80 DUP4 ADD DUP6 PUSH2 0x1E2B JUMP JUMPDEST PUSH2 0x1F8F PUSH1 0xA0 DUP4 ADD DUP5 PUSH2 0x1F29 JUMP JUMPDEST SWAP8 SWAP7 POP POP POP POP POP POP POP JUMP JUMPDEST PUSH32 0x4E487B7100000000000000000000000000000000000000000000000000000000 PUSH0 MSTORE PUSH1 0x11 PUSH1 0x4 MSTORE PUSH1 0x24 PUSH0 REVERT JUMPDEST PUSH0 PUSH2 0x1FD1 DUP3 PUSH2 0x19FC JUMP JUMPDEST SWAP2 POP PUSH2 0x1FDC DUP4 PUSH2 0x19FC JUMP JUMPDEST SWAP3 POP DUP3 DUP3 ADD SWAP1 POP DUP1 DUP3 GT ISZERO PUSH2 0x1FF4 JUMPI PUSH2 0x1FF3 PUSH2 0x1F9A JUMP JUMPDEST JUMPDEST SWAP3 SWAP2 POP POP JUMP JUMPDEST PUSH0 PUSH2 0x2004 DUP3 PUSH2 0x19FC JUMP JUMPDEST SWAP2 POP PUSH2 0x200F DUP4 PUSH2 0x19FC JUMP JUMPDEST SWAP3 POP DUP3 DUP3 MUL PUSH2 0x201D DUP2 PUSH2 0x19FC JUMP JUMPDEST SWAP2 POP DUP3 DUP3 DIV DUP5 EQ DUP4 ISZERO OR PUSH2 0x2034 JUMPI PUSH2 0x2033 PUSH2 0x1F9A JUMP JUMPDEST JUMPDEST POP SWAP3 SWAP2 POP POP JUMP JUMPDEST PUSH32 0x4E487B7100000000000000000000000000000000000000000000000000000000 PUSH0 MSTORE PUSH1 0x12 PUSH1 0x4 MSTORE PUSH1 0x24 PUSH0 REVERT JUMPDEST PUSH0 PUSH2 0x2072 DUP3 PUSH2 0x19FC JUMP JUMPDEST SWAP2 POP PUSH2 0x207D DUP4 PUSH2 0x19FC JUMP JUMPDEST SWAP3 POP DUP3 PUSH2 0x208D JUMPI PUSH2 0x208C PUSH2 0x203B JUMP JUMPDEST JUMPDEST DUP3 DUP3 DIV SWAP1 POP SWAP3 SWAP2 POP POP JUMP JUMPDEST PUSH0 PUSH2 0x20A2 DUP3 PUSH2 0x19FC JUMP JUMPDEST SWAP2 POP PUSH32 0xFFFFFFFFFFFFFFFFFFFFFFFFFFFFFFFFFFFFFFFFFFFFFFFFFFFFFFFFFFFFFFFF DUP3 SUB PUSH2 0x20D4 JUMPI PUSH2 0x20D3 PUSH2 0x1F9A JUMP JUMPDEST JUMPDEST PUSH1 0x1 DUP3 ADD SWAP1 POP SWAP2 SWAP1 POP JUMP JUMPDEST PUSH0 PUSH1 0x60 DUP3 ADD SWAP1 POP PUSH2 0x20F2 PUSH0 DUP4 ADD DUP7 PUSH2 0x1D69 JUMP JUMPDEST PUSH2 0x20FF PUSH1 0x20 DUP4 ADD DUP6 PUSH2 0x1D69 JUMP JUMPDEST PUSH2 0x210C PUSH1 0x40 DUP4 ADD DUP5 PUSH2 0x1E2B JUMP JUMPDEST SWAP5 SWAP4 POP POP POP POP JUMP JUMPDEST PUSH0 PUSH1 0x40 DUP3 ADD SWAP1 POP PUSH2 0x2127 PUSH0 DUP4 ADD DUP6 PUSH2 0x1D69 JUMP JUMPDEST PUSH2 0x2134 PUSH1 0x20 DUP4 ADD DUP5 PUSH2 0x1E2B JUMP JUMPDEST SWAP4 SWAP3 POP POP POP JUMP JUMPDEST PUSH0 DUP2 MLOAD SWAP1 POP SWAP2 SWAP1 POP JUMP JUMPDEST PUSH0 DUP2 SWAP1 POP SWAP3 SWAP2 POP POP JUMP JUMPDEST DUP3 DUP2 DUP4 MCOPY PUSH0 DUP4 DUP4 ADD MSTORE POP POP POP JUMP JUMPDEST PUSH0 PUSH2 0x2167 DUP3 PUSH2 0x213B JUMP JUMPDEST PUSH2 0x2171 DUP2 DUP6 PUSH2 0x2145 JUMP JUMPDEST SWAP4 POP PUSH2 0x2181 DUP2 DUP6 PUSH1 0x20 DUP7 ADD PUSH2 0x214F JUMP JUMPDEST DUP1 DUP5 ADD SWAP2 POP POP SWAP3 SWAP2 POP POP JUMP JUMPDEST PUSH0 PUSH2 0x2198 DUP3 DUP5 PUSH2 0x215D JUMP JUMPDEST SWAP2 POP DUP2 SWAP1 POP SWAP3 SWAP2 POP POP JUMP INVALID LOG2 PUSH5 0x6970667358 0x22 SLT KECCAK256 0xDF MSTORE GASLIMIT PC CALL 0xDE 0x27 0xF9 SWAP9 SWAP14 PUSH8 0xF6692296577E7586 OR 0xCD 0xAD JUMPDEST PUSH27 0xB4D154768077A42B64736F6C634300081A00330000000000000000 "
				},
				"gasEstimates": {
					"creation": {
						"codeDepositCost": "1733000",
						"executionCost": "infinite",
						"totalCost": "infinite"
					},
					"external": {
						"addProduct(bytes16,bytes32,uint256,uint256,address)": "infinite",
						"hashOf(bytes16)": "2865",
						"hashOfReview(bytes16)": "2888",
						"makePayment(bytes16)": "infinite",
						"makePaymentWorldId(bytes16,address,uint256,uint256,uint256[8])": "infinite",
						"payout(address)": "infinite",
						"removeProduct(bytes16)": "90562",
						"submitReview(bytes16,bytes16,bytes32,address,uint256,uint256,uint256[8])": "infinite",
						"submitReviewBasic(bytes16,bytes16,bytes32)": "infinite",
						"updateProduct(bytes16,uint256,uint256,address,bytes32)": "infinite"
					}
				},
				"methodIdentifiers": {
					"addProduct(bytes16,bytes32,uint256,uint256,address)": "beec5054",
					"hashOf(bytes16)": "bddbed0b",
					"hashOfReview(bytes16)": "571702a2",
					"makePayment(bytes16)": "74775266",
					"makePaymentWorldId(bytes16,address,uint256,uint256,uint256[8])": "4778f735",
					"payout(address)": "0b7e9c44",
					"removeProduct(bytes16)": "5ec4a9cd",
					"submitReview(bytes16,bytes16,bytes32,address,uint256,uint256,uint256[8])": "2a06ea2d",
					"submitReviewBasic(bytes16,bytes16,bytes32)": "acc4c198",
					"updateProduct(bytes16,uint256,uint256,address,bytes32)": "113406fe"
				}
			},
			"storageLayout": {
				"storage": [
					{
						"astId": 42,
						"contract": "src/Web3Checkout.sol:Web3Checkout",
						"label": "products",
						"offset": 0,
						"slot": "0",
						"type": "t_mapping(t_bytes16,t_struct(ProductMetadata)20_storage)"
					},
					{
						"astId": 47,
						"contract": "src/Web3Checkout.sol:Web3Checkout",
						"label": "reviews",
						"offset": 0,
						"slot": "1",
						"type": "t_mapping(t_bytes16,t_struct(Review)27_storage)"
					},
					{
						"astId": 53,
						"contract": "src/Web3Checkout.sol:Web3Checkout",
						"label": "purchase_counts_addr",
						"offset": 0,
						"slot": "2",
						"type": "t_mapping(t_address,t_mapping(t_bytes16,t_uint256))"
					},
					{
						"astId": 59,
						"contract": "src/Web3Checkout.sol:Web3Checkout",
						"label": "purchase_counts_worldid",
						"offset": 0,
						"slot": "3",
						"type": "t_mapping(t_uint256,t_mapping(t_bytes16,t_uint256))"
					},
					{
						"astId": 65,
						"contract": "src/Web3Checkout.sol:Web3Checkout",
						"label": "reviews_submitted",
						"offset": 0,
						"slot": "4",
						"type": "t_mapping(t_uint256,t_mapping(t_bytes16,t_bool))"
					},
					{
						"astId": 71,
						"contract": "src/Web3Checkout.sol:Web3Checkout",
						"label": "reviews_submitted2",
						"offset": 0,
						"slot": "5",
						"type": "t_mapping(t_address,t_mapping(t_bytes16,t_bool))"
					},
					{
						"astId": 83,
						"contract": "src/Web3Checkout.sol:Web3Checkout",
						"label": "nullifierHashes",
						"offset": 0,
						"slot": "6",
						"type": "t_mapping(t_uint256,t_bool)"
					}
				],
				"types": {
					"t_address": {
						"encoding": "inplace",
						"label": "address",
						"numberOfBytes": "20"
					},
					"t_bool": {
						"encoding": "inplace",
						"label": "bool",
						"numberOfBytes": "1"
					},
					"t_bytes16": {
						"encoding": "inplace",
						"label": "bytes16",
						"numberOfBytes": "16"
					},
					"t_bytes32": {
						"encoding": "inplace",
						"label": "bytes32",
						"numberOfBytes": "32"
					},
					"t_mapping(t_address,t_mapping(t_bytes16,t_bool))": {
						"encoding": "mapping",
						"key": "t_address",
						"label": "mapping(address => mapping(bytes16 => bool))",
						"numberOfBytes": "32",
						"value": "t_mapping(t_bytes16,t_bool)"
					},
					"t_mapping(t_address,t_mapping(t_bytes16,t_uint256))": {
						"encoding": "mapping",
						"key": "t_address",
						"label": "mapping(address => mapping(bytes16 => uint256))",
						"numberOfBytes": "32",
						"value": "t_mapping(t_bytes16,t_uint256)"
					},
					"t_mapping(t_bytes16,t_bool)": {
						"encoding": "mapping",
						"key": "t_bytes16",
						"label": "mapping(bytes16 => bool)",
						"numberOfBytes": "32",
						"value": "t_bool"
					},
					"t_mapping(t_bytes16,t_struct(ProductMetadata)20_storage)": {
						"encoding": "mapping",
						"key": "t_bytes16",
						"label": "mapping(bytes16 => struct ProductMetadata)",
						"numberOfBytes": "32",
						"value": "t_struct(ProductMetadata)20_storage"
					},
					"t_mapping(t_bytes16,t_struct(Review)27_storage)": {
						"encoding": "mapping",
						"key": "t_bytes16",
						"label": "mapping(bytes16 => struct Review)",
						"numberOfBytes": "32",
						"value": "t_struct(Review)27_storage"
					},
					"t_mapping(t_bytes16,t_uint256)": {
						"encoding": "mapping",
						"key": "t_bytes16",
						"label": "mapping(bytes16 => uint256)",
						"numberOfBytes": "32",
						"value": "t_uint256"
					},
					"t_mapping(t_uint256,t_bool)": {
						"encoding": "mapping",
						"key": "t_uint256",
						"label": "mapping(uint256 => bool)",
						"numberOfBytes": "32",
						"value": "t_bool"
					},
					"t_mapping(t_uint256,t_mapping(t_bytes16,t_bool))": {
						"encoding": "mapping",
						"key": "t_uint256",
						"label": "mapping(uint256 => mapping(bytes16 => bool))",
						"numberOfBytes": "32",
						"value": "t_mapping(t_bytes16,t_bool)"
					},
					"t_mapping(t_uint256,t_mapping(t_bytes16,t_uint256))": {
						"encoding": "mapping",
						"key": "t_uint256",
						"label": "mapping(uint256 => mapping(bytes16 => uint256))",
						"numberOfBytes": "32",
						"value": "t_mapping(t_bytes16,t_uint256)"
					},
					"t_struct(ProductMetadata)20_storage": {
						"encoding": "inplace",
						"label": "struct ProductMetadata",
						"members": [
							{
								"astId": 9,
								"contract": "src/Web3Checkout.sol:Web3Checkout",
								"label": "id",
								"offset": 0,
								"slot": "0",
								"type": "t_bytes16"
							},
							{
								"astId": 11,
								"contract": "src/Web3Checkout.sol:Web3Checkout",
								"label": "h",
								"offset": 0,
								"slot": "1",
								"type": "t_bytes32"
							},
							{
								"astId": 13,
								"contract": "src/Web3Checkout.sol:Web3Checkout",
								"label": "price",
								"offset": 0,
								"slot": "2",
								"type": "t_uint256"
							},
							{
								"astId": 15,
								"contract": "src/Web3Checkout.sol:Web3Checkout",
								"label": "purchase_limit",
								"offset": 0,
								"slot": "3",
								"type": "t_uint256"
							},
							{
								"astId": 17,
								"contract": "src/Web3Checkout.sol:Web3Checkout",
								"label": "payee",
								"offset": 0,
								"slot": "4",
								"type": "t_address"
							},
							{
								"astId": 19,
								"contract": "src/Web3Checkout.sol:Web3Checkout",
								"label": "controller",
								"offset": 0,
								"slot": "5",
								"type": "t_address"
							}
						],
						"numberOfBytes": "192"
					},
					"t_struct(Review)27_storage": {
						"encoding": "inplace",
						"label": "struct Review",
						"members": [
							{
								"astId": 22,
								"contract": "src/Web3Checkout.sol:Web3Checkout",
								"label": "id",
								"offset": 0,
								"slot": "0",
								"type": "t_bytes16"
							},
							{
								"astId": 24,
								"contract": "src/Web3Checkout.sol:Web3Checkout",
								"label": "h",
								"offset": 0,
								"slot": "1",
								"type": "t_bytes32"
							},
							{
								"astId": 26,
								"contract": "src/Web3Checkout.sol:Web3Checkout",
								"label": "product_id",
								"offset": 0,
								"slot": "2",
								"type": "t_bytes16"
							}
						],
						"numberOfBytes": "96"
					},
					"t_uint256": {
						"encoding": "inplace",
						"label": "uint256",
						"numberOfBytes": "32"
					}
				}
			},
			"userdoc": {
				"kind": "user",
				"methods": {},
				"version": 1
			}
		}
	}
}